{
	"RPS.sol": {
		"RPS": {
			"abi": [
				{
					"anonymous": false,
					"inputs": [
						{
							"indexed": false,
							"internalType": "address",
							"name": "sender",
							"type": "address"
						},
						{
							"indexed": false,
							"internalType": "bytes32",
							"name": "dataHash",
							"type": "bytes32"
						},
						{
							"indexed": false,
							"internalType": "uint64",
							"name": "block",
							"type": "uint64"
						}
					],
					"name": "CommitHash",
					"type": "event"
				},
				{
					"anonymous": false,
					"inputs": [
						{
							"indexed": false,
							"internalType": "address",
							"name": "sender",
							"type": "address"
						},
						{
							"indexed": false,
							"internalType": "bytes32",
							"name": "answer",
							"type": "bytes32"
						},
						{
							"indexed": false,
							"internalType": "bytes32",
							"name": "salt",
							"type": "bytes32"
						}
					],
					"name": "RevealAnswer",
					"type": "event"
				},
				{
					"anonymous": false,
					"inputs": [
						{
							"indexed": false,
							"internalType": "address",
							"name": "sender",
							"type": "address"
						},
						{
							"indexed": false,
							"internalType": "bytes32",
							"name": "revealHash",
							"type": "bytes32"
						},
						{
							"indexed": false,
							"internalType": "uint256",
							"name": "random",
							"type": "uint256"
						}
					],
					"name": "RevealHash",
					"type": "event"
				},
				{
					"inputs": [],
					"name": "addPlayer",
					"outputs": [],
					"stateMutability": "payable",
					"type": "function"
				},
				{
					"inputs": [],
					"name": "checkTimeOut",
					"outputs": [],
					"stateMutability": "nonpayable",
					"type": "function"
				},
				{
					"inputs": [
						{
							"internalType": "uint256",
							"name": "choice",
							"type": "uint256"
						},
						{
							"internalType": "uint256",
							"name": "password",
							"type": "uint256"
						}
					],
					"name": "choiceHash",
					"outputs": [
						{
							"internalType": "bytes32",
							"name": "",
							"type": "bytes32"
						}
					],
					"stateMutability": "view",
					"type": "function"
				},
				{
					"inputs": [
						{
							"internalType": "bytes32",
							"name": "hashedChoice",
							"type": "bytes32"
						}
					],
					"name": "input",
					"outputs": [],
					"stateMutability": "nonpayable",
					"type": "function"
				},
				{
					"inputs": [],
					"name": "limitTime",
					"outputs": [
						{
							"internalType": "uint256",
							"name": "",
							"type": "uint256"
						}
					],
					"stateMutability": "view",
					"type": "function"
				},
				{
					"inputs": [],
					"name": "numInput",
					"outputs": [
						{
							"internalType": "uint256",
							"name": "",
							"type": "uint256"
						}
					],
					"stateMutability": "view",
					"type": "function"
				},
				{
					"inputs": [],
					"name": "numPlayer",
					"outputs": [
						{
							"internalType": "uint256",
							"name": "",
							"type": "uint256"
						}
					],
					"stateMutability": "view",
					"type": "function"
				},
				{
					"inputs": [],
					"name": "numReveal",
					"outputs": [
						{
							"internalType": "uint256",
							"name": "",
							"type": "uint256"
						}
					],
					"stateMutability": "view",
					"type": "function"
				},
				{
					"inputs": [
						{
							"internalType": "uint256",
							"name": "",
							"type": "uint256"
						}
					],
					"name": "player",
					"outputs": [
						{
							"internalType": "uint256",
							"name": "choice",
							"type": "uint256"
						},
						{
							"internalType": "address",
							"name": "addr",
							"type": "address"
						}
					],
					"stateMutability": "view",
					"type": "function"
				},
				{
					"inputs": [
						{
							"internalType": "address",
							"name": "",
							"type": "address"
						}
					],
					"name": "playerIndex",
					"outputs": [
						{
							"internalType": "uint256",
							"name": "",
							"type": "uint256"
						}
					],
					"stateMutability": "view",
					"type": "function"
				},
				{
					"inputs": [
						{
							"internalType": "uint256",
							"name": "choice",
							"type": "uint256"
						},
						{
							"internalType": "uint256",
							"name": "password",
							"type": "uint256"
						}
					],
					"name": "revealsChoice",
					"outputs": [],
					"stateMutability": "nonpayable",
					"type": "function"
				},
				{
					"inputs": [],
					"name": "reward",
					"outputs": [
						{
							"internalType": "uint256",
							"name": "",
							"type": "uint256"
						}
					],
					"stateMutability": "view",
					"type": "function"
				},
				{
					"inputs": [],
					"name": "updatedTimestamp",
					"outputs": [
						{
							"internalType": "uint256",
							"name": "",
							"type": "uint256"
						}
					],
					"stateMutability": "view",
					"type": "function"
				}
			],
			"devdoc": {
				"kind": "dev",
				"methods": {},
				"version": 1
			},
			"evm": {
				"assembly": "    /* \"RPS.sol\":106:4829  contract RPS is CommitReveal{... */\n  mstore(0x40, 0x80)\n    /* \"CommitReveal.sol\":118:121  100 */\n  0x64\n    /* \"CommitReveal.sol\":97:121  uint8 internal max = 100 */\n  0x00\n  dup1\n  0x0100\n  exp\n  dup2\n  sload\n  dup2\n  0xff\n  mul\n  not\n  and\n  swap1\n  dup4\n  0xff\n  and\n  mul\n  or\n  swap1\n  sstore\n  pop\n    /* \"RPS.sol\":291:292  0 */\n  0x00\n    /* \"RPS.sol\":267:292  uint public numPlayer = 0 */\n  0x02\n  sstore\n    /* \"RPS.sol\":323:324  0 */\n  0x00\n    /* \"RPS.sol\":299:324  uint public numReveal = 0 */\n  0x03\n  sstore\n    /* \"RPS.sol\":352:353  0 */\n  0x00\n    /* \"RPS.sol\":331:353  uint public reward = 0 */\n  0x04\n  sstore\n    /* \"RPS.sol\":384:394  10 minutes */\n  0x0258\n    /* \"RPS.sol\":360:394  uint public limitTime = 10 minutes */\n  0x05\n  sstore\n    /* \"RPS.sol\":555:556  0 */\n  0x00\n    /* \"RPS.sol\":532:556  uint public numInput = 0 */\n  0x09\n  sstore\n    /* \"RPS.sol\":106:4829  contract RPS is CommitReveal{... */\n  callvalue\n  dup1\n  iszero\n  tag_1\n  jumpi\n  0x00\n  dup1\n  revert\ntag_1:\n  pop\n  dataSize(sub_0)\n  dup1\n  dataOffset(sub_0)\n  0x00\n  codecopy\n  0x00\n  return\nstop\n\nsub_0: assembly {\n        /* \"RPS.sol\":106:4829  contract RPS is CommitReveal{... */\n      mstore(0x40, 0x80)\n      jumpi(tag_1, lt(calldatasize, 0x04))\n      shr(0xe0, calldataload(0x00))\n      dup1\n      0x90d5d0c3\n      gt\n      tag_15\n      jumpi\n      dup1\n      0xb577e0bb\n      gt\n      tag_16\n      jumpi\n      dup1\n      0xb577e0bb\n      eq\n      tag_11\n      jumpi\n      dup1\n      0xb7786503\n      eq\n      tag_12\n      jumpi\n      dup1\n      0xc876e615\n      eq\n      tag_13\n      jumpi\n      dup1\n      0xd891f969\n      eq\n      tag_14\n      jumpi\n      jump(tag_1)\n    tag_16:\n      dup1\n      0x90d5d0c3\n      eq\n      tag_8\n      jumpi\n      dup1\n      0x9e0551c6\n      eq\n      tag_9\n      jumpi\n      dup1\n      0xb3b95e30\n      eq\n      tag_10\n      jumpi\n      jump(tag_1)\n    tag_15:\n      dup1\n      0x2764ed\n      eq\n      tag_2\n      jumpi\n      dup1\n      0x086f7815\n      eq\n      tag_3\n      jumpi\n      dup1\n      0x228cb733\n      eq\n      tag_4\n      jumpi\n      dup1\n      0x27b5db8a\n      eq\n      tag_5\n      jumpi\n      dup1\n      0x7563973a\n      eq\n      tag_6\n      jumpi\n      dup1\n      0x885c7d36\n      eq\n      tag_7\n      jumpi\n    tag_1:\n      0x00\n      dup1\n      revert\n        /* \"RPS.sol\":401:429  uint public updatedTimestamp */\n    tag_2:\n      callvalue\n      dup1\n      iszero\n      tag_17\n      jumpi\n      0x00\n      dup1\n      revert\n    tag_17:\n      pop\n      tag_18\n      tag_19\n      jump\t// in\n    tag_18:\n      mload(0x40)\n      tag_20\n      swap2\n      swap1\n      tag_21\n      jump\t// in\n    tag_20:\n      mload(0x40)\n      dup1\n      swap2\n      sub\n      swap1\n      return\n        /* \"RPS.sol\":532:556  uint public numInput = 0 */\n    tag_3:\n      callvalue\n      dup1\n      iszero\n      tag_22\n      jumpi\n      0x00\n      dup1\n      revert\n    tag_22:\n      pop\n      tag_23\n      tag_24\n      jump\t// in\n    tag_23:\n      mload(0x40)\n      tag_25\n      swap2\n      swap1\n      tag_21\n      jump\t// in\n    tag_25:\n      mload(0x40)\n      dup1\n      swap2\n      sub\n      swap1\n      return\n        /* \"RPS.sol\":331:353  uint public reward = 0 */\n    tag_4:\n      callvalue\n      dup1\n      iszero\n      tag_26\n      jumpi\n      0x00\n      dup1\n      revert\n    tag_26:\n      pop\n      tag_27\n      tag_28\n      jump\t// in\n    tag_27:\n      mload(0x40)\n      tag_29\n      swap2\n      swap1\n      tag_21\n      jump\t// in\n    tag_29:\n      mload(0x40)\n      dup1\n      swap2\n      sub\n      swap1\n      return\n        /* \"RPS.sol\":2793:3140  function addPlayer() public payable {... */\n    tag_5:\n      tag_30\n      tag_31\n      jump\t// in\n    tag_30:\n      stop\n        /* \"RPS.sol\":3365:3594  function choiceHash(uint choice,uint password) public view returns(bytes32) {... */\n    tag_6:\n      callvalue\n      dup1\n      iszero\n      tag_32\n      jumpi\n      0x00\n      dup1\n      revert\n    tag_32:\n      pop\n      tag_33\n      0x04\n      dup1\n      calldatasize\n      sub\n      dup2\n      add\n      swap1\n      tag_34\n      swap2\n      swap1\n      tag_35\n      jump\t// in\n    tag_34:\n      tag_36\n      jump\t// in\n    tag_33:\n      mload(0x40)\n      tag_37\n      swap2\n      swap1\n      tag_38\n      jump\t// in\n    tag_37:\n      mload(0x40)\n      dup1\n      swap2\n      sub\n      swap1\n      return\n        /* \"RPS.sol\":481:525  mapping (address => uint) public playerIndex */\n    tag_7:\n      callvalue\n      dup1\n      iszero\n      tag_39\n      jumpi\n      0x00\n      dup1\n      revert\n    tag_39:\n      pop\n      tag_40\n      0x04\n      dup1\n      calldatasize\n      sub\n      dup2\n      add\n      swap1\n      tag_41\n      swap2\n      swap1\n      tag_42\n      jump\t// in\n    tag_41:\n      tag_43\n      jump\t// in\n    tag_40:\n      mload(0x40)\n      tag_44\n      swap2\n      swap1\n      tag_21\n      jump\t// in\n    tag_44:\n      mload(0x40)\n      dup1\n      swap2\n      sub\n      swap1\n      return\n        /* \"RPS.sol\":267:292  uint public numPlayer = 0 */\n    tag_8:\n      callvalue\n      dup1\n      iszero\n      tag_45\n      jumpi\n      0x00\n      dup1\n      revert\n    tag_45:\n      pop\n      tag_46\n      tag_47\n      jump\t// in\n    tag_46:\n      mload(0x40)\n      tag_48\n      swap2\n      swap1\n      tag_21\n      jump\t// in\n    tag_48:\n      mload(0x40)\n      dup1\n      swap2\n      sub\n      swap1\n      return\n        /* \"RPS.sol\":436:474  mapping (uint => Player) public player */\n    tag_9:\n      callvalue\n      dup1\n      iszero\n      tag_49\n      jumpi\n      0x00\n      dup1\n      revert\n    tag_49:\n      pop\n      tag_50\n      0x04\n      dup1\n      calldatasize\n      sub\n      dup2\n      add\n      swap1\n      tag_51\n      swap2\n      swap1\n      tag_52\n      jump\t// in\n    tag_51:\n      tag_53\n      jump\t// in\n    tag_50:\n      mload(0x40)\n      tag_54\n      swap3\n      swap2\n      swap1\n      tag_55\n      jump\t// in\n    tag_54:\n      mload(0x40)\n      dup1\n      swap2\n      sub\n      swap1\n      return\n        /* \"RPS.sol\":360:394  uint public limitTime = 10 minutes */\n    tag_10:\n      callvalue\n      dup1\n      iszero\n      tag_56\n      jumpi\n      0x00\n      dup1\n      revert\n    tag_56:\n      pop\n      tag_57\n      tag_58\n      jump\t// in\n    tag_57:\n      mload(0x40)\n      tag_59\n      swap2\n      swap1\n      tag_21\n      jump\t// in\n    tag_59:\n      mload(0x40)\n      dup1\n      swap2\n      sub\n      swap1\n      return\n        /* \"RPS.sol\":3600:3990  function revealsChoice(uint choice,uint password) public{... */\n    tag_11:\n      callvalue\n      dup1\n      iszero\n      tag_60\n      jumpi\n      0x00\n      dup1\n      revert\n    tag_60:\n      pop\n      tag_61\n      0x04\n      dup1\n      calldatasize\n      sub\n      dup2\n      add\n      swap1\n      tag_62\n      swap2\n      swap1\n      tag_35\n      jump\t// in\n    tag_62:\n      tag_63\n      jump\t// in\n    tag_61:\n      stop\n        /* \"RPS.sol\":702:2785  function checkTimeOut() public {... */\n    tag_12:\n      callvalue\n      dup1\n      iszero\n      tag_64\n      jumpi\n      0x00\n      dup1\n      revert\n    tag_64:\n      pop\n      tag_65\n      tag_66\n      jump\t// in\n    tag_65:\n      stop\n        /* \"RPS.sol\":299:324  uint public numReveal = 0 */\n    tag_13:\n      callvalue\n      dup1\n      iszero\n      tag_67\n      jumpi\n      0x00\n      dup1\n      revert\n    tag_67:\n      pop\n      tag_68\n      tag_69\n      jump\t// in\n    tag_68:\n      mload(0x40)\n      tag_70\n      swap2\n      swap1\n      tag_21\n      jump\t// in\n    tag_70:\n      mload(0x40)\n      dup1\n      swap2\n      sub\n      swap1\n      return\n        /* \"RPS.sol\":3148:3357  function input(bytes32 hashedChoice) public  {... */\n    tag_14:\n      callvalue\n      dup1\n      iszero\n      tag_71\n      jumpi\n      0x00\n      dup1\n      revert\n    tag_71:\n      pop\n      tag_72\n      0x04\n      dup1\n      calldatasize\n      sub\n      dup2\n      add\n      swap1\n      tag_73\n      swap2\n      swap1\n      tag_74\n      jump\t// in\n    tag_73:\n      tag_75\n      jump\t// in\n    tag_72:\n      stop\n        /* \"RPS.sol\":401:429  uint public updatedTimestamp */\n    tag_19:\n      sload(0x06)\n      dup2\n      jump\t// out\n        /* \"RPS.sol\":532:556  uint public numInput = 0 */\n    tag_24:\n      sload(0x09)\n      dup2\n      jump\t// out\n        /* \"RPS.sol\":331:353  uint public reward = 0 */\n    tag_28:\n      sload(0x04)\n      dup2\n      jump\t// out\n        /* \"RPS.sol\":2793:3140  function addPlayer() public payable {... */\n    tag_31:\n        /* \"RPS.sol\":2860:2861  2 */\n      0x02\n        /* \"RPS.sol\":2848:2857  numPlayer */\n      dup1\n      sload\n        /* \"RPS.sol\":2848:2861  numPlayer < 2 */\n      lt\n        /* \"RPS.sol\":2840:2862  require(numPlayer < 2) */\n      tag_77\n      jumpi\n      0x00\n      dup1\n      revert\n    tag_77:\n        /* \"RPS.sol\":2894:2901  1 ether */\n      0x0de0b6b3a7640000\n        /* \"RPS.sol\":2881:2890  msg.value */\n      callvalue\n        /* \"RPS.sol\":2881:2901  msg.value == 1 ether */\n      eq\n        /* \"RPS.sol\":2873:2902  require(msg.value == 1 ether) */\n      tag_78\n      jumpi\n      0x00\n      dup1\n      revert\n    tag_78:\n        /* \"RPS.sol\":2923:2932  msg.value */\n      callvalue\n        /* \"RPS.sol\":2913:2919  reward */\n      0x04\n      0x00\n        /* \"RPS.sol\":2913:2932  reward += msg.value */\n      dup3\n      dup3\n      sload\n      tag_79\n      swap2\n      swap1\n      tag_80\n      jump\t// in\n    tag_79:\n      swap3\n      pop\n      pop\n      dup2\n      swap1\n      sstore\n      pop\n        /* \"RPS.sol\":2968:2978  msg.sender */\n      caller\n        /* \"RPS.sol\":2943:2949  player */\n      0x07\n        /* \"RPS.sol\":2943:2960  player[numPlayer] */\n      0x00\n        /* \"RPS.sol\":2950:2959  numPlayer */\n      sload(0x02)\n        /* \"RPS.sol\":2943:2960  player[numPlayer] */\n      dup2\n      mstore\n      0x20\n      add\n      swap1\n      dup2\n      mstore\n      0x20\n      add\n      0x00\n      keccak256\n        /* \"RPS.sol\":2943:2965  player[numPlayer].addr */\n      0x01\n      add\n      0x00\n        /* \"RPS.sol\":2943:2978  player[numPlayer].addr = msg.sender */\n      0x0100\n      exp\n      dup2\n      sload\n      dup2\n      0xffffffffffffffffffffffffffffffffffffffff\n      mul\n      not\n      and\n      swap1\n      dup4\n      0xffffffffffffffffffffffffffffffffffffffff\n      and\n      mul\n      or\n      swap1\n      sstore\n      pop\n        /* \"RPS.sol\":3015:3024  numPlayer */\n      sload(0x02)\n        /* \"RPS.sol\":2989:3000  playerIndex */\n      0x08\n        /* \"RPS.sol\":2989:3012  playerIndex[msg.sender] */\n      0x00\n        /* \"RPS.sol\":3001:3011  msg.sender */\n      caller\n        /* \"RPS.sol\":2989:3012  playerIndex[msg.sender] */\n      0xffffffffffffffffffffffffffffffffffffffff\n      and\n      0xffffffffffffffffffffffffffffffffffffffff\n      and\n      dup2\n      mstore\n      0x20\n      add\n      swap1\n      dup2\n      mstore\n      0x20\n      add\n      0x00\n      keccak256\n        /* \"RPS.sol\":2989:3024  playerIndex[msg.sender] = numPlayer */\n      dup2\n      swap1\n      sstore\n      pop\n        /* \"RPS.sol\":3062:3063  3 */\n      0x03\n        /* \"RPS.sol\":3035:3041  player */\n      0x07\n        /* \"RPS.sol\":3035:3052  player[numPlayer] */\n      0x00\n        /* \"RPS.sol\":3042:3051  numPlayer */\n      sload(0x02)\n        /* \"RPS.sol\":3035:3052  player[numPlayer] */\n      dup2\n      mstore\n      0x20\n      add\n      swap1\n      dup2\n      mstore\n      0x20\n      add\n      0x00\n      keccak256\n        /* \"RPS.sol\":3035:3059  player[numPlayer].choice */\n      0x00\n      add\n        /* \"RPS.sol\":3035:3063  player[numPlayer].choice = 3 */\n      dup2\n      swap1\n      sstore\n      pop\n        /* \"RPS.sol\":3093:3108  block.timestamp */\n      timestamp\n        /* \"RPS.sol\":3074:3090  updatedTimestamp */\n      0x06\n        /* \"RPS.sol\":3074:3108  updatedTimestamp = block.timestamp */\n      dup2\n      swap1\n      sstore\n      pop\n        /* \"RPS.sol\":3119:3128  numPlayer */\n      0x02\n      0x00\n        /* \"RPS.sol\":3119:3130  numPlayer++ */\n      dup2\n      sload\n      dup1\n      swap3\n      swap2\n      swap1\n      tag_81\n      swap1\n      tag_82\n      jump\t// in\n    tag_81:\n      swap2\n      swap1\n      pop\n      sstore\n      pop\n        /* \"RPS.sol\":2793:3140  function addPlayer() public payable {... */\n      jump\t// out\n        /* \"RPS.sol\":3365:3594  function choiceHash(uint choice,uint password) public view returns(bytes32) {... */\n    tag_36:\n        /* \"RPS.sol\":3432:3439  bytes32 */\n      0x00\n        /* \"RPS.sol\":3470:3471  0 */\n      dup1\n        /* \"RPS.sol\":3460:3466  choice */\n      dup4\n        /* \"RPS.sol\":3460:3471  choice == 0 */\n      eq\n        /* \"RPS.sol\":3460:3486  choice == 0 || choice == 1 */\n      dup1\n      tag_84\n      jumpi\n      pop\n        /* \"RPS.sol\":3485:3486  1 */\n      0x01\n        /* \"RPS.sol\":3475:3481  choice */\n      dup4\n        /* \"RPS.sol\":3475:3486  choice == 1 */\n      eq\n        /* \"RPS.sol\":3460:3486  choice == 0 || choice == 1 */\n    tag_84:\n        /* \"RPS.sol\":3460:3501  choice == 0 || choice == 1 || choice == 2 */\n      dup1\n      tag_85\n      jumpi\n      pop\n        /* \"RPS.sol\":3500:3501  2 */\n      0x02\n        /* \"RPS.sol\":3490:3496  choice */\n      dup4\n        /* \"RPS.sol\":3490:3501  choice == 2 */\n      eq\n        /* \"RPS.sol\":3460:3501  choice == 0 || choice == 1 || choice == 2 */\n    tag_85:\n        /* \"RPS.sol\":3452:3519  require(choice == 0 || choice == 1 || choice == 2,\"invalid choice\") */\n      tag_86\n      jumpi\n      mload(0x40)\n      0x08c379a000000000000000000000000000000000000000000000000000000000\n      dup2\n      mstore\n      0x04\n      add\n      tag_87\n      swap1\n      tag_88\n      jump\t// in\n    tag_87:\n      mload(0x40)\n      dup1\n      swap2\n      sub\n      swap1\n      revert\n    tag_86:\n        /* \"RPS.sol\":3537:3586  getSaltedHash(bytes32(choice), bytes32(password)) */\n      tag_89\n        /* \"RPS.sol\":3559:3565  choice */\n      dup4\n        /* \"RPS.sol\":3551:3566  bytes32(choice) */\n      0x00\n      shl\n        /* \"RPS.sol\":3576:3584  password */\n      dup4\n        /* \"RPS.sol\":3568:3585  bytes32(password) */\n      0x00\n      shl\n        /* \"RPS.sol\":3537:3550  getSaltedHash */\n      tag_90\n        /* \"RPS.sol\":3537:3586  getSaltedHash(bytes32(choice), bytes32(password)) */\n      jump\t// in\n    tag_89:\n        /* \"RPS.sol\":3530:3586  return getSaltedHash(bytes32(choice), bytes32(password)) */\n      swap1\n      pop\n        /* \"RPS.sol\":3365:3594  function choiceHash(uint choice,uint password) public view returns(bytes32) {... */\n      swap3\n      swap2\n      pop\n      pop\n      jump\t// out\n        /* \"RPS.sol\":481:525  mapping (address => uint) public playerIndex */\n    tag_43:\n      mstore(0x20, 0x08)\n      dup1\n      0x00\n      mstore\n      keccak256(0x00, 0x40)\n      0x00\n      swap2\n      pop\n      swap1\n      pop\n      sload\n      dup2\n      jump\t// out\n        /* \"RPS.sol\":267:292  uint public numPlayer = 0 */\n    tag_47:\n      sload(0x02)\n      dup2\n      jump\t// out\n        /* \"RPS.sol\":436:474  mapping (uint => Player) public player */\n    tag_53:\n      mstore(0x20, 0x07)\n      dup1\n      0x00\n      mstore\n      keccak256(0x00, 0x40)\n      0x00\n      swap2\n      pop\n      swap1\n      pop\n      dup1\n      0x00\n      add\n      sload\n      swap1\n      dup1\n      0x01\n      add\n      0x00\n      swap1\n      sload\n      swap1\n      0x0100\n      exp\n      swap1\n      div\n      0xffffffffffffffffffffffffffffffffffffffff\n      and\n      swap1\n      pop\n      dup3\n      jump\t// out\n        /* \"RPS.sol\":360:394  uint public limitTime = 10 minutes */\n    tag_58:\n      sload(0x05)\n      dup2\n      jump\t// out\n        /* \"RPS.sol\":3600:3990  function revealsChoice(uint choice,uint password) public{... */\n    tag_63:\n        /* \"RPS.sol\":3687:3688  2 */\n      0x02\n        /* \"RPS.sol\":3675:3683  numInput */\n      sload(0x09)\n        /* \"RPS.sol\":3675:3688  numInput == 2 */\n      eq\n        /* \"RPS.sol\":3667:3689  require(numInput == 2) */\n      tag_92\n      jumpi\n      0x00\n      dup1\n      revert\n    tag_92:\n        /* \"RPS.sol\":3718:3719  0 */\n      0x00\n        /* \"RPS.sol\":3708:3714  choice */\n      dup3\n        /* \"RPS.sol\":3708:3719  choice == 0 */\n      eq\n        /* \"RPS.sol\":3708:3734  choice == 0 || choice == 1 */\n      dup1\n      tag_93\n      jumpi\n      pop\n        /* \"RPS.sol\":3733:3734  1 */\n      0x01\n        /* \"RPS.sol\":3723:3729  choice */\n      dup3\n        /* \"RPS.sol\":3723:3734  choice == 1 */\n      eq\n        /* \"RPS.sol\":3708:3734  choice == 0 || choice == 1 */\n    tag_93:\n        /* \"RPS.sol\":3708:3749  choice == 0 || choice == 1 || choice == 2 */\n      dup1\n      tag_94\n      jumpi\n      pop\n        /* \"RPS.sol\":3748:3749  2 */\n      0x02\n        /* \"RPS.sol\":3738:3744  choice */\n      dup3\n        /* \"RPS.sol\":3738:3749  choice == 2 */\n      eq\n        /* \"RPS.sol\":3708:3749  choice == 0 || choice == 1 || choice == 2 */\n    tag_94:\n        /* \"RPS.sol\":3700:3767  require(choice == 0 || choice == 1 || choice == 2,\"invalid choice\") */\n      tag_95\n      jumpi\n      mload(0x40)\n      0x08c379a000000000000000000000000000000000000000000000000000000000\n      dup2\n      mstore\n      0x04\n      add\n      tag_96\n      swap1\n      tag_88\n      jump\t// in\n    tag_96:\n      mload(0x40)\n      dup1\n      swap2\n      sub\n      swap1\n      revert\n    tag_95:\n        /* \"RPS.sol\":3778:3825  revealAnswer(bytes32(choice),bytes32(password)) */\n      tag_97\n        /* \"RPS.sol\":3799:3805  choice */\n      dup3\n        /* \"RPS.sol\":3791:3806  bytes32(choice) */\n      0x00\n      shl\n        /* \"RPS.sol\":3815:3823  password */\n      dup3\n        /* \"RPS.sol\":3807:3824  bytes32(password) */\n      0x00\n      shl\n        /* \"RPS.sol\":3778:3790  revealAnswer */\n      tag_98\n        /* \"RPS.sol\":3778:3825  revealAnswer(bytes32(choice),bytes32(password)) */\n      jump\t// in\n    tag_97:\n        /* \"RPS.sol\":3877:3883  choice */\n      dup2\n        /* \"RPS.sol\":3836:3842  player */\n      0x07\n        /* \"RPS.sol\":3836:3867  player[playerIndex[msg.sender]] */\n      0x00\n        /* \"RPS.sol\":3843:3854  playerIndex */\n      0x08\n        /* \"RPS.sol\":3843:3866  playerIndex[msg.sender] */\n      0x00\n        /* \"RPS.sol\":3855:3865  msg.sender */\n      caller\n        /* \"RPS.sol\":3843:3866  playerIndex[msg.sender] */\n      0xffffffffffffffffffffffffffffffffffffffff\n      and\n      0xffffffffffffffffffffffffffffffffffffffff\n      and\n      dup2\n      mstore\n      0x20\n      add\n      swap1\n      dup2\n      mstore\n      0x20\n      add\n      0x00\n      keccak256\n      sload\n        /* \"RPS.sol\":3836:3867  player[playerIndex[msg.sender]] */\n      dup2\n      mstore\n      0x20\n      add\n      swap1\n      dup2\n      mstore\n      0x20\n      add\n      0x00\n      keccak256\n        /* \"RPS.sol\":3836:3874  player[playerIndex[msg.sender]].choice */\n      0x00\n      add\n        /* \"RPS.sol\":3836:3883  player[playerIndex[msg.sender]].choice = choice */\n      dup2\n      swap1\n      sstore\n      pop\n        /* \"RPS.sol\":3894:3903  numReveal */\n      0x03\n      0x00\n        /* \"RPS.sol\":3894:3905  numReveal++ */\n      dup2\n      sload\n      dup1\n      swap3\n      swap2\n      swap1\n      tag_99\n      swap1\n      tag_82\n      jump\t// in\n    tag_99:\n      swap2\n      swap1\n      pop\n      sstore\n      pop\n        /* \"RPS.sol\":3933:3934  2 */\n      0x02\n        /* \"RPS.sol\":3920:3929  numReveal */\n      sload(0x03)\n        /* \"RPS.sol\":3920:3934  numReveal == 2 */\n      sub\n        /* \"RPS.sol\":3916:3983  if (numReveal == 2) {... */\n      tag_100\n      jumpi\n        /* \"RPS.sol\":3951:3971  _checkWinnerAndPay() */\n      tag_101\n        /* \"RPS.sol\":3951:3969  _checkWinnerAndPay */\n      tag_102\n        /* \"RPS.sol\":3951:3971  _checkWinnerAndPay() */\n      jump\t// in\n    tag_101:\n        /* \"RPS.sol\":3916:3983  if (numReveal == 2) {... */\n    tag_100:\n        /* \"RPS.sol\":3600:3990  function revealsChoice(uint choice,uint password) public{... */\n      pop\n      pop\n      jump\t// out\n        /* \"RPS.sol\":702:2785  function checkTimeOut() public {... */\n    tag_66:\n        /* \"RPS.sol\":780:796  updatedTimestamp */\n      sload(0x06)\n        /* \"RPS.sol\":768:777  limitTime */\n      sload(0x05)\n        /* \"RPS.sol\":752:767  block.timestamp */\n      timestamp\n        /* \"RPS.sol\":752:777  block.timestamp+limitTime */\n      tag_104\n      swap2\n      swap1\n      tag_80\n      jump\t// in\n    tag_104:\n        /* \"RPS.sol\":752:796  block.timestamp+limitTime < updatedTimestamp */\n      lt\n        /* \"RPS.sol\":744:807  require(block.timestamp+limitTime < updatedTimestamp,\"in time\") */\n      tag_105\n      jumpi\n      mload(0x40)\n      0x08c379a000000000000000000000000000000000000000000000000000000000\n      dup2\n      mstore\n      0x04\n      add\n      tag_106\n      swap1\n      tag_107\n      jump\t// in\n    tag_106:\n      mload(0x40)\n      dup1\n      swap2\n      sub\n      swap1\n      revert\n    tag_105:\n        /* \"RPS.sol\":832:833  1 */\n      0x01\n        /* \"RPS.sol\":821:830  numPlayer */\n      sload(0x02)\n        /* \"RPS.sol\":821:833  numPlayer==1 */\n      sub\n        /* \"RPS.sol\":818:2778  if(numPlayer==1)... */\n      tag_108\n      jumpi\n        /* \"RPS.sol\":867:873  player */\n      0x07\n        /* \"RPS.sol\":867:876  player[0] */\n      0x00\n        /* \"RPS.sol\":874:875  0 */\n      dup1\n        /* \"RPS.sol\":867:876  player[0] */\n      dup2\n      mstore\n      0x20\n      add\n      swap1\n      dup2\n      mstore\n      0x20\n      add\n      0x00\n      keccak256\n        /* \"RPS.sol\":867:881  player[0].addr */\n      0x01\n      add\n      0x00\n      swap1\n      sload\n      swap1\n      0x0100\n      exp\n      swap1\n      div\n      0xffffffffffffffffffffffffffffffffffffffff\n      and\n        /* \"RPS.sol\":859:891  payable(player[0].addr).transfer */\n      0xffffffffffffffffffffffffffffffffffffffff\n      and\n        /* \"RPS.sol\":859:899  payable(player[0].addr).transfer(reward) */\n      0x08fc\n        /* \"RPS.sol\":892:898  reward */\n      sload(0x04)\n        /* \"RPS.sol\":859:899  payable(player[0].addr).transfer(reward) */\n      swap1\n      dup2\n      iszero\n      mul\n      swap1\n      mload(0x40)\n      0x00\n      mload(0x40)\n      dup1\n      dup4\n      sub\n      dup2\n      dup6\n      dup9\n      dup9\n      call\n      swap4\n      pop\n      pop\n      pop\n      pop\n      iszero\n      dup1\n      iszero\n      tag_110\n      jumpi\n      returndatasize\n      0x00\n      dup1\n      returndatacopy\n      revert(0x00, returndatasize)\n    tag_110:\n      pop\n        /* \"RPS.sol\":921:927  player */\n      0x07\n        /* \"RPS.sol\":921:930  player[0] */\n      0x00\n        /* \"RPS.sol\":928:929  0 */\n      dup1\n        /* \"RPS.sol\":921:930  player[0] */\n      dup2\n      mstore\n      0x20\n      add\n      swap1\n      dup2\n      mstore\n      0x20\n      add\n      0x00\n      keccak256\n      0x00\n        /* \"RPS.sol\":914:930  delete player[0] */\n      dup1\n      dup3\n      add\n      0x00\n      swap1\n      sstore\n      0x01\n      dup3\n      add\n      exp(0x0100, 0x00)\n      dup2\n      sload\n      swap1\n      0xffffffffffffffffffffffffffffffffffffffff\n      mul\n      not\n      and\n      swap1\n      sstore\n      pop\n      pop\n        /* \"RPS.sol\":945:956  cleardata() */\n      tag_111\n        /* \"RPS.sol\":945:954  cleardata */\n      tag_112\n        /* \"RPS.sol\":945:956  cleardata() */\n      jump\t// in\n    tag_111:\n        /* \"RPS.sol\":818:2778  if(numPlayer==1)... */\n      jump(tag_113)\n    tag_108:\n        /* \"RPS.sol\":997:998  2 */\n      0x02\n        /* \"RPS.sol\":986:995  numPlayer */\n      dup1\n      sload\n        /* \"RPS.sol\":986:998  numPlayer==2 */\n      eq\n        /* \"RPS.sol\":986:1013  numPlayer==2 && numInput==0 */\n      dup1\n      iszero\n      tag_114\n      jumpi\n      pop\n        /* \"RPS.sol\":1012:1013  0 */\n      0x00\n        /* \"RPS.sol\":1002:1010  numInput */\n      sload(0x09)\n        /* \"RPS.sol\":1002:1013  numInput==0 */\n      eq\n        /* \"RPS.sol\":986:1013  numPlayer==2 && numInput==0 */\n    tag_114:\n        /* \"RPS.sol\":983:2778  if(numPlayer==2 && numInput==0)... */\n      iszero\n      tag_115\n      jumpi\n        /* \"RPS.sol\":1047:1053  player */\n      0x07\n        /* \"RPS.sol\":1047:1056  player[0] */\n      0x00\n        /* \"RPS.sol\":1054:1055  0 */\n      dup1\n        /* \"RPS.sol\":1047:1056  player[0] */\n      dup2\n      mstore\n      0x20\n      add\n      swap1\n      dup2\n      mstore\n      0x20\n      add\n      0x00\n      keccak256\n        /* \"RPS.sol\":1047:1061  player[0].addr */\n      0x01\n      add\n      0x00\n      swap1\n      sload\n      swap1\n      0x0100\n      exp\n      swap1\n      div\n      0xffffffffffffffffffffffffffffffffffffffff\n      and\n        /* \"RPS.sol\":1039:1071  payable(player[0].addr).transfer */\n      0xffffffffffffffffffffffffffffffffffffffff\n      and\n        /* \"RPS.sol\":1039:1081  payable(player[0].addr).transfer(reward/2) */\n      0x08fc\n        /* \"RPS.sol\":1079:1080  2 */\n      0x02\n        /* \"RPS.sol\":1072:1078  reward */\n      sload(0x04)\n        /* \"RPS.sol\":1072:1080  reward/2 */\n      tag_116\n      swap2\n      swap1\n      tag_117\n      jump\t// in\n    tag_116:\n        /* \"RPS.sol\":1039:1081  payable(player[0].addr).transfer(reward/2) */\n      swap1\n      dup2\n      iszero\n      mul\n      swap1\n      mload(0x40)\n      0x00\n      mload(0x40)\n      dup1\n      dup4\n      sub\n      dup2\n      dup6\n      dup9\n      dup9\n      call\n      swap4\n      pop\n      pop\n      pop\n      pop\n      iszero\n      dup1\n      iszero\n      tag_119\n      jumpi\n      returndatasize\n      0x00\n      dup1\n      returndatacopy\n      revert(0x00, returndatasize)\n    tag_119:\n      pop\n        /* \"RPS.sol\":1104:1110  player */\n      0x07\n        /* \"RPS.sol\":1104:1113  player[1] */\n      0x00\n        /* \"RPS.sol\":1111:1112  1 */\n      0x01\n        /* \"RPS.sol\":1104:1113  player[1] */\n      dup2\n      mstore\n      0x20\n      add\n      swap1\n      dup2\n      mstore\n      0x20\n      add\n      0x00\n      keccak256\n        /* \"RPS.sol\":1104:1118  player[1].addr */\n      0x01\n      add\n      0x00\n      swap1\n      sload\n      swap1\n      0x0100\n      exp\n      swap1\n      div\n      0xffffffffffffffffffffffffffffffffffffffff\n      and\n        /* \"RPS.sol\":1096:1128  payable(player[1].addr).transfer */\n      0xffffffffffffffffffffffffffffffffffffffff\n      and\n        /* \"RPS.sol\":1096:1138  payable(player[1].addr).transfer(reward/2) */\n      0x08fc\n        /* \"RPS.sol\":1136:1137  2 */\n      0x02\n        /* \"RPS.sol\":1129:1135  reward */\n      sload(0x04)\n        /* \"RPS.sol\":1129:1137  reward/2 */\n      tag_120\n      swap2\n      swap1\n      tag_117\n      jump\t// in\n    tag_120:\n        /* \"RPS.sol\":1096:1138  payable(player[1].addr).transfer(reward/2) */\n      swap1\n      dup2\n      iszero\n      mul\n      swap1\n      mload(0x40)\n      0x00\n      mload(0x40)\n      dup1\n      dup4\n      sub\n      dup2\n      dup6\n      dup9\n      dup9\n      call\n      swap4\n      pop\n      pop\n      pop\n      pop\n      iszero\n      dup1\n      iszero\n      tag_122\n      jumpi\n      returndatasize\n      0x00\n      dup1\n      returndatacopy\n      revert(0x00, returndatasize)\n    tag_122:\n      pop\n        /* \"RPS.sol\":1160:1166  player */\n      0x07\n        /* \"RPS.sol\":1160:1169  player[0] */\n      0x00\n        /* \"RPS.sol\":1167:1168  0 */\n      dup1\n        /* \"RPS.sol\":1160:1169  player[0] */\n      dup2\n      mstore\n      0x20\n      add\n      swap1\n      dup2\n      mstore\n      0x20\n      add\n      0x00\n      keccak256\n      0x00\n        /* \"RPS.sol\":1153:1169  delete player[0] */\n      dup1\n      dup3\n      add\n      0x00\n      swap1\n      sstore\n      0x01\n      dup3\n      add\n      exp(0x0100, 0x00)\n      dup2\n      sload\n      swap1\n      0xffffffffffffffffffffffffffffffffffffffff\n      mul\n      not\n      and\n      swap1\n      sstore\n      pop\n      pop\n        /* \"RPS.sol\":1191:1197  player */\n      0x07\n        /* \"RPS.sol\":1191:1200  player[1] */\n      0x00\n        /* \"RPS.sol\":1198:1199  1 */\n      0x01\n        /* \"RPS.sol\":1191:1200  player[1] */\n      dup2\n      mstore\n      0x20\n      add\n      swap1\n      dup2\n      mstore\n      0x20\n      add\n      0x00\n      keccak256\n      0x00\n        /* \"RPS.sol\":1184:1200  delete player[1] */\n      dup1\n      dup3\n      add\n      0x00\n      swap1\n      sstore\n      0x01\n      dup3\n      add\n      exp(0x0100, 0x00)\n      dup2\n      sload\n      swap1\n      0xffffffffffffffffffffffffffffffffffffffff\n      mul\n      not\n      and\n      swap1\n      sstore\n      pop\n      pop\n        /* \"RPS.sol\":1215:1226  cleardata() */\n      tag_123\n        /* \"RPS.sol\":1215:1224  cleardata */\n      tag_112\n        /* \"RPS.sol\":1215:1226  cleardata() */\n      jump\t// in\n    tag_123:\n        /* \"RPS.sol\":983:2778  if(numPlayer==2 && numInput==0)... */\n      jump(tag_124)\n    tag_115:\n        /* \"RPS.sol\":1267:1268  2 */\n      0x02\n        /* \"RPS.sol\":1256:1265  numPlayer */\n      dup1\n      sload\n        /* \"RPS.sol\":1256:1268  numPlayer==2 */\n      eq\n        /* \"RPS.sol\":1256:1283  numPlayer==2 && numInput==1 */\n      dup1\n      iszero\n      tag_125\n      jumpi\n      pop\n        /* \"RPS.sol\":1282:1283  1 */\n      0x01\n        /* \"RPS.sol\":1272:1280  numInput */\n      sload(0x09)\n        /* \"RPS.sol\":1272:1283  numInput==1 */\n      eq\n        /* \"RPS.sol\":1256:1283  numPlayer==2 && numInput==1 */\n    tag_125:\n        /* \"RPS.sol\":1253:2778  if(numPlayer==2 && numInput==1)... */\n      iszero\n      tag_126\n      jumpi\n        /* \"RPS.sol\":1346:1347  0 */\n      0x00\n        /* \"RPS.sol\":1312:1347  commits[player[1].addr].commit == 0 */\n      dup1\n      shl\n        /* \"RPS.sol\":1312:1319  commits */\n      0x01\n        /* \"RPS.sol\":1312:1335  commits[player[1].addr] */\n      0x00\n        /* \"RPS.sol\":1320:1326  player */\n      0x07\n        /* \"RPS.sol\":1320:1329  player[1] */\n      0x00\n        /* \"RPS.sol\":1327:1328  1 */\n      0x01\n        /* \"RPS.sol\":1320:1329  player[1] */\n      dup2\n      mstore\n      0x20\n      add\n      swap1\n      dup2\n      mstore\n      0x20\n      add\n      0x00\n      keccak256\n        /* \"RPS.sol\":1320:1334  player[1].addr */\n      0x01\n      add\n      0x00\n      swap1\n      sload\n      swap1\n      0x0100\n      exp\n      swap1\n      div\n      0xffffffffffffffffffffffffffffffffffffffff\n      and\n        /* \"RPS.sol\":1312:1335  commits[player[1].addr] */\n      0xffffffffffffffffffffffffffffffffffffffff\n      and\n      0xffffffffffffffffffffffffffffffffffffffff\n      and\n      dup2\n      mstore\n      0x20\n      add\n      swap1\n      dup2\n      mstore\n      0x20\n      add\n      0x00\n      keccak256\n        /* \"RPS.sol\":1312:1342  commits[player[1].addr].commit */\n      0x00\n      add\n      sload\n        /* \"RPS.sol\":1312:1347  commits[player[1].addr].commit == 0 */\n      sub\n        /* \"RPS.sol\":1309:1556  if(commits[player[1].addr].commit == 0)... */\n      tag_127\n      jumpi\n        /* \"RPS.sol\":1389:1395  player */\n      0x07\n        /* \"RPS.sol\":1389:1398  player[0] */\n      0x00\n        /* \"RPS.sol\":1396:1397  0 */\n      dup1\n        /* \"RPS.sol\":1389:1398  player[0] */\n      dup2\n      mstore\n      0x20\n      add\n      swap1\n      dup2\n      mstore\n      0x20\n      add\n      0x00\n      keccak256\n        /* \"RPS.sol\":1389:1403  player[0].addr */\n      0x01\n      add\n      0x00\n      swap1\n      sload\n      swap1\n      0x0100\n      exp\n      swap1\n      div\n      0xffffffffffffffffffffffffffffffffffffffff\n      and\n        /* \"RPS.sol\":1381:1413  payable(player[0].addr).transfer */\n      0xffffffffffffffffffffffffffffffffffffffff\n      and\n        /* \"RPS.sol\":1381:1421  payable(player[0].addr).transfer(reward) */\n      0x08fc\n        /* \"RPS.sol\":1414:1420  reward */\n      sload(0x04)\n        /* \"RPS.sol\":1381:1421  payable(player[0].addr).transfer(reward) */\n      swap1\n      dup2\n      iszero\n      mul\n      swap1\n      mload(0x40)\n      0x00\n      mload(0x40)\n      dup1\n      dup4\n      sub\n      dup2\n      dup6\n      dup9\n      dup9\n      call\n      swap4\n      pop\n      pop\n      pop\n      pop\n      iszero\n      dup1\n      iszero\n      tag_129\n      jumpi\n      returndatasize\n      0x00\n      dup1\n      returndatacopy\n      revert(0x00, returndatasize)\n    tag_129:\n      pop\n        /* \"RPS.sol\":1447:1454  commits */\n      0x01\n        /* \"RPS.sol\":1447:1470  commits[player[0].addr] */\n      0x00\n        /* \"RPS.sol\":1455:1461  player */\n      0x07\n        /* \"RPS.sol\":1455:1464  player[0] */\n      0x00\n        /* \"RPS.sol\":1462:1463  0 */\n      dup1\n        /* \"RPS.sol\":1455:1464  player[0] */\n      dup2\n      mstore\n      0x20\n      add\n      swap1\n      dup2\n      mstore\n      0x20\n      add\n      0x00\n      keccak256\n        /* \"RPS.sol\":1455:1469  player[0].addr */\n      0x01\n      add\n      0x00\n      swap1\n      sload\n      swap1\n      0x0100\n      exp\n      swap1\n      div\n      0xffffffffffffffffffffffffffffffffffffffff\n      and\n        /* \"RPS.sol\":1447:1470  commits[player[0].addr] */\n      0xffffffffffffffffffffffffffffffffffffffff\n      and\n      0xffffffffffffffffffffffffffffffffffffffff\n      and\n      dup2\n      mstore\n      0x20\n      add\n      swap1\n      dup2\n      mstore\n      0x20\n      add\n      0x00\n      keccak256\n      0x00\n        /* \"RPS.sol\":1440:1470  delete commits[player[0].addr] */\n      dup1\n      dup3\n      add\n      0x00\n      swap1\n      sstore\n      0x01\n      dup3\n      add\n      exp(0x0100, 0x00)\n      dup2\n      sload\n      swap1\n      0xffffffffffffffff\n      mul\n      not\n      and\n      swap1\n      sstore\n      0x01\n      dup3\n      add\n      exp(0x0100, 0x08)\n      dup2\n      sload\n      swap1\n      0xff\n      mul\n      not\n      and\n      swap1\n      sstore\n      pop\n      pop\n        /* \"RPS.sol\":1496:1502  player */\n      0x07\n        /* \"RPS.sol\":1496:1505  player[0] */\n      0x00\n        /* \"RPS.sol\":1503:1504  0 */\n      dup1\n        /* \"RPS.sol\":1496:1505  player[0] */\n      dup2\n      mstore\n      0x20\n      add\n      swap1\n      dup2\n      mstore\n      0x20\n      add\n      0x00\n      keccak256\n      0x00\n        /* \"RPS.sol\":1489:1505  delete player[0] */\n      dup1\n      dup3\n      add\n      0x00\n      swap1\n      sstore\n      0x01\n      dup3\n      add\n      exp(0x0100, 0x00)\n      dup2\n      sload\n      swap1\n      0xffffffffffffffffffffffffffffffffffffffff\n      mul\n      not\n      and\n      swap1\n      sstore\n      pop\n      pop\n        /* \"RPS.sol\":1531:1537  player */\n      0x07\n        /* \"RPS.sol\":1531:1540  player[1] */\n      0x00\n        /* \"RPS.sol\":1538:1539  1 */\n      0x01\n        /* \"RPS.sol\":1531:1540  player[1] */\n      dup2\n      mstore\n      0x20\n      add\n      swap1\n      dup2\n      mstore\n      0x20\n      add\n      0x00\n      keccak256\n      0x00\n        /* \"RPS.sol\":1524:1540  delete player[1] */\n      dup1\n      dup3\n      add\n      0x00\n      swap1\n      sstore\n      0x01\n      dup3\n      add\n      exp(0x0100, 0x00)\n      dup2\n      sload\n      swap1\n      0xffffffffffffffffffffffffffffffffffffffff\n      mul\n      not\n      and\n      swap1\n      sstore\n      pop\n      pop\n        /* \"RPS.sol\":1309:1556  if(commits[player[1].addr].commit == 0)... */\n    tag_127:\n        /* \"RPS.sol\":1607:1608  0 */\n      0x00\n        /* \"RPS.sol\":1573:1608  commits[player[0].addr].commit == 0 */\n      dup1\n      shl\n        /* \"RPS.sol\":1573:1580  commits */\n      0x01\n        /* \"RPS.sol\":1573:1596  commits[player[0].addr] */\n      0x00\n        /* \"RPS.sol\":1581:1587  player */\n      0x07\n        /* \"RPS.sol\":1581:1590  player[0] */\n      0x00\n        /* \"RPS.sol\":1588:1589  0 */\n      dup1\n        /* \"RPS.sol\":1581:1590  player[0] */\n      dup2\n      mstore\n      0x20\n      add\n      swap1\n      dup2\n      mstore\n      0x20\n      add\n      0x00\n      keccak256\n        /* \"RPS.sol\":1581:1595  player[0].addr */\n      0x01\n      add\n      0x00\n      swap1\n      sload\n      swap1\n      0x0100\n      exp\n      swap1\n      div\n      0xffffffffffffffffffffffffffffffffffffffff\n      and\n        /* \"RPS.sol\":1573:1596  commits[player[0].addr] */\n      0xffffffffffffffffffffffffffffffffffffffff\n      and\n      0xffffffffffffffffffffffffffffffffffffffff\n      and\n      dup2\n      mstore\n      0x20\n      add\n      swap1\n      dup2\n      mstore\n      0x20\n      add\n      0x00\n      keccak256\n        /* \"RPS.sol\":1573:1603  commits[player[0].addr].commit */\n      0x00\n      add\n      sload\n        /* \"RPS.sol\":1573:1608  commits[player[0].addr].commit == 0 */\n      sub\n        /* \"RPS.sol\":1570:1817  if(commits[player[0].addr].commit == 0)... */\n      tag_130\n      jumpi\n        /* \"RPS.sol\":1650:1656  player */\n      0x07\n        /* \"RPS.sol\":1650:1659  player[1] */\n      0x00\n        /* \"RPS.sol\":1657:1658  1 */\n      0x01\n        /* \"RPS.sol\":1650:1659  player[1] */\n      dup2\n      mstore\n      0x20\n      add\n      swap1\n      dup2\n      mstore\n      0x20\n      add\n      0x00\n      keccak256\n        /* \"RPS.sol\":1650:1664  player[1].addr */\n      0x01\n      add\n      0x00\n      swap1\n      sload\n      swap1\n      0x0100\n      exp\n      swap1\n      div\n      0xffffffffffffffffffffffffffffffffffffffff\n      and\n        /* \"RPS.sol\":1642:1674  payable(player[1].addr).transfer */\n      0xffffffffffffffffffffffffffffffffffffffff\n      and\n        /* \"RPS.sol\":1642:1682  payable(player[1].addr).transfer(reward) */\n      0x08fc\n        /* \"RPS.sol\":1675:1681  reward */\n      sload(0x04)\n        /* \"RPS.sol\":1642:1682  payable(player[1].addr).transfer(reward) */\n      swap1\n      dup2\n      iszero\n      mul\n      swap1\n      mload(0x40)\n      0x00\n      mload(0x40)\n      dup1\n      dup4\n      sub\n      dup2\n      dup6\n      dup9\n      dup9\n      call\n      swap4\n      pop\n      pop\n      pop\n      pop\n      iszero\n      dup1\n      iszero\n      tag_132\n      jumpi\n      returndatasize\n      0x00\n      dup1\n      returndatacopy\n      revert(0x00, returndatasize)\n    tag_132:\n      pop\n        /* \"RPS.sol\":1708:1715  commits */\n      0x01\n        /* \"RPS.sol\":1708:1731  commits[player[1].addr] */\n      0x00\n        /* \"RPS.sol\":1716:1722  player */\n      0x07\n        /* \"RPS.sol\":1716:1725  player[1] */\n      0x00\n        /* \"RPS.sol\":1723:1724  1 */\n      0x01\n        /* \"RPS.sol\":1716:1725  player[1] */\n      dup2\n      mstore\n      0x20\n      add\n      swap1\n      dup2\n      mstore\n      0x20\n      add\n      0x00\n      keccak256\n        /* \"RPS.sol\":1716:1730  player[1].addr */\n      0x01\n      add\n      0x00\n      swap1\n      sload\n      swap1\n      0x0100\n      exp\n      swap1\n      div\n      0xffffffffffffffffffffffffffffffffffffffff\n      and\n        /* \"RPS.sol\":1708:1731  commits[player[1].addr] */\n      0xffffffffffffffffffffffffffffffffffffffff\n      and\n      0xffffffffffffffffffffffffffffffffffffffff\n      and\n      dup2\n      mstore\n      0x20\n      add\n      swap1\n      dup2\n      mstore\n      0x20\n      add\n      0x00\n      keccak256\n      0x00\n        /* \"RPS.sol\":1701:1731  delete commits[player[1].addr] */\n      dup1\n      dup3\n      add\n      0x00\n      swap1\n      sstore\n      0x01\n      dup3\n      add\n      exp(0x0100, 0x00)\n      dup2\n      sload\n      swap1\n      0xffffffffffffffff\n      mul\n      not\n      and\n      swap1\n      sstore\n      0x01\n      dup3\n      add\n      exp(0x0100, 0x08)\n      dup2\n      sload\n      swap1\n      0xff\n      mul\n      not\n      and\n      swap1\n      sstore\n      pop\n      pop\n        /* \"RPS.sol\":1757:1763  player */\n      0x07\n        /* \"RPS.sol\":1757:1766  player[0] */\n      0x00\n        /* \"RPS.sol\":1764:1765  0 */\n      dup1\n        /* \"RPS.sol\":1757:1766  player[0] */\n      dup2\n      mstore\n      0x20\n      add\n      swap1\n      dup2\n      mstore\n      0x20\n      add\n      0x00\n      keccak256\n      0x00\n        /* \"RPS.sol\":1750:1766  delete player[0] */\n      dup1\n      dup3\n      add\n      0x00\n      swap1\n      sstore\n      0x01\n      dup3\n      add\n      exp(0x0100, 0x00)\n      dup2\n      sload\n      swap1\n      0xffffffffffffffffffffffffffffffffffffffff\n      mul\n      not\n      and\n      swap1\n      sstore\n      pop\n      pop\n        /* \"RPS.sol\":1792:1798  player */\n      0x07\n        /* \"RPS.sol\":1792:1801  player[1] */\n      0x00\n        /* \"RPS.sol\":1799:1800  1 */\n      0x01\n        /* \"RPS.sol\":1792:1801  player[1] */\n      dup2\n      mstore\n      0x20\n      add\n      swap1\n      dup2\n      mstore\n      0x20\n      add\n      0x00\n      keccak256\n      0x00\n        /* \"RPS.sol\":1785:1801  delete player[1] */\n      dup1\n      dup3\n      add\n      0x00\n      swap1\n      sstore\n      0x01\n      dup3\n      add\n      exp(0x0100, 0x00)\n      dup2\n      sload\n      swap1\n      0xffffffffffffffffffffffffffffffffffffffff\n      mul\n      not\n      and\n      swap1\n      sstore\n      pop\n      pop\n        /* \"RPS.sol\":1570:1817  if(commits[player[0].addr].commit == 0)... */\n    tag_130:\n        /* \"RPS.sol\":1831:1842  cleardata() */\n      tag_133\n        /* \"RPS.sol\":1831:1840  cleardata */\n      tag_112\n        /* \"RPS.sol\":1831:1842  cleardata() */\n      jump\t// in\n    tag_133:\n        /* \"RPS.sol\":1253:2778  if(numPlayer==2 && numInput==1)... */\n      jump(tag_134)\n    tag_126:\n        /* \"RPS.sol\":1885:1886  2 */\n      0x02\n        /* \"RPS.sol\":1872:1881  numPlayer */\n      dup1\n      sload\n        /* \"RPS.sol\":1872:1886  numPlayer == 2 */\n      eq\n        /* \"RPS.sol\":1872:1903  numPlayer == 2 && numInput == 2 */\n      dup1\n      iszero\n      tag_135\n      jumpi\n      pop\n        /* \"RPS.sol\":1902:1903  2 */\n      0x02\n        /* \"RPS.sol\":1890:1898  numInput */\n      sload(0x09)\n        /* \"RPS.sol\":1890:1903  numInput == 2 */\n      eq\n        /* \"RPS.sol\":1872:1903  numPlayer == 2 && numInput == 2 */\n    tag_135:\n        /* \"RPS.sol\":1872:1919  numPlayer == 2 && numInput == 2 && numReveal==0 */\n      dup1\n      iszero\n      tag_136\n      jumpi\n      pop\n        /* \"RPS.sol\":1918:1919  0 */\n      0x00\n        /* \"RPS.sol\":1907:1916  numReveal */\n      sload(0x03)\n        /* \"RPS.sol\":1907:1919  numReveal==0 */\n      eq\n        /* \"RPS.sol\":1872:1919  numPlayer == 2 && numInput == 2 && numReveal==0 */\n    tag_136:\n        /* \"RPS.sol\":1869:2778  if(numPlayer == 2 && numInput == 2 && numReveal==0)... */\n      iszero\n      tag_137\n      jumpi\n        /* \"RPS.sol\":1953:1959  player */\n      0x07\n        /* \"RPS.sol\":1953:1962  player[0] */\n      0x00\n        /* \"RPS.sol\":1960:1961  0 */\n      dup1\n        /* \"RPS.sol\":1953:1962  player[0] */\n      dup2\n      mstore\n      0x20\n      add\n      swap1\n      dup2\n      mstore\n      0x20\n      add\n      0x00\n      keccak256\n        /* \"RPS.sol\":1953:1967  player[0].addr */\n      0x01\n      add\n      0x00\n      swap1\n      sload\n      swap1\n      0x0100\n      exp\n      swap1\n      div\n      0xffffffffffffffffffffffffffffffffffffffff\n      and\n        /* \"RPS.sol\":1945:1977  payable(player[0].addr).transfer */\n      0xffffffffffffffffffffffffffffffffffffffff\n      and\n        /* \"RPS.sol\":1945:1987  payable(player[0].addr).transfer(reward/2) */\n      0x08fc\n        /* \"RPS.sol\":1985:1986  2 */\n      0x02\n        /* \"RPS.sol\":1978:1984  reward */\n      sload(0x04)\n        /* \"RPS.sol\":1978:1986  reward/2 */\n      tag_138\n      swap2\n      swap1\n      tag_117\n      jump\t// in\n    tag_138:\n        /* \"RPS.sol\":1945:1987  payable(player[0].addr).transfer(reward/2) */\n      swap1\n      dup2\n      iszero\n      mul\n      swap1\n      mload(0x40)\n      0x00\n      mload(0x40)\n      dup1\n      dup4\n      sub\n      dup2\n      dup6\n      dup9\n      dup9\n      call\n      swap4\n      pop\n      pop\n      pop\n      pop\n      iszero\n      dup1\n      iszero\n      tag_140\n      jumpi\n      returndatasize\n      0x00\n      dup1\n      returndatacopy\n      revert(0x00, returndatasize)\n    tag_140:\n      pop\n        /* \"RPS.sol\":2010:2016  player */\n      0x07\n        /* \"RPS.sol\":2010:2019  player[1] */\n      0x00\n        /* \"RPS.sol\":2017:2018  1 */\n      0x01\n        /* \"RPS.sol\":2010:2019  player[1] */\n      dup2\n      mstore\n      0x20\n      add\n      swap1\n      dup2\n      mstore\n      0x20\n      add\n      0x00\n      keccak256\n        /* \"RPS.sol\":2010:2024  player[1].addr */\n      0x01\n      add\n      0x00\n      swap1\n      sload\n      swap1\n      0x0100\n      exp\n      swap1\n      div\n      0xffffffffffffffffffffffffffffffffffffffff\n      and\n        /* \"RPS.sol\":2002:2034  payable(player[1].addr).transfer */\n      0xffffffffffffffffffffffffffffffffffffffff\n      and\n        /* \"RPS.sol\":2002:2044  payable(player[1].addr).transfer(reward/2) */\n      0x08fc\n        /* \"RPS.sol\":2042:2043  2 */\n      0x02\n        /* \"RPS.sol\":2035:2041  reward */\n      sload(0x04)\n        /* \"RPS.sol\":2035:2043  reward/2 */\n      tag_141\n      swap2\n      swap1\n      tag_117\n      jump\t// in\n    tag_141:\n        /* \"RPS.sol\":2002:2044  payable(player[1].addr).transfer(reward/2) */\n      swap1\n      dup2\n      iszero\n      mul\n      swap1\n      mload(0x40)\n      0x00\n      mload(0x40)\n      dup1\n      dup4\n      sub\n      dup2\n      dup6\n      dup9\n      dup9\n      call\n      swap4\n      pop\n      pop\n      pop\n      pop\n      iszero\n      dup1\n      iszero\n      tag_143\n      jumpi\n      returndatasize\n      0x00\n      dup1\n      returndatacopy\n      revert(0x00, returndatasize)\n    tag_143:\n      pop\n        /* \"RPS.sol\":2066:2073  commits */\n      0x01\n        /* \"RPS.sol\":2066:2089  commits[player[0].addr] */\n      0x00\n        /* \"RPS.sol\":2074:2080  player */\n      0x07\n        /* \"RPS.sol\":2074:2083  player[0] */\n      0x00\n        /* \"RPS.sol\":2081:2082  0 */\n      dup1\n        /* \"RPS.sol\":2074:2083  player[0] */\n      dup2\n      mstore\n      0x20\n      add\n      swap1\n      dup2\n      mstore\n      0x20\n      add\n      0x00\n      keccak256\n        /* \"RPS.sol\":2074:2088  player[0].addr */\n      0x01\n      add\n      0x00\n      swap1\n      sload\n      swap1\n      0x0100\n      exp\n      swap1\n      div\n      0xffffffffffffffffffffffffffffffffffffffff\n      and\n        /* \"RPS.sol\":2066:2089  commits[player[0].addr] */\n      0xffffffffffffffffffffffffffffffffffffffff\n      and\n      0xffffffffffffffffffffffffffffffffffffffff\n      and\n      dup2\n      mstore\n      0x20\n      add\n      swap1\n      dup2\n      mstore\n      0x20\n      add\n      0x00\n      keccak256\n      0x00\n        /* \"RPS.sol\":2059:2089  delete commits[player[0].addr] */\n      dup1\n      dup3\n      add\n      0x00\n      swap1\n      sstore\n      0x01\n      dup3\n      add\n      exp(0x0100, 0x00)\n      dup2\n      sload\n      swap1\n      0xffffffffffffffff\n      mul\n      not\n      and\n      swap1\n      sstore\n      0x01\n      dup3\n      add\n      exp(0x0100, 0x08)\n      dup2\n      sload\n      swap1\n      0xff\n      mul\n      not\n      and\n      swap1\n      sstore\n      pop\n      pop\n        /* \"RPS.sol\":2111:2118  commits */\n      0x01\n        /* \"RPS.sol\":2111:2134  commits[player[1].addr] */\n      0x00\n        /* \"RPS.sol\":2119:2125  player */\n      0x07\n        /* \"RPS.sol\":2119:2128  player[1] */\n      0x00\n        /* \"RPS.sol\":2126:2127  1 */\n      0x01\n        /* \"RPS.sol\":2119:2128  player[1] */\n      dup2\n      mstore\n      0x20\n      add\n      swap1\n      dup2\n      mstore\n      0x20\n      add\n      0x00\n      keccak256\n        /* \"RPS.sol\":2119:2133  player[1].addr */\n      0x01\n      add\n      0x00\n      swap1\n      sload\n      swap1\n      0x0100\n      exp\n      swap1\n      div\n      0xffffffffffffffffffffffffffffffffffffffff\n      and\n        /* \"RPS.sol\":2111:2134  commits[player[1].addr] */\n      0xffffffffffffffffffffffffffffffffffffffff\n      and\n      0xffffffffffffffffffffffffffffffffffffffff\n      and\n      dup2\n      mstore\n      0x20\n      add\n      swap1\n      dup2\n      mstore\n      0x20\n      add\n      0x00\n      keccak256\n      0x00\n        /* \"RPS.sol\":2104:2134  delete commits[player[1].addr] */\n      dup1\n      dup3\n      add\n      0x00\n      swap1\n      sstore\n      0x01\n      dup3\n      add\n      exp(0x0100, 0x00)\n      dup2\n      sload\n      swap1\n      0xffffffffffffffff\n      mul\n      not\n      and\n      swap1\n      sstore\n      0x01\n      dup3\n      add\n      exp(0x0100, 0x08)\n      dup2\n      sload\n      swap1\n      0xff\n      mul\n      not\n      and\n      swap1\n      sstore\n      pop\n      pop\n        /* \"RPS.sol\":2156:2162  player */\n      0x07\n        /* \"RPS.sol\":2156:2165  player[0] */\n      0x00\n        /* \"RPS.sol\":2163:2164  0 */\n      dup1\n        /* \"RPS.sol\":2156:2165  player[0] */\n      dup2\n      mstore\n      0x20\n      add\n      swap1\n      dup2\n      mstore\n      0x20\n      add\n      0x00\n      keccak256\n      0x00\n        /* \"RPS.sol\":2149:2165  delete player[0] */\n      dup1\n      dup3\n      add\n      0x00\n      swap1\n      sstore\n      0x01\n      dup3\n      add\n      exp(0x0100, 0x00)\n      dup2\n      sload\n      swap1\n      0xffffffffffffffffffffffffffffffffffffffff\n      mul\n      not\n      and\n      swap1\n      sstore\n      pop\n      pop\n        /* \"RPS.sol\":2187:2193  player */\n      0x07\n        /* \"RPS.sol\":2187:2196  player[1] */\n      0x00\n        /* \"RPS.sol\":2194:2195  1 */\n      0x01\n        /* \"RPS.sol\":2187:2196  player[1] */\n      dup2\n      mstore\n      0x20\n      add\n      swap1\n      dup2\n      mstore\n      0x20\n      add\n      0x00\n      keccak256\n      0x00\n        /* \"RPS.sol\":2180:2196  delete player[1] */\n      dup1\n      dup3\n      add\n      0x00\n      swap1\n      sstore\n      0x01\n      dup3\n      add\n      exp(0x0100, 0x00)\n      dup2\n      sload\n      swap1\n      0xffffffffffffffffffffffffffffffffffffffff\n      mul\n      not\n      and\n      swap1\n      sstore\n      pop\n      pop\n        /* \"RPS.sol\":2211:2222  cleardata() */\n      tag_144\n        /* \"RPS.sol\":2211:2220  cleardata */\n      tag_112\n        /* \"RPS.sol\":2211:2222  cleardata() */\n      jump\t// in\n    tag_144:\n        /* \"RPS.sol\":1869:2778  if(numPlayer == 2 && numInput == 2 && numReveal==0)... */\n      jump(tag_145)\n    tag_137:\n        /* \"RPS.sol\":2265:2266  2 */\n      0x02\n        /* \"RPS.sol\":2252:2261  numPlayer */\n      dup1\n      sload\n        /* \"RPS.sol\":2252:2266  numPlayer == 2 */\n      eq\n        /* \"RPS.sol\":2252:2283  numPlayer == 2 && numInput == 2 */\n      dup1\n      iszero\n      tag_146\n      jumpi\n      pop\n        /* \"RPS.sol\":2282:2283  2 */\n      0x02\n        /* \"RPS.sol\":2270:2278  numInput */\n      sload(0x09)\n        /* \"RPS.sol\":2270:2283  numInput == 2 */\n      eq\n        /* \"RPS.sol\":2252:2283  numPlayer == 2 && numInput == 2 */\n    tag_146:\n        /* \"RPS.sol\":2252:2299  numPlayer == 2 && numInput == 2 && numReveal==1 */\n      dup1\n      iszero\n      tag_147\n      jumpi\n      pop\n        /* \"RPS.sol\":2298:2299  1 */\n      0x01\n        /* \"RPS.sol\":2287:2296  numReveal */\n      sload(0x03)\n        /* \"RPS.sol\":2287:2299  numReveal==1 */\n      eq\n        /* \"RPS.sol\":2252:2299  numPlayer == 2 && numInput == 2 && numReveal==1 */\n    tag_147:\n        /* \"RPS.sol\":2249:2778  if(numPlayer == 2 && numInput == 2 && numReveal==1)... */\n      iszero\n      tag_148\n      jumpi\n        /* \"RPS.sol\":2328:2335  commits */\n      0x01\n        /* \"RPS.sol\":2328:2351  commits[player[1].addr] */\n      0x00\n        /* \"RPS.sol\":2336:2342  player */\n      0x07\n        /* \"RPS.sol\":2336:2345  player[1] */\n      0x00\n        /* \"RPS.sol\":2343:2344  1 */\n      0x01\n        /* \"RPS.sol\":2336:2345  player[1] */\n      dup2\n      mstore\n      0x20\n      add\n      swap1\n      dup2\n      mstore\n      0x20\n      add\n      0x00\n      keccak256\n        /* \"RPS.sol\":2336:2350  player[1].addr */\n      0x01\n      add\n      0x00\n      swap1\n      sload\n      swap1\n      0x0100\n      exp\n      swap1\n      div\n      0xffffffffffffffffffffffffffffffffffffffff\n      and\n        /* \"RPS.sol\":2328:2351  commits[player[1].addr] */\n      0xffffffffffffffffffffffffffffffffffffffff\n      and\n      0xffffffffffffffffffffffffffffffffffffffff\n      and\n      dup2\n      mstore\n      0x20\n      add\n      swap1\n      dup2\n      mstore\n      0x20\n      add\n      0x00\n      keccak256\n        /* \"RPS.sol\":2328:2360  commits[player[1].addr].revealed */\n      0x01\n      add\n      0x08\n      swap1\n      sload\n      swap1\n      0x0100\n      exp\n      swap1\n      div\n      0xff\n      and\n        /* \"RPS.sol\":2325:2450  if(commits[player[1].addr].revealed)... */\n      iszero\n      tag_149\n      jumpi\n        /* \"RPS.sol\":2402:2408  player */\n      0x07\n        /* \"RPS.sol\":2402:2411  player[1] */\n      0x00\n        /* \"RPS.sol\":2409:2410  1 */\n      0x01\n        /* \"RPS.sol\":2402:2411  player[1] */\n      dup2\n      mstore\n      0x20\n      add\n      swap1\n      dup2\n      mstore\n      0x20\n      add\n      0x00\n      keccak256\n        /* \"RPS.sol\":2402:2416  player[1].addr */\n      0x01\n      add\n      0x00\n      swap1\n      sload\n      swap1\n      0x0100\n      exp\n      swap1\n      div\n      0xffffffffffffffffffffffffffffffffffffffff\n      and\n        /* \"RPS.sol\":2394:2426  payable(player[1].addr).transfer */\n      0xffffffffffffffffffffffffffffffffffffffff\n      and\n        /* \"RPS.sol\":2394:2434  payable(player[1].addr).transfer(reward) */\n      0x08fc\n        /* \"RPS.sol\":2427:2433  reward */\n      sload(0x04)\n        /* \"RPS.sol\":2394:2434  payable(player[1].addr).transfer(reward) */\n      swap1\n      dup2\n      iszero\n      mul\n      swap1\n      mload(0x40)\n      0x00\n      mload(0x40)\n      dup1\n      dup4\n      sub\n      dup2\n      dup6\n      dup9\n      dup9\n      call\n      swap4\n      pop\n      pop\n      pop\n      pop\n      iszero\n      dup1\n      iszero\n      tag_151\n      jumpi\n      returndatasize\n      0x00\n      dup1\n      returndatacopy\n      revert(0x00, returndatasize)\n    tag_151:\n      pop\n        /* \"RPS.sol\":2325:2450  if(commits[player[1].addr].revealed)... */\n    tag_149:\n        /* \"RPS.sol\":2467:2474  commits */\n      0x01\n        /* \"RPS.sol\":2467:2490  commits[player[0].addr] */\n      0x00\n        /* \"RPS.sol\":2475:2481  player */\n      0x07\n        /* \"RPS.sol\":2475:2484  player[0] */\n      0x00\n        /* \"RPS.sol\":2482:2483  0 */\n      dup1\n        /* \"RPS.sol\":2475:2484  player[0] */\n      dup2\n      mstore\n      0x20\n      add\n      swap1\n      dup2\n      mstore\n      0x20\n      add\n      0x00\n      keccak256\n        /* \"RPS.sol\":2475:2489  player[0].addr */\n      0x01\n      add\n      0x00\n      swap1\n      sload\n      swap1\n      0x0100\n      exp\n      swap1\n      div\n      0xffffffffffffffffffffffffffffffffffffffff\n      and\n        /* \"RPS.sol\":2467:2490  commits[player[0].addr] */\n      0xffffffffffffffffffffffffffffffffffffffff\n      and\n      0xffffffffffffffffffffffffffffffffffffffff\n      and\n      dup2\n      mstore\n      0x20\n      add\n      swap1\n      dup2\n      mstore\n      0x20\n      add\n      0x00\n      keccak256\n        /* \"RPS.sol\":2467:2499  commits[player[0].addr].revealed */\n      0x01\n      add\n      0x08\n      swap1\n      sload\n      swap1\n      0x0100\n      exp\n      swap1\n      div\n      0xff\n      and\n        /* \"RPS.sol\":2464:2589  if(commits[player[0].addr].revealed)... */\n      iszero\n      tag_152\n      jumpi\n        /* \"RPS.sol\":2541:2547  player */\n      0x07\n        /* \"RPS.sol\":2541:2550  player[0] */\n      0x00\n        /* \"RPS.sol\":2548:2549  0 */\n      dup1\n        /* \"RPS.sol\":2541:2550  player[0] */\n      dup2\n      mstore\n      0x20\n      add\n      swap1\n      dup2\n      mstore\n      0x20\n      add\n      0x00\n      keccak256\n        /* \"RPS.sol\":2541:2555  player[0].addr */\n      0x01\n      add\n      0x00\n      swap1\n      sload\n      swap1\n      0x0100\n      exp\n      swap1\n      div\n      0xffffffffffffffffffffffffffffffffffffffff\n      and\n        /* \"RPS.sol\":2533:2565  payable(player[0].addr).transfer */\n      0xffffffffffffffffffffffffffffffffffffffff\n      and\n        /* \"RPS.sol\":2533:2573  payable(player[0].addr).transfer(reward) */\n      0x08fc\n        /* \"RPS.sol\":2566:2572  reward */\n      sload(0x04)\n        /* \"RPS.sol\":2533:2573  payable(player[0].addr).transfer(reward) */\n      swap1\n      dup2\n      iszero\n      mul\n      swap1\n      mload(0x40)\n      0x00\n      mload(0x40)\n      dup1\n      dup4\n      sub\n      dup2\n      dup6\n      dup9\n      dup9\n      call\n      swap4\n      pop\n      pop\n      pop\n      pop\n      iszero\n      dup1\n      iszero\n      tag_154\n      jumpi\n      returndatasize\n      0x00\n      dup1\n      returndatacopy\n      revert(0x00, returndatasize)\n    tag_154:\n      pop\n        /* \"RPS.sol\":2464:2589  if(commits[player[0].addr].revealed)... */\n    tag_152:\n        /* \"RPS.sol\":2610:2617  commits */\n      0x01\n        /* \"RPS.sol\":2610:2633  commits[player[0].addr] */\n      0x00\n        /* \"RPS.sol\":2618:2624  player */\n      0x07\n        /* \"RPS.sol\":2618:2627  player[0] */\n      0x00\n        /* \"RPS.sol\":2625:2626  0 */\n      dup1\n        /* \"RPS.sol\":2618:2627  player[0] */\n      dup2\n      mstore\n      0x20\n      add\n      swap1\n      dup2\n      mstore\n      0x20\n      add\n      0x00\n      keccak256\n        /* \"RPS.sol\":2618:2632  player[0].addr */\n      0x01\n      add\n      0x00\n      swap1\n      sload\n      swap1\n      0x0100\n      exp\n      swap1\n      div\n      0xffffffffffffffffffffffffffffffffffffffff\n      and\n        /* \"RPS.sol\":2610:2633  commits[player[0].addr] */\n      0xffffffffffffffffffffffffffffffffffffffff\n      and\n      0xffffffffffffffffffffffffffffffffffffffff\n      and\n      dup2\n      mstore\n      0x20\n      add\n      swap1\n      dup2\n      mstore\n      0x20\n      add\n      0x00\n      keccak256\n      0x00\n        /* \"RPS.sol\":2603:2633  delete commits[player[0].addr] */\n      dup1\n      dup3\n      add\n      0x00\n      swap1\n      sstore\n      0x01\n      dup3\n      add\n      exp(0x0100, 0x00)\n      dup2\n      sload\n      swap1\n      0xffffffffffffffff\n      mul\n      not\n      and\n      swap1\n      sstore\n      0x01\n      dup3\n      add\n      exp(0x0100, 0x08)\n      dup2\n      sload\n      swap1\n      0xff\n      mul\n      not\n      and\n      swap1\n      sstore\n      pop\n      pop\n        /* \"RPS.sol\":2655:2662  commits */\n      0x01\n        /* \"RPS.sol\":2655:2678  commits[player[1].addr] */\n      0x00\n        /* \"RPS.sol\":2663:2669  player */\n      0x07\n        /* \"RPS.sol\":2663:2672  player[1] */\n      0x00\n        /* \"RPS.sol\":2670:2671  1 */\n      0x01\n        /* \"RPS.sol\":2663:2672  player[1] */\n      dup2\n      mstore\n      0x20\n      add\n      swap1\n      dup2\n      mstore\n      0x20\n      add\n      0x00\n      keccak256\n        /* \"RPS.sol\":2663:2677  player[1].addr */\n      0x01\n      add\n      0x00\n      swap1\n      sload\n      swap1\n      0x0100\n      exp\n      swap1\n      div\n      0xffffffffffffffffffffffffffffffffffffffff\n      and\n        /* \"RPS.sol\":2655:2678  commits[player[1].addr] */\n      0xffffffffffffffffffffffffffffffffffffffff\n      and\n      0xffffffffffffffffffffffffffffffffffffffff\n      and\n      dup2\n      mstore\n      0x20\n      add\n      swap1\n      dup2\n      mstore\n      0x20\n      add\n      0x00\n      keccak256\n      0x00\n        /* \"RPS.sol\":2648:2678  delete commits[player[1].addr] */\n      dup1\n      dup3\n      add\n      0x00\n      swap1\n      sstore\n      0x01\n      dup3\n      add\n      exp(0x0100, 0x00)\n      dup2\n      sload\n      swap1\n      0xffffffffffffffff\n      mul\n      not\n      and\n      swap1\n      sstore\n      0x01\n      dup3\n      add\n      exp(0x0100, 0x08)\n      dup2\n      sload\n      swap1\n      0xff\n      mul\n      not\n      and\n      swap1\n      sstore\n      pop\n      pop\n        /* \"RPS.sol\":2700:2706  player */\n      0x07\n        /* \"RPS.sol\":2700:2709  player[0] */\n      0x00\n        /* \"RPS.sol\":2707:2708  0 */\n      dup1\n        /* \"RPS.sol\":2700:2709  player[0] */\n      dup2\n      mstore\n      0x20\n      add\n      swap1\n      dup2\n      mstore\n      0x20\n      add\n      0x00\n      keccak256\n      0x00\n        /* \"RPS.sol\":2693:2709  delete player[0] */\n      dup1\n      dup3\n      add\n      0x00\n      swap1\n      sstore\n      0x01\n      dup3\n      add\n      exp(0x0100, 0x00)\n      dup2\n      sload\n      swap1\n      0xffffffffffffffffffffffffffffffffffffffff\n      mul\n      not\n      and\n      swap1\n      sstore\n      pop\n      pop\n        /* \"RPS.sol\":2731:2737  player */\n      0x07\n        /* \"RPS.sol\":2731:2740  player[1] */\n      0x00\n        /* \"RPS.sol\":2738:2739  1 */\n      0x01\n        /* \"RPS.sol\":2731:2740  player[1] */\n      dup2\n      mstore\n      0x20\n      add\n      swap1\n      dup2\n      mstore\n      0x20\n      add\n      0x00\n      keccak256\n      0x00\n        /* \"RPS.sol\":2724:2740  delete player[1] */\n      dup1\n      dup3\n      add\n      0x00\n      swap1\n      sstore\n      0x01\n      dup3\n      add\n      exp(0x0100, 0x00)\n      dup2\n      sload\n      swap1\n      0xffffffffffffffffffffffffffffffffffffffff\n      mul\n      not\n      and\n      swap1\n      sstore\n      pop\n      pop\n        /* \"RPS.sol\":2755:2766  cleardata() */\n      tag_155\n        /* \"RPS.sol\":2755:2764  cleardata */\n      tag_112\n        /* \"RPS.sol\":2755:2766  cleardata() */\n      jump\t// in\n    tag_155:\n        /* \"RPS.sol\":2249:2778  if(numPlayer == 2 && numInput == 2 && numReveal==1)... */\n    tag_148:\n        /* \"RPS.sol\":1869:2778  if(numPlayer == 2 && numInput == 2 && numReveal==0)... */\n    tag_145:\n        /* \"RPS.sol\":1253:2778  if(numPlayer==2 && numInput==1)... */\n    tag_134:\n        /* \"RPS.sol\":983:2778  if(numPlayer==2 && numInput==0)... */\n    tag_124:\n        /* \"RPS.sol\":818:2778  if(numPlayer==1)... */\n    tag_113:\n        /* \"RPS.sol\":702:2785  function checkTimeOut() public {... */\n      jump\t// out\n        /* \"RPS.sol\":299:324  uint public numReveal = 0 */\n    tag_69:\n      sload(0x03)\n      dup2\n      jump\t// out\n        /* \"RPS.sol\":3148:3357  function input(bytes32 hashedChoice) public  {... */\n    tag_75:\n        /* \"RPS.sol\":3225:3226  2 */\n      0x02\n        /* \"RPS.sol\":3212:3221  numPlayer */\n      dup1\n      sload\n        /* \"RPS.sol\":3212:3226  numPlayer == 2 */\n      eq\n        /* \"RPS.sol\":3204:3227  require(numPlayer == 2) */\n      tag_157\n      jumpi\n      0x00\n      dup1\n      revert\n    tag_157:\n        /* \"RPS.sol\":3260:3266  player */\n      0x07\n        /* \"RPS.sol\":3260:3291  player[playerIndex[msg.sender]] */\n      0x00\n        /* \"RPS.sol\":3267:3278  playerIndex */\n      0x08\n        /* \"RPS.sol\":3267:3290  playerIndex[msg.sender] */\n      0x00\n        /* \"RPS.sol\":3279:3289  msg.sender */\n      caller\n        /* \"RPS.sol\":3267:3290  playerIndex[msg.sender] */\n      0xffffffffffffffffffffffffffffffffffffffff\n      and\n      0xffffffffffffffffffffffffffffffffffffffff\n      and\n      dup2\n      mstore\n      0x20\n      add\n      swap1\n      dup2\n      mstore\n      0x20\n      add\n      0x00\n      keccak256\n      sload\n        /* \"RPS.sol\":3260:3291  player[playerIndex[msg.sender]] */\n      dup2\n      mstore\n      0x20\n      add\n      swap1\n      dup2\n      mstore\n      0x20\n      add\n      0x00\n      keccak256\n        /* \"RPS.sol\":3260:3296  player[playerIndex[msg.sender]].addr */\n      0x01\n      add\n      0x00\n      swap1\n      sload\n      swap1\n      0x0100\n      exp\n      swap1\n      div\n      0xffffffffffffffffffffffffffffffffffffffff\n      and\n        /* \"RPS.sol\":3246:3296  msg.sender == player[playerIndex[msg.sender]].addr */\n      0xffffffffffffffffffffffffffffffffffffffff\n      and\n        /* \"RPS.sol\":3246:3256  msg.sender */\n      caller\n        /* \"RPS.sol\":3246:3296  msg.sender == player[playerIndex[msg.sender]].addr */\n      0xffffffffffffffffffffffffffffffffffffffff\n      and\n      eq\n        /* \"RPS.sol\":3238:3297  require(msg.sender == player[playerIndex[msg.sender]].addr) */\n      tag_158\n      jumpi\n      0x00\n      dup1\n      revert\n    tag_158:\n        /* \"RPS.sol\":3308:3328  commit(hashedChoice) */\n      tag_159\n        /* \"RPS.sol\":3315:3327  hashedChoice */\n      dup2\n        /* \"RPS.sol\":3308:3314  commit */\n      tag_160\n        /* \"RPS.sol\":3308:3328  commit(hashedChoice) */\n      jump\t// in\n    tag_159:\n        /* \"RPS.sol\":3339:3347  numInput */\n      0x09\n      0x00\n        /* \"RPS.sol\":3339:3349  numInput++ */\n      dup2\n      sload\n      dup1\n      swap3\n      swap2\n      swap1\n      tag_161\n      swap1\n      tag_82\n      jump\t// in\n    tag_161:\n      swap2\n      swap1\n      pop\n      sstore\n      pop\n        /* \"RPS.sol\":3148:3357  function input(bytes32 hashedChoice) public  {... */\n      pop\n      jump\t// out\n        /* \"CommitReveal.sol\":2536:2689  function getSaltedHash(bytes32 data,bytes32 salt) internal  view returns(bytes32){... */\n    tag_90:\n        /* \"CommitReveal.sol\":2609:2616  bytes32 */\n      0x00\n        /* \"CommitReveal.sol\":2665:2669  this */\n      address\n        /* \"CommitReveal.sol\":2672:2676  data */\n      dup4\n        /* \"CommitReveal.sol\":2678:2682  salt */\n      dup4\n        /* \"CommitReveal.sol\":2640:2683  abi.encodePacked(address(this), data, salt) */\n      add(0x20, mload(0x40))\n      tag_163\n      swap4\n      swap3\n      swap2\n      swap1\n      tag_164\n      jump\t// in\n    tag_163:\n      mload(0x40)\n      0x20\n      dup2\n      dup4\n      sub\n      sub\n      dup2\n      mstore\n      swap1\n      0x40\n      mstore\n        /* \"CommitReveal.sol\":2630:2684  keccak256(abi.encodePacked(address(this), data, salt)) */\n      dup1\n      mload\n      swap1\n      0x20\n      add\n      keccak256\n        /* \"CommitReveal.sol\":2623:2684  return keccak256(abi.encodePacked(address(this), data, salt)) */\n      swap1\n      pop\n        /* \"CommitReveal.sol\":2536:2689  function getSaltedHash(bytes32 data,bytes32 salt) internal  view returns(bytes32){... */\n      swap3\n      swap2\n      pop\n      pop\n      jump\t// out\n        /* \"CommitReveal.sol\":1958:2464  function revealAnswer(bytes32 answer,bytes32 salt) internal  {... */\n    tag_98:\n        /* \"CommitReveal.sol\":2130:2135  false */\n      0x00\n        /* \"CommitReveal.sol\":2100:2135  commits[msg.sender].revealed==false */\n      iszero\n      iszero\n        /* \"CommitReveal.sol\":2100:2107  commits */\n      0x01\n        /* \"CommitReveal.sol\":2100:2119  commits[msg.sender] */\n      0x00\n        /* \"CommitReveal.sol\":2108:2118  msg.sender */\n      caller\n        /* \"CommitReveal.sol\":2100:2119  commits[msg.sender] */\n      0xffffffffffffffffffffffffffffffffffffffff\n      and\n      0xffffffffffffffffffffffffffffffffffffffff\n      and\n      dup2\n      mstore\n      0x20\n      add\n      swap1\n      dup2\n      mstore\n      0x20\n      add\n      0x00\n      keccak256\n        /* \"CommitReveal.sol\":2100:2128  commits[msg.sender].revealed */\n      0x01\n      add\n      0x08\n      swap1\n      sload\n      swap1\n      0x0100\n      exp\n      swap1\n      div\n      0xff\n      and\n        /* \"CommitReveal.sol\":2100:2135  commits[msg.sender].revealed==false */\n      iszero\n      iszero\n      eq\n        /* \"CommitReveal.sol\":2092:2183  require(commits[msg.sender].revealed==false,\"CommitReveal::revealAnswer: Already revealed\") */\n      tag_166\n      jumpi\n      mload(0x40)\n      0x08c379a000000000000000000000000000000000000000000000000000000000\n      dup2\n      mstore\n      0x04\n      add\n      tag_167\n      swap1\n      tag_168\n      jump\t// in\n    tag_167:\n      mload(0x40)\n      dup1\n      swap2\n      sub\n      swap1\n      revert\n    tag_166:\n        /* \"CommitReveal.sol\":2218:2222  true */\n      0x01\n        /* \"CommitReveal.sol\":2189:2196  commits */\n      dup1\n        /* \"CommitReveal.sol\":2189:2208  commits[msg.sender] */\n      0x00\n        /* \"CommitReveal.sol\":2197:2207  msg.sender */\n      caller\n        /* \"CommitReveal.sol\":2189:2208  commits[msg.sender] */\n      0xffffffffffffffffffffffffffffffffffffffff\n      and\n      0xffffffffffffffffffffffffffffffffffffffff\n      and\n      dup2\n      mstore\n      0x20\n      add\n      swap1\n      dup2\n      mstore\n      0x20\n      add\n      0x00\n      keccak256\n        /* \"CommitReveal.sol\":2189:2217  commits[msg.sender].revealed */\n      0x01\n      add\n      0x08\n        /* \"CommitReveal.sol\":2189:2222  commits[msg.sender].revealed=true */\n      0x0100\n      exp\n      dup2\n      sload\n      dup2\n      0xff\n      mul\n      not\n      and\n      swap1\n      dup4\n      iszero\n      iszero\n      mul\n      or\n      swap1\n      sstore\n      pop\n        /* \"CommitReveal.sol\":2319:2326  commits */\n      0x01\n        /* \"CommitReveal.sol\":2319:2338  commits[msg.sender] */\n      0x00\n        /* \"CommitReveal.sol\":2327:2337  msg.sender */\n      caller\n        /* \"CommitReveal.sol\":2319:2338  commits[msg.sender] */\n      0xffffffffffffffffffffffffffffffffffffffff\n      and\n      0xffffffffffffffffffffffffffffffffffffffff\n      and\n      dup2\n      mstore\n      0x20\n      add\n      swap1\n      dup2\n      mstore\n      0x20\n      add\n      0x00\n      keccak256\n        /* \"CommitReveal.sol\":2319:2345  commits[msg.sender].commit */\n      0x00\n      add\n      sload\n        /* \"CommitReveal.sol\":2291:2317  getSaltedHash(answer,salt) */\n      tag_169\n        /* \"CommitReveal.sol\":2305:2311  answer */\n      dup4\n        /* \"CommitReveal.sol\":2312:2316  salt */\n      dup4\n        /* \"CommitReveal.sol\":2291:2304  getSaltedHash */\n      tag_90\n        /* \"CommitReveal.sol\":2291:2317  getSaltedHash(answer,salt) */\n      jump\t// in\n    tag_169:\n        /* \"CommitReveal.sol\":2291:2345  getSaltedHash(answer,salt)==commits[msg.sender].commit */\n      eq\n        /* \"CommitReveal.sol\":2283:2412  require(getSaltedHash(answer,salt)==commits[msg.sender].commit,\"CommitReveal::revealAnswer: Revealed hash does not match commit\") */\n      tag_170\n      jumpi\n      mload(0x40)\n      0x08c379a000000000000000000000000000000000000000000000000000000000\n      dup2\n      mstore\n      0x04\n      add\n      tag_171\n      swap1\n      tag_172\n      jump\t// in\n    tag_171:\n      mload(0x40)\n      dup1\n      swap2\n      sub\n      swap1\n      revert\n    tag_170:\n        /* \"CommitReveal.sol\":2423:2459  RevealAnswer(msg.sender,answer,salt) */\n      0x8bed02c4d61e56ed1d90657e7a0ba48f15cca20fcc2899d7235221b2cb0423a6\n        /* \"CommitReveal.sol\":2436:2446  msg.sender */\n      caller\n        /* \"CommitReveal.sol\":2447:2453  answer */\n      dup4\n        /* \"CommitReveal.sol\":2454:2458  salt */\n      dup4\n        /* \"CommitReveal.sol\":2423:2459  RevealAnswer(msg.sender,answer,salt) */\n      mload(0x40)\n      tag_173\n      swap4\n      swap3\n      swap2\n      swap1\n      tag_174\n      jump\t// in\n    tag_173:\n      mload(0x40)\n      dup1\n      swap2\n      sub\n      swap1\n      log1\n        /* \"CommitReveal.sol\":1958:2464  function revealAnswer(bytes32 answer,bytes32 salt) internal  {... */\n      pop\n      pop\n      jump\t// out\n        /* \"RPS.sol\":3996:4826  function _checkWinnerAndPay() private {... */\n    tag_102:\n        /* \"RPS.sol\":4045:4058  uint p0Choice */\n      0x00\n        /* \"RPS.sol\":4061:4067  player */\n      0x07\n        /* \"RPS.sol\":4061:4070  player[0] */\n      0x00\n        /* \"RPS.sol\":4068:4069  0 */\n      dup1\n        /* \"RPS.sol\":4061:4070  player[0] */\n      dup2\n      mstore\n      0x20\n      add\n      swap1\n      dup2\n      mstore\n      0x20\n      add\n      0x00\n      keccak256\n        /* \"RPS.sol\":4061:4077  player[0].choice */\n      0x00\n      add\n      sload\n        /* \"RPS.sol\":4045:4077  uint p0Choice = player[0].choice */\n      swap1\n      pop\n        /* \"RPS.sol\":4088:4101  uint p1Choice */\n      0x00\n        /* \"RPS.sol\":4104:4110  player */\n      0x07\n        /* \"RPS.sol\":4104:4113  player[1] */\n      0x00\n        /* \"RPS.sol\":4111:4112  1 */\n      0x01\n        /* \"RPS.sol\":4104:4113  player[1] */\n      dup2\n      mstore\n      0x20\n      add\n      swap1\n      dup2\n      mstore\n      0x20\n      add\n      0x00\n      keccak256\n        /* \"RPS.sol\":4104:4120  player[1].choice */\n      0x00\n      add\n      sload\n        /* \"RPS.sol\":4088:4120  uint p1Choice = player[1].choice */\n      swap1\n      pop\n        /* \"RPS.sol\":4131:4155  address payable account0 */\n      0x00\n        /* \"RPS.sol\":4166:4172  player */\n      0x07\n        /* \"RPS.sol\":4166:4175  player[0] */\n      0x00\n        /* \"RPS.sol\":4173:4174  0 */\n      dup1\n        /* \"RPS.sol\":4166:4175  player[0] */\n      dup2\n      mstore\n      0x20\n      add\n      swap1\n      dup2\n      mstore\n      0x20\n      add\n      0x00\n      keccak256\n        /* \"RPS.sol\":4166:4180  player[0].addr */\n      0x01\n      add\n      0x00\n      swap1\n      sload\n      swap1\n      0x0100\n      exp\n      swap1\n      div\n      0xffffffffffffffffffffffffffffffffffffffff\n      and\n        /* \"RPS.sol\":4131:4181  address payable account0 = payable(player[0].addr) */\n      swap1\n      pop\n        /* \"RPS.sol\":4192:4216  address payable account1 */\n      0x00\n        /* \"RPS.sol\":4227:4233  player */\n      0x07\n        /* \"RPS.sol\":4227:4236  player[1] */\n      0x00\n        /* \"RPS.sol\":4234:4235  1 */\n      0x01\n        /* \"RPS.sol\":4227:4236  player[1] */\n      dup2\n      mstore\n      0x20\n      add\n      swap1\n      dup2\n      mstore\n      0x20\n      add\n      0x00\n      keccak256\n        /* \"RPS.sol\":4227:4241  player[1].addr */\n      0x01\n      add\n      0x00\n      swap1\n      sload\n      swap1\n      0x0100\n      exp\n      swap1\n      div\n      0xffffffffffffffffffffffffffffffffffffffff\n      and\n        /* \"RPS.sol\":4192:4242  address payable account1 = payable(player[1].addr) */\n      swap1\n      pop\n        /* \"RPS.sol\":4279:4287  p1Choice */\n      dup3\n        /* \"RPS.sol\":4274:4275  3 */\n      0x03\n        /* \"RPS.sol\":4269:4270  1 */\n      0x01\n        /* \"RPS.sol\":4258:4266  p0Choice */\n      dup7\n        /* \"RPS.sol\":4258:4270  p0Choice + 1 */\n      tag_176\n      swap2\n      swap1\n      tag_80\n      jump\t// in\n    tag_176:\n        /* \"RPS.sol\":4257:4275  (p0Choice + 1) % 3 */\n      tag_177\n      swap2\n      swap1\n      tag_178\n      jump\t// in\n    tag_177:\n        /* \"RPS.sol\":4257:4287  (p0Choice + 1) % 3 == p1Choice */\n      sub\n        /* \"RPS.sol\":4253:4661  if ((p0Choice + 1) % 3 == p1Choice) {... */\n      tag_179\n      jumpi\n        /* \"RPS.sol\":4337:4345  account1 */\n      dup1\n        /* \"RPS.sol\":4337:4354  account1.transfer */\n      0xffffffffffffffffffffffffffffffffffffffff\n      and\n        /* \"RPS.sol\":4337:4362  account1.transfer(reward) */\n      0x08fc\n        /* \"RPS.sol\":4355:4361  reward */\n      sload(0x04)\n        /* \"RPS.sol\":4337:4362  account1.transfer(reward) */\n      swap1\n      dup2\n      iszero\n      mul\n      swap1\n      mload(0x40)\n      0x00\n      mload(0x40)\n      dup1\n      dup4\n      sub\n      dup2\n      dup6\n      dup9\n      dup9\n      call\n      swap4\n      pop\n      pop\n      pop\n      pop\n      iszero\n      dup1\n      iszero\n      tag_181\n      jumpi\n      returndatasize\n      0x00\n      dup1\n      returndatacopy\n      revert(0x00, returndatasize)\n    tag_181:\n      pop\n        /* \"RPS.sol\":4253:4661  if ((p0Choice + 1) % 3 == p1Choice) {... */\n      jump(tag_182)\n    tag_179:\n        /* \"RPS.sol\":4415:4423  p0Choice */\n      dup4\n        /* \"RPS.sol\":4410:4411  3 */\n      0x03\n        /* \"RPS.sol\":4405:4406  1 */\n      0x01\n        /* \"RPS.sol\":4394:4402  p1Choice */\n      dup6\n        /* \"RPS.sol\":4394:4406  p1Choice + 1 */\n      tag_183\n      swap2\n      swap1\n      tag_80\n      jump\t// in\n    tag_183:\n        /* \"RPS.sol\":4393:4411  (p1Choice + 1) % 3 */\n      tag_184\n      swap2\n      swap1\n      tag_178\n      jump\t// in\n    tag_184:\n        /* \"RPS.sol\":4393:4423  (p1Choice + 1) % 3 == p0Choice */\n      sub\n        /* \"RPS.sol\":4389:4661  if ((p1Choice + 1) % 3 == p0Choice) {... */\n      tag_185\n      jumpi\n        /* \"RPS.sol\":4473:4481  account0 */\n      dup2\n        /* \"RPS.sol\":4473:4490  account0.transfer */\n      0xffffffffffffffffffffffffffffffffffffffff\n      and\n        /* \"RPS.sol\":4473:4498  account0.transfer(reward) */\n      0x08fc\n        /* \"RPS.sol\":4491:4497  reward */\n      sload(0x04)\n        /* \"RPS.sol\":4473:4498  account0.transfer(reward) */\n      swap1\n      dup2\n      iszero\n      mul\n      swap1\n      mload(0x40)\n      0x00\n      mload(0x40)\n      dup1\n      dup4\n      sub\n      dup2\n      dup6\n      dup9\n      dup9\n      call\n      swap4\n      pop\n      pop\n      pop\n      pop\n      iszero\n      dup1\n      iszero\n      tag_187\n      jumpi\n      returndatasize\n      0x00\n      dup1\n      returndatacopy\n      revert(0x00, returndatasize)\n    tag_187:\n      pop\n        /* \"RPS.sol\":4389:4661  if ((p1Choice + 1) % 3 == p0Choice) {... */\n      jump(tag_188)\n    tag_185:\n        /* \"RPS.sol\":4576:4584  account0 */\n      dup2\n        /* \"RPS.sol\":4576:4593  account0.transfer */\n      0xffffffffffffffffffffffffffffffffffffffff\n      and\n        /* \"RPS.sol\":4576:4605  account0.transfer(reward / 2) */\n      0x08fc\n        /* \"RPS.sol\":4603:4604  2 */\n      0x02\n        /* \"RPS.sol\":4594:4600  reward */\n      sload(0x04)\n        /* \"RPS.sol\":4594:4604  reward / 2 */\n      tag_189\n      swap2\n      swap1\n      tag_117\n      jump\t// in\n    tag_189:\n        /* \"RPS.sol\":4576:4605  account0.transfer(reward / 2) */\n      swap1\n      dup2\n      iszero\n      mul\n      swap1\n      mload(0x40)\n      0x00\n      mload(0x40)\n      dup1\n      dup4\n      sub\n      dup2\n      dup6\n      dup9\n      dup9\n      call\n      swap4\n      pop\n      pop\n      pop\n      pop\n      iszero\n      dup1\n      iszero\n      tag_191\n      jumpi\n      returndatasize\n      0x00\n      dup1\n      returndatacopy\n      revert(0x00, returndatasize)\n    tag_191:\n      pop\n        /* \"RPS.sol\":4620:4628  account1 */\n      dup1\n        /* \"RPS.sol\":4620:4637  account1.transfer */\n      0xffffffffffffffffffffffffffffffffffffffff\n      and\n        /* \"RPS.sol\":4620:4649  account1.transfer(reward / 2) */\n      0x08fc\n        /* \"RPS.sol\":4647:4648  2 */\n      0x02\n        /* \"RPS.sol\":4638:4644  reward */\n      sload(0x04)\n        /* \"RPS.sol\":4638:4648  reward / 2 */\n      tag_192\n      swap2\n      swap1\n      tag_117\n      jump\t// in\n    tag_192:\n        /* \"RPS.sol\":4620:4649  account1.transfer(reward / 2) */\n      swap1\n      dup2\n      iszero\n      mul\n      swap1\n      mload(0x40)\n      0x00\n      mload(0x40)\n      dup1\n      dup4\n      sub\n      dup2\n      dup6\n      dup9\n      dup9\n      call\n      swap4\n      pop\n      pop\n      pop\n      pop\n      iszero\n      dup1\n      iszero\n      tag_194\n      jumpi\n      returndatasize\n      0x00\n      dup1\n      returndatacopy\n      revert(0x00, returndatasize)\n    tag_194:\n      pop\n        /* \"RPS.sol\":4389:4661  if ((p1Choice + 1) % 3 == p0Choice) {... */\n    tag_188:\n        /* \"RPS.sol\":4253:4661  if ((p0Choice + 1) % 3 == p1Choice) {... */\n    tag_182:\n        /* \"RPS.sol\":4678:4685  commits */\n      0x01\n        /* \"RPS.sol\":4678:4701  commits[player[0].addr] */\n      0x00\n        /* \"RPS.sol\":4686:4692  player */\n      0x07\n        /* \"RPS.sol\":4686:4695  player[0] */\n      0x00\n        /* \"RPS.sol\":4693:4694  0 */\n      dup1\n        /* \"RPS.sol\":4686:4695  player[0] */\n      dup2\n      mstore\n      0x20\n      add\n      swap1\n      dup2\n      mstore\n      0x20\n      add\n      0x00\n      keccak256\n        /* \"RPS.sol\":4686:4700  player[0].addr */\n      0x01\n      add\n      0x00\n      swap1\n      sload\n      swap1\n      0x0100\n      exp\n      swap1\n      div\n      0xffffffffffffffffffffffffffffffffffffffff\n      and\n        /* \"RPS.sol\":4678:4701  commits[player[0].addr] */\n      0xffffffffffffffffffffffffffffffffffffffff\n      and\n      0xffffffffffffffffffffffffffffffffffffffff\n      and\n      dup2\n      mstore\n      0x20\n      add\n      swap1\n      dup2\n      mstore\n      0x20\n      add\n      0x00\n      keccak256\n      0x00\n        /* \"RPS.sol\":4671:4701  delete commits[player[0].addr] */\n      dup1\n      dup3\n      add\n      0x00\n      swap1\n      sstore\n      0x01\n      dup3\n      add\n      exp(0x0100, 0x00)\n      dup2\n      sload\n      swap1\n      0xffffffffffffffff\n      mul\n      not\n      and\n      swap1\n      sstore\n      0x01\n      dup3\n      add\n      exp(0x0100, 0x08)\n      dup2\n      sload\n      swap1\n      0xff\n      mul\n      not\n      and\n      swap1\n      sstore\n      pop\n      pop\n        /* \"RPS.sol\":4719:4726  commits */\n      0x01\n        /* \"RPS.sol\":4719:4742  commits[player[1].addr] */\n      0x00\n        /* \"RPS.sol\":4727:4733  player */\n      0x07\n        /* \"RPS.sol\":4727:4736  player[1] */\n      0x00\n        /* \"RPS.sol\":4734:4735  1 */\n      0x01\n        /* \"RPS.sol\":4727:4736  player[1] */\n      dup2\n      mstore\n      0x20\n      add\n      swap1\n      dup2\n      mstore\n      0x20\n      add\n      0x00\n      keccak256\n        /* \"RPS.sol\":4727:4741  player[1].addr */\n      0x01\n      add\n      0x00\n      swap1\n      sload\n      swap1\n      0x0100\n      exp\n      swap1\n      div\n      0xffffffffffffffffffffffffffffffffffffffff\n      and\n        /* \"RPS.sol\":4719:4742  commits[player[1].addr] */\n      0xffffffffffffffffffffffffffffffffffffffff\n      and\n      0xffffffffffffffffffffffffffffffffffffffff\n      and\n      dup2\n      mstore\n      0x20\n      add\n      swap1\n      dup2\n      mstore\n      0x20\n      add\n      0x00\n      keccak256\n      0x00\n        /* \"RPS.sol\":4712:4742  delete commits[player[1].addr] */\n      dup1\n      dup3\n      add\n      0x00\n      swap1\n      sstore\n      0x01\n      dup3\n      add\n      exp(0x0100, 0x00)\n      dup2\n      sload\n      swap1\n      0xffffffffffffffff\n      mul\n      not\n      and\n      swap1\n      sstore\n      0x01\n      dup3\n      add\n      exp(0x0100, 0x08)\n      dup2\n      sload\n      swap1\n      0xff\n      mul\n      not\n      and\n      swap1\n      sstore\n      pop\n      pop\n        /* \"RPS.sol\":4760:4766  player */\n      0x07\n        /* \"RPS.sol\":4760:4769  player[0] */\n      0x00\n        /* \"RPS.sol\":4767:4768  0 */\n      dup1\n        /* \"RPS.sol\":4760:4769  player[0] */\n      dup2\n      mstore\n      0x20\n      add\n      swap1\n      dup2\n      mstore\n      0x20\n      add\n      0x00\n      keccak256\n      0x00\n        /* \"RPS.sol\":4753:4769  delete player[0] */\n      dup1\n      dup3\n      add\n      0x00\n      swap1\n      sstore\n      0x01\n      dup3\n      add\n      exp(0x0100, 0x00)\n      dup2\n      sload\n      swap1\n      0xffffffffffffffffffffffffffffffffffffffff\n      mul\n      not\n      and\n      swap1\n      sstore\n      pop\n      pop\n        /* \"RPS.sol\":4787:4793  player */\n      0x07\n        /* \"RPS.sol\":4787:4796  player[1] */\n      0x00\n        /* \"RPS.sol\":4794:4795  1 */\n      0x01\n        /* \"RPS.sol\":4787:4796  player[1] */\n      dup2\n      mstore\n      0x20\n      add\n      swap1\n      dup2\n      mstore\n      0x20\n      add\n      0x00\n      keccak256\n      0x00\n        /* \"RPS.sol\":4780:4796  delete player[1] */\n      dup1\n      dup3\n      add\n      0x00\n      swap1\n      sstore\n      0x01\n      dup3\n      add\n      exp(0x0100, 0x00)\n      dup2\n      sload\n      swap1\n      0xffffffffffffffffffffffffffffffffffffffff\n      mul\n      not\n      and\n      swap1\n      sstore\n      pop\n      pop\n        /* \"RPS.sol\":4807:4818  cleardata() */\n      tag_195\n        /* \"RPS.sol\":4807:4816  cleardata */\n      tag_112\n        /* \"RPS.sol\":4807:4818  cleardata() */\n      jump\t// in\n    tag_195:\n        /* \"RPS.sol\":4034:4826  {... */\n      pop\n      pop\n      pop\n      pop\n        /* \"RPS.sol\":3996:4826  function _checkWinnerAndPay() private {... */\n      jump\t// out\n        /* \"RPS.sol\":565:694  function cleardata() private {... */\n    tag_112:\n        /* \"RPS.sol\":616:617  0 */\n      0x00\n        /* \"RPS.sol\":605:613  numInput */\n      0x09\n        /* \"RPS.sol\":605:617  numInput = 0 */\n      dup2\n      swap1\n      sstore\n      pop\n        /* \"RPS.sol\":640:641  0 */\n      0x00\n        /* \"RPS.sol\":628:637  numPlayer */\n      0x02\n        /* \"RPS.sol\":628:641  numPlayer = 0 */\n      dup2\n      swap1\n      sstore\n      pop\n        /* \"RPS.sol\":664:665  0 */\n      0x00\n        /* \"RPS.sol\":652:661  numReveal */\n      0x03\n        /* \"RPS.sol\":652:665  numReveal = 0 */\n      dup2\n      swap1\n      sstore\n      pop\n        /* \"RPS.sol\":685:686  0 */\n      0x00\n        /* \"RPS.sol\":676:682  reward */\n      0x04\n        /* \"RPS.sol\":676:686  reward = 0 */\n      dup2\n      swap1\n      sstore\n      pop\n        /* \"RPS.sol\":565:694  function cleardata() private {... */\n      jump\t// out\n        /* \"CommitReveal.sol\":255:529  function commit(bytes32 dataHash) internal  {... */\n    tag_160:\n        /* \"CommitReveal.sol\":334:342  dataHash */\n      dup1\n        /* \"CommitReveal.sol\":305:312  commits */\n      0x01\n        /* \"CommitReveal.sol\":305:324  commits[msg.sender] */\n      0x00\n        /* \"CommitReveal.sol\":313:323  msg.sender */\n      caller\n        /* \"CommitReveal.sol\":305:324  commits[msg.sender] */\n      0xffffffffffffffffffffffffffffffffffffffff\n      and\n      0xffffffffffffffffffffffffffffffffffffffff\n      and\n      dup2\n      mstore\n      0x20\n      add\n      swap1\n      dup2\n      mstore\n      0x20\n      add\n      0x00\n      keccak256\n        /* \"CommitReveal.sol\":305:331  commits[msg.sender].commit */\n      0x00\n      add\n        /* \"CommitReveal.sol\":305:342  commits[msg.sender].commit = dataHash */\n      dup2\n      swap1\n      sstore\n      pop\n        /* \"CommitReveal.sol\":383:395  block.number */\n      number\n        /* \"CommitReveal.sol\":348:355  commits */\n      0x01\n        /* \"CommitReveal.sol\":348:367  commits[msg.sender] */\n      0x00\n        /* \"CommitReveal.sol\":356:366  msg.sender */\n      caller\n        /* \"CommitReveal.sol\":348:367  commits[msg.sender] */\n      0xffffffffffffffffffffffffffffffffffffffff\n      and\n      0xffffffffffffffffffffffffffffffffffffffff\n      and\n      dup2\n      mstore\n      0x20\n      add\n      swap1\n      dup2\n      mstore\n      0x20\n      add\n      0x00\n      keccak256\n        /* \"CommitReveal.sol\":348:373  commits[msg.sender].block */\n      0x01\n      add\n      0x00\n        /* \"CommitReveal.sol\":348:396  commits[msg.sender].block = uint64(block.number) */\n      0x0100\n      exp\n      dup2\n      sload\n      dup2\n      0xffffffffffffffff\n      mul\n      not\n      and\n      swap1\n      dup4\n      0xffffffffffffffff\n      and\n      mul\n      or\n      swap1\n      sstore\n      pop\n        /* \"CommitReveal.sol\":433:438  false */\n      0x00\n        /* \"CommitReveal.sol\":402:409  commits */\n      0x01\n        /* \"CommitReveal.sol\":402:421  commits[msg.sender] */\n      0x00\n        /* \"CommitReveal.sol\":410:420  msg.sender */\n      caller\n        /* \"CommitReveal.sol\":402:421  commits[msg.sender] */\n      0xffffffffffffffffffffffffffffffffffffffff\n      and\n      0xffffffffffffffffffffffffffffffffffffffff\n      and\n      dup2\n      mstore\n      0x20\n      add\n      swap1\n      dup2\n      mstore\n      0x20\n      add\n      0x00\n      keccak256\n        /* \"CommitReveal.sol\":402:430  commits[msg.sender].revealed */\n      0x01\n      add\n      0x08\n        /* \"CommitReveal.sol\":402:438  commits[msg.sender].revealed = false */\n      0x0100\n      exp\n      dup2\n      sload\n      dup2\n      0xff\n      mul\n      not\n      and\n      swap1\n      dup4\n      iszero\n      iszero\n      mul\n      or\n      swap1\n      sstore\n      pop\n        /* \"CommitReveal.sol\":449:524  CommitHash(msg.sender,commits[msg.sender].commit,commits[msg.sender].block) */\n      0x3c1a1f8f38335b17f751c6da4ba7d1865f26b3997535176f5080de9fad891603\n        /* \"CommitReveal.sol\":460:470  msg.sender */\n      caller\n        /* \"CommitReveal.sol\":471:478  commits */\n      0x01\n        /* \"CommitReveal.sol\":471:490  commits[msg.sender] */\n      0x00\n        /* \"CommitReveal.sol\":479:489  msg.sender */\n      caller\n        /* \"CommitReveal.sol\":471:490  commits[msg.sender] */\n      0xffffffffffffffffffffffffffffffffffffffff\n      and\n      0xffffffffffffffffffffffffffffffffffffffff\n      and\n      dup2\n      mstore\n      0x20\n      add\n      swap1\n      dup2\n      mstore\n      0x20\n      add\n      0x00\n      keccak256\n        /* \"CommitReveal.sol\":471:497  commits[msg.sender].commit */\n      0x00\n      add\n      sload\n        /* \"CommitReveal.sol\":498:505  commits */\n      0x01\n        /* \"CommitReveal.sol\":498:517  commits[msg.sender] */\n      0x00\n        /* \"CommitReveal.sol\":506:516  msg.sender */\n      caller\n        /* \"CommitReveal.sol\":498:517  commits[msg.sender] */\n      0xffffffffffffffffffffffffffffffffffffffff\n      and\n      0xffffffffffffffffffffffffffffffffffffffff\n      and\n      dup2\n      mstore\n      0x20\n      add\n      swap1\n      dup2\n      mstore\n      0x20\n      add\n      0x00\n      keccak256\n        /* \"CommitReveal.sol\":498:523  commits[msg.sender].block */\n      0x01\n      add\n      0x00\n      swap1\n      sload\n      swap1\n      0x0100\n      exp\n      swap1\n      div\n      0xffffffffffffffff\n      and\n        /* \"CommitReveal.sol\":449:524  CommitHash(msg.sender,commits[msg.sender].commit,commits[msg.sender].block) */\n      mload(0x40)\n      tag_198\n      swap4\n      swap3\n      swap2\n      swap1\n      tag_199\n      jump\t// in\n    tag_198:\n      mload(0x40)\n      dup1\n      swap2\n      sub\n      swap1\n      log1\n        /* \"CommitReveal.sol\":255:529  function commit(bytes32 dataHash) internal  {... */\n      pop\n      jump\t// out\n        /* \"#utility.yul\":7:84   */\n    tag_200:\n        /* \"#utility.yul\":44:51   */\n      0x00\n        /* \"#utility.yul\":73:78   */\n      dup2\n        /* \"#utility.yul\":62:78   */\n      swap1\n      pop\n        /* \"#utility.yul\":7:84   */\n      swap2\n      swap1\n      pop\n      jump\t// out\n        /* \"#utility.yul\":90:208   */\n    tag_201:\n        /* \"#utility.yul\":177:201   */\n      tag_238\n        /* \"#utility.yul\":195:200   */\n      dup2\n        /* \"#utility.yul\":177:201   */\n      tag_200\n      jump\t// in\n    tag_238:\n        /* \"#utility.yul\":172:175   */\n      dup3\n        /* \"#utility.yul\":165:202   */\n      mstore\n        /* \"#utility.yul\":90:208   */\n      pop\n      pop\n      jump\t// out\n        /* \"#utility.yul\":214:436   */\n    tag_21:\n        /* \"#utility.yul\":307:311   */\n      0x00\n        /* \"#utility.yul\":345:347   */\n      0x20\n        /* \"#utility.yul\":334:343   */\n      dup3\n        /* \"#utility.yul\":330:348   */\n      add\n        /* \"#utility.yul\":322:348   */\n      swap1\n      pop\n        /* \"#utility.yul\":358:429   */\n      tag_240\n        /* \"#utility.yul\":426:427   */\n      0x00\n        /* \"#utility.yul\":415:424   */\n      dup4\n        /* \"#utility.yul\":411:428   */\n      add\n        /* \"#utility.yul\":402:408   */\n      dup5\n        /* \"#utility.yul\":358:429   */\n      tag_201\n      jump\t// in\n    tag_240:\n        /* \"#utility.yul\":214:436   */\n      swap3\n      swap2\n      pop\n      pop\n      jump\t// out\n        /* \"#utility.yul\":523:640   */\n    tag_203:\n        /* \"#utility.yul\":632:633   */\n      0x00\n        /* \"#utility.yul\":629:630   */\n      dup1\n        /* \"#utility.yul\":622:634   */\n      revert\n        /* \"#utility.yul\":769:891   */\n    tag_205:\n        /* \"#utility.yul\":842:866   */\n      tag_245\n        /* \"#utility.yul\":860:865   */\n      dup2\n        /* \"#utility.yul\":842:866   */\n      tag_200\n      jump\t// in\n    tag_245:\n        /* \"#utility.yul\":835:840   */\n      dup2\n        /* \"#utility.yul\":832:867   */\n      eq\n        /* \"#utility.yul\":822:885   */\n      tag_246\n      jumpi\n        /* \"#utility.yul\":881:882   */\n      0x00\n        /* \"#utility.yul\":878:879   */\n      dup1\n        /* \"#utility.yul\":871:883   */\n      revert\n        /* \"#utility.yul\":822:885   */\n    tag_246:\n        /* \"#utility.yul\":769:891   */\n      pop\n      jump\t// out\n        /* \"#utility.yul\":897:1036   */\n    tag_206:\n        /* \"#utility.yul\":943:948   */\n      0x00\n        /* \"#utility.yul\":981:987   */\n      dup2\n        /* \"#utility.yul\":968:988   */\n      calldataload\n        /* \"#utility.yul\":959:988   */\n      swap1\n      pop\n        /* \"#utility.yul\":997:1030   */\n      tag_248\n        /* \"#utility.yul\":1024:1029   */\n      dup2\n        /* \"#utility.yul\":997:1030   */\n      tag_205\n      jump\t// in\n    tag_248:\n        /* \"#utility.yul\":897:1036   */\n      swap3\n      swap2\n      pop\n      pop\n      jump\t// out\n        /* \"#utility.yul\":1042:1516   */\n    tag_35:\n        /* \"#utility.yul\":1110:1116   */\n      0x00\n        /* \"#utility.yul\":1118:1124   */\n      dup1\n        /* \"#utility.yul\":1167:1169   */\n      0x40\n        /* \"#utility.yul\":1155:1164   */\n      dup4\n        /* \"#utility.yul\":1146:1153   */\n      dup6\n        /* \"#utility.yul\":1142:1165   */\n      sub\n        /* \"#utility.yul\":1138:1170   */\n      slt\n        /* \"#utility.yul\":1135:1254   */\n      iszero\n      tag_250\n      jumpi\n        /* \"#utility.yul\":1173:1252   */\n      tag_251\n      tag_203\n      jump\t// in\n    tag_251:\n        /* \"#utility.yul\":1135:1254   */\n    tag_250:\n        /* \"#utility.yul\":1293:1294   */\n      0x00\n        /* \"#utility.yul\":1318:1371   */\n      tag_252\n        /* \"#utility.yul\":1363:1370   */\n      dup6\n        /* \"#utility.yul\":1354:1360   */\n      dup3\n        /* \"#utility.yul\":1343:1352   */\n      dup7\n        /* \"#utility.yul\":1339:1361   */\n      add\n        /* \"#utility.yul\":1318:1371   */\n      tag_206\n      jump\t// in\n    tag_252:\n        /* \"#utility.yul\":1308:1371   */\n      swap3\n      pop\n        /* \"#utility.yul\":1264:1381   */\n      pop\n        /* \"#utility.yul\":1420:1422   */\n      0x20\n        /* \"#utility.yul\":1446:1499   */\n      tag_253\n        /* \"#utility.yul\":1491:1498   */\n      dup6\n        /* \"#utility.yul\":1482:1488   */\n      dup3\n        /* \"#utility.yul\":1471:1480   */\n      dup7\n        /* \"#utility.yul\":1467:1489   */\n      add\n        /* \"#utility.yul\":1446:1499   */\n      tag_206\n      jump\t// in\n    tag_253:\n        /* \"#utility.yul\":1436:1499   */\n      swap2\n      pop\n        /* \"#utility.yul\":1391:1509   */\n      pop\n        /* \"#utility.yul\":1042:1516   */\n      swap3\n      pop\n      swap3\n      swap1\n      pop\n      jump\t// out\n        /* \"#utility.yul\":1522:1599   */\n    tag_207:\n        /* \"#utility.yul\":1559:1566   */\n      0x00\n        /* \"#utility.yul\":1588:1593   */\n      dup2\n        /* \"#utility.yul\":1577:1593   */\n      swap1\n      pop\n        /* \"#utility.yul\":1522:1599   */\n      swap2\n      swap1\n      pop\n      jump\t// out\n        /* \"#utility.yul\":1605:1723   */\n    tag_208:\n        /* \"#utility.yul\":1692:1716   */\n      tag_256\n        /* \"#utility.yul\":1710:1715   */\n      dup2\n        /* \"#utility.yul\":1692:1716   */\n      tag_207\n      jump\t// in\n    tag_256:\n        /* \"#utility.yul\":1687:1690   */\n      dup3\n        /* \"#utility.yul\":1680:1717   */\n      mstore\n        /* \"#utility.yul\":1605:1723   */\n      pop\n      pop\n      jump\t// out\n        /* \"#utility.yul\":1729:1951   */\n    tag_38:\n        /* \"#utility.yul\":1822:1826   */\n      0x00\n        /* \"#utility.yul\":1860:1862   */\n      0x20\n        /* \"#utility.yul\":1849:1858   */\n      dup3\n        /* \"#utility.yul\":1845:1863   */\n      add\n        /* \"#utility.yul\":1837:1863   */\n      swap1\n      pop\n        /* \"#utility.yul\":1873:1944   */\n      tag_258\n        /* \"#utility.yul\":1941:1942   */\n      0x00\n        /* \"#utility.yul\":1930:1939   */\n      dup4\n        /* \"#utility.yul\":1926:1943   */\n      add\n        /* \"#utility.yul\":1917:1923   */\n      dup5\n        /* \"#utility.yul\":1873:1944   */\n      tag_208\n      jump\t// in\n    tag_258:\n        /* \"#utility.yul\":1729:1951   */\n      swap3\n      swap2\n      pop\n      pop\n      jump\t// out\n        /* \"#utility.yul\":1957:2083   */\n    tag_209:\n        /* \"#utility.yul\":1994:2001   */\n      0x00\n        /* \"#utility.yul\":2034:2076   */\n      0xffffffffffffffffffffffffffffffffffffffff\n        /* \"#utility.yul\":2027:2032   */\n      dup3\n        /* \"#utility.yul\":2023:2077   */\n      and\n        /* \"#utility.yul\":2012:2077   */\n      swap1\n      pop\n        /* \"#utility.yul\":1957:2083   */\n      swap2\n      swap1\n      pop\n      jump\t// out\n        /* \"#utility.yul\":2089:2185   */\n    tag_210:\n        /* \"#utility.yul\":2126:2133   */\n      0x00\n        /* \"#utility.yul\":2155:2179   */\n      tag_261\n        /* \"#utility.yul\":2173:2178   */\n      dup3\n        /* \"#utility.yul\":2155:2179   */\n      tag_209\n      jump\t// in\n    tag_261:\n        /* \"#utility.yul\":2144:2179   */\n      swap1\n      pop\n        /* \"#utility.yul\":2089:2185   */\n      swap2\n      swap1\n      pop\n      jump\t// out\n        /* \"#utility.yul\":2191:2313   */\n    tag_211:\n        /* \"#utility.yul\":2264:2288   */\n      tag_263\n        /* \"#utility.yul\":2282:2287   */\n      dup2\n        /* \"#utility.yul\":2264:2288   */\n      tag_210\n      jump\t// in\n    tag_263:\n        /* \"#utility.yul\":2257:2262   */\n      dup2\n        /* \"#utility.yul\":2254:2289   */\n      eq\n        /* \"#utility.yul\":2244:2307   */\n      tag_264\n      jumpi\n        /* \"#utility.yul\":2303:2304   */\n      0x00\n        /* \"#utility.yul\":2300:2301   */\n      dup1\n        /* \"#utility.yul\":2293:2305   */\n      revert\n        /* \"#utility.yul\":2244:2307   */\n    tag_264:\n        /* \"#utility.yul\":2191:2313   */\n      pop\n      jump\t// out\n        /* \"#utility.yul\":2319:2458   */\n    tag_212:\n        /* \"#utility.yul\":2365:2370   */\n      0x00\n        /* \"#utility.yul\":2403:2409   */\n      dup2\n        /* \"#utility.yul\":2390:2410   */\n      calldataload\n        /* \"#utility.yul\":2381:2410   */\n      swap1\n      pop\n        /* \"#utility.yul\":2419:2452   */\n      tag_266\n        /* \"#utility.yul\":2446:2451   */\n      dup2\n        /* \"#utility.yul\":2419:2452   */\n      tag_211\n      jump\t// in\n    tag_266:\n        /* \"#utility.yul\":2319:2458   */\n      swap3\n      swap2\n      pop\n      pop\n      jump\t// out\n        /* \"#utility.yul\":2464:2793   */\n    tag_42:\n        /* \"#utility.yul\":2523:2529   */\n      0x00\n        /* \"#utility.yul\":2572:2574   */\n      0x20\n        /* \"#utility.yul\":2560:2569   */\n      dup3\n        /* \"#utility.yul\":2551:2558   */\n      dup5\n        /* \"#utility.yul\":2547:2570   */\n      sub\n        /* \"#utility.yul\":2543:2575   */\n      slt\n        /* \"#utility.yul\":2540:2659   */\n      iszero\n      tag_268\n      jumpi\n        /* \"#utility.yul\":2578:2657   */\n      tag_269\n      tag_203\n      jump\t// in\n    tag_269:\n        /* \"#utility.yul\":2540:2659   */\n    tag_268:\n        /* \"#utility.yul\":2698:2699   */\n      0x00\n        /* \"#utility.yul\":2723:2776   */\n      tag_270\n        /* \"#utility.yul\":2768:2775   */\n      dup5\n        /* \"#utility.yul\":2759:2765   */\n      dup3\n        /* \"#utility.yul\":2748:2757   */\n      dup6\n        /* \"#utility.yul\":2744:2766   */\n      add\n        /* \"#utility.yul\":2723:2776   */\n      tag_212\n      jump\t// in\n    tag_270:\n        /* \"#utility.yul\":2713:2776   */\n      swap2\n      pop\n        /* \"#utility.yul\":2669:2786   */\n      pop\n        /* \"#utility.yul\":2464:2793   */\n      swap3\n      swap2\n      pop\n      pop\n      jump\t// out\n        /* \"#utility.yul\":2799:3128   */\n    tag_52:\n        /* \"#utility.yul\":2858:2864   */\n      0x00\n        /* \"#utility.yul\":2907:2909   */\n      0x20\n        /* \"#utility.yul\":2895:2904   */\n      dup3\n        /* \"#utility.yul\":2886:2893   */\n      dup5\n        /* \"#utility.yul\":2882:2905   */\n      sub\n        /* \"#utility.yul\":2878:2910   */\n      slt\n        /* \"#utility.yul\":2875:2994   */\n      iszero\n      tag_272\n      jumpi\n        /* \"#utility.yul\":2913:2992   */\n      tag_273\n      tag_203\n      jump\t// in\n    tag_273:\n        /* \"#utility.yul\":2875:2994   */\n    tag_272:\n        /* \"#utility.yul\":3033:3034   */\n      0x00\n        /* \"#utility.yul\":3058:3111   */\n      tag_274\n        /* \"#utility.yul\":3103:3110   */\n      dup5\n        /* \"#utility.yul\":3094:3100   */\n      dup3\n        /* \"#utility.yul\":3083:3092   */\n      dup6\n        /* \"#utility.yul\":3079:3101   */\n      add\n        /* \"#utility.yul\":3058:3111   */\n      tag_206\n      jump\t// in\n    tag_274:\n        /* \"#utility.yul\":3048:3111   */\n      swap2\n      pop\n        /* \"#utility.yul\":3004:3121   */\n      pop\n        /* \"#utility.yul\":2799:3128   */\n      swap3\n      swap2\n      pop\n      pop\n      jump\t// out\n        /* \"#utility.yul\":3134:3252   */\n    tag_213:\n        /* \"#utility.yul\":3221:3245   */\n      tag_276\n        /* \"#utility.yul\":3239:3244   */\n      dup2\n        /* \"#utility.yul\":3221:3245   */\n      tag_210\n      jump\t// in\n    tag_276:\n        /* \"#utility.yul\":3216:3219   */\n      dup3\n        /* \"#utility.yul\":3209:3246   */\n      mstore\n        /* \"#utility.yul\":3134:3252   */\n      pop\n      pop\n      jump\t// out\n        /* \"#utility.yul\":3258:3590   */\n    tag_55:\n        /* \"#utility.yul\":3379:3383   */\n      0x00\n        /* \"#utility.yul\":3417:3419   */\n      0x40\n        /* \"#utility.yul\":3406:3415   */\n      dup3\n        /* \"#utility.yul\":3402:3420   */\n      add\n        /* \"#utility.yul\":3394:3420   */\n      swap1\n      pop\n        /* \"#utility.yul\":3430:3501   */\n      tag_278\n        /* \"#utility.yul\":3498:3499   */\n      0x00\n        /* \"#utility.yul\":3487:3496   */\n      dup4\n        /* \"#utility.yul\":3483:3500   */\n      add\n        /* \"#utility.yul\":3474:3480   */\n      dup6\n        /* \"#utility.yul\":3430:3501   */\n      tag_201\n      jump\t// in\n    tag_278:\n        /* \"#utility.yul\":3511:3583   */\n      tag_279\n        /* \"#utility.yul\":3579:3581   */\n      0x20\n        /* \"#utility.yul\":3568:3577   */\n      dup4\n        /* \"#utility.yul\":3564:3582   */\n      add\n        /* \"#utility.yul\":3555:3561   */\n      dup5\n        /* \"#utility.yul\":3511:3583   */\n      tag_213\n      jump\t// in\n    tag_279:\n        /* \"#utility.yul\":3258:3590   */\n      swap4\n      swap3\n      pop\n      pop\n      pop\n      jump\t// out\n        /* \"#utility.yul\":3596:3718   */\n    tag_214:\n        /* \"#utility.yul\":3669:3693   */\n      tag_281\n        /* \"#utility.yul\":3687:3692   */\n      dup2\n        /* \"#utility.yul\":3669:3693   */\n      tag_207\n      jump\t// in\n    tag_281:\n        /* \"#utility.yul\":3662:3667   */\n      dup2\n        /* \"#utility.yul\":3659:3694   */\n      eq\n        /* \"#utility.yul\":3649:3712   */\n      tag_282\n      jumpi\n        /* \"#utility.yul\":3708:3709   */\n      0x00\n        /* \"#utility.yul\":3705:3706   */\n      dup1\n        /* \"#utility.yul\":3698:3710   */\n      revert\n        /* \"#utility.yul\":3649:3712   */\n    tag_282:\n        /* \"#utility.yul\":3596:3718   */\n      pop\n      jump\t// out\n        /* \"#utility.yul\":3724:3863   */\n    tag_215:\n        /* \"#utility.yul\":3770:3775   */\n      0x00\n        /* \"#utility.yul\":3808:3814   */\n      dup2\n        /* \"#utility.yul\":3795:3815   */\n      calldataload\n        /* \"#utility.yul\":3786:3815   */\n      swap1\n      pop\n        /* \"#utility.yul\":3824:3857   */\n      tag_284\n        /* \"#utility.yul\":3851:3856   */\n      dup2\n        /* \"#utility.yul\":3824:3857   */\n      tag_214\n      jump\t// in\n    tag_284:\n        /* \"#utility.yul\":3724:3863   */\n      swap3\n      swap2\n      pop\n      pop\n      jump\t// out\n        /* \"#utility.yul\":3869:4198   */\n    tag_74:\n        /* \"#utility.yul\":3928:3934   */\n      0x00\n        /* \"#utility.yul\":3977:3979   */\n      0x20\n        /* \"#utility.yul\":3965:3974   */\n      dup3\n        /* \"#utility.yul\":3956:3963   */\n      dup5\n        /* \"#utility.yul\":3952:3975   */\n      sub\n        /* \"#utility.yul\":3948:3980   */\n      slt\n        /* \"#utility.yul\":3945:4064   */\n      iszero\n      tag_286\n      jumpi\n        /* \"#utility.yul\":3983:4062   */\n      tag_287\n      tag_203\n      jump\t// in\n    tag_287:\n        /* \"#utility.yul\":3945:4064   */\n    tag_286:\n        /* \"#utility.yul\":4103:4104   */\n      0x00\n        /* \"#utility.yul\":4128:4181   */\n      tag_288\n        /* \"#utility.yul\":4173:4180   */\n      dup5\n        /* \"#utility.yul\":4164:4170   */\n      dup3\n        /* \"#utility.yul\":4153:4162   */\n      dup6\n        /* \"#utility.yul\":4149:4171   */\n      add\n        /* \"#utility.yul\":4128:4181   */\n      tag_215\n      jump\t// in\n    tag_288:\n        /* \"#utility.yul\":4118:4181   */\n      swap2\n      pop\n        /* \"#utility.yul\":4074:4191   */\n      pop\n        /* \"#utility.yul\":3869:4198   */\n      swap3\n      swap2\n      pop\n      pop\n      jump\t// out\n        /* \"#utility.yul\":4204:4384   */\n    tag_216:\n        /* \"#utility.yul\":4252:4329   */\n      0x4e487b7100000000000000000000000000000000000000000000000000000000\n        /* \"#utility.yul\":4249:4250   */\n      0x00\n        /* \"#utility.yul\":4242:4330   */\n      mstore\n        /* \"#utility.yul\":4349:4353   */\n      0x11\n        /* \"#utility.yul\":4346:4347   */\n      0x04\n        /* \"#utility.yul\":4339:4354   */\n      mstore\n        /* \"#utility.yul\":4373:4377   */\n      0x24\n        /* \"#utility.yul\":4370:4371   */\n      0x00\n        /* \"#utility.yul\":4363:4378   */\n      revert\n        /* \"#utility.yul\":4390:4581   */\n    tag_80:\n        /* \"#utility.yul\":4430:4433   */\n      0x00\n        /* \"#utility.yul\":4449:4469   */\n      tag_291\n        /* \"#utility.yul\":4467:4468   */\n      dup3\n        /* \"#utility.yul\":4449:4469   */\n      tag_200\n      jump\t// in\n    tag_291:\n        /* \"#utility.yul\":4444:4469   */\n      swap2\n      pop\n        /* \"#utility.yul\":4483:4503   */\n      tag_292\n        /* \"#utility.yul\":4501:4502   */\n      dup4\n        /* \"#utility.yul\":4483:4503   */\n      tag_200\n      jump\t// in\n    tag_292:\n        /* \"#utility.yul\":4478:4503   */\n      swap3\n      pop\n        /* \"#utility.yul\":4526:4527   */\n      dup3\n        /* \"#utility.yul\":4523:4524   */\n      dup3\n        /* \"#utility.yul\":4519:4528   */\n      add\n        /* \"#utility.yul\":4512:4528   */\n      swap1\n      pop\n        /* \"#utility.yul\":4547:4550   */\n      dup1\n        /* \"#utility.yul\":4544:4545   */\n      dup3\n        /* \"#utility.yul\":4541:4551   */\n      gt\n        /* \"#utility.yul\":4538:4574   */\n      iszero\n      tag_293\n      jumpi\n        /* \"#utility.yul\":4554:4572   */\n      tag_294\n      tag_216\n      jump\t// in\n    tag_294:\n        /* \"#utility.yul\":4538:4574   */\n    tag_293:\n        /* \"#utility.yul\":4390:4581   */\n      swap3\n      swap2\n      pop\n      pop\n      jump\t// out\n        /* \"#utility.yul\":4587:4820   */\n    tag_82:\n        /* \"#utility.yul\":4626:4629   */\n      0x00\n        /* \"#utility.yul\":4649:4673   */\n      tag_296\n        /* \"#utility.yul\":4667:4672   */\n      dup3\n        /* \"#utility.yul\":4649:4673   */\n      tag_200\n      jump\t// in\n    tag_296:\n        /* \"#utility.yul\":4640:4673   */\n      swap2\n      pop\n        /* \"#utility.yul\":4695:4761   */\n      0xffffffffffffffffffffffffffffffffffffffffffffffffffffffffffffffff\n        /* \"#utility.yul\":4688:4693   */\n      dup3\n        /* \"#utility.yul\":4685:4762   */\n      sub\n        /* \"#utility.yul\":4682:4785   */\n      tag_297\n      jumpi\n        /* \"#utility.yul\":4765:4783   */\n      tag_298\n      tag_216\n      jump\t// in\n    tag_298:\n        /* \"#utility.yul\":4682:4785   */\n    tag_297:\n        /* \"#utility.yul\":4812:4813   */\n      0x01\n        /* \"#utility.yul\":4805:4810   */\n      dup3\n        /* \"#utility.yul\":4801:4814   */\n      add\n        /* \"#utility.yul\":4794:4814   */\n      swap1\n      pop\n        /* \"#utility.yul\":4587:4820   */\n      swap2\n      swap1\n      pop\n      jump\t// out\n        /* \"#utility.yul\":4826:4995   */\n    tag_217:\n        /* \"#utility.yul\":4910:4921   */\n      0x00\n        /* \"#utility.yul\":4944:4950   */\n      dup3\n        /* \"#utility.yul\":4939:4942   */\n      dup3\n        /* \"#utility.yul\":4932:4951   */\n      mstore\n        /* \"#utility.yul\":4984:4988   */\n      0x20\n        /* \"#utility.yul\":4979:4982   */\n      dup3\n        /* \"#utility.yul\":4975:4989   */\n      add\n        /* \"#utility.yul\":4960:4989   */\n      swap1\n      pop\n        /* \"#utility.yul\":4826:4995   */\n      swap3\n      swap2\n      pop\n      pop\n      jump\t// out\n        /* \"#utility.yul\":5001:5165   */\n    tag_218:\n        /* \"#utility.yul\":5141:5157   */\n      0x696e76616c69642063686f696365000000000000000000000000000000000000\n        /* \"#utility.yul\":5137:5138   */\n      0x00\n        /* \"#utility.yul\":5129:5135   */\n      dup3\n        /* \"#utility.yul\":5125:5139   */\n      add\n        /* \"#utility.yul\":5118:5158   */\n      mstore\n        /* \"#utility.yul\":5001:5165   */\n      pop\n      jump\t// out\n        /* \"#utility.yul\":5171:5537   */\n    tag_219:\n        /* \"#utility.yul\":5313:5316   */\n      0x00\n        /* \"#utility.yul\":5334:5401   */\n      tag_302\n        /* \"#utility.yul\":5398:5400   */\n      0x0e\n        /* \"#utility.yul\":5393:5396   */\n      dup4\n        /* \"#utility.yul\":5334:5401   */\n      tag_217\n      jump\t// in\n    tag_302:\n        /* \"#utility.yul\":5327:5401   */\n      swap2\n      pop\n        /* \"#utility.yul\":5410:5503   */\n      tag_303\n        /* \"#utility.yul\":5499:5502   */\n      dup3\n        /* \"#utility.yul\":5410:5503   */\n      tag_218\n      jump\t// in\n    tag_303:\n        /* \"#utility.yul\":5528:5530   */\n      0x20\n        /* \"#utility.yul\":5523:5526   */\n      dup3\n        /* \"#utility.yul\":5519:5531   */\n      add\n        /* \"#utility.yul\":5512:5531   */\n      swap1\n      pop\n        /* \"#utility.yul\":5171:5537   */\n      swap2\n      swap1\n      pop\n      jump\t// out\n        /* \"#utility.yul\":5543:5962   */\n    tag_88:\n        /* \"#utility.yul\":5709:5713   */\n      0x00\n        /* \"#utility.yul\":5747:5749   */\n      0x20\n        /* \"#utility.yul\":5736:5745   */\n      dup3\n        /* \"#utility.yul\":5732:5750   */\n      add\n        /* \"#utility.yul\":5724:5750   */\n      swap1\n      pop\n        /* \"#utility.yul\":5796:5805   */\n      dup2\n        /* \"#utility.yul\":5790:5794   */\n      dup2\n        /* \"#utility.yul\":5786:5806   */\n      sub\n        /* \"#utility.yul\":5782:5783   */\n      0x00\n        /* \"#utility.yul\":5771:5780   */\n      dup4\n        /* \"#utility.yul\":5767:5784   */\n      add\n        /* \"#utility.yul\":5760:5807   */\n      mstore\n        /* \"#utility.yul\":5824:5955   */\n      tag_305\n        /* \"#utility.yul\":5950:5954   */\n      dup2\n        /* \"#utility.yul\":5824:5955   */\n      tag_219\n      jump\t// in\n    tag_305:\n        /* \"#utility.yul\":5816:5955   */\n      swap1\n      pop\n        /* \"#utility.yul\":5543:5962   */\n      swap2\n      swap1\n      pop\n      jump\t// out\n        /* \"#utility.yul\":5968:6125   */\n    tag_220:\n        /* \"#utility.yul\":6108:6117   */\n      0x696e2074696d6500000000000000000000000000000000000000000000000000\n        /* \"#utility.yul\":6104:6105   */\n      0x00\n        /* \"#utility.yul\":6096:6102   */\n      dup3\n        /* \"#utility.yul\":6092:6106   */\n      add\n        /* \"#utility.yul\":6085:6118   */\n      mstore\n        /* \"#utility.yul\":5968:6125   */\n      pop\n      jump\t// out\n        /* \"#utility.yul\":6131:6496   */\n    tag_221:\n        /* \"#utility.yul\":6273:6276   */\n      0x00\n        /* \"#utility.yul\":6294:6360   */\n      tag_308\n        /* \"#utility.yul\":6358:6359   */\n      0x07\n        /* \"#utility.yul\":6353:6356   */\n      dup4\n        /* \"#utility.yul\":6294:6360   */\n      tag_217\n      jump\t// in\n    tag_308:\n        /* \"#utility.yul\":6287:6360   */\n      swap2\n      pop\n        /* \"#utility.yul\":6369:6462   */\n      tag_309\n        /* \"#utility.yul\":6458:6461   */\n      dup3\n        /* \"#utility.yul\":6369:6462   */\n      tag_220\n      jump\t// in\n    tag_309:\n        /* \"#utility.yul\":6487:6489   */\n      0x20\n        /* \"#utility.yul\":6482:6485   */\n      dup3\n        /* \"#utility.yul\":6478:6490   */\n      add\n        /* \"#utility.yul\":6471:6490   */\n      swap1\n      pop\n        /* \"#utility.yul\":6131:6496   */\n      swap2\n      swap1\n      pop\n      jump\t// out\n        /* \"#utility.yul\":6502:6921   */\n    tag_107:\n        /* \"#utility.yul\":6668:6672   */\n      0x00\n        /* \"#utility.yul\":6706:6708   */\n      0x20\n        /* \"#utility.yul\":6695:6704   */\n      dup3\n        /* \"#utility.yul\":6691:6709   */\n      add\n        /* \"#utility.yul\":6683:6709   */\n      swap1\n      pop\n        /* \"#utility.yul\":6755:6764   */\n      dup2\n        /* \"#utility.yul\":6749:6753   */\n      dup2\n        /* \"#utility.yul\":6745:6765   */\n      sub\n        /* \"#utility.yul\":6741:6742   */\n      0x00\n        /* \"#utility.yul\":6730:6739   */\n      dup4\n        /* \"#utility.yul\":6726:6743   */\n      add\n        /* \"#utility.yul\":6719:6766   */\n      mstore\n        /* \"#utility.yul\":6783:6914   */\n      tag_311\n        /* \"#utility.yul\":6909:6913   */\n      dup2\n        /* \"#utility.yul\":6783:6914   */\n      tag_221\n      jump\t// in\n    tag_311:\n        /* \"#utility.yul\":6775:6914   */\n      swap1\n      pop\n        /* \"#utility.yul\":6502:6921   */\n      swap2\n      swap1\n      pop\n      jump\t// out\n        /* \"#utility.yul\":6927:7107   */\n    tag_222:\n        /* \"#utility.yul\":6975:7052   */\n      0x4e487b7100000000000000000000000000000000000000000000000000000000\n        /* \"#utility.yul\":6972:6973   */\n      0x00\n        /* \"#utility.yul\":6965:7053   */\n      mstore\n        /* \"#utility.yul\":7072:7076   */\n      0x12\n        /* \"#utility.yul\":7069:7070   */\n      0x04\n        /* \"#utility.yul\":7062:7077   */\n      mstore\n        /* \"#utility.yul\":7096:7100   */\n      0x24\n        /* \"#utility.yul\":7093:7094   */\n      0x00\n        /* \"#utility.yul\":7086:7101   */\n      revert\n        /* \"#utility.yul\":7113:7298   */\n    tag_117:\n        /* \"#utility.yul\":7153:7154   */\n      0x00\n        /* \"#utility.yul\":7170:7190   */\n      tag_314\n        /* \"#utility.yul\":7188:7189   */\n      dup3\n        /* \"#utility.yul\":7170:7190   */\n      tag_200\n      jump\t// in\n    tag_314:\n        /* \"#utility.yul\":7165:7190   */\n      swap2\n      pop\n        /* \"#utility.yul\":7204:7224   */\n      tag_315\n        /* \"#utility.yul\":7222:7223   */\n      dup4\n        /* \"#utility.yul\":7204:7224   */\n      tag_200\n      jump\t// in\n    tag_315:\n        /* \"#utility.yul\":7199:7224   */\n      swap3\n      pop\n        /* \"#utility.yul\":7243:7244   */\n      dup3\n        /* \"#utility.yul\":7233:7268   */\n      tag_316\n      jumpi\n        /* \"#utility.yul\":7248:7266   */\n      tag_317\n      tag_222\n      jump\t// in\n    tag_317:\n        /* \"#utility.yul\":7233:7268   */\n    tag_316:\n        /* \"#utility.yul\":7290:7291   */\n      dup3\n        /* \"#utility.yul\":7287:7288   */\n      dup3\n        /* \"#utility.yul\":7283:7292   */\n      div\n        /* \"#utility.yul\":7278:7292   */\n      swap1\n      pop\n        /* \"#utility.yul\":7113:7298   */\n      swap3\n      swap2\n      pop\n      pop\n      jump\t// out\n        /* \"#utility.yul\":7304:7398   */\n    tag_223:\n        /* \"#utility.yul\":7337:7345   */\n      0x00\n        /* \"#utility.yul\":7385:7390   */\n      dup2\n        /* \"#utility.yul\":7381:7383   */\n      0x60\n        /* \"#utility.yul\":7377:7391   */\n      shl\n        /* \"#utility.yul\":7356:7391   */\n      swap1\n      pop\n        /* \"#utility.yul\":7304:7398   */\n      swap2\n      swap1\n      pop\n      jump\t// out\n        /* \"#utility.yul\":7404:7498   */\n    tag_224:\n        /* \"#utility.yul\":7443:7450   */\n      0x00\n        /* \"#utility.yul\":7472:7492   */\n      tag_320\n        /* \"#utility.yul\":7486:7491   */\n      dup3\n        /* \"#utility.yul\":7472:7492   */\n      tag_223\n      jump\t// in\n    tag_320:\n        /* \"#utility.yul\":7461:7492   */\n      swap1\n      pop\n        /* \"#utility.yul\":7404:7498   */\n      swap2\n      swap1\n      pop\n      jump\t// out\n        /* \"#utility.yul\":7504:7604   */\n    tag_225:\n        /* \"#utility.yul\":7543:7550   */\n      0x00\n        /* \"#utility.yul\":7572:7598   */\n      tag_322\n        /* \"#utility.yul\":7592:7597   */\n      dup3\n        /* \"#utility.yul\":7572:7598   */\n      tag_224\n      jump\t// in\n    tag_322:\n        /* \"#utility.yul\":7561:7598   */\n      swap1\n      pop\n        /* \"#utility.yul\":7504:7604   */\n      swap2\n      swap1\n      pop\n      jump\t// out\n        /* \"#utility.yul\":7610:7767   */\n    tag_226:\n        /* \"#utility.yul\":7715:7760   */\n      tag_324\n        /* \"#utility.yul\":7735:7759   */\n      tag_325\n        /* \"#utility.yul\":7753:7758   */\n      dup3\n        /* \"#utility.yul\":7735:7759   */\n      tag_210\n      jump\t// in\n    tag_325:\n        /* \"#utility.yul\":7715:7760   */\n      tag_225\n      jump\t// in\n    tag_324:\n        /* \"#utility.yul\":7710:7713   */\n      dup3\n        /* \"#utility.yul\":7703:7761   */\n      mstore\n        /* \"#utility.yul\":7610:7767   */\n      pop\n      pop\n      jump\t// out\n        /* \"#utility.yul\":7773:7852   */\n    tag_227:\n        /* \"#utility.yul\":7812:7819   */\n      0x00\n        /* \"#utility.yul\":7841:7846   */\n      dup2\n        /* \"#utility.yul\":7830:7846   */\n      swap1\n      pop\n        /* \"#utility.yul\":7773:7852   */\n      swap2\n      swap1\n      pop\n      jump\t// out\n        /* \"#utility.yul\":7858:8015   */\n    tag_228:\n        /* \"#utility.yul\":7963:8008   */\n      tag_328\n        /* \"#utility.yul\":7983:8007   */\n      tag_329\n        /* \"#utility.yul\":8001:8006   */\n      dup3\n        /* \"#utility.yul\":7983:8007   */\n      tag_207\n      jump\t// in\n    tag_329:\n        /* \"#utility.yul\":7963:8008   */\n      tag_227\n      jump\t// in\n    tag_328:\n        /* \"#utility.yul\":7958:7961   */\n      dup3\n        /* \"#utility.yul\":7951:8009   */\n      mstore\n        /* \"#utility.yul\":7858:8015   */\n      pop\n      pop\n      jump\t// out\n        /* \"#utility.yul\":8021:8559   */\n    tag_164:\n        /* \"#utility.yul\":8189:8192   */\n      0x00\n        /* \"#utility.yul\":8204:8279   */\n      tag_331\n        /* \"#utility.yul\":8275:8278   */\n      dup3\n        /* \"#utility.yul\":8266:8272   */\n      dup7\n        /* \"#utility.yul\":8204:8279   */\n      tag_226\n      jump\t// in\n    tag_331:\n        /* \"#utility.yul\":8304:8306   */\n      0x14\n        /* \"#utility.yul\":8299:8302   */\n      dup3\n        /* \"#utility.yul\":8295:8307   */\n      add\n        /* \"#utility.yul\":8288:8307   */\n      swap2\n      pop\n        /* \"#utility.yul\":8317:8392   */\n      tag_332\n        /* \"#utility.yul\":8388:8391   */\n      dup3\n        /* \"#utility.yul\":8379:8385   */\n      dup6\n        /* \"#utility.yul\":8317:8392   */\n      tag_228\n      jump\t// in\n    tag_332:\n        /* \"#utility.yul\":8417:8419   */\n      0x20\n        /* \"#utility.yul\":8412:8415   */\n      dup3\n        /* \"#utility.yul\":8408:8420   */\n      add\n        /* \"#utility.yul\":8401:8420   */\n      swap2\n      pop\n        /* \"#utility.yul\":8430:8505   */\n      tag_333\n        /* \"#utility.yul\":8501:8504   */\n      dup3\n        /* \"#utility.yul\":8492:8498   */\n      dup5\n        /* \"#utility.yul\":8430:8505   */\n      tag_228\n      jump\t// in\n    tag_333:\n        /* \"#utility.yul\":8530:8532   */\n      0x20\n        /* \"#utility.yul\":8525:8528   */\n      dup3\n        /* \"#utility.yul\":8521:8533   */\n      add\n        /* \"#utility.yul\":8514:8533   */\n      swap2\n      pop\n        /* \"#utility.yul\":8550:8553   */\n      dup2\n        /* \"#utility.yul\":8543:8553   */\n      swap1\n      pop\n        /* \"#utility.yul\":8021:8559   */\n      swap5\n      swap4\n      pop\n      pop\n      pop\n      pop\n      jump\t// out\n        /* \"#utility.yul\":8565:8796   */\n    tag_229:\n        /* \"#utility.yul\":8705:8739   */\n      0x436f6d6d697452657665616c3a3a72657665616c416e737765723a20416c7265\n        /* \"#utility.yul\":8701:8702   */\n      0x00\n        /* \"#utility.yul\":8693:8699   */\n      dup3\n        /* \"#utility.yul\":8689:8703   */\n      add\n        /* \"#utility.yul\":8682:8740   */\n      mstore\n        /* \"#utility.yul\":8774:8788   */\n      0x6164792072657665616c65640000000000000000000000000000000000000000\n        /* \"#utility.yul\":8769:8771   */\n      0x20\n        /* \"#utility.yul\":8761:8767   */\n      dup3\n        /* \"#utility.yul\":8757:8772   */\n      add\n        /* \"#utility.yul\":8750:8789   */\n      mstore\n        /* \"#utility.yul\":8565:8796   */\n      pop\n      jump\t// out\n        /* \"#utility.yul\":8802:9168   */\n    tag_230:\n        /* \"#utility.yul\":8944:8947   */\n      0x00\n        /* \"#utility.yul\":8965:9032   */\n      tag_336\n        /* \"#utility.yul\":9029:9031   */\n      0x2c\n        /* \"#utility.yul\":9024:9027   */\n      dup4\n        /* \"#utility.yul\":8965:9032   */\n      tag_217\n      jump\t// in\n    tag_336:\n        /* \"#utility.yul\":8958:9032   */\n      swap2\n      pop\n        /* \"#utility.yul\":9041:9134   */\n      tag_337\n        /* \"#utility.yul\":9130:9133   */\n      dup3\n        /* \"#utility.yul\":9041:9134   */\n      tag_229\n      jump\t// in\n    tag_337:\n        /* \"#utility.yul\":9159:9161   */\n      0x40\n        /* \"#utility.yul\":9154:9157   */\n      dup3\n        /* \"#utility.yul\":9150:9162   */\n      add\n        /* \"#utility.yul\":9143:9162   */\n      swap1\n      pop\n        /* \"#utility.yul\":8802:9168   */\n      swap2\n      swap1\n      pop\n      jump\t// out\n        /* \"#utility.yul\":9174:9593   */\n    tag_168:\n        /* \"#utility.yul\":9340:9344   */\n      0x00\n        /* \"#utility.yul\":9378:9380   */\n      0x20\n        /* \"#utility.yul\":9367:9376   */\n      dup3\n        /* \"#utility.yul\":9363:9381   */\n      add\n        /* \"#utility.yul\":9355:9381   */\n      swap1\n      pop\n        /* \"#utility.yul\":9427:9436   */\n      dup2\n        /* \"#utility.yul\":9421:9425   */\n      dup2\n        /* \"#utility.yul\":9417:9437   */\n      sub\n        /* \"#utility.yul\":9413:9414   */\n      0x00\n        /* \"#utility.yul\":9402:9411   */\n      dup4\n        /* \"#utility.yul\":9398:9415   */\n      add\n        /* \"#utility.yul\":9391:9438   */\n      mstore\n        /* \"#utility.yul\":9455:9586   */\n      tag_339\n        /* \"#utility.yul\":9581:9585   */\n      dup2\n        /* \"#utility.yul\":9455:9586   */\n      tag_230\n      jump\t// in\n    tag_339:\n        /* \"#utility.yul\":9447:9586   */\n      swap1\n      pop\n        /* \"#utility.yul\":9174:9593   */\n      swap2\n      swap1\n      pop\n      jump\t// out\n        /* \"#utility.yul\":9599:9849   */\n    tag_231:\n        /* \"#utility.yul\":9739:9773   */\n      0x436f6d6d697452657665616c3a3a72657665616c416e737765723a2052657665\n        /* \"#utility.yul\":9735:9736   */\n      0x00\n        /* \"#utility.yul\":9727:9733   */\n      dup3\n        /* \"#utility.yul\":9723:9737   */\n      add\n        /* \"#utility.yul\":9716:9774   */\n      mstore\n        /* \"#utility.yul\":9808:9841   */\n      0x616c6564206861736820646f6573206e6f74206d6174636820636f6d6d697400\n        /* \"#utility.yul\":9803:9805   */\n      0x20\n        /* \"#utility.yul\":9795:9801   */\n      dup3\n        /* \"#utility.yul\":9791:9806   */\n      add\n        /* \"#utility.yul\":9784:9842   */\n      mstore\n        /* \"#utility.yul\":9599:9849   */\n      pop\n      jump\t// out\n        /* \"#utility.yul\":9855:10221   */\n    tag_232:\n        /* \"#utility.yul\":9997:10000   */\n      0x00\n        /* \"#utility.yul\":10018:10085   */\n      tag_342\n        /* \"#utility.yul\":10082:10084   */\n      0x3f\n        /* \"#utility.yul\":10077:10080   */\n      dup4\n        /* \"#utility.yul\":10018:10085   */\n      tag_217\n      jump\t// in\n    tag_342:\n        /* \"#utility.yul\":10011:10085   */\n      swap2\n      pop\n        /* \"#utility.yul\":10094:10187   */\n      tag_343\n        /* \"#utility.yul\":10183:10186   */\n      dup3\n        /* \"#utility.yul\":10094:10187   */\n      tag_231\n      jump\t// in\n    tag_343:\n        /* \"#utility.yul\":10212:10214   */\n      0x40\n        /* \"#utility.yul\":10207:10210   */\n      dup3\n        /* \"#utility.yul\":10203:10215   */\n      add\n        /* \"#utility.yul\":10196:10215   */\n      swap1\n      pop\n        /* \"#utility.yul\":9855:10221   */\n      swap2\n      swap1\n      pop\n      jump\t// out\n        /* \"#utility.yul\":10227:10646   */\n    tag_172:\n        /* \"#utility.yul\":10393:10397   */\n      0x00\n        /* \"#utility.yul\":10431:10433   */\n      0x20\n        /* \"#utility.yul\":10420:10429   */\n      dup3\n        /* \"#utility.yul\":10416:10434   */\n      add\n        /* \"#utility.yul\":10408:10434   */\n      swap1\n      pop\n        /* \"#utility.yul\":10480:10489   */\n      dup2\n        /* \"#utility.yul\":10474:10478   */\n      dup2\n        /* \"#utility.yul\":10470:10490   */\n      sub\n        /* \"#utility.yul\":10466:10467   */\n      0x00\n        /* \"#utility.yul\":10455:10464   */\n      dup4\n        /* \"#utility.yul\":10451:10468   */\n      add\n        /* \"#utility.yul\":10444:10491   */\n      mstore\n        /* \"#utility.yul\":10508:10639   */\n      tag_345\n        /* \"#utility.yul\":10634:10638   */\n      dup2\n        /* \"#utility.yul\":10508:10639   */\n      tag_232\n      jump\t// in\n    tag_345:\n        /* \"#utility.yul\":10500:10639   */\n      swap1\n      pop\n        /* \"#utility.yul\":10227:10646   */\n      swap2\n      swap1\n      pop\n      jump\t// out\n        /* \"#utility.yul\":10652:11094   */\n    tag_174:\n        /* \"#utility.yul\":10801:10805   */\n      0x00\n        /* \"#utility.yul\":10839:10841   */\n      0x60\n        /* \"#utility.yul\":10828:10837   */\n      dup3\n        /* \"#utility.yul\":10824:10842   */\n      add\n        /* \"#utility.yul\":10816:10842   */\n      swap1\n      pop\n        /* \"#utility.yul\":10852:10923   */\n      tag_347\n        /* \"#utility.yul\":10920:10921   */\n      0x00\n        /* \"#utility.yul\":10909:10918   */\n      dup4\n        /* \"#utility.yul\":10905:10922   */\n      add\n        /* \"#utility.yul\":10896:10902   */\n      dup7\n        /* \"#utility.yul\":10852:10923   */\n      tag_213\n      jump\t// in\n    tag_347:\n        /* \"#utility.yul\":10933:11005   */\n      tag_348\n        /* \"#utility.yul\":11001:11003   */\n      0x20\n        /* \"#utility.yul\":10990:10999   */\n      dup4\n        /* \"#utility.yul\":10986:11004   */\n      add\n        /* \"#utility.yul\":10977:10983   */\n      dup6\n        /* \"#utility.yul\":10933:11005   */\n      tag_208\n      jump\t// in\n    tag_348:\n        /* \"#utility.yul\":11015:11087   */\n      tag_349\n        /* \"#utility.yul\":11083:11085   */\n      0x40\n        /* \"#utility.yul\":11072:11081   */\n      dup4\n        /* \"#utility.yul\":11068:11086   */\n      add\n        /* \"#utility.yul\":11059:11065   */\n      dup5\n        /* \"#utility.yul\":11015:11087   */\n      tag_208\n      jump\t// in\n    tag_349:\n        /* \"#utility.yul\":10652:11094   */\n      swap5\n      swap4\n      pop\n      pop\n      pop\n      pop\n      jump\t// out\n        /* \"#utility.yul\":11100:11276   */\n    tag_178:\n        /* \"#utility.yul\":11132:11133   */\n      0x00\n        /* \"#utility.yul\":11149:11169   */\n      tag_351\n        /* \"#utility.yul\":11167:11168   */\n      dup3\n        /* \"#utility.yul\":11149:11169   */\n      tag_200\n      jump\t// in\n    tag_351:\n        /* \"#utility.yul\":11144:11169   */\n      swap2\n      pop\n        /* \"#utility.yul\":11183:11203   */\n      tag_352\n        /* \"#utility.yul\":11201:11202   */\n      dup4\n        /* \"#utility.yul\":11183:11203   */\n      tag_200\n      jump\t// in\n    tag_352:\n        /* \"#utility.yul\":11178:11203   */\n      swap3\n      pop\n        /* \"#utility.yul\":11222:11223   */\n      dup3\n        /* \"#utility.yul\":11212:11247   */\n      tag_353\n      jumpi\n        /* \"#utility.yul\":11227:11245   */\n      tag_354\n      tag_222\n      jump\t// in\n    tag_354:\n        /* \"#utility.yul\":11212:11247   */\n    tag_353:\n        /* \"#utility.yul\":11268:11269   */\n      dup3\n        /* \"#utility.yul\":11265:11266   */\n      dup3\n        /* \"#utility.yul\":11261:11270   */\n      mod\n        /* \"#utility.yul\":11256:11270   */\n      swap1\n      pop\n        /* \"#utility.yul\":11100:11276   */\n      swap3\n      swap2\n      pop\n      pop\n      jump\t// out\n        /* \"#utility.yul\":11282:11383   */\n    tag_233:\n        /* \"#utility.yul\":11318:11325   */\n      0x00\n        /* \"#utility.yul\":11358:11376   */\n      0xffffffffffffffff\n        /* \"#utility.yul\":11351:11356   */\n      dup3\n        /* \"#utility.yul\":11347:11377   */\n      and\n        /* \"#utility.yul\":11336:11377   */\n      swap1\n      pop\n        /* \"#utility.yul\":11282:11383   */\n      swap2\n      swap1\n      pop\n      jump\t// out\n        /* \"#utility.yul\":11389:11504   */\n    tag_234:\n        /* \"#utility.yul\":11474:11497   */\n      tag_357\n        /* \"#utility.yul\":11491:11496   */\n      dup2\n        /* \"#utility.yul\":11474:11497   */\n      tag_233\n      jump\t// in\n    tag_357:\n        /* \"#utility.yul\":11469:11472   */\n      dup3\n        /* \"#utility.yul\":11462:11498   */\n      mstore\n        /* \"#utility.yul\":11389:11504   */\n      pop\n      pop\n      jump\t// out\n        /* \"#utility.yul\":11510:11948   */\n    tag_199:\n        /* \"#utility.yul\":11657:11661   */\n      0x00\n        /* \"#utility.yul\":11695:11697   */\n      0x60\n        /* \"#utility.yul\":11684:11693   */\n      dup3\n        /* \"#utility.yul\":11680:11698   */\n      add\n        /* \"#utility.yul\":11672:11698   */\n      swap1\n      pop\n        /* \"#utility.yul\":11708:11779   */\n      tag_359\n        /* \"#utility.yul\":11776:11777   */\n      0x00\n        /* \"#utility.yul\":11765:11774   */\n      dup4\n        /* \"#utility.yul\":11761:11778   */\n      add\n        /* \"#utility.yul\":11752:11758   */\n      dup7\n        /* \"#utility.yul\":11708:11779   */\n      tag_213\n      jump\t// in\n    tag_359:\n        /* \"#utility.yul\":11789:11861   */\n      tag_360\n        /* \"#utility.yul\":11857:11859   */\n      0x20\n        /* \"#utility.yul\":11846:11855   */\n      dup4\n        /* \"#utility.yul\":11842:11860   */\n      add\n        /* \"#utility.yul\":11833:11839   */\n      dup6\n        /* \"#utility.yul\":11789:11861   */\n      tag_208\n      jump\t// in\n    tag_360:\n        /* \"#utility.yul\":11871:11941   */\n      tag_361\n        /* \"#utility.yul\":11937:11939   */\n      0x40\n        /* \"#utility.yul\":11926:11935   */\n      dup4\n        /* \"#utility.yul\":11922:11940   */\n      add\n        /* \"#utility.yul\":11913:11919   */\n      dup5\n        /* \"#utility.yul\":11871:11941   */\n      tag_234\n      jump\t// in\n    tag_361:\n        /* \"#utility.yul\":11510:11948   */\n      swap5\n      swap4\n      pop\n      pop\n      pop\n      pop\n      jump\t// out\n\n    auxdata: 0xa2646970667358221220fea4d48a84e04db72569a45fcc1d389e16048be36debdf9c2f59c4a19360d5b464736f6c63430008180033\n}\n",
				"bytecode": {
					"linkReferences": {},
					"object": "608060405260645f806101000a81548160ff021916908360ff1602179055505f6002555f6003555f6004556102586005555f60095534801561003f575f80fd5b506123568061004d5f395ff3fe6080604052600436106100c0575f3560e01c806390d5d0c31161007e578063b577e0bb11610058578063b577e0bb14610255578063b77865031461027d578063c876e61514610293578063d891f969146102bd576100c0565b806390d5d0c3146101c45780639e0551c6146101ee578063b3b95e301461022b576100c0565b80622764ed146100c4578063086f7815146100ee578063228cb7331461011857806327b5db8a146101425780637563973a1461014c578063885c7d3614610188575b5f80fd5b3480156100cf575f80fd5b506100d86102e5565b6040516100e59190611cd2565b60405180910390f35b3480156100f9575f80fd5b506101026102eb565b60405161010f9190611cd2565b60405180910390f35b348015610123575f80fd5b5061012c6102f1565b6040516101399190611cd2565b60405180910390f35b61014a6102f7565b005b348015610157575f80fd5b50610172600480360381019061016d9190611d19565b610402565b60405161017f9190611d6f565b60405180910390f35b348015610193575f80fd5b506101ae60048036038101906101a99190611de2565b610471565b6040516101bb9190611cd2565b60405180910390f35b3480156101cf575f80fd5b506101d8610486565b6040516101e59190611cd2565b60405180910390f35b3480156101f9575f80fd5b50610214600480360381019061020f9190611e0d565b61048c565b604051610222929190611e47565b60405180910390f35b348015610236575f80fd5b5061023f6104cb565b60405161024c9190611cd2565b60405180910390f35b348015610260575f80fd5b5061027b60048036038101906102769190611d19565b6104d1565b005b348015610288575f80fd5b506102916105c8565b005b34801561029e575f80fd5b506102a761140f565b6040516102b49190611cd2565b60405180910390f35b3480156102c8575f80fd5b506102e360048036038101906102de9190611e98565b611415565b005b60065481565b60095481565b60045481565b6002805410610304575f80fd5b670de0b6b3a76400003414610317575f80fd5b3460045f8282546103289190611ef0565b925050819055503360075f60025481526020019081526020015f206001015f6101000a81548173ffffffffffffffffffffffffffffffffffffffff021916908373ffffffffffffffffffffffffffffffffffffffff16021790555060025460085f3373ffffffffffffffffffffffffffffffffffffffff1673ffffffffffffffffffffffffffffffffffffffff1681526020019081526020015f2081905550600360075f60025481526020019081526020015f205f01819055504260068190555060025f8154809291906103fb90611f23565b9190505550565b5f808314806104115750600183145b8061041c5750600283145b61045b576040517f08c379a000000000000000000000000000000000000000000000000000000000815260040161045290611fc4565b60405180910390fd5b610469835f1b835f1b6114ec565b905092915050565b6008602052805f5260405f205f915090505481565b60025481565b6007602052805f5260405f205f91509050805f015490806001015f9054906101000a900473ffffffffffffffffffffffffffffffffffffffff16905082565b60055481565b6002600954146104df575f80fd5b5f8214806104ed5750600182145b806104f85750600282145b610537576040517f08c379a000000000000000000000000000000000000000000000000000000000815260040161052e90611fc4565b60405180910390fd5b610545825f1b825f1b611520565b8160075f60085f3373ffffffffffffffffffffffffffffffffffffffff1673ffffffffffffffffffffffffffffffffffffffff1681526020019081526020015f205481526020019081526020015f205f018190555060035f8154809291906105ac90611f23565b91905055506002600354036105c4576105c36116d4565b5b5050565b600654600554426105d99190611ef0565b10610619576040517f08c379a00000000000000000000000000000000000000000000000000000000081526004016106109061202c565b60405180910390fd5b6001600254036106e95760075f8081526020019081526020015f206001015f9054906101000a900473ffffffffffffffffffffffffffffffffffffffff1673ffffffffffffffffffffffffffffffffffffffff166108fc60045490811502906040515f60405180830381858888f1935050505015801561069b573d5f803e3d5ffd5b5060075f8081526020019081526020015f205f8082015f9055600182015f6101000a81549073ffffffffffffffffffffffffffffffffffffffff021916905550506106e4611aca565b61140d565b600280541480156106fb57505f600954145b156108995760075f8081526020019081526020015f206001015f9054906101000a900473ffffffffffffffffffffffffffffffffffffffff1673ffffffffffffffffffffffffffffffffffffffff166108fc600260045461075c9190612077565b90811502906040515f60405180830381858888f19350505050158015610784573d5f803e3d5ffd5b5060075f600181526020019081526020015f206001015f9054906101000a900473ffffffffffffffffffffffffffffffffffffffff1673ffffffffffffffffffffffffffffffffffffffff166108fc60026004546107e29190612077565b90811502906040515f60405180830381858888f1935050505015801561080a573d5f803e3d5ffd5b5060075f8081526020019081526020015f205f8082015f9055600182015f6101000a81549073ffffffffffffffffffffffffffffffffffffffff0219169055505060075f600181526020019081526020015f205f8082015f9055600182015f6101000a81549073ffffffffffffffffffffffffffffffffffffffff02191690555050610894611aca565b61140c565b600280541480156108ac57506001600954145b15610cfb575f801b60015f60075f600181526020019081526020015f206001015f9054906101000a900473ffffffffffffffffffffffffffffffffffffffff1673ffffffffffffffffffffffffffffffffffffffff1673ffffffffffffffffffffffffffffffffffffffff1681526020019081526020015f205f015403610acf5760075f8081526020019081526020015f206001015f9054906101000a900473ffffffffffffffffffffffffffffffffffffffff1673ffffffffffffffffffffffffffffffffffffffff166108fc60045490811502906040515f60405180830381858888f193505050501580156109a5573d5f803e3d5ffd5b5060015f60075f8081526020019081526020015f206001015f9054906101000a900473ffffffffffffffffffffffffffffffffffffffff1673ffffffffffffffffffffffffffffffffffffffff1673ffffffffffffffffffffffffffffffffffffffff1681526020019081526020015f205f8082015f9055600182015f6101000a81549067ffffffffffffffff02191690556001820160086101000a81549060ff0219169055505060075f8081526020019081526020015f205f8082015f9055600182015f6101000a81549073ffffffffffffffffffffffffffffffffffffffff0219169055505060075f600181526020019081526020015f205f8082015f9055600182015f6101000a81549073ffffffffffffffffffffffffffffffffffffffff021916905550505b5f801b60015f60075f8081526020019081526020015f206001015f9054906101000a900473ffffffffffffffffffffffffffffffffffffffff1673ffffffffffffffffffffffffffffffffffffffff1673ffffffffffffffffffffffffffffffffffffffff1681526020019081526020015f205f015403610cee5760075f600181526020019081526020015f206001015f9054906101000a900473ffffffffffffffffffffffffffffffffffffffff1673ffffffffffffffffffffffffffffffffffffffff166108fc60045490811502906040515f60405180830381858888f19350505050158015610bc3573d5f803e3d5ffd5b5060015f60075f600181526020019081526020015f206001015f9054906101000a900473ffffffffffffffffffffffffffffffffffffffff1673ffffffffffffffffffffffffffffffffffffffff1673ffffffffffffffffffffffffffffffffffffffff1681526020019081526020015f205f8082015f9055600182015f6101000a81549067ffffffffffffffff02191690556001820160086101000a81549060ff0219169055505060075f8081526020019081526020015f205f8082015f9055600182015f6101000a81549073ffffffffffffffffffffffffffffffffffffffff0219169055505060075f600181526020019081526020015f205f8082015f9055600182015f6101000a81549073ffffffffffffffffffffffffffffffffffffffff021916905550505b610cf6611aca565b61140b565b60028054148015610d0e57506002600954145b8015610d1b57505f600354145b156110085760075f8081526020019081526020015f206001015f9054906101000a900473ffffffffffffffffffffffffffffffffffffffff1673ffffffffffffffffffffffffffffffffffffffff166108fc6002600454610d7c9190612077565b90811502906040515f60405180830381858888f19350505050158015610da4573d5f803e3d5ffd5b5060075f600181526020019081526020015f206001015f9054906101000a900473ffffffffffffffffffffffffffffffffffffffff1673ffffffffffffffffffffffffffffffffffffffff166108fc6002600454610e029190612077565b90811502906040515f60405180830381858888f19350505050158015610e2a573d5f803e3d5ffd5b5060015f60075f8081526020019081526020015f206001015f9054906101000a900473ffffffffffffffffffffffffffffffffffffffff1673ffffffffffffffffffffffffffffffffffffffff1673ffffffffffffffffffffffffffffffffffffffff1681526020019081526020015f205f8082015f9055600182015f6101000a81549067ffffffffffffffff02191690556001820160086101000a81549060ff0219169055505060015f60075f600181526020019081526020015f206001015f9054906101000a900473ffffffffffffffffffffffffffffffffffffffff1673ffffffffffffffffffffffffffffffffffffffff1673ffffffffffffffffffffffffffffffffffffffff1681526020019081526020015f205f8082015f9055600182015f6101000a81549067ffffffffffffffff02191690556001820160086101000a81549060ff0219169055505060075f8081526020019081526020015f205f8082015f9055600182015f6101000a81549073ffffffffffffffffffffffffffffffffffffffff0219169055505060075f600181526020019081526020015f205f8082015f9055600182015f6101000a81549073ffffffffffffffffffffffffffffffffffffffff02191690555050611003611aca565b61140a565b6002805414801561101b57506002600954145b801561102957506001600354145b156114095760015f60075f600181526020019081526020015f206001015f9054906101000a900473ffffffffffffffffffffffffffffffffffffffff1673ffffffffffffffffffffffffffffffffffffffff1673ffffffffffffffffffffffffffffffffffffffff1681526020019081526020015f2060010160089054906101000a900460ff16156111305760075f600181526020019081526020015f206001015f9054906101000a900473ffffffffffffffffffffffffffffffffffffffff1673ffffffffffffffffffffffffffffffffffffffff166108fc60045490811502906040515f60405180830381858888f1935050505015801561112e573d5f803e3d5ffd5b505b60015f60075f8081526020019081526020015f206001015f9054906101000a900473ffffffffffffffffffffffffffffffffffffffff1673ffffffffffffffffffffffffffffffffffffffff1673ffffffffffffffffffffffffffffffffffffffff1681526020019081526020015f2060010160089054906101000a900460ff16156112305760075f8081526020019081526020015f206001015f9054906101000a900473ffffffffffffffffffffffffffffffffffffffff1673ffffffffffffffffffffffffffffffffffffffff166108fc60045490811502906040515f60405180830381858888f1935050505015801561122e573d5f803e3d5ffd5b505b60015f60075f8081526020019081526020015f206001015f9054906101000a900473ffffffffffffffffffffffffffffffffffffffff1673ffffffffffffffffffffffffffffffffffffffff1673ffffffffffffffffffffffffffffffffffffffff1681526020019081526020015f205f8082015f9055600182015f6101000a81549067ffffffffffffffff02191690556001820160086101000a81549060ff0219169055505060015f60075f600181526020019081526020015f206001015f9054906101000a900473ffffffffffffffffffffffffffffffffffffffff1673ffffffffffffffffffffffffffffffffffffffff1673ffffffffffffffffffffffffffffffffffffffff1681526020019081526020015f205f8082015f9055600182015f6101000a81549067ffffffffffffffff02191690556001820160086101000a81549060ff0219169055505060075f8081526020019081526020015f205f8082015f9055600182015f6101000a81549073ffffffffffffffffffffffffffffffffffffffff0219169055505060075f600181526020019081526020015f205f8082015f9055600182015f6101000a81549073ffffffffffffffffffffffffffffffffffffffff02191690555050611408611aca565b5b5b5b5b5b565b60035481565b6002805414611422575f80fd5b60075f60085f3373ffffffffffffffffffffffffffffffffffffffff1673ffffffffffffffffffffffffffffffffffffffff1681526020019081526020015f205481526020019081526020015f206001015f9054906101000a900473ffffffffffffffffffffffffffffffffffffffff1673ffffffffffffffffffffffffffffffffffffffff163373ffffffffffffffffffffffffffffffffffffffff16146114c9575f80fd5b6114d281611ae8565b60095f8154809291906114e490611f23565b919050555050565b5f3083836040516020016115029392919061210c565b60405160208183030381529060405280519060200120905092915050565b5f151560015f3373ffffffffffffffffffffffffffffffffffffffff1673ffffffffffffffffffffffffffffffffffffffff1681526020019081526020015f2060010160089054906101000a900460ff161515146115b3576040517f08c379a00000000000000000000000000000000000000000000000000000000081526004016115aa906121b8565b60405180910390fd5b6001805f3373ffffffffffffffffffffffffffffffffffffffff1673ffffffffffffffffffffffffffffffffffffffff1681526020019081526020015f2060010160086101000a81548160ff02191690831515021790555060015f3373ffffffffffffffffffffffffffffffffffffffff1673ffffffffffffffffffffffffffffffffffffffff1681526020019081526020015f205f015461165583836114ec565b14611695576040517f08c379a000000000000000000000000000000000000000000000000000000000815260040161168c90612246565b60405180910390fd5b7f8bed02c4d61e56ed1d90657e7a0ba48f15cca20fcc2899d7235221b2cb0423a63383836040516116c893929190612264565b60405180910390a15050565b5f60075f8081526020019081526020015f205f015490505f60075f600181526020019081526020015f205f015490505f60075f8081526020019081526020015f206001015f9054906101000a900473ffffffffffffffffffffffffffffffffffffffff1690505f60075f600181526020019081526020015f206001015f9054906101000a900473ffffffffffffffffffffffffffffffffffffffff1690508260036001866117829190611ef0565b61178c9190612299565b036117dc578073ffffffffffffffffffffffffffffffffffffffff166108fc60045490811502906040515f60405180830381858888f193505050501580156117d6573d5f803e3d5ffd5b506118ec565b8360036001856117ec9190611ef0565b6117f69190612299565b03611846578173ffffffffffffffffffffffffffffffffffffffff166108fc60045490811502906040515f60405180830381858888f19350505050158015611840573d5f803e3d5ffd5b506118eb565b8173ffffffffffffffffffffffffffffffffffffffff166108fc600260045461186f9190612077565b90811502906040515f60405180830381858888f19350505050158015611897573d5f803e3d5ffd5b508073ffffffffffffffffffffffffffffffffffffffff166108fc60026004546118c19190612077565b90811502906040515f60405180830381858888f193505050501580156118e9573d5f803e3d5ffd5b505b5b60015f60075f8081526020019081526020015f206001015f9054906101000a900473ffffffffffffffffffffffffffffffffffffffff1673ffffffffffffffffffffffffffffffffffffffff1673ffffffffffffffffffffffffffffffffffffffff1681526020019081526020015f205f8082015f9055600182015f6101000a81549067ffffffffffffffff02191690556001820160086101000a81549060ff0219169055505060015f60075f600181526020019081526020015f206001015f9054906101000a900473ffffffffffffffffffffffffffffffffffffffff1673ffffffffffffffffffffffffffffffffffffffff1673ffffffffffffffffffffffffffffffffffffffff1681526020019081526020015f205f8082015f9055600182015f6101000a81549067ffffffffffffffff02191690556001820160086101000a81549060ff0219169055505060075f8081526020019081526020015f205f8082015f9055600182015f6101000a81549073ffffffffffffffffffffffffffffffffffffffff0219169055505060075f600181526020019081526020015f205f8082015f9055600182015f6101000a81549073ffffffffffffffffffffffffffffffffffffffff02191690555050611ac4611aca565b50505050565b5f6009819055505f6002819055505f6003819055505f600481905550565b8060015f3373ffffffffffffffffffffffffffffffffffffffff1673ffffffffffffffffffffffffffffffffffffffff1681526020019081526020015f205f01819055504360015f3373ffffffffffffffffffffffffffffffffffffffff1673ffffffffffffffffffffffffffffffffffffffff1681526020019081526020015f206001015f6101000a81548167ffffffffffffffff021916908367ffffffffffffffff1602179055505f60015f3373ffffffffffffffffffffffffffffffffffffffff1673ffffffffffffffffffffffffffffffffffffffff1681526020019081526020015f2060010160086101000a81548160ff0219169083151502179055507f3c1a1f8f38335b17f751c6da4ba7d1865f26b3997535176f5080de9fad8916033360015f3373ffffffffffffffffffffffffffffffffffffffff1673ffffffffffffffffffffffffffffffffffffffff1681526020019081526020015f205f015460015f3373ffffffffffffffffffffffffffffffffffffffff1673ffffffffffffffffffffffffffffffffffffffff1681526020019081526020015f206001015f9054906101000a900467ffffffffffffffff16604051611caf939291906122eb565b60405180910390a150565b5f819050919050565b611ccc81611cba565b82525050565b5f602082019050611ce55f830184611cc3565b92915050565b5f80fd5b611cf881611cba565b8114611d02575f80fd5b50565b5f81359050611d1381611cef565b92915050565b5f8060408385031215611d2f57611d2e611ceb565b5b5f611d3c85828601611d05565b9250506020611d4d85828601611d05565b9150509250929050565b5f819050919050565b611d6981611d57565b82525050565b5f602082019050611d825f830184611d60565b92915050565b5f73ffffffffffffffffffffffffffffffffffffffff82169050919050565b5f611db182611d88565b9050919050565b611dc181611da7565b8114611dcb575f80fd5b50565b5f81359050611ddc81611db8565b92915050565b5f60208284031215611df757611df6611ceb565b5b5f611e0484828501611dce565b91505092915050565b5f60208284031215611e2257611e21611ceb565b5b5f611e2f84828501611d05565b91505092915050565b611e4181611da7565b82525050565b5f604082019050611e5a5f830185611cc3565b611e676020830184611e38565b9392505050565b611e7781611d57565b8114611e81575f80fd5b50565b5f81359050611e9281611e6e565b92915050565b5f60208284031215611ead57611eac611ceb565b5b5f611eba84828501611e84565b91505092915050565b7f4e487b71000000000000000000000000000000000000000000000000000000005f52601160045260245ffd5b5f611efa82611cba565b9150611f0583611cba565b9250828201905080821115611f1d57611f1c611ec3565b5b92915050565b5f611f2d82611cba565b91507fffffffffffffffffffffffffffffffffffffffffffffffffffffffffffffffff8203611f5f57611f5e611ec3565b5b600182019050919050565b5f82825260208201905092915050565b7f696e76616c69642063686f6963650000000000000000000000000000000000005f82015250565b5f611fae600e83611f6a565b9150611fb982611f7a565b602082019050919050565b5f6020820190508181035f830152611fdb81611fa2565b9050919050565b7f696e2074696d65000000000000000000000000000000000000000000000000005f82015250565b5f612016600783611f6a565b915061202182611fe2565b602082019050919050565b5f6020820190508181035f8301526120438161200a565b9050919050565b7f4e487b71000000000000000000000000000000000000000000000000000000005f52601260045260245ffd5b5f61208182611cba565b915061208c83611cba565b92508261209c5761209b61204a565b5b828204905092915050565b5f8160601b9050919050565b5f6120bd826120a7565b9050919050565b5f6120ce826120b3565b9050919050565b6120e66120e182611da7565b6120c4565b82525050565b5f819050919050565b61210661210182611d57565b6120ec565b82525050565b5f61211782866120d5565b60148201915061212782856120f5565b60208201915061213782846120f5565b602082019150819050949350505050565b7f436f6d6d697452657665616c3a3a72657665616c416e737765723a20416c72655f8201527f6164792072657665616c65640000000000000000000000000000000000000000602082015250565b5f6121a2602c83611f6a565b91506121ad82612148565b604082019050919050565b5f6020820190508181035f8301526121cf81612196565b9050919050565b7f436f6d6d697452657665616c3a3a72657665616c416e737765723a20526576655f8201527f616c6564206861736820646f6573206e6f74206d6174636820636f6d6d697400602082015250565b5f612230603f83611f6a565b915061223b826121d6565b604082019050919050565b5f6020820190508181035f83015261225d81612224565b9050919050565b5f6060820190506122775f830186611e38565b6122846020830185611d60565b6122916040830184611d60565b949350505050565b5f6122a382611cba565b91506122ae83611cba565b9250826122be576122bd61204a565b5b828206905092915050565b5f67ffffffffffffffff82169050919050565b6122e5816122c9565b82525050565b5f6060820190506122fe5f830186611e38565b61230b6020830185611d60565b61231860408301846122dc565b94935050505056fea2646970667358221220fea4d48a84e04db72569a45fcc1d389e16048be36debdf9c2f59c4a19360d5b464736f6c63430008180033",
					"opcodes": "PUSH1 0x80 PUSH1 0x40 MSTORE PUSH1 0x64 PUSH0 DUP1 PUSH2 0x100 EXP DUP2 SLOAD DUP2 PUSH1 0xFF MUL NOT AND SWAP1 DUP4 PUSH1 0xFF AND MUL OR SWAP1 SSTORE POP PUSH0 PUSH1 0x2 SSTORE PUSH0 PUSH1 0x3 SSTORE PUSH0 PUSH1 0x4 SSTORE PUSH2 0x258 PUSH1 0x5 SSTORE PUSH0 PUSH1 0x9 SSTORE CALLVALUE DUP1 ISZERO PUSH2 0x3F JUMPI PUSH0 DUP1 REVERT JUMPDEST POP PUSH2 0x2356 DUP1 PUSH2 0x4D PUSH0 CODECOPY PUSH0 RETURN INVALID PUSH1 0x80 PUSH1 0x40 MSTORE PUSH1 0x4 CALLDATASIZE LT PUSH2 0xC0 JUMPI PUSH0 CALLDATALOAD PUSH1 0xE0 SHR DUP1 PUSH4 0x90D5D0C3 GT PUSH2 0x7E JUMPI DUP1 PUSH4 0xB577E0BB GT PUSH2 0x58 JUMPI DUP1 PUSH4 0xB577E0BB EQ PUSH2 0x255 JUMPI DUP1 PUSH4 0xB7786503 EQ PUSH2 0x27D JUMPI DUP1 PUSH4 0xC876E615 EQ PUSH2 0x293 JUMPI DUP1 PUSH4 0xD891F969 EQ PUSH2 0x2BD JUMPI PUSH2 0xC0 JUMP JUMPDEST DUP1 PUSH4 0x90D5D0C3 EQ PUSH2 0x1C4 JUMPI DUP1 PUSH4 0x9E0551C6 EQ PUSH2 0x1EE JUMPI DUP1 PUSH4 0xB3B95E30 EQ PUSH2 0x22B JUMPI PUSH2 0xC0 JUMP JUMPDEST DUP1 PUSH3 0x2764ED EQ PUSH2 0xC4 JUMPI DUP1 PUSH4 0x86F7815 EQ PUSH2 0xEE JUMPI DUP1 PUSH4 0x228CB733 EQ PUSH2 0x118 JUMPI DUP1 PUSH4 0x27B5DB8A EQ PUSH2 0x142 JUMPI DUP1 PUSH4 0x7563973A EQ PUSH2 0x14C JUMPI DUP1 PUSH4 0x885C7D36 EQ PUSH2 0x188 JUMPI JUMPDEST PUSH0 DUP1 REVERT JUMPDEST CALLVALUE DUP1 ISZERO PUSH2 0xCF JUMPI PUSH0 DUP1 REVERT JUMPDEST POP PUSH2 0xD8 PUSH2 0x2E5 JUMP JUMPDEST PUSH1 0x40 MLOAD PUSH2 0xE5 SWAP2 SWAP1 PUSH2 0x1CD2 JUMP JUMPDEST PUSH1 0x40 MLOAD DUP1 SWAP2 SUB SWAP1 RETURN JUMPDEST CALLVALUE DUP1 ISZERO PUSH2 0xF9 JUMPI PUSH0 DUP1 REVERT JUMPDEST POP PUSH2 0x102 PUSH2 0x2EB JUMP JUMPDEST PUSH1 0x40 MLOAD PUSH2 0x10F SWAP2 SWAP1 PUSH2 0x1CD2 JUMP JUMPDEST PUSH1 0x40 MLOAD DUP1 SWAP2 SUB SWAP1 RETURN JUMPDEST CALLVALUE DUP1 ISZERO PUSH2 0x123 JUMPI PUSH0 DUP1 REVERT JUMPDEST POP PUSH2 0x12C PUSH2 0x2F1 JUMP JUMPDEST PUSH1 0x40 MLOAD PUSH2 0x139 SWAP2 SWAP1 PUSH2 0x1CD2 JUMP JUMPDEST PUSH1 0x40 MLOAD DUP1 SWAP2 SUB SWAP1 RETURN JUMPDEST PUSH2 0x14A PUSH2 0x2F7 JUMP JUMPDEST STOP JUMPDEST CALLVALUE DUP1 ISZERO PUSH2 0x157 JUMPI PUSH0 DUP1 REVERT JUMPDEST POP PUSH2 0x172 PUSH1 0x4 DUP1 CALLDATASIZE SUB DUP2 ADD SWAP1 PUSH2 0x16D SWAP2 SWAP1 PUSH2 0x1D19 JUMP JUMPDEST PUSH2 0x402 JUMP JUMPDEST PUSH1 0x40 MLOAD PUSH2 0x17F SWAP2 SWAP1 PUSH2 0x1D6F JUMP JUMPDEST PUSH1 0x40 MLOAD DUP1 SWAP2 SUB SWAP1 RETURN JUMPDEST CALLVALUE DUP1 ISZERO PUSH2 0x193 JUMPI PUSH0 DUP1 REVERT JUMPDEST POP PUSH2 0x1AE PUSH1 0x4 DUP1 CALLDATASIZE SUB DUP2 ADD SWAP1 PUSH2 0x1A9 SWAP2 SWAP1 PUSH2 0x1DE2 JUMP JUMPDEST PUSH2 0x471 JUMP JUMPDEST PUSH1 0x40 MLOAD PUSH2 0x1BB SWAP2 SWAP1 PUSH2 0x1CD2 JUMP JUMPDEST PUSH1 0x40 MLOAD DUP1 SWAP2 SUB SWAP1 RETURN JUMPDEST CALLVALUE DUP1 ISZERO PUSH2 0x1CF JUMPI PUSH0 DUP1 REVERT JUMPDEST POP PUSH2 0x1D8 PUSH2 0x486 JUMP JUMPDEST PUSH1 0x40 MLOAD PUSH2 0x1E5 SWAP2 SWAP1 PUSH2 0x1CD2 JUMP JUMPDEST PUSH1 0x40 MLOAD DUP1 SWAP2 SUB SWAP1 RETURN JUMPDEST CALLVALUE DUP1 ISZERO PUSH2 0x1F9 JUMPI PUSH0 DUP1 REVERT JUMPDEST POP PUSH2 0x214 PUSH1 0x4 DUP1 CALLDATASIZE SUB DUP2 ADD SWAP1 PUSH2 0x20F SWAP2 SWAP1 PUSH2 0x1E0D JUMP JUMPDEST PUSH2 0x48C JUMP JUMPDEST PUSH1 0x40 MLOAD PUSH2 0x222 SWAP3 SWAP2 SWAP1 PUSH2 0x1E47 JUMP JUMPDEST PUSH1 0x40 MLOAD DUP1 SWAP2 SUB SWAP1 RETURN JUMPDEST CALLVALUE DUP1 ISZERO PUSH2 0x236 JUMPI PUSH0 DUP1 REVERT JUMPDEST POP PUSH2 0x23F PUSH2 0x4CB JUMP JUMPDEST PUSH1 0x40 MLOAD PUSH2 0x24C SWAP2 SWAP1 PUSH2 0x1CD2 JUMP JUMPDEST PUSH1 0x40 MLOAD DUP1 SWAP2 SUB SWAP1 RETURN JUMPDEST CALLVALUE DUP1 ISZERO PUSH2 0x260 JUMPI PUSH0 DUP1 REVERT JUMPDEST POP PUSH2 0x27B PUSH1 0x4 DUP1 CALLDATASIZE SUB DUP2 ADD SWAP1 PUSH2 0x276 SWAP2 SWAP1 PUSH2 0x1D19 JUMP JUMPDEST PUSH2 0x4D1 JUMP JUMPDEST STOP JUMPDEST CALLVALUE DUP1 ISZERO PUSH2 0x288 JUMPI PUSH0 DUP1 REVERT JUMPDEST POP PUSH2 0x291 PUSH2 0x5C8 JUMP JUMPDEST STOP JUMPDEST CALLVALUE DUP1 ISZERO PUSH2 0x29E JUMPI PUSH0 DUP1 REVERT JUMPDEST POP PUSH2 0x2A7 PUSH2 0x140F JUMP JUMPDEST PUSH1 0x40 MLOAD PUSH2 0x2B4 SWAP2 SWAP1 PUSH2 0x1CD2 JUMP JUMPDEST PUSH1 0x40 MLOAD DUP1 SWAP2 SUB SWAP1 RETURN JUMPDEST CALLVALUE DUP1 ISZERO PUSH2 0x2C8 JUMPI PUSH0 DUP1 REVERT JUMPDEST POP PUSH2 0x2E3 PUSH1 0x4 DUP1 CALLDATASIZE SUB DUP2 ADD SWAP1 PUSH2 0x2DE SWAP2 SWAP1 PUSH2 0x1E98 JUMP JUMPDEST PUSH2 0x1415 JUMP JUMPDEST STOP JUMPDEST PUSH1 0x6 SLOAD DUP2 JUMP JUMPDEST PUSH1 0x9 SLOAD DUP2 JUMP JUMPDEST PUSH1 0x4 SLOAD DUP2 JUMP JUMPDEST PUSH1 0x2 DUP1 SLOAD LT PUSH2 0x304 JUMPI PUSH0 DUP1 REVERT JUMPDEST PUSH8 0xDE0B6B3A7640000 CALLVALUE EQ PUSH2 0x317 JUMPI PUSH0 DUP1 REVERT JUMPDEST CALLVALUE PUSH1 0x4 PUSH0 DUP3 DUP3 SLOAD PUSH2 0x328 SWAP2 SWAP1 PUSH2 0x1EF0 JUMP JUMPDEST SWAP3 POP POP DUP2 SWAP1 SSTORE POP CALLER PUSH1 0x7 PUSH0 PUSH1 0x2 SLOAD DUP2 MSTORE PUSH1 0x20 ADD SWAP1 DUP2 MSTORE PUSH1 0x20 ADD PUSH0 KECCAK256 PUSH1 0x1 ADD PUSH0 PUSH2 0x100 EXP DUP2 SLOAD DUP2 PUSH20 0xFFFFFFFFFFFFFFFFFFFFFFFFFFFFFFFFFFFFFFFF MUL NOT AND SWAP1 DUP4 PUSH20 0xFFFFFFFFFFFFFFFFFFFFFFFFFFFFFFFFFFFFFFFF AND MUL OR SWAP1 SSTORE POP PUSH1 0x2 SLOAD PUSH1 0x8 PUSH0 CALLER PUSH20 0xFFFFFFFFFFFFFFFFFFFFFFFFFFFFFFFFFFFFFFFF AND PUSH20 0xFFFFFFFFFFFFFFFFFFFFFFFFFFFFFFFFFFFFFFFF AND DUP2 MSTORE PUSH1 0x20 ADD SWAP1 DUP2 MSTORE PUSH1 0x20 ADD PUSH0 KECCAK256 DUP2 SWAP1 SSTORE POP PUSH1 0x3 PUSH1 0x7 PUSH0 PUSH1 0x2 SLOAD DUP2 MSTORE PUSH1 0x20 ADD SWAP1 DUP2 MSTORE PUSH1 0x20 ADD PUSH0 KECCAK256 PUSH0 ADD DUP2 SWAP1 SSTORE POP TIMESTAMP PUSH1 0x6 DUP2 SWAP1 SSTORE POP PUSH1 0x2 PUSH0 DUP2 SLOAD DUP1 SWAP3 SWAP2 SWAP1 PUSH2 0x3FB SWAP1 PUSH2 0x1F23 JUMP JUMPDEST SWAP2 SWAP1 POP SSTORE POP JUMP JUMPDEST PUSH0 DUP1 DUP4 EQ DUP1 PUSH2 0x411 JUMPI POP PUSH1 0x1 DUP4 EQ JUMPDEST DUP1 PUSH2 0x41C JUMPI POP PUSH1 0x2 DUP4 EQ JUMPDEST PUSH2 0x45B JUMPI PUSH1 0x40 MLOAD PUSH32 0x8C379A000000000000000000000000000000000000000000000000000000000 DUP2 MSTORE PUSH1 0x4 ADD PUSH2 0x452 SWAP1 PUSH2 0x1FC4 JUMP JUMPDEST PUSH1 0x40 MLOAD DUP1 SWAP2 SUB SWAP1 REVERT JUMPDEST PUSH2 0x469 DUP4 PUSH0 SHL DUP4 PUSH0 SHL PUSH2 0x14EC JUMP JUMPDEST SWAP1 POP SWAP3 SWAP2 POP POP JUMP JUMPDEST PUSH1 0x8 PUSH1 0x20 MSTORE DUP1 PUSH0 MSTORE PUSH1 0x40 PUSH0 KECCAK256 PUSH0 SWAP2 POP SWAP1 POP SLOAD DUP2 JUMP JUMPDEST PUSH1 0x2 SLOAD DUP2 JUMP JUMPDEST PUSH1 0x7 PUSH1 0x20 MSTORE DUP1 PUSH0 MSTORE PUSH1 0x40 PUSH0 KECCAK256 PUSH0 SWAP2 POP SWAP1 POP DUP1 PUSH0 ADD SLOAD SWAP1 DUP1 PUSH1 0x1 ADD PUSH0 SWAP1 SLOAD SWAP1 PUSH2 0x100 EXP SWAP1 DIV PUSH20 0xFFFFFFFFFFFFFFFFFFFFFFFFFFFFFFFFFFFFFFFF AND SWAP1 POP DUP3 JUMP JUMPDEST PUSH1 0x5 SLOAD DUP2 JUMP JUMPDEST PUSH1 0x2 PUSH1 0x9 SLOAD EQ PUSH2 0x4DF JUMPI PUSH0 DUP1 REVERT JUMPDEST PUSH0 DUP3 EQ DUP1 PUSH2 0x4ED JUMPI POP PUSH1 0x1 DUP3 EQ JUMPDEST DUP1 PUSH2 0x4F8 JUMPI POP PUSH1 0x2 DUP3 EQ JUMPDEST PUSH2 0x537 JUMPI PUSH1 0x40 MLOAD PUSH32 0x8C379A000000000000000000000000000000000000000000000000000000000 DUP2 MSTORE PUSH1 0x4 ADD PUSH2 0x52E SWAP1 PUSH2 0x1FC4 JUMP JUMPDEST PUSH1 0x40 MLOAD DUP1 SWAP2 SUB SWAP1 REVERT JUMPDEST PUSH2 0x545 DUP3 PUSH0 SHL DUP3 PUSH0 SHL PUSH2 0x1520 JUMP JUMPDEST DUP2 PUSH1 0x7 PUSH0 PUSH1 0x8 PUSH0 CALLER PUSH20 0xFFFFFFFFFFFFFFFFFFFFFFFFFFFFFFFFFFFFFFFF AND PUSH20 0xFFFFFFFFFFFFFFFFFFFFFFFFFFFFFFFFFFFFFFFF AND DUP2 MSTORE PUSH1 0x20 ADD SWAP1 DUP2 MSTORE PUSH1 0x20 ADD PUSH0 KECCAK256 SLOAD DUP2 MSTORE PUSH1 0x20 ADD SWAP1 DUP2 MSTORE PUSH1 0x20 ADD PUSH0 KECCAK256 PUSH0 ADD DUP2 SWAP1 SSTORE POP PUSH1 0x3 PUSH0 DUP2 SLOAD DUP1 SWAP3 SWAP2 SWAP1 PUSH2 0x5AC SWAP1 PUSH2 0x1F23 JUMP JUMPDEST SWAP2 SWAP1 POP SSTORE POP PUSH1 0x2 PUSH1 0x3 SLOAD SUB PUSH2 0x5C4 JUMPI PUSH2 0x5C3 PUSH2 0x16D4 JUMP JUMPDEST JUMPDEST POP POP JUMP JUMPDEST PUSH1 0x6 SLOAD PUSH1 0x5 SLOAD TIMESTAMP PUSH2 0x5D9 SWAP2 SWAP1 PUSH2 0x1EF0 JUMP JUMPDEST LT PUSH2 0x619 JUMPI PUSH1 0x40 MLOAD PUSH32 0x8C379A000000000000000000000000000000000000000000000000000000000 DUP2 MSTORE PUSH1 0x4 ADD PUSH2 0x610 SWAP1 PUSH2 0x202C JUMP JUMPDEST PUSH1 0x40 MLOAD DUP1 SWAP2 SUB SWAP1 REVERT JUMPDEST PUSH1 0x1 PUSH1 0x2 SLOAD SUB PUSH2 0x6E9 JUMPI PUSH1 0x7 PUSH0 DUP1 DUP2 MSTORE PUSH1 0x20 ADD SWAP1 DUP2 MSTORE PUSH1 0x20 ADD PUSH0 KECCAK256 PUSH1 0x1 ADD PUSH0 SWAP1 SLOAD SWAP1 PUSH2 0x100 EXP SWAP1 DIV PUSH20 0xFFFFFFFFFFFFFFFFFFFFFFFFFFFFFFFFFFFFFFFF AND PUSH20 0xFFFFFFFFFFFFFFFFFFFFFFFFFFFFFFFFFFFFFFFF AND PUSH2 0x8FC PUSH1 0x4 SLOAD SWAP1 DUP2 ISZERO MUL SWAP1 PUSH1 0x40 MLOAD PUSH0 PUSH1 0x40 MLOAD DUP1 DUP4 SUB DUP2 DUP6 DUP9 DUP9 CALL SWAP4 POP POP POP POP ISZERO DUP1 ISZERO PUSH2 0x69B JUMPI RETURNDATASIZE PUSH0 DUP1 RETURNDATACOPY RETURNDATASIZE PUSH0 REVERT JUMPDEST POP PUSH1 0x7 PUSH0 DUP1 DUP2 MSTORE PUSH1 0x20 ADD SWAP1 DUP2 MSTORE PUSH1 0x20 ADD PUSH0 KECCAK256 PUSH0 DUP1 DUP3 ADD PUSH0 SWAP1 SSTORE PUSH1 0x1 DUP3 ADD PUSH0 PUSH2 0x100 EXP DUP2 SLOAD SWAP1 PUSH20 0xFFFFFFFFFFFFFFFFFFFFFFFFFFFFFFFFFFFFFFFF MUL NOT AND SWAP1 SSTORE POP POP PUSH2 0x6E4 PUSH2 0x1ACA JUMP JUMPDEST PUSH2 0x140D JUMP JUMPDEST PUSH1 0x2 DUP1 SLOAD EQ DUP1 ISZERO PUSH2 0x6FB JUMPI POP PUSH0 PUSH1 0x9 SLOAD EQ JUMPDEST ISZERO PUSH2 0x899 JUMPI PUSH1 0x7 PUSH0 DUP1 DUP2 MSTORE PUSH1 0x20 ADD SWAP1 DUP2 MSTORE PUSH1 0x20 ADD PUSH0 KECCAK256 PUSH1 0x1 ADD PUSH0 SWAP1 SLOAD SWAP1 PUSH2 0x100 EXP SWAP1 DIV PUSH20 0xFFFFFFFFFFFFFFFFFFFFFFFFFFFFFFFFFFFFFFFF AND PUSH20 0xFFFFFFFFFFFFFFFFFFFFFFFFFFFFFFFFFFFFFFFF AND PUSH2 0x8FC PUSH1 0x2 PUSH1 0x4 SLOAD PUSH2 0x75C SWAP2 SWAP1 PUSH2 0x2077 JUMP JUMPDEST SWAP1 DUP2 ISZERO MUL SWAP1 PUSH1 0x40 MLOAD PUSH0 PUSH1 0x40 MLOAD DUP1 DUP4 SUB DUP2 DUP6 DUP9 DUP9 CALL SWAP4 POP POP POP POP ISZERO DUP1 ISZERO PUSH2 0x784 JUMPI RETURNDATASIZE PUSH0 DUP1 RETURNDATACOPY RETURNDATASIZE PUSH0 REVERT JUMPDEST POP PUSH1 0x7 PUSH0 PUSH1 0x1 DUP2 MSTORE PUSH1 0x20 ADD SWAP1 DUP2 MSTORE PUSH1 0x20 ADD PUSH0 KECCAK256 PUSH1 0x1 ADD PUSH0 SWAP1 SLOAD SWAP1 PUSH2 0x100 EXP SWAP1 DIV PUSH20 0xFFFFFFFFFFFFFFFFFFFFFFFFFFFFFFFFFFFFFFFF AND PUSH20 0xFFFFFFFFFFFFFFFFFFFFFFFFFFFFFFFFFFFFFFFF AND PUSH2 0x8FC PUSH1 0x2 PUSH1 0x4 SLOAD PUSH2 0x7E2 SWAP2 SWAP1 PUSH2 0x2077 JUMP JUMPDEST SWAP1 DUP2 ISZERO MUL SWAP1 PUSH1 0x40 MLOAD PUSH0 PUSH1 0x40 MLOAD DUP1 DUP4 SUB DUP2 DUP6 DUP9 DUP9 CALL SWAP4 POP POP POP POP ISZERO DUP1 ISZERO PUSH2 0x80A JUMPI RETURNDATASIZE PUSH0 DUP1 RETURNDATACOPY RETURNDATASIZE PUSH0 REVERT JUMPDEST POP PUSH1 0x7 PUSH0 DUP1 DUP2 MSTORE PUSH1 0x20 ADD SWAP1 DUP2 MSTORE PUSH1 0x20 ADD PUSH0 KECCAK256 PUSH0 DUP1 DUP3 ADD PUSH0 SWAP1 SSTORE PUSH1 0x1 DUP3 ADD PUSH0 PUSH2 0x100 EXP DUP2 SLOAD SWAP1 PUSH20 0xFFFFFFFFFFFFFFFFFFFFFFFFFFFFFFFFFFFFFFFF MUL NOT AND SWAP1 SSTORE POP POP PUSH1 0x7 PUSH0 PUSH1 0x1 DUP2 MSTORE PUSH1 0x20 ADD SWAP1 DUP2 MSTORE PUSH1 0x20 ADD PUSH0 KECCAK256 PUSH0 DUP1 DUP3 ADD PUSH0 SWAP1 SSTORE PUSH1 0x1 DUP3 ADD PUSH0 PUSH2 0x100 EXP DUP2 SLOAD SWAP1 PUSH20 0xFFFFFFFFFFFFFFFFFFFFFFFFFFFFFFFFFFFFFFFF MUL NOT AND SWAP1 SSTORE POP POP PUSH2 0x894 PUSH2 0x1ACA JUMP JUMPDEST PUSH2 0x140C JUMP JUMPDEST PUSH1 0x2 DUP1 SLOAD EQ DUP1 ISZERO PUSH2 0x8AC JUMPI POP PUSH1 0x1 PUSH1 0x9 SLOAD EQ JUMPDEST ISZERO PUSH2 0xCFB JUMPI PUSH0 DUP1 SHL PUSH1 0x1 PUSH0 PUSH1 0x7 PUSH0 PUSH1 0x1 DUP2 MSTORE PUSH1 0x20 ADD SWAP1 DUP2 MSTORE PUSH1 0x20 ADD PUSH0 KECCAK256 PUSH1 0x1 ADD PUSH0 SWAP1 SLOAD SWAP1 PUSH2 0x100 EXP SWAP1 DIV PUSH20 0xFFFFFFFFFFFFFFFFFFFFFFFFFFFFFFFFFFFFFFFF AND PUSH20 0xFFFFFFFFFFFFFFFFFFFFFFFFFFFFFFFFFFFFFFFF AND PUSH20 0xFFFFFFFFFFFFFFFFFFFFFFFFFFFFFFFFFFFFFFFF AND DUP2 MSTORE PUSH1 0x20 ADD SWAP1 DUP2 MSTORE PUSH1 0x20 ADD PUSH0 KECCAK256 PUSH0 ADD SLOAD SUB PUSH2 0xACF JUMPI PUSH1 0x7 PUSH0 DUP1 DUP2 MSTORE PUSH1 0x20 ADD SWAP1 DUP2 MSTORE PUSH1 0x20 ADD PUSH0 KECCAK256 PUSH1 0x1 ADD PUSH0 SWAP1 SLOAD SWAP1 PUSH2 0x100 EXP SWAP1 DIV PUSH20 0xFFFFFFFFFFFFFFFFFFFFFFFFFFFFFFFFFFFFFFFF AND PUSH20 0xFFFFFFFFFFFFFFFFFFFFFFFFFFFFFFFFFFFFFFFF AND PUSH2 0x8FC PUSH1 0x4 SLOAD SWAP1 DUP2 ISZERO MUL SWAP1 PUSH1 0x40 MLOAD PUSH0 PUSH1 0x40 MLOAD DUP1 DUP4 SUB DUP2 DUP6 DUP9 DUP9 CALL SWAP4 POP POP POP POP ISZERO DUP1 ISZERO PUSH2 0x9A5 JUMPI RETURNDATASIZE PUSH0 DUP1 RETURNDATACOPY RETURNDATASIZE PUSH0 REVERT JUMPDEST POP PUSH1 0x1 PUSH0 PUSH1 0x7 PUSH0 DUP1 DUP2 MSTORE PUSH1 0x20 ADD SWAP1 DUP2 MSTORE PUSH1 0x20 ADD PUSH0 KECCAK256 PUSH1 0x1 ADD PUSH0 SWAP1 SLOAD SWAP1 PUSH2 0x100 EXP SWAP1 DIV PUSH20 0xFFFFFFFFFFFFFFFFFFFFFFFFFFFFFFFFFFFFFFFF AND PUSH20 0xFFFFFFFFFFFFFFFFFFFFFFFFFFFFFFFFFFFFFFFF AND PUSH20 0xFFFFFFFFFFFFFFFFFFFFFFFFFFFFFFFFFFFFFFFF AND DUP2 MSTORE PUSH1 0x20 ADD SWAP1 DUP2 MSTORE PUSH1 0x20 ADD PUSH0 KECCAK256 PUSH0 DUP1 DUP3 ADD PUSH0 SWAP1 SSTORE PUSH1 0x1 DUP3 ADD PUSH0 PUSH2 0x100 EXP DUP2 SLOAD SWAP1 PUSH8 0xFFFFFFFFFFFFFFFF MUL NOT AND SWAP1 SSTORE PUSH1 0x1 DUP3 ADD PUSH1 0x8 PUSH2 0x100 EXP DUP2 SLOAD SWAP1 PUSH1 0xFF MUL NOT AND SWAP1 SSTORE POP POP PUSH1 0x7 PUSH0 DUP1 DUP2 MSTORE PUSH1 0x20 ADD SWAP1 DUP2 MSTORE PUSH1 0x20 ADD PUSH0 KECCAK256 PUSH0 DUP1 DUP3 ADD PUSH0 SWAP1 SSTORE PUSH1 0x1 DUP3 ADD PUSH0 PUSH2 0x100 EXP DUP2 SLOAD SWAP1 PUSH20 0xFFFFFFFFFFFFFFFFFFFFFFFFFFFFFFFFFFFFFFFF MUL NOT AND SWAP1 SSTORE POP POP PUSH1 0x7 PUSH0 PUSH1 0x1 DUP2 MSTORE PUSH1 0x20 ADD SWAP1 DUP2 MSTORE PUSH1 0x20 ADD PUSH0 KECCAK256 PUSH0 DUP1 DUP3 ADD PUSH0 SWAP1 SSTORE PUSH1 0x1 DUP3 ADD PUSH0 PUSH2 0x100 EXP DUP2 SLOAD SWAP1 PUSH20 0xFFFFFFFFFFFFFFFFFFFFFFFFFFFFFFFFFFFFFFFF MUL NOT AND SWAP1 SSTORE POP POP JUMPDEST PUSH0 DUP1 SHL PUSH1 0x1 PUSH0 PUSH1 0x7 PUSH0 DUP1 DUP2 MSTORE PUSH1 0x20 ADD SWAP1 DUP2 MSTORE PUSH1 0x20 ADD PUSH0 KECCAK256 PUSH1 0x1 ADD PUSH0 SWAP1 SLOAD SWAP1 PUSH2 0x100 EXP SWAP1 DIV PUSH20 0xFFFFFFFFFFFFFFFFFFFFFFFFFFFFFFFFFFFFFFFF AND PUSH20 0xFFFFFFFFFFFFFFFFFFFFFFFFFFFFFFFFFFFFFFFF AND PUSH20 0xFFFFFFFFFFFFFFFFFFFFFFFFFFFFFFFFFFFFFFFF AND DUP2 MSTORE PUSH1 0x20 ADD SWAP1 DUP2 MSTORE PUSH1 0x20 ADD PUSH0 KECCAK256 PUSH0 ADD SLOAD SUB PUSH2 0xCEE JUMPI PUSH1 0x7 PUSH0 PUSH1 0x1 DUP2 MSTORE PUSH1 0x20 ADD SWAP1 DUP2 MSTORE PUSH1 0x20 ADD PUSH0 KECCAK256 PUSH1 0x1 ADD PUSH0 SWAP1 SLOAD SWAP1 PUSH2 0x100 EXP SWAP1 DIV PUSH20 0xFFFFFFFFFFFFFFFFFFFFFFFFFFFFFFFFFFFFFFFF AND PUSH20 0xFFFFFFFFFFFFFFFFFFFFFFFFFFFFFFFFFFFFFFFF AND PUSH2 0x8FC PUSH1 0x4 SLOAD SWAP1 DUP2 ISZERO MUL SWAP1 PUSH1 0x40 MLOAD PUSH0 PUSH1 0x40 MLOAD DUP1 DUP4 SUB DUP2 DUP6 DUP9 DUP9 CALL SWAP4 POP POP POP POP ISZERO DUP1 ISZERO PUSH2 0xBC3 JUMPI RETURNDATASIZE PUSH0 DUP1 RETURNDATACOPY RETURNDATASIZE PUSH0 REVERT JUMPDEST POP PUSH1 0x1 PUSH0 PUSH1 0x7 PUSH0 PUSH1 0x1 DUP2 MSTORE PUSH1 0x20 ADD SWAP1 DUP2 MSTORE PUSH1 0x20 ADD PUSH0 KECCAK256 PUSH1 0x1 ADD PUSH0 SWAP1 SLOAD SWAP1 PUSH2 0x100 EXP SWAP1 DIV PUSH20 0xFFFFFFFFFFFFFFFFFFFFFFFFFFFFFFFFFFFFFFFF AND PUSH20 0xFFFFFFFFFFFFFFFFFFFFFFFFFFFFFFFFFFFFFFFF AND PUSH20 0xFFFFFFFFFFFFFFFFFFFFFFFFFFFFFFFFFFFFFFFF AND DUP2 MSTORE PUSH1 0x20 ADD SWAP1 DUP2 MSTORE PUSH1 0x20 ADD PUSH0 KECCAK256 PUSH0 DUP1 DUP3 ADD PUSH0 SWAP1 SSTORE PUSH1 0x1 DUP3 ADD PUSH0 PUSH2 0x100 EXP DUP2 SLOAD SWAP1 PUSH8 0xFFFFFFFFFFFFFFFF MUL NOT AND SWAP1 SSTORE PUSH1 0x1 DUP3 ADD PUSH1 0x8 PUSH2 0x100 EXP DUP2 SLOAD SWAP1 PUSH1 0xFF MUL NOT AND SWAP1 SSTORE POP POP PUSH1 0x7 PUSH0 DUP1 DUP2 MSTORE PUSH1 0x20 ADD SWAP1 DUP2 MSTORE PUSH1 0x20 ADD PUSH0 KECCAK256 PUSH0 DUP1 DUP3 ADD PUSH0 SWAP1 SSTORE PUSH1 0x1 DUP3 ADD PUSH0 PUSH2 0x100 EXP DUP2 SLOAD SWAP1 PUSH20 0xFFFFFFFFFFFFFFFFFFFFFFFFFFFFFFFFFFFFFFFF MUL NOT AND SWAP1 SSTORE POP POP PUSH1 0x7 PUSH0 PUSH1 0x1 DUP2 MSTORE PUSH1 0x20 ADD SWAP1 DUP2 MSTORE PUSH1 0x20 ADD PUSH0 KECCAK256 PUSH0 DUP1 DUP3 ADD PUSH0 SWAP1 SSTORE PUSH1 0x1 DUP3 ADD PUSH0 PUSH2 0x100 EXP DUP2 SLOAD SWAP1 PUSH20 0xFFFFFFFFFFFFFFFFFFFFFFFFFFFFFFFFFFFFFFFF MUL NOT AND SWAP1 SSTORE POP POP JUMPDEST PUSH2 0xCF6 PUSH2 0x1ACA JUMP JUMPDEST PUSH2 0x140B JUMP JUMPDEST PUSH1 0x2 DUP1 SLOAD EQ DUP1 ISZERO PUSH2 0xD0E JUMPI POP PUSH1 0x2 PUSH1 0x9 SLOAD EQ JUMPDEST DUP1 ISZERO PUSH2 0xD1B JUMPI POP PUSH0 PUSH1 0x3 SLOAD EQ JUMPDEST ISZERO PUSH2 0x1008 JUMPI PUSH1 0x7 PUSH0 DUP1 DUP2 MSTORE PUSH1 0x20 ADD SWAP1 DUP2 MSTORE PUSH1 0x20 ADD PUSH0 KECCAK256 PUSH1 0x1 ADD PUSH0 SWAP1 SLOAD SWAP1 PUSH2 0x100 EXP SWAP1 DIV PUSH20 0xFFFFFFFFFFFFFFFFFFFFFFFFFFFFFFFFFFFFFFFF AND PUSH20 0xFFFFFFFFFFFFFFFFFFFFFFFFFFFFFFFFFFFFFFFF AND PUSH2 0x8FC PUSH1 0x2 PUSH1 0x4 SLOAD PUSH2 0xD7C SWAP2 SWAP1 PUSH2 0x2077 JUMP JUMPDEST SWAP1 DUP2 ISZERO MUL SWAP1 PUSH1 0x40 MLOAD PUSH0 PUSH1 0x40 MLOAD DUP1 DUP4 SUB DUP2 DUP6 DUP9 DUP9 CALL SWAP4 POP POP POP POP ISZERO DUP1 ISZERO PUSH2 0xDA4 JUMPI RETURNDATASIZE PUSH0 DUP1 RETURNDATACOPY RETURNDATASIZE PUSH0 REVERT JUMPDEST POP PUSH1 0x7 PUSH0 PUSH1 0x1 DUP2 MSTORE PUSH1 0x20 ADD SWAP1 DUP2 MSTORE PUSH1 0x20 ADD PUSH0 KECCAK256 PUSH1 0x1 ADD PUSH0 SWAP1 SLOAD SWAP1 PUSH2 0x100 EXP SWAP1 DIV PUSH20 0xFFFFFFFFFFFFFFFFFFFFFFFFFFFFFFFFFFFFFFFF AND PUSH20 0xFFFFFFFFFFFFFFFFFFFFFFFFFFFFFFFFFFFFFFFF AND PUSH2 0x8FC PUSH1 0x2 PUSH1 0x4 SLOAD PUSH2 0xE02 SWAP2 SWAP1 PUSH2 0x2077 JUMP JUMPDEST SWAP1 DUP2 ISZERO MUL SWAP1 PUSH1 0x40 MLOAD PUSH0 PUSH1 0x40 MLOAD DUP1 DUP4 SUB DUP2 DUP6 DUP9 DUP9 CALL SWAP4 POP POP POP POP ISZERO DUP1 ISZERO PUSH2 0xE2A JUMPI RETURNDATASIZE PUSH0 DUP1 RETURNDATACOPY RETURNDATASIZE PUSH0 REVERT JUMPDEST POP PUSH1 0x1 PUSH0 PUSH1 0x7 PUSH0 DUP1 DUP2 MSTORE PUSH1 0x20 ADD SWAP1 DUP2 MSTORE PUSH1 0x20 ADD PUSH0 KECCAK256 PUSH1 0x1 ADD PUSH0 SWAP1 SLOAD SWAP1 PUSH2 0x100 EXP SWAP1 DIV PUSH20 0xFFFFFFFFFFFFFFFFFFFFFFFFFFFFFFFFFFFFFFFF AND PUSH20 0xFFFFFFFFFFFFFFFFFFFFFFFFFFFFFFFFFFFFFFFF AND PUSH20 0xFFFFFFFFFFFFFFFFFFFFFFFFFFFFFFFFFFFFFFFF AND DUP2 MSTORE PUSH1 0x20 ADD SWAP1 DUP2 MSTORE PUSH1 0x20 ADD PUSH0 KECCAK256 PUSH0 DUP1 DUP3 ADD PUSH0 SWAP1 SSTORE PUSH1 0x1 DUP3 ADD PUSH0 PUSH2 0x100 EXP DUP2 SLOAD SWAP1 PUSH8 0xFFFFFFFFFFFFFFFF MUL NOT AND SWAP1 SSTORE PUSH1 0x1 DUP3 ADD PUSH1 0x8 PUSH2 0x100 EXP DUP2 SLOAD SWAP1 PUSH1 0xFF MUL NOT AND SWAP1 SSTORE POP POP PUSH1 0x1 PUSH0 PUSH1 0x7 PUSH0 PUSH1 0x1 DUP2 MSTORE PUSH1 0x20 ADD SWAP1 DUP2 MSTORE PUSH1 0x20 ADD PUSH0 KECCAK256 PUSH1 0x1 ADD PUSH0 SWAP1 SLOAD SWAP1 PUSH2 0x100 EXP SWAP1 DIV PUSH20 0xFFFFFFFFFFFFFFFFFFFFFFFFFFFFFFFFFFFFFFFF AND PUSH20 0xFFFFFFFFFFFFFFFFFFFFFFFFFFFFFFFFFFFFFFFF AND PUSH20 0xFFFFFFFFFFFFFFFFFFFFFFFFFFFFFFFFFFFFFFFF AND DUP2 MSTORE PUSH1 0x20 ADD SWAP1 DUP2 MSTORE PUSH1 0x20 ADD PUSH0 KECCAK256 PUSH0 DUP1 DUP3 ADD PUSH0 SWAP1 SSTORE PUSH1 0x1 DUP3 ADD PUSH0 PUSH2 0x100 EXP DUP2 SLOAD SWAP1 PUSH8 0xFFFFFFFFFFFFFFFF MUL NOT AND SWAP1 SSTORE PUSH1 0x1 DUP3 ADD PUSH1 0x8 PUSH2 0x100 EXP DUP2 SLOAD SWAP1 PUSH1 0xFF MUL NOT AND SWAP1 SSTORE POP POP PUSH1 0x7 PUSH0 DUP1 DUP2 MSTORE PUSH1 0x20 ADD SWAP1 DUP2 MSTORE PUSH1 0x20 ADD PUSH0 KECCAK256 PUSH0 DUP1 DUP3 ADD PUSH0 SWAP1 SSTORE PUSH1 0x1 DUP3 ADD PUSH0 PUSH2 0x100 EXP DUP2 SLOAD SWAP1 PUSH20 0xFFFFFFFFFFFFFFFFFFFFFFFFFFFFFFFFFFFFFFFF MUL NOT AND SWAP1 SSTORE POP POP PUSH1 0x7 PUSH0 PUSH1 0x1 DUP2 MSTORE PUSH1 0x20 ADD SWAP1 DUP2 MSTORE PUSH1 0x20 ADD PUSH0 KECCAK256 PUSH0 DUP1 DUP3 ADD PUSH0 SWAP1 SSTORE PUSH1 0x1 DUP3 ADD PUSH0 PUSH2 0x100 EXP DUP2 SLOAD SWAP1 PUSH20 0xFFFFFFFFFFFFFFFFFFFFFFFFFFFFFFFFFFFFFFFF MUL NOT AND SWAP1 SSTORE POP POP PUSH2 0x1003 PUSH2 0x1ACA JUMP JUMPDEST PUSH2 0x140A JUMP JUMPDEST PUSH1 0x2 DUP1 SLOAD EQ DUP1 ISZERO PUSH2 0x101B JUMPI POP PUSH1 0x2 PUSH1 0x9 SLOAD EQ JUMPDEST DUP1 ISZERO PUSH2 0x1029 JUMPI POP PUSH1 0x1 PUSH1 0x3 SLOAD EQ JUMPDEST ISZERO PUSH2 0x1409 JUMPI PUSH1 0x1 PUSH0 PUSH1 0x7 PUSH0 PUSH1 0x1 DUP2 MSTORE PUSH1 0x20 ADD SWAP1 DUP2 MSTORE PUSH1 0x20 ADD PUSH0 KECCAK256 PUSH1 0x1 ADD PUSH0 SWAP1 SLOAD SWAP1 PUSH2 0x100 EXP SWAP1 DIV PUSH20 0xFFFFFFFFFFFFFFFFFFFFFFFFFFFFFFFFFFFFFFFF AND PUSH20 0xFFFFFFFFFFFFFFFFFFFFFFFFFFFFFFFFFFFFFFFF AND PUSH20 0xFFFFFFFFFFFFFFFFFFFFFFFFFFFFFFFFFFFFFFFF AND DUP2 MSTORE PUSH1 0x20 ADD SWAP1 DUP2 MSTORE PUSH1 0x20 ADD PUSH0 KECCAK256 PUSH1 0x1 ADD PUSH1 0x8 SWAP1 SLOAD SWAP1 PUSH2 0x100 EXP SWAP1 DIV PUSH1 0xFF AND ISZERO PUSH2 0x1130 JUMPI PUSH1 0x7 PUSH0 PUSH1 0x1 DUP2 MSTORE PUSH1 0x20 ADD SWAP1 DUP2 MSTORE PUSH1 0x20 ADD PUSH0 KECCAK256 PUSH1 0x1 ADD PUSH0 SWAP1 SLOAD SWAP1 PUSH2 0x100 EXP SWAP1 DIV PUSH20 0xFFFFFFFFFFFFFFFFFFFFFFFFFFFFFFFFFFFFFFFF AND PUSH20 0xFFFFFFFFFFFFFFFFFFFFFFFFFFFFFFFFFFFFFFFF AND PUSH2 0x8FC PUSH1 0x4 SLOAD SWAP1 DUP2 ISZERO MUL SWAP1 PUSH1 0x40 MLOAD PUSH0 PUSH1 0x40 MLOAD DUP1 DUP4 SUB DUP2 DUP6 DUP9 DUP9 CALL SWAP4 POP POP POP POP ISZERO DUP1 ISZERO PUSH2 0x112E JUMPI RETURNDATASIZE PUSH0 DUP1 RETURNDATACOPY RETURNDATASIZE PUSH0 REVERT JUMPDEST POP JUMPDEST PUSH1 0x1 PUSH0 PUSH1 0x7 PUSH0 DUP1 DUP2 MSTORE PUSH1 0x20 ADD SWAP1 DUP2 MSTORE PUSH1 0x20 ADD PUSH0 KECCAK256 PUSH1 0x1 ADD PUSH0 SWAP1 SLOAD SWAP1 PUSH2 0x100 EXP SWAP1 DIV PUSH20 0xFFFFFFFFFFFFFFFFFFFFFFFFFFFFFFFFFFFFFFFF AND PUSH20 0xFFFFFFFFFFFFFFFFFFFFFFFFFFFFFFFFFFFFFFFF AND PUSH20 0xFFFFFFFFFFFFFFFFFFFFFFFFFFFFFFFFFFFFFFFF AND DUP2 MSTORE PUSH1 0x20 ADD SWAP1 DUP2 MSTORE PUSH1 0x20 ADD PUSH0 KECCAK256 PUSH1 0x1 ADD PUSH1 0x8 SWAP1 SLOAD SWAP1 PUSH2 0x100 EXP SWAP1 DIV PUSH1 0xFF AND ISZERO PUSH2 0x1230 JUMPI PUSH1 0x7 PUSH0 DUP1 DUP2 MSTORE PUSH1 0x20 ADD SWAP1 DUP2 MSTORE PUSH1 0x20 ADD PUSH0 KECCAK256 PUSH1 0x1 ADD PUSH0 SWAP1 SLOAD SWAP1 PUSH2 0x100 EXP SWAP1 DIV PUSH20 0xFFFFFFFFFFFFFFFFFFFFFFFFFFFFFFFFFFFFFFFF AND PUSH20 0xFFFFFFFFFFFFFFFFFFFFFFFFFFFFFFFFFFFFFFFF AND PUSH2 0x8FC PUSH1 0x4 SLOAD SWAP1 DUP2 ISZERO MUL SWAP1 PUSH1 0x40 MLOAD PUSH0 PUSH1 0x40 MLOAD DUP1 DUP4 SUB DUP2 DUP6 DUP9 DUP9 CALL SWAP4 POP POP POP POP ISZERO DUP1 ISZERO PUSH2 0x122E JUMPI RETURNDATASIZE PUSH0 DUP1 RETURNDATACOPY RETURNDATASIZE PUSH0 REVERT JUMPDEST POP JUMPDEST PUSH1 0x1 PUSH0 PUSH1 0x7 PUSH0 DUP1 DUP2 MSTORE PUSH1 0x20 ADD SWAP1 DUP2 MSTORE PUSH1 0x20 ADD PUSH0 KECCAK256 PUSH1 0x1 ADD PUSH0 SWAP1 SLOAD SWAP1 PUSH2 0x100 EXP SWAP1 DIV PUSH20 0xFFFFFFFFFFFFFFFFFFFFFFFFFFFFFFFFFFFFFFFF AND PUSH20 0xFFFFFFFFFFFFFFFFFFFFFFFFFFFFFFFFFFFFFFFF AND PUSH20 0xFFFFFFFFFFFFFFFFFFFFFFFFFFFFFFFFFFFFFFFF AND DUP2 MSTORE PUSH1 0x20 ADD SWAP1 DUP2 MSTORE PUSH1 0x20 ADD PUSH0 KECCAK256 PUSH0 DUP1 DUP3 ADD PUSH0 SWAP1 SSTORE PUSH1 0x1 DUP3 ADD PUSH0 PUSH2 0x100 EXP DUP2 SLOAD SWAP1 PUSH8 0xFFFFFFFFFFFFFFFF MUL NOT AND SWAP1 SSTORE PUSH1 0x1 DUP3 ADD PUSH1 0x8 PUSH2 0x100 EXP DUP2 SLOAD SWAP1 PUSH1 0xFF MUL NOT AND SWAP1 SSTORE POP POP PUSH1 0x1 PUSH0 PUSH1 0x7 PUSH0 PUSH1 0x1 DUP2 MSTORE PUSH1 0x20 ADD SWAP1 DUP2 MSTORE PUSH1 0x20 ADD PUSH0 KECCAK256 PUSH1 0x1 ADD PUSH0 SWAP1 SLOAD SWAP1 PUSH2 0x100 EXP SWAP1 DIV PUSH20 0xFFFFFFFFFFFFFFFFFFFFFFFFFFFFFFFFFFFFFFFF AND PUSH20 0xFFFFFFFFFFFFFFFFFFFFFFFFFFFFFFFFFFFFFFFF AND PUSH20 0xFFFFFFFFFFFFFFFFFFFFFFFFFFFFFFFFFFFFFFFF AND DUP2 MSTORE PUSH1 0x20 ADD SWAP1 DUP2 MSTORE PUSH1 0x20 ADD PUSH0 KECCAK256 PUSH0 DUP1 DUP3 ADD PUSH0 SWAP1 SSTORE PUSH1 0x1 DUP3 ADD PUSH0 PUSH2 0x100 EXP DUP2 SLOAD SWAP1 PUSH8 0xFFFFFFFFFFFFFFFF MUL NOT AND SWAP1 SSTORE PUSH1 0x1 DUP3 ADD PUSH1 0x8 PUSH2 0x100 EXP DUP2 SLOAD SWAP1 PUSH1 0xFF MUL NOT AND SWAP1 SSTORE POP POP PUSH1 0x7 PUSH0 DUP1 DUP2 MSTORE PUSH1 0x20 ADD SWAP1 DUP2 MSTORE PUSH1 0x20 ADD PUSH0 KECCAK256 PUSH0 DUP1 DUP3 ADD PUSH0 SWAP1 SSTORE PUSH1 0x1 DUP3 ADD PUSH0 PUSH2 0x100 EXP DUP2 SLOAD SWAP1 PUSH20 0xFFFFFFFFFFFFFFFFFFFFFFFFFFFFFFFFFFFFFFFF MUL NOT AND SWAP1 SSTORE POP POP PUSH1 0x7 PUSH0 PUSH1 0x1 DUP2 MSTORE PUSH1 0x20 ADD SWAP1 DUP2 MSTORE PUSH1 0x20 ADD PUSH0 KECCAK256 PUSH0 DUP1 DUP3 ADD PUSH0 SWAP1 SSTORE PUSH1 0x1 DUP3 ADD PUSH0 PUSH2 0x100 EXP DUP2 SLOAD SWAP1 PUSH20 0xFFFFFFFFFFFFFFFFFFFFFFFFFFFFFFFFFFFFFFFF MUL NOT AND SWAP1 SSTORE POP POP PUSH2 0x1408 PUSH2 0x1ACA JUMP JUMPDEST JUMPDEST JUMPDEST JUMPDEST JUMPDEST JUMPDEST JUMP JUMPDEST PUSH1 0x3 SLOAD DUP2 JUMP JUMPDEST PUSH1 0x2 DUP1 SLOAD EQ PUSH2 0x1422 JUMPI PUSH0 DUP1 REVERT JUMPDEST PUSH1 0x7 PUSH0 PUSH1 0x8 PUSH0 CALLER PUSH20 0xFFFFFFFFFFFFFFFFFFFFFFFFFFFFFFFFFFFFFFFF AND PUSH20 0xFFFFFFFFFFFFFFFFFFFFFFFFFFFFFFFFFFFFFFFF AND DUP2 MSTORE PUSH1 0x20 ADD SWAP1 DUP2 MSTORE PUSH1 0x20 ADD PUSH0 KECCAK256 SLOAD DUP2 MSTORE PUSH1 0x20 ADD SWAP1 DUP2 MSTORE PUSH1 0x20 ADD PUSH0 KECCAK256 PUSH1 0x1 ADD PUSH0 SWAP1 SLOAD SWAP1 PUSH2 0x100 EXP SWAP1 DIV PUSH20 0xFFFFFFFFFFFFFFFFFFFFFFFFFFFFFFFFFFFFFFFF AND PUSH20 0xFFFFFFFFFFFFFFFFFFFFFFFFFFFFFFFFFFFFFFFF AND CALLER PUSH20 0xFFFFFFFFFFFFFFFFFFFFFFFFFFFFFFFFFFFFFFFF AND EQ PUSH2 0x14C9 JUMPI PUSH0 DUP1 REVERT JUMPDEST PUSH2 0x14D2 DUP2 PUSH2 0x1AE8 JUMP JUMPDEST PUSH1 0x9 PUSH0 DUP2 SLOAD DUP1 SWAP3 SWAP2 SWAP1 PUSH2 0x14E4 SWAP1 PUSH2 0x1F23 JUMP JUMPDEST SWAP2 SWAP1 POP SSTORE POP POP JUMP JUMPDEST PUSH0 ADDRESS DUP4 DUP4 PUSH1 0x40 MLOAD PUSH1 0x20 ADD PUSH2 0x1502 SWAP4 SWAP3 SWAP2 SWAP1 PUSH2 0x210C JUMP JUMPDEST PUSH1 0x40 MLOAD PUSH1 0x20 DUP2 DUP4 SUB SUB DUP2 MSTORE SWAP1 PUSH1 0x40 MSTORE DUP1 MLOAD SWAP1 PUSH1 0x20 ADD KECCAK256 SWAP1 POP SWAP3 SWAP2 POP POP JUMP JUMPDEST PUSH0 ISZERO ISZERO PUSH1 0x1 PUSH0 CALLER PUSH20 0xFFFFFFFFFFFFFFFFFFFFFFFFFFFFFFFFFFFFFFFF AND PUSH20 0xFFFFFFFFFFFFFFFFFFFFFFFFFFFFFFFFFFFFFFFF AND DUP2 MSTORE PUSH1 0x20 ADD SWAP1 DUP2 MSTORE PUSH1 0x20 ADD PUSH0 KECCAK256 PUSH1 0x1 ADD PUSH1 0x8 SWAP1 SLOAD SWAP1 PUSH2 0x100 EXP SWAP1 DIV PUSH1 0xFF AND ISZERO ISZERO EQ PUSH2 0x15B3 JUMPI PUSH1 0x40 MLOAD PUSH32 0x8C379A000000000000000000000000000000000000000000000000000000000 DUP2 MSTORE PUSH1 0x4 ADD PUSH2 0x15AA SWAP1 PUSH2 0x21B8 JUMP JUMPDEST PUSH1 0x40 MLOAD DUP1 SWAP2 SUB SWAP1 REVERT JUMPDEST PUSH1 0x1 DUP1 PUSH0 CALLER PUSH20 0xFFFFFFFFFFFFFFFFFFFFFFFFFFFFFFFFFFFFFFFF AND PUSH20 0xFFFFFFFFFFFFFFFFFFFFFFFFFFFFFFFFFFFFFFFF AND DUP2 MSTORE PUSH1 0x20 ADD SWAP1 DUP2 MSTORE PUSH1 0x20 ADD PUSH0 KECCAK256 PUSH1 0x1 ADD PUSH1 0x8 PUSH2 0x100 EXP DUP2 SLOAD DUP2 PUSH1 0xFF MUL NOT AND SWAP1 DUP4 ISZERO ISZERO MUL OR SWAP1 SSTORE POP PUSH1 0x1 PUSH0 CALLER PUSH20 0xFFFFFFFFFFFFFFFFFFFFFFFFFFFFFFFFFFFFFFFF AND PUSH20 0xFFFFFFFFFFFFFFFFFFFFFFFFFFFFFFFFFFFFFFFF AND DUP2 MSTORE PUSH1 0x20 ADD SWAP1 DUP2 MSTORE PUSH1 0x20 ADD PUSH0 KECCAK256 PUSH0 ADD SLOAD PUSH2 0x1655 DUP4 DUP4 PUSH2 0x14EC JUMP JUMPDEST EQ PUSH2 0x1695 JUMPI PUSH1 0x40 MLOAD PUSH32 0x8C379A000000000000000000000000000000000000000000000000000000000 DUP2 MSTORE PUSH1 0x4 ADD PUSH2 0x168C SWAP1 PUSH2 0x2246 JUMP JUMPDEST PUSH1 0x40 MLOAD DUP1 SWAP2 SUB SWAP1 REVERT JUMPDEST PUSH32 0x8BED02C4D61E56ED1D90657E7A0BA48F15CCA20FCC2899D7235221B2CB0423A6 CALLER DUP4 DUP4 PUSH1 0x40 MLOAD PUSH2 0x16C8 SWAP4 SWAP3 SWAP2 SWAP1 PUSH2 0x2264 JUMP JUMPDEST PUSH1 0x40 MLOAD DUP1 SWAP2 SUB SWAP1 LOG1 POP POP JUMP JUMPDEST PUSH0 PUSH1 0x7 PUSH0 DUP1 DUP2 MSTORE PUSH1 0x20 ADD SWAP1 DUP2 MSTORE PUSH1 0x20 ADD PUSH0 KECCAK256 PUSH0 ADD SLOAD SWAP1 POP PUSH0 PUSH1 0x7 PUSH0 PUSH1 0x1 DUP2 MSTORE PUSH1 0x20 ADD SWAP1 DUP2 MSTORE PUSH1 0x20 ADD PUSH0 KECCAK256 PUSH0 ADD SLOAD SWAP1 POP PUSH0 PUSH1 0x7 PUSH0 DUP1 DUP2 MSTORE PUSH1 0x20 ADD SWAP1 DUP2 MSTORE PUSH1 0x20 ADD PUSH0 KECCAK256 PUSH1 0x1 ADD PUSH0 SWAP1 SLOAD SWAP1 PUSH2 0x100 EXP SWAP1 DIV PUSH20 0xFFFFFFFFFFFFFFFFFFFFFFFFFFFFFFFFFFFFFFFF AND SWAP1 POP PUSH0 PUSH1 0x7 PUSH0 PUSH1 0x1 DUP2 MSTORE PUSH1 0x20 ADD SWAP1 DUP2 MSTORE PUSH1 0x20 ADD PUSH0 KECCAK256 PUSH1 0x1 ADD PUSH0 SWAP1 SLOAD SWAP1 PUSH2 0x100 EXP SWAP1 DIV PUSH20 0xFFFFFFFFFFFFFFFFFFFFFFFFFFFFFFFFFFFFFFFF AND SWAP1 POP DUP3 PUSH1 0x3 PUSH1 0x1 DUP7 PUSH2 0x1782 SWAP2 SWAP1 PUSH2 0x1EF0 JUMP JUMPDEST PUSH2 0x178C SWAP2 SWAP1 PUSH2 0x2299 JUMP JUMPDEST SUB PUSH2 0x17DC JUMPI DUP1 PUSH20 0xFFFFFFFFFFFFFFFFFFFFFFFFFFFFFFFFFFFFFFFF AND PUSH2 0x8FC PUSH1 0x4 SLOAD SWAP1 DUP2 ISZERO MUL SWAP1 PUSH1 0x40 MLOAD PUSH0 PUSH1 0x40 MLOAD DUP1 DUP4 SUB DUP2 DUP6 DUP9 DUP9 CALL SWAP4 POP POP POP POP ISZERO DUP1 ISZERO PUSH2 0x17D6 JUMPI RETURNDATASIZE PUSH0 DUP1 RETURNDATACOPY RETURNDATASIZE PUSH0 REVERT JUMPDEST POP PUSH2 0x18EC JUMP JUMPDEST DUP4 PUSH1 0x3 PUSH1 0x1 DUP6 PUSH2 0x17EC SWAP2 SWAP1 PUSH2 0x1EF0 JUMP JUMPDEST PUSH2 0x17F6 SWAP2 SWAP1 PUSH2 0x2299 JUMP JUMPDEST SUB PUSH2 0x1846 JUMPI DUP2 PUSH20 0xFFFFFFFFFFFFFFFFFFFFFFFFFFFFFFFFFFFFFFFF AND PUSH2 0x8FC PUSH1 0x4 SLOAD SWAP1 DUP2 ISZERO MUL SWAP1 PUSH1 0x40 MLOAD PUSH0 PUSH1 0x40 MLOAD DUP1 DUP4 SUB DUP2 DUP6 DUP9 DUP9 CALL SWAP4 POP POP POP POP ISZERO DUP1 ISZERO PUSH2 0x1840 JUMPI RETURNDATASIZE PUSH0 DUP1 RETURNDATACOPY RETURNDATASIZE PUSH0 REVERT JUMPDEST POP PUSH2 0x18EB JUMP JUMPDEST DUP2 PUSH20 0xFFFFFFFFFFFFFFFFFFFFFFFFFFFFFFFFFFFFFFFF AND PUSH2 0x8FC PUSH1 0x2 PUSH1 0x4 SLOAD PUSH2 0x186F SWAP2 SWAP1 PUSH2 0x2077 JUMP JUMPDEST SWAP1 DUP2 ISZERO MUL SWAP1 PUSH1 0x40 MLOAD PUSH0 PUSH1 0x40 MLOAD DUP1 DUP4 SUB DUP2 DUP6 DUP9 DUP9 CALL SWAP4 POP POP POP POP ISZERO DUP1 ISZERO PUSH2 0x1897 JUMPI RETURNDATASIZE PUSH0 DUP1 RETURNDATACOPY RETURNDATASIZE PUSH0 REVERT JUMPDEST POP DUP1 PUSH20 0xFFFFFFFFFFFFFFFFFFFFFFFFFFFFFFFFFFFFFFFF AND PUSH2 0x8FC PUSH1 0x2 PUSH1 0x4 SLOAD PUSH2 0x18C1 SWAP2 SWAP1 PUSH2 0x2077 JUMP JUMPDEST SWAP1 DUP2 ISZERO MUL SWAP1 PUSH1 0x40 MLOAD PUSH0 PUSH1 0x40 MLOAD DUP1 DUP4 SUB DUP2 DUP6 DUP9 DUP9 CALL SWAP4 POP POP POP POP ISZERO DUP1 ISZERO PUSH2 0x18E9 JUMPI RETURNDATASIZE PUSH0 DUP1 RETURNDATACOPY RETURNDATASIZE PUSH0 REVERT JUMPDEST POP JUMPDEST JUMPDEST PUSH1 0x1 PUSH0 PUSH1 0x7 PUSH0 DUP1 DUP2 MSTORE PUSH1 0x20 ADD SWAP1 DUP2 MSTORE PUSH1 0x20 ADD PUSH0 KECCAK256 PUSH1 0x1 ADD PUSH0 SWAP1 SLOAD SWAP1 PUSH2 0x100 EXP SWAP1 DIV PUSH20 0xFFFFFFFFFFFFFFFFFFFFFFFFFFFFFFFFFFFFFFFF AND PUSH20 0xFFFFFFFFFFFFFFFFFFFFFFFFFFFFFFFFFFFFFFFF AND PUSH20 0xFFFFFFFFFFFFFFFFFFFFFFFFFFFFFFFFFFFFFFFF AND DUP2 MSTORE PUSH1 0x20 ADD SWAP1 DUP2 MSTORE PUSH1 0x20 ADD PUSH0 KECCAK256 PUSH0 DUP1 DUP3 ADD PUSH0 SWAP1 SSTORE PUSH1 0x1 DUP3 ADD PUSH0 PUSH2 0x100 EXP DUP2 SLOAD SWAP1 PUSH8 0xFFFFFFFFFFFFFFFF MUL NOT AND SWAP1 SSTORE PUSH1 0x1 DUP3 ADD PUSH1 0x8 PUSH2 0x100 EXP DUP2 SLOAD SWAP1 PUSH1 0xFF MUL NOT AND SWAP1 SSTORE POP POP PUSH1 0x1 PUSH0 PUSH1 0x7 PUSH0 PUSH1 0x1 DUP2 MSTORE PUSH1 0x20 ADD SWAP1 DUP2 MSTORE PUSH1 0x20 ADD PUSH0 KECCAK256 PUSH1 0x1 ADD PUSH0 SWAP1 SLOAD SWAP1 PUSH2 0x100 EXP SWAP1 DIV PUSH20 0xFFFFFFFFFFFFFFFFFFFFFFFFFFFFFFFFFFFFFFFF AND PUSH20 0xFFFFFFFFFFFFFFFFFFFFFFFFFFFFFFFFFFFFFFFF AND PUSH20 0xFFFFFFFFFFFFFFFFFFFFFFFFFFFFFFFFFFFFFFFF AND DUP2 MSTORE PUSH1 0x20 ADD SWAP1 DUP2 MSTORE PUSH1 0x20 ADD PUSH0 KECCAK256 PUSH0 DUP1 DUP3 ADD PUSH0 SWAP1 SSTORE PUSH1 0x1 DUP3 ADD PUSH0 PUSH2 0x100 EXP DUP2 SLOAD SWAP1 PUSH8 0xFFFFFFFFFFFFFFFF MUL NOT AND SWAP1 SSTORE PUSH1 0x1 DUP3 ADD PUSH1 0x8 PUSH2 0x100 EXP DUP2 SLOAD SWAP1 PUSH1 0xFF MUL NOT AND SWAP1 SSTORE POP POP PUSH1 0x7 PUSH0 DUP1 DUP2 MSTORE PUSH1 0x20 ADD SWAP1 DUP2 MSTORE PUSH1 0x20 ADD PUSH0 KECCAK256 PUSH0 DUP1 DUP3 ADD PUSH0 SWAP1 SSTORE PUSH1 0x1 DUP3 ADD PUSH0 PUSH2 0x100 EXP DUP2 SLOAD SWAP1 PUSH20 0xFFFFFFFFFFFFFFFFFFFFFFFFFFFFFFFFFFFFFFFF MUL NOT AND SWAP1 SSTORE POP POP PUSH1 0x7 PUSH0 PUSH1 0x1 DUP2 MSTORE PUSH1 0x20 ADD SWAP1 DUP2 MSTORE PUSH1 0x20 ADD PUSH0 KECCAK256 PUSH0 DUP1 DUP3 ADD PUSH0 SWAP1 SSTORE PUSH1 0x1 DUP3 ADD PUSH0 PUSH2 0x100 EXP DUP2 SLOAD SWAP1 PUSH20 0xFFFFFFFFFFFFFFFFFFFFFFFFFFFFFFFFFFFFFFFF MUL NOT AND SWAP1 SSTORE POP POP PUSH2 0x1AC4 PUSH2 0x1ACA JUMP JUMPDEST POP POP POP POP JUMP JUMPDEST PUSH0 PUSH1 0x9 DUP2 SWAP1 SSTORE POP PUSH0 PUSH1 0x2 DUP2 SWAP1 SSTORE POP PUSH0 PUSH1 0x3 DUP2 SWAP1 SSTORE POP PUSH0 PUSH1 0x4 DUP2 SWAP1 SSTORE POP JUMP JUMPDEST DUP1 PUSH1 0x1 PUSH0 CALLER PUSH20 0xFFFFFFFFFFFFFFFFFFFFFFFFFFFFFFFFFFFFFFFF AND PUSH20 0xFFFFFFFFFFFFFFFFFFFFFFFFFFFFFFFFFFFFFFFF AND DUP2 MSTORE PUSH1 0x20 ADD SWAP1 DUP2 MSTORE PUSH1 0x20 ADD PUSH0 KECCAK256 PUSH0 ADD DUP2 SWAP1 SSTORE POP NUMBER PUSH1 0x1 PUSH0 CALLER PUSH20 0xFFFFFFFFFFFFFFFFFFFFFFFFFFFFFFFFFFFFFFFF AND PUSH20 0xFFFFFFFFFFFFFFFFFFFFFFFFFFFFFFFFFFFFFFFF AND DUP2 MSTORE PUSH1 0x20 ADD SWAP1 DUP2 MSTORE PUSH1 0x20 ADD PUSH0 KECCAK256 PUSH1 0x1 ADD PUSH0 PUSH2 0x100 EXP DUP2 SLOAD DUP2 PUSH8 0xFFFFFFFFFFFFFFFF MUL NOT AND SWAP1 DUP4 PUSH8 0xFFFFFFFFFFFFFFFF AND MUL OR SWAP1 SSTORE POP PUSH0 PUSH1 0x1 PUSH0 CALLER PUSH20 0xFFFFFFFFFFFFFFFFFFFFFFFFFFFFFFFFFFFFFFFF AND PUSH20 0xFFFFFFFFFFFFFFFFFFFFFFFFFFFFFFFFFFFFFFFF AND DUP2 MSTORE PUSH1 0x20 ADD SWAP1 DUP2 MSTORE PUSH1 0x20 ADD PUSH0 KECCAK256 PUSH1 0x1 ADD PUSH1 0x8 PUSH2 0x100 EXP DUP2 SLOAD DUP2 PUSH1 0xFF MUL NOT AND SWAP1 DUP4 ISZERO ISZERO MUL OR SWAP1 SSTORE POP PUSH32 0x3C1A1F8F38335B17F751C6DA4BA7D1865F26B3997535176F5080DE9FAD891603 CALLER PUSH1 0x1 PUSH0 CALLER PUSH20 0xFFFFFFFFFFFFFFFFFFFFFFFFFFFFFFFFFFFFFFFF AND PUSH20 0xFFFFFFFFFFFFFFFFFFFFFFFFFFFFFFFFFFFFFFFF AND DUP2 MSTORE PUSH1 0x20 ADD SWAP1 DUP2 MSTORE PUSH1 0x20 ADD PUSH0 KECCAK256 PUSH0 ADD SLOAD PUSH1 0x1 PUSH0 CALLER PUSH20 0xFFFFFFFFFFFFFFFFFFFFFFFFFFFFFFFFFFFFFFFF AND PUSH20 0xFFFFFFFFFFFFFFFFFFFFFFFFFFFFFFFFFFFFFFFF AND DUP2 MSTORE PUSH1 0x20 ADD SWAP1 DUP2 MSTORE PUSH1 0x20 ADD PUSH0 KECCAK256 PUSH1 0x1 ADD PUSH0 SWAP1 SLOAD SWAP1 PUSH2 0x100 EXP SWAP1 DIV PUSH8 0xFFFFFFFFFFFFFFFF AND PUSH1 0x40 MLOAD PUSH2 0x1CAF SWAP4 SWAP3 SWAP2 SWAP1 PUSH2 0x22EB JUMP JUMPDEST PUSH1 0x40 MLOAD DUP1 SWAP2 SUB SWAP1 LOG1 POP JUMP JUMPDEST PUSH0 DUP2 SWAP1 POP SWAP2 SWAP1 POP JUMP JUMPDEST PUSH2 0x1CCC DUP2 PUSH2 0x1CBA JUMP JUMPDEST DUP3 MSTORE POP POP JUMP JUMPDEST PUSH0 PUSH1 0x20 DUP3 ADD SWAP1 POP PUSH2 0x1CE5 PUSH0 DUP4 ADD DUP5 PUSH2 0x1CC3 JUMP JUMPDEST SWAP3 SWAP2 POP POP JUMP JUMPDEST PUSH0 DUP1 REVERT JUMPDEST PUSH2 0x1CF8 DUP2 PUSH2 0x1CBA JUMP JUMPDEST DUP2 EQ PUSH2 0x1D02 JUMPI PUSH0 DUP1 REVERT JUMPDEST POP JUMP JUMPDEST PUSH0 DUP2 CALLDATALOAD SWAP1 POP PUSH2 0x1D13 DUP2 PUSH2 0x1CEF JUMP JUMPDEST SWAP3 SWAP2 POP POP JUMP JUMPDEST PUSH0 DUP1 PUSH1 0x40 DUP4 DUP6 SUB SLT ISZERO PUSH2 0x1D2F JUMPI PUSH2 0x1D2E PUSH2 0x1CEB JUMP JUMPDEST JUMPDEST PUSH0 PUSH2 0x1D3C DUP6 DUP3 DUP7 ADD PUSH2 0x1D05 JUMP JUMPDEST SWAP3 POP POP PUSH1 0x20 PUSH2 0x1D4D DUP6 DUP3 DUP7 ADD PUSH2 0x1D05 JUMP JUMPDEST SWAP2 POP POP SWAP3 POP SWAP3 SWAP1 POP JUMP JUMPDEST PUSH0 DUP2 SWAP1 POP SWAP2 SWAP1 POP JUMP JUMPDEST PUSH2 0x1D69 DUP2 PUSH2 0x1D57 JUMP JUMPDEST DUP3 MSTORE POP POP JUMP JUMPDEST PUSH0 PUSH1 0x20 DUP3 ADD SWAP1 POP PUSH2 0x1D82 PUSH0 DUP4 ADD DUP5 PUSH2 0x1D60 JUMP JUMPDEST SWAP3 SWAP2 POP POP JUMP JUMPDEST PUSH0 PUSH20 0xFFFFFFFFFFFFFFFFFFFFFFFFFFFFFFFFFFFFFFFF DUP3 AND SWAP1 POP SWAP2 SWAP1 POP JUMP JUMPDEST PUSH0 PUSH2 0x1DB1 DUP3 PUSH2 0x1D88 JUMP JUMPDEST SWAP1 POP SWAP2 SWAP1 POP JUMP JUMPDEST PUSH2 0x1DC1 DUP2 PUSH2 0x1DA7 JUMP JUMPDEST DUP2 EQ PUSH2 0x1DCB JUMPI PUSH0 DUP1 REVERT JUMPDEST POP JUMP JUMPDEST PUSH0 DUP2 CALLDATALOAD SWAP1 POP PUSH2 0x1DDC DUP2 PUSH2 0x1DB8 JUMP JUMPDEST SWAP3 SWAP2 POP POP JUMP JUMPDEST PUSH0 PUSH1 0x20 DUP3 DUP5 SUB SLT ISZERO PUSH2 0x1DF7 JUMPI PUSH2 0x1DF6 PUSH2 0x1CEB JUMP JUMPDEST JUMPDEST PUSH0 PUSH2 0x1E04 DUP5 DUP3 DUP6 ADD PUSH2 0x1DCE JUMP JUMPDEST SWAP2 POP POP SWAP3 SWAP2 POP POP JUMP JUMPDEST PUSH0 PUSH1 0x20 DUP3 DUP5 SUB SLT ISZERO PUSH2 0x1E22 JUMPI PUSH2 0x1E21 PUSH2 0x1CEB JUMP JUMPDEST JUMPDEST PUSH0 PUSH2 0x1E2F DUP5 DUP3 DUP6 ADD PUSH2 0x1D05 JUMP JUMPDEST SWAP2 POP POP SWAP3 SWAP2 POP POP JUMP JUMPDEST PUSH2 0x1E41 DUP2 PUSH2 0x1DA7 JUMP JUMPDEST DUP3 MSTORE POP POP JUMP JUMPDEST PUSH0 PUSH1 0x40 DUP3 ADD SWAP1 POP PUSH2 0x1E5A PUSH0 DUP4 ADD DUP6 PUSH2 0x1CC3 JUMP JUMPDEST PUSH2 0x1E67 PUSH1 0x20 DUP4 ADD DUP5 PUSH2 0x1E38 JUMP JUMPDEST SWAP4 SWAP3 POP POP POP JUMP JUMPDEST PUSH2 0x1E77 DUP2 PUSH2 0x1D57 JUMP JUMPDEST DUP2 EQ PUSH2 0x1E81 JUMPI PUSH0 DUP1 REVERT JUMPDEST POP JUMP JUMPDEST PUSH0 DUP2 CALLDATALOAD SWAP1 POP PUSH2 0x1E92 DUP2 PUSH2 0x1E6E JUMP JUMPDEST SWAP3 SWAP2 POP POP JUMP JUMPDEST PUSH0 PUSH1 0x20 DUP3 DUP5 SUB SLT ISZERO PUSH2 0x1EAD JUMPI PUSH2 0x1EAC PUSH2 0x1CEB JUMP JUMPDEST JUMPDEST PUSH0 PUSH2 0x1EBA DUP5 DUP3 DUP6 ADD PUSH2 0x1E84 JUMP JUMPDEST SWAP2 POP POP SWAP3 SWAP2 POP POP JUMP JUMPDEST PUSH32 0x4E487B7100000000000000000000000000000000000000000000000000000000 PUSH0 MSTORE PUSH1 0x11 PUSH1 0x4 MSTORE PUSH1 0x24 PUSH0 REVERT JUMPDEST PUSH0 PUSH2 0x1EFA DUP3 PUSH2 0x1CBA JUMP JUMPDEST SWAP2 POP PUSH2 0x1F05 DUP4 PUSH2 0x1CBA JUMP JUMPDEST SWAP3 POP DUP3 DUP3 ADD SWAP1 POP DUP1 DUP3 GT ISZERO PUSH2 0x1F1D JUMPI PUSH2 0x1F1C PUSH2 0x1EC3 JUMP JUMPDEST JUMPDEST SWAP3 SWAP2 POP POP JUMP JUMPDEST PUSH0 PUSH2 0x1F2D DUP3 PUSH2 0x1CBA JUMP JUMPDEST SWAP2 POP PUSH32 0xFFFFFFFFFFFFFFFFFFFFFFFFFFFFFFFFFFFFFFFFFFFFFFFFFFFFFFFFFFFFFFFF DUP3 SUB PUSH2 0x1F5F JUMPI PUSH2 0x1F5E PUSH2 0x1EC3 JUMP JUMPDEST JUMPDEST PUSH1 0x1 DUP3 ADD SWAP1 POP SWAP2 SWAP1 POP JUMP JUMPDEST PUSH0 DUP3 DUP3 MSTORE PUSH1 0x20 DUP3 ADD SWAP1 POP SWAP3 SWAP2 POP POP JUMP JUMPDEST PUSH32 0x696E76616C69642063686F696365000000000000000000000000000000000000 PUSH0 DUP3 ADD MSTORE POP JUMP JUMPDEST PUSH0 PUSH2 0x1FAE PUSH1 0xE DUP4 PUSH2 0x1F6A JUMP JUMPDEST SWAP2 POP PUSH2 0x1FB9 DUP3 PUSH2 0x1F7A JUMP JUMPDEST PUSH1 0x20 DUP3 ADD SWAP1 POP SWAP2 SWAP1 POP JUMP JUMPDEST PUSH0 PUSH1 0x20 DUP3 ADD SWAP1 POP DUP2 DUP2 SUB PUSH0 DUP4 ADD MSTORE PUSH2 0x1FDB DUP2 PUSH2 0x1FA2 JUMP JUMPDEST SWAP1 POP SWAP2 SWAP1 POP JUMP JUMPDEST PUSH32 0x696E2074696D6500000000000000000000000000000000000000000000000000 PUSH0 DUP3 ADD MSTORE POP JUMP JUMPDEST PUSH0 PUSH2 0x2016 PUSH1 0x7 DUP4 PUSH2 0x1F6A JUMP JUMPDEST SWAP2 POP PUSH2 0x2021 DUP3 PUSH2 0x1FE2 JUMP JUMPDEST PUSH1 0x20 DUP3 ADD SWAP1 POP SWAP2 SWAP1 POP JUMP JUMPDEST PUSH0 PUSH1 0x20 DUP3 ADD SWAP1 POP DUP2 DUP2 SUB PUSH0 DUP4 ADD MSTORE PUSH2 0x2043 DUP2 PUSH2 0x200A JUMP JUMPDEST SWAP1 POP SWAP2 SWAP1 POP JUMP JUMPDEST PUSH32 0x4E487B7100000000000000000000000000000000000000000000000000000000 PUSH0 MSTORE PUSH1 0x12 PUSH1 0x4 MSTORE PUSH1 0x24 PUSH0 REVERT JUMPDEST PUSH0 PUSH2 0x2081 DUP3 PUSH2 0x1CBA JUMP JUMPDEST SWAP2 POP PUSH2 0x208C DUP4 PUSH2 0x1CBA JUMP JUMPDEST SWAP3 POP DUP3 PUSH2 0x209C JUMPI PUSH2 0x209B PUSH2 0x204A JUMP JUMPDEST JUMPDEST DUP3 DUP3 DIV SWAP1 POP SWAP3 SWAP2 POP POP JUMP JUMPDEST PUSH0 DUP2 PUSH1 0x60 SHL SWAP1 POP SWAP2 SWAP1 POP JUMP JUMPDEST PUSH0 PUSH2 0x20BD DUP3 PUSH2 0x20A7 JUMP JUMPDEST SWAP1 POP SWAP2 SWAP1 POP JUMP JUMPDEST PUSH0 PUSH2 0x20CE DUP3 PUSH2 0x20B3 JUMP JUMPDEST SWAP1 POP SWAP2 SWAP1 POP JUMP JUMPDEST PUSH2 0x20E6 PUSH2 0x20E1 DUP3 PUSH2 0x1DA7 JUMP JUMPDEST PUSH2 0x20C4 JUMP JUMPDEST DUP3 MSTORE POP POP JUMP JUMPDEST PUSH0 DUP2 SWAP1 POP SWAP2 SWAP1 POP JUMP JUMPDEST PUSH2 0x2106 PUSH2 0x2101 DUP3 PUSH2 0x1D57 JUMP JUMPDEST PUSH2 0x20EC JUMP JUMPDEST DUP3 MSTORE POP POP JUMP JUMPDEST PUSH0 PUSH2 0x2117 DUP3 DUP7 PUSH2 0x20D5 JUMP JUMPDEST PUSH1 0x14 DUP3 ADD SWAP2 POP PUSH2 0x2127 DUP3 DUP6 PUSH2 0x20F5 JUMP JUMPDEST PUSH1 0x20 DUP3 ADD SWAP2 POP PUSH2 0x2137 DUP3 DUP5 PUSH2 0x20F5 JUMP JUMPDEST PUSH1 0x20 DUP3 ADD SWAP2 POP DUP2 SWAP1 POP SWAP5 SWAP4 POP POP POP POP JUMP JUMPDEST PUSH32 0x436F6D6D697452657665616C3A3A72657665616C416E737765723A20416C7265 PUSH0 DUP3 ADD MSTORE PUSH32 0x6164792072657665616C65640000000000000000000000000000000000000000 PUSH1 0x20 DUP3 ADD MSTORE POP JUMP JUMPDEST PUSH0 PUSH2 0x21A2 PUSH1 0x2C DUP4 PUSH2 0x1F6A JUMP JUMPDEST SWAP2 POP PUSH2 0x21AD DUP3 PUSH2 0x2148 JUMP JUMPDEST PUSH1 0x40 DUP3 ADD SWAP1 POP SWAP2 SWAP1 POP JUMP JUMPDEST PUSH0 PUSH1 0x20 DUP3 ADD SWAP1 POP DUP2 DUP2 SUB PUSH0 DUP4 ADD MSTORE PUSH2 0x21CF DUP2 PUSH2 0x2196 JUMP JUMPDEST SWAP1 POP SWAP2 SWAP1 POP JUMP JUMPDEST PUSH32 0x436F6D6D697452657665616C3A3A72657665616C416E737765723A2052657665 PUSH0 DUP3 ADD MSTORE PUSH32 0x616C6564206861736820646F6573206E6F74206D6174636820636F6D6D697400 PUSH1 0x20 DUP3 ADD MSTORE POP JUMP JUMPDEST PUSH0 PUSH2 0x2230 PUSH1 0x3F DUP4 PUSH2 0x1F6A JUMP JUMPDEST SWAP2 POP PUSH2 0x223B DUP3 PUSH2 0x21D6 JUMP JUMPDEST PUSH1 0x40 DUP3 ADD SWAP1 POP SWAP2 SWAP1 POP JUMP JUMPDEST PUSH0 PUSH1 0x20 DUP3 ADD SWAP1 POP DUP2 DUP2 SUB PUSH0 DUP4 ADD MSTORE PUSH2 0x225D DUP2 PUSH2 0x2224 JUMP JUMPDEST SWAP1 POP SWAP2 SWAP1 POP JUMP JUMPDEST PUSH0 PUSH1 0x60 DUP3 ADD SWAP1 POP PUSH2 0x2277 PUSH0 DUP4 ADD DUP7 PUSH2 0x1E38 JUMP JUMPDEST PUSH2 0x2284 PUSH1 0x20 DUP4 ADD DUP6 PUSH2 0x1D60 JUMP JUMPDEST PUSH2 0x2291 PUSH1 0x40 DUP4 ADD DUP5 PUSH2 0x1D60 JUMP JUMPDEST SWAP5 SWAP4 POP POP POP POP JUMP JUMPDEST PUSH0 PUSH2 0x22A3 DUP3 PUSH2 0x1CBA JUMP JUMPDEST SWAP2 POP PUSH2 0x22AE DUP4 PUSH2 0x1CBA JUMP JUMPDEST SWAP3 POP DUP3 PUSH2 0x22BE JUMPI PUSH2 0x22BD PUSH2 0x204A JUMP JUMPDEST JUMPDEST DUP3 DUP3 MOD SWAP1 POP SWAP3 SWAP2 POP POP JUMP JUMPDEST PUSH0 PUSH8 0xFFFFFFFFFFFFFFFF DUP3 AND SWAP1 POP SWAP2 SWAP1 POP JUMP JUMPDEST PUSH2 0x22E5 DUP2 PUSH2 0x22C9 JUMP JUMPDEST DUP3 MSTORE POP POP JUMP JUMPDEST PUSH0 PUSH1 0x60 DUP3 ADD SWAP1 POP PUSH2 0x22FE PUSH0 DUP4 ADD DUP7 PUSH2 0x1E38 JUMP JUMPDEST PUSH2 0x230B PUSH1 0x20 DUP4 ADD DUP6 PUSH2 0x1D60 JUMP JUMPDEST PUSH2 0x2318 PUSH1 0x40 DUP4 ADD DUP5 PUSH2 0x22DC JUMP JUMPDEST SWAP5 SWAP4 POP POP POP POP JUMP INVALID LOG2 PUSH5 0x6970667358 0x22 SLT KECCAK256 INVALID LOG4 0xD4 DUP11 DUP5 0xE0 0x4D 0xB7 0x25 PUSH10 0xA45FCC1D389E16048BE3 PUSH14 0xEBDF9C2F59C4A19360D5B464736F PUSH13 0x63430008180033000000000000 "
				},
				"gasEstimates": {
					"creation": {
						"codeDepositCost": "1809200",
						"executionCost": "68295",
						"totalCost": "1877495"
					},
					"external": {
						"addPlayer()": "infinite",
						"checkTimeOut()": "infinite",
						"choiceHash(uint256,uint256)": "infinite",
						"input(bytes32)": "infinite",
						"limitTime()": "2492",
						"numInput()": "2448",
						"numPlayer()": "2448",
						"numReveal()": "2491",
						"player(uint256)": "infinite",
						"playerIndex(address)": "2913",
						"revealsChoice(uint256,uint256)": "infinite",
						"reward()": "2470",
						"updatedTimestamp()": "2426"
					},
					"internal": {
						"_checkWinnerAndPay()": "infinite",
						"cleardata()": "20061"
					}
				},
				"methodIdentifiers": {
					"addPlayer()": "27b5db8a",
					"checkTimeOut()": "b7786503",
					"choiceHash(uint256,uint256)": "7563973a",
					"input(bytes32)": "d891f969",
					"limitTime()": "b3b95e30",
					"numInput()": "086f7815",
					"numPlayer()": "90d5d0c3",
					"numReveal()": "c876e615",
					"player(uint256)": "9e0551c6",
					"playerIndex(address)": "885c7d36",
					"revealsChoice(uint256,uint256)": "b577e0bb",
					"reward()": "228cb733",
					"updatedTimestamp()": "002764ed"
				}
			},
			"storageLayout": {
				"storage": [
					{
						"astId": 4,
						"contract": "RPS.sol:RPS",
						"label": "max",
						"offset": 0,
						"slot": "0",
						"type": "t_uint8"
					},
					{
						"astId": 16,
						"contract": "RPS.sol:RPS",
						"label": "commits",
						"offset": 0,
						"slot": "1",
						"type": "t_mapping(t_address,t_struct(Commit)11_storage)"
					},
					{
						"astId": 294,
						"contract": "RPS.sol:RPS",
						"label": "numPlayer",
						"offset": 0,
						"slot": "2",
						"type": "t_uint256"
					},
					{
						"astId": 297,
						"contract": "RPS.sol:RPS",
						"label": "numReveal",
						"offset": 0,
						"slot": "3",
						"type": "t_uint256"
					},
					{
						"astId": 300,
						"contract": "RPS.sol:RPS",
						"label": "reward",
						"offset": 0,
						"slot": "4",
						"type": "t_uint256"
					},
					{
						"astId": 303,
						"contract": "RPS.sol:RPS",
						"label": "limitTime",
						"offset": 0,
						"slot": "5",
						"type": "t_uint256"
					},
					{
						"astId": 305,
						"contract": "RPS.sol:RPS",
						"label": "updatedTimestamp",
						"offset": 0,
						"slot": "6",
						"type": "t_uint256"
					},
					{
						"astId": 310,
						"contract": "RPS.sol:RPS",
						"label": "player",
						"offset": 0,
						"slot": "7",
						"type": "t_mapping(t_uint256,t_struct(Player)291_storage)"
					},
					{
						"astId": 314,
						"contract": "RPS.sol:RPS",
						"label": "playerIndex",
						"offset": 0,
						"slot": "8",
						"type": "t_mapping(t_address,t_uint256)"
					},
					{
						"astId": 317,
						"contract": "RPS.sol:RPS",
						"label": "numInput",
						"offset": 0,
						"slot": "9",
						"type": "t_uint256"
					}
				],
				"types": {
					"t_address": {
						"encoding": "inplace",
						"label": "address",
						"numberOfBytes": "20"
					},
					"t_bool": {
						"encoding": "inplace",
						"label": "bool",
						"numberOfBytes": "1"
					},
					"t_bytes32": {
						"encoding": "inplace",
						"label": "bytes32",
						"numberOfBytes": "32"
					},
					"t_mapping(t_address,t_struct(Commit)11_storage)": {
						"encoding": "mapping",
						"key": "t_address",
						"label": "mapping(address => struct CommitReveal.Commit)",
						"numberOfBytes": "32",
						"value": "t_struct(Commit)11_storage"
					},
					"t_mapping(t_address,t_uint256)": {
						"encoding": "mapping",
						"key": "t_address",
						"label": "mapping(address => uint256)",
						"numberOfBytes": "32",
						"value": "t_uint256"
					},
					"t_mapping(t_uint256,t_struct(Player)291_storage)": {
						"encoding": "mapping",
						"key": "t_uint256",
						"label": "mapping(uint256 => struct RPS.Player)",
						"numberOfBytes": "32",
						"value": "t_struct(Player)291_storage"
					},
					"t_struct(Commit)11_storage": {
						"encoding": "inplace",
						"label": "struct CommitReveal.Commit",
						"members": [
							{
								"astId": 6,
								"contract": "RPS.sol:RPS",
								"label": "commit",
								"offset": 0,
								"slot": "0",
								"type": "t_bytes32"
							},
							{
								"astId": 8,
								"contract": "RPS.sol:RPS",
								"label": "block",
								"offset": 0,
								"slot": "1",
								"type": "t_uint64"
							},
							{
								"astId": 10,
								"contract": "RPS.sol:RPS",
								"label": "revealed",
								"offset": 8,
								"slot": "1",
								"type": "t_bool"
							}
						],
						"numberOfBytes": "64"
					},
					"t_struct(Player)291_storage": {
						"encoding": "inplace",
						"label": "struct RPS.Player",
						"members": [
							{
								"astId": 288,
								"contract": "RPS.sol:RPS",
								"label": "choice",
								"offset": 0,
								"slot": "0",
								"type": "t_uint256"
							},
							{
								"astId": 290,
								"contract": "RPS.sol:RPS",
								"label": "addr",
								"offset": 0,
								"slot": "1",
								"type": "t_address"
							}
						],
						"numberOfBytes": "64"
					},
					"t_uint256": {
						"encoding": "inplace",
						"label": "uint256",
						"numberOfBytes": "32"
					},
					"t_uint64": {
						"encoding": "inplace",
						"label": "uint64",
						"numberOfBytes": "8"
					},
					"t_uint8": {
						"encoding": "inplace",
						"label": "uint8",
						"numberOfBytes": "1"
					}
				}
			},
			"userdoc": {
				"kind": "user",
				"methods": {},
				"version": 1
			}
		}
	}
}