{
	"RPS.sol": {
		"RPS": {
			"abi": [
				{
					"anonymous": false,
					"inputs": [
						{
							"indexed": false,
							"internalType": "address",
							"name": "sender",
							"type": "address"
						},
						{
							"indexed": false,
							"internalType": "bytes32",
							"name": "dataHash",
							"type": "bytes32"
						},
						{
							"indexed": false,
							"internalType": "uint64",
							"name": "block",
							"type": "uint64"
						}
					],
					"name": "CommitHash",
					"type": "event"
				},
				{
					"anonymous": false,
					"inputs": [
						{
							"indexed": false,
							"internalType": "address",
							"name": "sender",
							"type": "address"
						},
						{
							"indexed": false,
							"internalType": "bytes32",
							"name": "answer",
							"type": "bytes32"
						},
						{
							"indexed": false,
							"internalType": "bytes32",
							"name": "salt",
							"type": "bytes32"
						}
					],
					"name": "RevealAnswer",
					"type": "event"
				},
				{
					"anonymous": false,
					"inputs": [
						{
							"indexed": false,
							"internalType": "address",
							"name": "sender",
							"type": "address"
						},
						{
							"indexed": false,
							"internalType": "bytes32",
							"name": "revealHash",
							"type": "bytes32"
						},
						{
							"indexed": false,
							"internalType": "uint256",
							"name": "random",
							"type": "uint256"
						}
					],
					"name": "RevealHash",
					"type": "event"
				},
				{
					"inputs": [],
					"name": "addPlayer",
					"outputs": [],
					"stateMutability": "payable",
					"type": "function"
				},
				{
					"inputs": [
						{
							"internalType": "uint256",
							"name": "choice",
							"type": "uint256"
						},
						{
							"internalType": "uint256",
							"name": "password",
							"type": "uint256"
						}
					],
					"name": "choiceHash",
					"outputs": [
						{
							"internalType": "bytes32",
							"name": "",
							"type": "bytes32"
						}
					],
					"stateMutability": "view",
					"type": "function"
				},
				{
					"inputs": [
						{
							"internalType": "bytes32",
							"name": "hashedChoice",
							"type": "bytes32"
						}
					],
					"name": "input",
					"outputs": [],
					"stateMutability": "nonpayable",
					"type": "function"
				},
				{
					"inputs": [],
					"name": "numInput",
					"outputs": [
						{
							"internalType": "uint256",
							"name": "",
							"type": "uint256"
						}
					],
					"stateMutability": "view",
					"type": "function"
				},
				{
					"inputs": [],
					"name": "numPlayer",
					"outputs": [
						{
							"internalType": "uint256",
							"name": "",
							"type": "uint256"
						}
					],
					"stateMutability": "view",
					"type": "function"
				},
				{
					"inputs": [],
					"name": "numReveal",
					"outputs": [
						{
							"internalType": "uint256",
							"name": "",
							"type": "uint256"
						}
					],
					"stateMutability": "view",
					"type": "function"
				},
				{
					"inputs": [
						{
							"internalType": "uint256",
							"name": "",
							"type": "uint256"
						}
					],
					"name": "player",
					"outputs": [
						{
							"internalType": "uint256",
							"name": "choice",
							"type": "uint256"
						},
						{
							"internalType": "address",
							"name": "addr",
							"type": "address"
						}
					],
					"stateMutability": "view",
					"type": "function"
				},
				{
					"inputs": [
						{
							"internalType": "address",
							"name": "",
							"type": "address"
						}
					],
					"name": "playerIndex",
					"outputs": [
						{
							"internalType": "uint256",
							"name": "",
							"type": "uint256"
						}
					],
					"stateMutability": "view",
					"type": "function"
				},
				{
					"inputs": [
						{
							"internalType": "uint256",
							"name": "choice",
							"type": "uint256"
						},
						{
							"internalType": "uint256",
							"name": "password",
							"type": "uint256"
						}
					],
					"name": "revealsChoice",
					"outputs": [],
					"stateMutability": "nonpayable",
					"type": "function"
				},
				{
					"inputs": [],
					"name": "reward",
					"outputs": [
						{
							"internalType": "uint256",
							"name": "",
							"type": "uint256"
						}
					],
					"stateMutability": "view",
					"type": "function"
				}
			],
			"devdoc": {
				"kind": "dev",
				"methods": {},
				"version": 1
			},
			"evm": {
				"assembly": "    /* \"RPS.sol\":106:2320  contract RPS is CommitReveal{... */\n  mstore(0x40, 0x80)\n    /* \"CommitReveal.sol\":118:121  100 */\n  0x64\n    /* \"CommitReveal.sol\":97:121  uint8 internal max = 100 */\n  0x00\n  dup1\n  0x0100\n  exp\n  dup2\n  sload\n  dup2\n  0xff\n  mul\n  not\n  and\n  swap1\n  dup4\n  0xff\n  and\n  mul\n  or\n  swap1\n  sstore\n  pop\n    /* \"RPS.sol\":291:292  0 */\n  0x00\n    /* \"RPS.sol\":267:292  uint public numPlayer = 0 */\n  0x02\n  sstore\n    /* \"RPS.sol\":323:324  0 */\n  0x00\n    /* \"RPS.sol\":299:324  uint public numReveal = 0 */\n  0x03\n  sstore\n    /* \"RPS.sol\":352:353  0 */\n  0x00\n    /* \"RPS.sol\":331:353  uint public reward = 0 */\n  0x04\n  sstore\n    /* \"RPS.sol\":479:480  0 */\n  0x00\n    /* \"RPS.sol\":456:480  uint public numInput = 0 */\n  0x07\n  sstore\n    /* \"RPS.sol\":106:2320  contract RPS is CommitReveal{... */\n  callvalue\n  dup1\n  iszero\n  tag_1\n  jumpi\n  0x00\n  dup1\n  revert\ntag_1:\n  pop\n  dataSize(sub_0)\n  dup1\n  dataOffset(sub_0)\n  0x00\n  codecopy\n  0x00\n  return\nstop\n\nsub_0: assembly {\n        /* \"RPS.sol\":106:2320  contract RPS is CommitReveal{... */\n      mstore(0x40, 0x80)\n      jumpi(tag_1, lt(calldatasize, 0x04))\n      shr(0xe0, calldataload(0x00))\n      dup1\n      0x90d5d0c3\n      gt\n      tag_12\n      jumpi\n      dup1\n      0x90d5d0c3\n      eq\n      tag_7\n      jumpi\n      dup1\n      0x9e0551c6\n      eq\n      tag_8\n      jumpi\n      dup1\n      0xb577e0bb\n      eq\n      tag_9\n      jumpi\n      dup1\n      0xc876e615\n      eq\n      tag_10\n      jumpi\n      dup1\n      0xd891f969\n      eq\n      tag_11\n      jumpi\n      jump(tag_1)\n    tag_12:\n      dup1\n      0x086f7815\n      eq\n      tag_2\n      jumpi\n      dup1\n      0x228cb733\n      eq\n      tag_3\n      jumpi\n      dup1\n      0x27b5db8a\n      eq\n      tag_4\n      jumpi\n      dup1\n      0x7563973a\n      eq\n      tag_5\n      jumpi\n      dup1\n      0x885c7d36\n      eq\n      tag_6\n      jumpi\n    tag_1:\n      0x00\n      dup1\n      revert\n        /* \"RPS.sol\":456:480  uint public numInput = 0 */\n    tag_2:\n      callvalue\n      dup1\n      iszero\n      tag_13\n      jumpi\n      0x00\n      dup1\n      revert\n    tag_13:\n      pop\n      tag_14\n      tag_15\n      jump\t// in\n    tag_14:\n      mload(0x40)\n      tag_16\n      swap2\n      swap1\n      tag_17\n      jump\t// in\n    tag_16:\n      mload(0x40)\n      dup1\n      swap2\n      sub\n      swap1\n      return\n        /* \"RPS.sol\":331:353  uint public reward = 0 */\n    tag_3:\n      callvalue\n      dup1\n      iszero\n      tag_18\n      jumpi\n      0x00\n      dup1\n      revert\n    tag_18:\n      pop\n      tag_19\n      tag_20\n      jump\t// in\n    tag_19:\n      mload(0x40)\n      tag_21\n      swap2\n      swap1\n      tag_17\n      jump\t// in\n    tag_21:\n      mload(0x40)\n      dup1\n      swap2\n      sub\n      swap1\n      return\n        /* \"RPS.sol\":489:789  function addPlayer() public payable {... */\n    tag_4:\n      tag_22\n      tag_23\n      jump\t// in\n    tag_22:\n      stop\n        /* \"RPS.sol\":1014:1243  function choiceHash(uint choice,uint password) public view returns(bytes32) {... */\n    tag_5:\n      callvalue\n      dup1\n      iszero\n      tag_24\n      jumpi\n      0x00\n      dup1\n      revert\n    tag_24:\n      pop\n      tag_25\n      0x04\n      dup1\n      calldatasize\n      sub\n      dup2\n      add\n      swap1\n      tag_26\n      swap2\n      swap1\n      tag_27\n      jump\t// in\n    tag_26:\n      tag_28\n      jump\t// in\n    tag_25:\n      mload(0x40)\n      tag_29\n      swap2\n      swap1\n      tag_30\n      jump\t// in\n    tag_29:\n      mload(0x40)\n      dup1\n      swap2\n      sub\n      swap1\n      return\n        /* \"RPS.sol\":405:449  mapping (address => uint) public playerIndex */\n    tag_6:\n      callvalue\n      dup1\n      iszero\n      tag_31\n      jumpi\n      0x00\n      dup1\n      revert\n    tag_31:\n      pop\n      tag_32\n      0x04\n      dup1\n      calldatasize\n      sub\n      dup2\n      add\n      swap1\n      tag_33\n      swap2\n      swap1\n      tag_34\n      jump\t// in\n    tag_33:\n      tag_35\n      jump\t// in\n    tag_32:\n      mload(0x40)\n      tag_36\n      swap2\n      swap1\n      tag_17\n      jump\t// in\n    tag_36:\n      mload(0x40)\n      dup1\n      swap2\n      sub\n      swap1\n      return\n        /* \"RPS.sol\":267:292  uint public numPlayer = 0 */\n    tag_7:\n      callvalue\n      dup1\n      iszero\n      tag_37\n      jumpi\n      0x00\n      dup1\n      revert\n    tag_37:\n      pop\n      tag_38\n      tag_39\n      jump\t// in\n    tag_38:\n      mload(0x40)\n      tag_40\n      swap2\n      swap1\n      tag_17\n      jump\t// in\n    tag_40:\n      mload(0x40)\n      dup1\n      swap2\n      sub\n      swap1\n      return\n        /* \"RPS.sol\":360:398  mapping (uint => Player) public player */\n    tag_8:\n      callvalue\n      dup1\n      iszero\n      tag_41\n      jumpi\n      0x00\n      dup1\n      revert\n    tag_41:\n      pop\n      tag_42\n      0x04\n      dup1\n      calldatasize\n      sub\n      dup2\n      add\n      swap1\n      tag_43\n      swap2\n      swap1\n      tag_44\n      jump\t// in\n    tag_43:\n      tag_45\n      jump\t// in\n    tag_42:\n      mload(0x40)\n      tag_46\n      swap3\n      swap2\n      swap1\n      tag_47\n      jump\t// in\n    tag_46:\n      mload(0x40)\n      dup1\n      swap2\n      sub\n      swap1\n      return\n        /* \"RPS.sol\":1249:1639  function revealsChoice(uint choice,uint password) public{... */\n    tag_9:\n      callvalue\n      dup1\n      iszero\n      tag_48\n      jumpi\n      0x00\n      dup1\n      revert\n    tag_48:\n      pop\n      tag_49\n      0x04\n      dup1\n      calldatasize\n      sub\n      dup2\n      add\n      swap1\n      tag_50\n      swap2\n      swap1\n      tag_27\n      jump\t// in\n    tag_50:\n      tag_51\n      jump\t// in\n    tag_49:\n      stop\n        /* \"RPS.sol\":299:324  uint public numReveal = 0 */\n    tag_10:\n      callvalue\n      dup1\n      iszero\n      tag_52\n      jumpi\n      0x00\n      dup1\n      revert\n    tag_52:\n      pop\n      tag_53\n      tag_54\n      jump\t// in\n    tag_53:\n      mload(0x40)\n      tag_55\n      swap2\n      swap1\n      tag_17\n      jump\t// in\n    tag_55:\n      mload(0x40)\n      dup1\n      swap2\n      sub\n      swap1\n      return\n        /* \"RPS.sol\":797:1006  function input(bytes32 hashedChoice) public  {... */\n    tag_11:\n      callvalue\n      dup1\n      iszero\n      tag_56\n      jumpi\n      0x00\n      dup1\n      revert\n    tag_56:\n      pop\n      tag_57\n      0x04\n      dup1\n      calldatasize\n      sub\n      dup2\n      add\n      swap1\n      tag_58\n      swap2\n      swap1\n      tag_59\n      jump\t// in\n    tag_58:\n      tag_60\n      jump\t// in\n    tag_57:\n      stop\n        /* \"RPS.sol\":456:480  uint public numInput = 0 */\n    tag_15:\n      sload(0x07)\n      dup2\n      jump\t// out\n        /* \"RPS.sol\":331:353  uint public reward = 0 */\n    tag_20:\n      sload(0x04)\n      dup2\n      jump\t// out\n        /* \"RPS.sol\":489:789  function addPlayer() public payable {... */\n    tag_23:\n        /* \"RPS.sol\":556:557  2 */\n      0x02\n        /* \"RPS.sol\":544:553  numPlayer */\n      dup1\n      sload\n        /* \"RPS.sol\":544:557  numPlayer < 2 */\n      lt\n        /* \"RPS.sol\":536:558  require(numPlayer < 2) */\n      tag_62\n      jumpi\n      0x00\n      dup1\n      revert\n    tag_62:\n        /* \"RPS.sol\":590:597  1 ether */\n      0x0de0b6b3a7640000\n        /* \"RPS.sol\":577:586  msg.value */\n      callvalue\n        /* \"RPS.sol\":577:597  msg.value == 1 ether */\n      eq\n        /* \"RPS.sol\":569:598  require(msg.value == 1 ether) */\n      tag_63\n      jumpi\n      0x00\n      dup1\n      revert\n    tag_63:\n        /* \"RPS.sol\":619:628  msg.value */\n      callvalue\n        /* \"RPS.sol\":609:615  reward */\n      0x04\n      0x00\n        /* \"RPS.sol\":609:628  reward += msg.value */\n      dup3\n      dup3\n      sload\n      tag_64\n      swap2\n      swap1\n      tag_65\n      jump\t// in\n    tag_64:\n      swap3\n      pop\n      pop\n      dup2\n      swap1\n      sstore\n      pop\n        /* \"RPS.sol\":664:674  msg.sender */\n      caller\n        /* \"RPS.sol\":639:645  player */\n      0x05\n        /* \"RPS.sol\":639:656  player[numPlayer] */\n      0x00\n        /* \"RPS.sol\":646:655  numPlayer */\n      sload(0x02)\n        /* \"RPS.sol\":639:656  player[numPlayer] */\n      dup2\n      mstore\n      0x20\n      add\n      swap1\n      dup2\n      mstore\n      0x20\n      add\n      0x00\n      keccak256\n        /* \"RPS.sol\":639:661  player[numPlayer].addr */\n      0x01\n      add\n      0x00\n        /* \"RPS.sol\":639:674  player[numPlayer].addr = msg.sender */\n      0x0100\n      exp\n      dup2\n      sload\n      dup2\n      0xffffffffffffffffffffffffffffffffffffffff\n      mul\n      not\n      and\n      swap1\n      dup4\n      0xffffffffffffffffffffffffffffffffffffffff\n      and\n      mul\n      or\n      swap1\n      sstore\n      pop\n        /* \"RPS.sol\":711:720  numPlayer */\n      sload(0x02)\n        /* \"RPS.sol\":685:696  playerIndex */\n      0x06\n        /* \"RPS.sol\":685:708  playerIndex[msg.sender] */\n      0x00\n        /* \"RPS.sol\":697:707  msg.sender */\n      caller\n        /* \"RPS.sol\":685:708  playerIndex[msg.sender] */\n      0xffffffffffffffffffffffffffffffffffffffff\n      and\n      0xffffffffffffffffffffffffffffffffffffffff\n      and\n      dup2\n      mstore\n      0x20\n      add\n      swap1\n      dup2\n      mstore\n      0x20\n      add\n      0x00\n      keccak256\n        /* \"RPS.sol\":685:720  playerIndex[msg.sender] = numPlayer */\n      dup2\n      swap1\n      sstore\n      pop\n        /* \"RPS.sol\":758:759  3 */\n      0x03\n        /* \"RPS.sol\":731:737  player */\n      0x05\n        /* \"RPS.sol\":731:748  player[numPlayer] */\n      0x00\n        /* \"RPS.sol\":738:747  numPlayer */\n      sload(0x02)\n        /* \"RPS.sol\":731:748  player[numPlayer] */\n      dup2\n      mstore\n      0x20\n      add\n      swap1\n      dup2\n      mstore\n      0x20\n      add\n      0x00\n      keccak256\n        /* \"RPS.sol\":731:755  player[numPlayer].choice */\n      0x00\n      add\n        /* \"RPS.sol\":731:759  player[numPlayer].choice = 3 */\n      dup2\n      swap1\n      sstore\n      pop\n        /* \"RPS.sol\":770:779  numPlayer */\n      0x02\n      0x00\n        /* \"RPS.sol\":770:781  numPlayer++ */\n      dup2\n      sload\n      dup1\n      swap3\n      swap2\n      swap1\n      tag_66\n      swap1\n      tag_67\n      jump\t// in\n    tag_66:\n      swap2\n      swap1\n      pop\n      sstore\n      pop\n        /* \"RPS.sol\":489:789  function addPlayer() public payable {... */\n      jump\t// out\n        /* \"RPS.sol\":1014:1243  function choiceHash(uint choice,uint password) public view returns(bytes32) {... */\n    tag_28:\n        /* \"RPS.sol\":1081:1088  bytes32 */\n      0x00\n        /* \"RPS.sol\":1119:1120  0 */\n      dup1\n        /* \"RPS.sol\":1109:1115  choice */\n      dup4\n        /* \"RPS.sol\":1109:1120  choice == 0 */\n      eq\n        /* \"RPS.sol\":1109:1135  choice == 0 || choice == 1 */\n      dup1\n      tag_69\n      jumpi\n      pop\n        /* \"RPS.sol\":1134:1135  1 */\n      0x01\n        /* \"RPS.sol\":1124:1130  choice */\n      dup4\n        /* \"RPS.sol\":1124:1135  choice == 1 */\n      eq\n        /* \"RPS.sol\":1109:1135  choice == 0 || choice == 1 */\n    tag_69:\n        /* \"RPS.sol\":1109:1150  choice == 0 || choice == 1 || choice == 2 */\n      dup1\n      tag_70\n      jumpi\n      pop\n        /* \"RPS.sol\":1149:1150  2 */\n      0x02\n        /* \"RPS.sol\":1139:1145  choice */\n      dup4\n        /* \"RPS.sol\":1139:1150  choice == 2 */\n      eq\n        /* \"RPS.sol\":1109:1150  choice == 0 || choice == 1 || choice == 2 */\n    tag_70:\n        /* \"RPS.sol\":1101:1168  require(choice == 0 || choice == 1 || choice == 2,\"invalid choice\") */\n      tag_71\n      jumpi\n      mload(0x40)\n      0x08c379a000000000000000000000000000000000000000000000000000000000\n      dup2\n      mstore\n      0x04\n      add\n      tag_72\n      swap1\n      tag_73\n      jump\t// in\n    tag_72:\n      mload(0x40)\n      dup1\n      swap2\n      sub\n      swap1\n      revert\n    tag_71:\n        /* \"RPS.sol\":1186:1235  getSaltedHash(bytes32(choice), bytes32(password)) */\n      tag_74\n        /* \"RPS.sol\":1208:1214  choice */\n      dup4\n        /* \"RPS.sol\":1200:1215  bytes32(choice) */\n      0x00\n      shl\n        /* \"RPS.sol\":1225:1233  password */\n      dup4\n        /* \"RPS.sol\":1217:1234  bytes32(password) */\n      0x00\n      shl\n        /* \"RPS.sol\":1186:1199  getSaltedHash */\n      tag_75\n        /* \"RPS.sol\":1186:1235  getSaltedHash(bytes32(choice), bytes32(password)) */\n      jump\t// in\n    tag_74:\n        /* \"RPS.sol\":1179:1235  return getSaltedHash(bytes32(choice), bytes32(password)) */\n      swap1\n      pop\n        /* \"RPS.sol\":1014:1243  function choiceHash(uint choice,uint password) public view returns(bytes32) {... */\n      swap3\n      swap2\n      pop\n      pop\n      jump\t// out\n        /* \"RPS.sol\":405:449  mapping (address => uint) public playerIndex */\n    tag_35:\n      mstore(0x20, 0x06)\n      dup1\n      0x00\n      mstore\n      keccak256(0x00, 0x40)\n      0x00\n      swap2\n      pop\n      swap1\n      pop\n      sload\n      dup2\n      jump\t// out\n        /* \"RPS.sol\":267:292  uint public numPlayer = 0 */\n    tag_39:\n      sload(0x02)\n      dup2\n      jump\t// out\n        /* \"RPS.sol\":360:398  mapping (uint => Player) public player */\n    tag_45:\n      mstore(0x20, 0x05)\n      dup1\n      0x00\n      mstore\n      keccak256(0x00, 0x40)\n      0x00\n      swap2\n      pop\n      swap1\n      pop\n      dup1\n      0x00\n      add\n      sload\n      swap1\n      dup1\n      0x01\n      add\n      0x00\n      swap1\n      sload\n      swap1\n      0x0100\n      exp\n      swap1\n      div\n      0xffffffffffffffffffffffffffffffffffffffff\n      and\n      swap1\n      pop\n      dup3\n      jump\t// out\n        /* \"RPS.sol\":1249:1639  function revealsChoice(uint choice,uint password) public{... */\n    tag_51:\n        /* \"RPS.sol\":1336:1337  2 */\n      0x02\n        /* \"RPS.sol\":1324:1332  numInput */\n      sload(0x07)\n        /* \"RPS.sol\":1324:1337  numInput == 2 */\n      eq\n        /* \"RPS.sol\":1316:1338  require(numInput == 2) */\n      tag_77\n      jumpi\n      0x00\n      dup1\n      revert\n    tag_77:\n        /* \"RPS.sol\":1367:1368  0 */\n      0x00\n        /* \"RPS.sol\":1357:1363  choice */\n      dup3\n        /* \"RPS.sol\":1357:1368  choice == 0 */\n      eq\n        /* \"RPS.sol\":1357:1383  choice == 0 || choice == 1 */\n      dup1\n      tag_78\n      jumpi\n      pop\n        /* \"RPS.sol\":1382:1383  1 */\n      0x01\n        /* \"RPS.sol\":1372:1378  choice */\n      dup3\n        /* \"RPS.sol\":1372:1383  choice == 1 */\n      eq\n        /* \"RPS.sol\":1357:1383  choice == 0 || choice == 1 */\n    tag_78:\n        /* \"RPS.sol\":1357:1398  choice == 0 || choice == 1 || choice == 2 */\n      dup1\n      tag_79\n      jumpi\n      pop\n        /* \"RPS.sol\":1397:1398  2 */\n      0x02\n        /* \"RPS.sol\":1387:1393  choice */\n      dup3\n        /* \"RPS.sol\":1387:1398  choice == 2 */\n      eq\n        /* \"RPS.sol\":1357:1398  choice == 0 || choice == 1 || choice == 2 */\n    tag_79:\n        /* \"RPS.sol\":1349:1416  require(choice == 0 || choice == 1 || choice == 2,\"invalid choice\") */\n      tag_80\n      jumpi\n      mload(0x40)\n      0x08c379a000000000000000000000000000000000000000000000000000000000\n      dup2\n      mstore\n      0x04\n      add\n      tag_81\n      swap1\n      tag_73\n      jump\t// in\n    tag_81:\n      mload(0x40)\n      dup1\n      swap2\n      sub\n      swap1\n      revert\n    tag_80:\n        /* \"RPS.sol\":1427:1474  revealAnswer(bytes32(choice),bytes32(password)) */\n      tag_82\n        /* \"RPS.sol\":1448:1454  choice */\n      dup3\n        /* \"RPS.sol\":1440:1455  bytes32(choice) */\n      0x00\n      shl\n        /* \"RPS.sol\":1464:1472  password */\n      dup3\n        /* \"RPS.sol\":1456:1473  bytes32(password) */\n      0x00\n      shl\n        /* \"RPS.sol\":1427:1439  revealAnswer */\n      tag_83\n        /* \"RPS.sol\":1427:1474  revealAnswer(bytes32(choice),bytes32(password)) */\n      jump\t// in\n    tag_82:\n        /* \"RPS.sol\":1526:1532  choice */\n      dup2\n        /* \"RPS.sol\":1485:1491  player */\n      0x05\n        /* \"RPS.sol\":1485:1516  player[playerIndex[msg.sender]] */\n      0x00\n        /* \"RPS.sol\":1492:1503  playerIndex */\n      0x06\n        /* \"RPS.sol\":1492:1515  playerIndex[msg.sender] */\n      0x00\n        /* \"RPS.sol\":1504:1514  msg.sender */\n      caller\n        /* \"RPS.sol\":1492:1515  playerIndex[msg.sender] */\n      0xffffffffffffffffffffffffffffffffffffffff\n      and\n      0xffffffffffffffffffffffffffffffffffffffff\n      and\n      dup2\n      mstore\n      0x20\n      add\n      swap1\n      dup2\n      mstore\n      0x20\n      add\n      0x00\n      keccak256\n      sload\n        /* \"RPS.sol\":1485:1516  player[playerIndex[msg.sender]] */\n      dup2\n      mstore\n      0x20\n      add\n      swap1\n      dup2\n      mstore\n      0x20\n      add\n      0x00\n      keccak256\n        /* \"RPS.sol\":1485:1523  player[playerIndex[msg.sender]].choice */\n      0x00\n      add\n        /* \"RPS.sol\":1485:1532  player[playerIndex[msg.sender]].choice = choice */\n      dup2\n      swap1\n      sstore\n      pop\n        /* \"RPS.sol\":1543:1552  numReveal */\n      0x03\n      0x00\n        /* \"RPS.sol\":1543:1554  numReveal++ */\n      dup2\n      sload\n      dup1\n      swap3\n      swap2\n      swap1\n      tag_84\n      swap1\n      tag_67\n      jump\t// in\n    tag_84:\n      swap2\n      swap1\n      pop\n      sstore\n      pop\n        /* \"RPS.sol\":1582:1583  2 */\n      0x02\n        /* \"RPS.sol\":1569:1578  numReveal */\n      sload(0x03)\n        /* \"RPS.sol\":1569:1583  numReveal == 2 */\n      sub\n        /* \"RPS.sol\":1565:1632  if (numReveal == 2) {... */\n      tag_85\n      jumpi\n        /* \"RPS.sol\":1600:1620  _checkWinnerAndPay() */\n      tag_86\n        /* \"RPS.sol\":1600:1618  _checkWinnerAndPay */\n      tag_87\n        /* \"RPS.sol\":1600:1620  _checkWinnerAndPay() */\n      jump\t// in\n    tag_86:\n        /* \"RPS.sol\":1565:1632  if (numReveal == 2) {... */\n    tag_85:\n        /* \"RPS.sol\":1249:1639  function revealsChoice(uint choice,uint password) public{... */\n      pop\n      pop\n      jump\t// out\n        /* \"RPS.sol\":299:324  uint public numReveal = 0 */\n    tag_54:\n      sload(0x03)\n      dup2\n      jump\t// out\n        /* \"RPS.sol\":797:1006  function input(bytes32 hashedChoice) public  {... */\n    tag_60:\n        /* \"RPS.sol\":874:875  2 */\n      0x02\n        /* \"RPS.sol\":861:870  numPlayer */\n      dup1\n      sload\n        /* \"RPS.sol\":861:875  numPlayer == 2 */\n      eq\n        /* \"RPS.sol\":853:876  require(numPlayer == 2) */\n      tag_89\n      jumpi\n      0x00\n      dup1\n      revert\n    tag_89:\n        /* \"RPS.sol\":909:915  player */\n      0x05\n        /* \"RPS.sol\":909:940  player[playerIndex[msg.sender]] */\n      0x00\n        /* \"RPS.sol\":916:927  playerIndex */\n      0x06\n        /* \"RPS.sol\":916:939  playerIndex[msg.sender] */\n      0x00\n        /* \"RPS.sol\":928:938  msg.sender */\n      caller\n        /* \"RPS.sol\":916:939  playerIndex[msg.sender] */\n      0xffffffffffffffffffffffffffffffffffffffff\n      and\n      0xffffffffffffffffffffffffffffffffffffffff\n      and\n      dup2\n      mstore\n      0x20\n      add\n      swap1\n      dup2\n      mstore\n      0x20\n      add\n      0x00\n      keccak256\n      sload\n        /* \"RPS.sol\":909:940  player[playerIndex[msg.sender]] */\n      dup2\n      mstore\n      0x20\n      add\n      swap1\n      dup2\n      mstore\n      0x20\n      add\n      0x00\n      keccak256\n        /* \"RPS.sol\":909:945  player[playerIndex[msg.sender]].addr */\n      0x01\n      add\n      0x00\n      swap1\n      sload\n      swap1\n      0x0100\n      exp\n      swap1\n      div\n      0xffffffffffffffffffffffffffffffffffffffff\n      and\n        /* \"RPS.sol\":895:945  msg.sender == player[playerIndex[msg.sender]].addr */\n      0xffffffffffffffffffffffffffffffffffffffff\n      and\n        /* \"RPS.sol\":895:905  msg.sender */\n      caller\n        /* \"RPS.sol\":895:945  msg.sender == player[playerIndex[msg.sender]].addr */\n      0xffffffffffffffffffffffffffffffffffffffff\n      and\n      eq\n        /* \"RPS.sol\":887:946  require(msg.sender == player[playerIndex[msg.sender]].addr) */\n      tag_90\n      jumpi\n      0x00\n      dup1\n      revert\n    tag_90:\n        /* \"RPS.sol\":957:977  commit(hashedChoice) */\n      tag_91\n        /* \"RPS.sol\":964:976  hashedChoice */\n      dup2\n        /* \"RPS.sol\":957:963  commit */\n      tag_92\n        /* \"RPS.sol\":957:977  commit(hashedChoice) */\n      jump\t// in\n    tag_91:\n        /* \"RPS.sol\":988:996  numInput */\n      0x07\n      0x00\n        /* \"RPS.sol\":988:998  numInput++ */\n      dup2\n      sload\n      dup1\n      swap3\n      swap2\n      swap1\n      tag_93\n      swap1\n      tag_67\n      jump\t// in\n    tag_93:\n      swap2\n      swap1\n      pop\n      sstore\n      pop\n        /* \"RPS.sol\":797:1006  function input(bytes32 hashedChoice) public  {... */\n      pop\n      jump\t// out\n        /* \"CommitReveal.sol\":2536:2689  function getSaltedHash(bytes32 data,bytes32 salt) internal  view returns(bytes32){... */\n    tag_75:\n        /* \"CommitReveal.sol\":2609:2616  bytes32 */\n      0x00\n        /* \"CommitReveal.sol\":2665:2669  this */\n      address\n        /* \"CommitReveal.sol\":2672:2676  data */\n      dup4\n        /* \"CommitReveal.sol\":2678:2682  salt */\n      dup4\n        /* \"CommitReveal.sol\":2640:2683  abi.encodePacked(address(this), data, salt) */\n      add(0x20, mload(0x40))\n      tag_95\n      swap4\n      swap3\n      swap2\n      swap1\n      tag_96\n      jump\t// in\n    tag_95:\n      mload(0x40)\n      0x20\n      dup2\n      dup4\n      sub\n      sub\n      dup2\n      mstore\n      swap1\n      0x40\n      mstore\n        /* \"CommitReveal.sol\":2630:2684  keccak256(abi.encodePacked(address(this), data, salt)) */\n      dup1\n      mload\n      swap1\n      0x20\n      add\n      keccak256\n        /* \"CommitReveal.sol\":2623:2684  return keccak256(abi.encodePacked(address(this), data, salt)) */\n      swap1\n      pop\n        /* \"CommitReveal.sol\":2536:2689  function getSaltedHash(bytes32 data,bytes32 salt) internal  view returns(bytes32){... */\n      swap3\n      swap2\n      pop\n      pop\n      jump\t// out\n        /* \"CommitReveal.sol\":1958:2464  function revealAnswer(bytes32 answer,bytes32 salt) internal  {... */\n    tag_83:\n        /* \"CommitReveal.sol\":2130:2135  false */\n      0x00\n        /* \"CommitReveal.sol\":2100:2135  commits[msg.sender].revealed==false */\n      iszero\n      iszero\n        /* \"CommitReveal.sol\":2100:2107  commits */\n      0x01\n        /* \"CommitReveal.sol\":2100:2119  commits[msg.sender] */\n      0x00\n        /* \"CommitReveal.sol\":2108:2118  msg.sender */\n      caller\n        /* \"CommitReveal.sol\":2100:2119  commits[msg.sender] */\n      0xffffffffffffffffffffffffffffffffffffffff\n      and\n      0xffffffffffffffffffffffffffffffffffffffff\n      and\n      dup2\n      mstore\n      0x20\n      add\n      swap1\n      dup2\n      mstore\n      0x20\n      add\n      0x00\n      keccak256\n        /* \"CommitReveal.sol\":2100:2128  commits[msg.sender].revealed */\n      0x01\n      add\n      0x08\n      swap1\n      sload\n      swap1\n      0x0100\n      exp\n      swap1\n      div\n      0xff\n      and\n        /* \"CommitReveal.sol\":2100:2135  commits[msg.sender].revealed==false */\n      iszero\n      iszero\n      eq\n        /* \"CommitReveal.sol\":2092:2183  require(commits[msg.sender].revealed==false,\"CommitReveal::revealAnswer: Already revealed\") */\n      tag_98\n      jumpi\n      mload(0x40)\n      0x08c379a000000000000000000000000000000000000000000000000000000000\n      dup2\n      mstore\n      0x04\n      add\n      tag_99\n      swap1\n      tag_100\n      jump\t// in\n    tag_99:\n      mload(0x40)\n      dup1\n      swap2\n      sub\n      swap1\n      revert\n    tag_98:\n        /* \"CommitReveal.sol\":2218:2222  true */\n      0x01\n        /* \"CommitReveal.sol\":2189:2196  commits */\n      dup1\n        /* \"CommitReveal.sol\":2189:2208  commits[msg.sender] */\n      0x00\n        /* \"CommitReveal.sol\":2197:2207  msg.sender */\n      caller\n        /* \"CommitReveal.sol\":2189:2208  commits[msg.sender] */\n      0xffffffffffffffffffffffffffffffffffffffff\n      and\n      0xffffffffffffffffffffffffffffffffffffffff\n      and\n      dup2\n      mstore\n      0x20\n      add\n      swap1\n      dup2\n      mstore\n      0x20\n      add\n      0x00\n      keccak256\n        /* \"CommitReveal.sol\":2189:2217  commits[msg.sender].revealed */\n      0x01\n      add\n      0x08\n        /* \"CommitReveal.sol\":2189:2222  commits[msg.sender].revealed=true */\n      0x0100\n      exp\n      dup2\n      sload\n      dup2\n      0xff\n      mul\n      not\n      and\n      swap1\n      dup4\n      iszero\n      iszero\n      mul\n      or\n      swap1\n      sstore\n      pop\n        /* \"CommitReveal.sol\":2319:2326  commits */\n      0x01\n        /* \"CommitReveal.sol\":2319:2338  commits[msg.sender] */\n      0x00\n        /* \"CommitReveal.sol\":2327:2337  msg.sender */\n      caller\n        /* \"CommitReveal.sol\":2319:2338  commits[msg.sender] */\n      0xffffffffffffffffffffffffffffffffffffffff\n      and\n      0xffffffffffffffffffffffffffffffffffffffff\n      and\n      dup2\n      mstore\n      0x20\n      add\n      swap1\n      dup2\n      mstore\n      0x20\n      add\n      0x00\n      keccak256\n        /* \"CommitReveal.sol\":2319:2345  commits[msg.sender].commit */\n      0x00\n      add\n      sload\n        /* \"CommitReveal.sol\":2291:2317  getSaltedHash(answer,salt) */\n      tag_101\n        /* \"CommitReveal.sol\":2305:2311  answer */\n      dup4\n        /* \"CommitReveal.sol\":2312:2316  salt */\n      dup4\n        /* \"CommitReveal.sol\":2291:2304  getSaltedHash */\n      tag_75\n        /* \"CommitReveal.sol\":2291:2317  getSaltedHash(answer,salt) */\n      jump\t// in\n    tag_101:\n        /* \"CommitReveal.sol\":2291:2345  getSaltedHash(answer,salt)==commits[msg.sender].commit */\n      eq\n        /* \"CommitReveal.sol\":2283:2412  require(getSaltedHash(answer,salt)==commits[msg.sender].commit,\"CommitReveal::revealAnswer: Revealed hash does not match commit\") */\n      tag_102\n      jumpi\n      mload(0x40)\n      0x08c379a000000000000000000000000000000000000000000000000000000000\n      dup2\n      mstore\n      0x04\n      add\n      tag_103\n      swap1\n      tag_104\n      jump\t// in\n    tag_103:\n      mload(0x40)\n      dup1\n      swap2\n      sub\n      swap1\n      revert\n    tag_102:\n        /* \"CommitReveal.sol\":2423:2459  RevealAnswer(msg.sender,answer,salt) */\n      0x8bed02c4d61e56ed1d90657e7a0ba48f15cca20fcc2899d7235221b2cb0423a6\n        /* \"CommitReveal.sol\":2436:2446  msg.sender */\n      caller\n        /* \"CommitReveal.sol\":2447:2453  answer */\n      dup4\n        /* \"CommitReveal.sol\":2454:2458  salt */\n      dup4\n        /* \"CommitReveal.sol\":2423:2459  RevealAnswer(msg.sender,answer,salt) */\n      mload(0x40)\n      tag_105\n      swap4\n      swap3\n      swap2\n      swap1\n      tag_106\n      jump\t// in\n    tag_105:\n      mload(0x40)\n      dup1\n      swap2\n      sub\n      swap1\n      log1\n        /* \"CommitReveal.sol\":1958:2464  function revealAnswer(bytes32 answer,bytes32 salt) internal  {... */\n      pop\n      pop\n      jump\t// out\n        /* \"RPS.sol\":1645:2317  function _checkWinnerAndPay() private {... */\n    tag_87:\n        /* \"RPS.sol\":1694:1707  uint p0Choice */\n      0x00\n        /* \"RPS.sol\":1710:1716  player */\n      0x05\n        /* \"RPS.sol\":1710:1719  player[0] */\n      0x00\n        /* \"RPS.sol\":1717:1718  0 */\n      dup1\n        /* \"RPS.sol\":1710:1719  player[0] */\n      dup2\n      mstore\n      0x20\n      add\n      swap1\n      dup2\n      mstore\n      0x20\n      add\n      0x00\n      keccak256\n        /* \"RPS.sol\":1710:1726  player[0].choice */\n      0x00\n      add\n      sload\n        /* \"RPS.sol\":1694:1726  uint p0Choice = player[0].choice */\n      swap1\n      pop\n        /* \"RPS.sol\":1737:1750  uint p1Choice */\n      0x00\n        /* \"RPS.sol\":1753:1759  player */\n      0x05\n        /* \"RPS.sol\":1753:1762  player[1] */\n      0x00\n        /* \"RPS.sol\":1760:1761  1 */\n      0x01\n        /* \"RPS.sol\":1753:1762  player[1] */\n      dup2\n      mstore\n      0x20\n      add\n      swap1\n      dup2\n      mstore\n      0x20\n      add\n      0x00\n      keccak256\n        /* \"RPS.sol\":1753:1769  player[1].choice */\n      0x00\n      add\n      sload\n        /* \"RPS.sol\":1737:1769  uint p1Choice = player[1].choice */\n      swap1\n      pop\n        /* \"RPS.sol\":1780:1804  address payable account0 */\n      0x00\n        /* \"RPS.sol\":1815:1821  player */\n      0x05\n        /* \"RPS.sol\":1815:1824  player[0] */\n      0x00\n        /* \"RPS.sol\":1822:1823  0 */\n      dup1\n        /* \"RPS.sol\":1815:1824  player[0] */\n      dup2\n      mstore\n      0x20\n      add\n      swap1\n      dup2\n      mstore\n      0x20\n      add\n      0x00\n      keccak256\n        /* \"RPS.sol\":1815:1829  player[0].addr */\n      0x01\n      add\n      0x00\n      swap1\n      sload\n      swap1\n      0x0100\n      exp\n      swap1\n      div\n      0xffffffffffffffffffffffffffffffffffffffff\n      and\n        /* \"RPS.sol\":1780:1830  address payable account0 = payable(player[0].addr) */\n      swap1\n      pop\n        /* \"RPS.sol\":1841:1865  address payable account1 */\n      0x00\n        /* \"RPS.sol\":1876:1882  player */\n      0x05\n        /* \"RPS.sol\":1876:1885  player[1] */\n      0x00\n        /* \"RPS.sol\":1883:1884  1 */\n      0x01\n        /* \"RPS.sol\":1876:1885  player[1] */\n      dup2\n      mstore\n      0x20\n      add\n      swap1\n      dup2\n      mstore\n      0x20\n      add\n      0x00\n      keccak256\n        /* \"RPS.sol\":1876:1890  player[1].addr */\n      0x01\n      add\n      0x00\n      swap1\n      sload\n      swap1\n      0x0100\n      exp\n      swap1\n      div\n      0xffffffffffffffffffffffffffffffffffffffff\n      and\n        /* \"RPS.sol\":1841:1891  address payable account1 = payable(player[1].addr) */\n      swap1\n      pop\n        /* \"RPS.sol\":1928:1936  p1Choice */\n      dup3\n        /* \"RPS.sol\":1923:1924  3 */\n      0x03\n        /* \"RPS.sol\":1918:1919  1 */\n      0x01\n        /* \"RPS.sol\":1907:1915  p0Choice */\n      dup7\n        /* \"RPS.sol\":1907:1919  p0Choice + 1 */\n      tag_108\n      swap2\n      swap1\n      tag_65\n      jump\t// in\n    tag_108:\n        /* \"RPS.sol\":1906:1924  (p0Choice + 1) % 3 */\n      tag_109\n      swap2\n      swap1\n      tag_110\n      jump\t// in\n    tag_109:\n        /* \"RPS.sol\":1906:1936  (p0Choice + 1) % 3 == p1Choice */\n      sub\n        /* \"RPS.sol\":1902:2310  if ((p0Choice + 1) % 3 == p1Choice) {... */\n      tag_111\n      jumpi\n        /* \"RPS.sol\":1986:1994  account1 */\n      dup1\n        /* \"RPS.sol\":1986:2003  account1.transfer */\n      0xffffffffffffffffffffffffffffffffffffffff\n      and\n        /* \"RPS.sol\":1986:2011  account1.transfer(reward) */\n      0x08fc\n        /* \"RPS.sol\":2004:2010  reward */\n      sload(0x04)\n        /* \"RPS.sol\":1986:2011  account1.transfer(reward) */\n      swap1\n      dup2\n      iszero\n      mul\n      swap1\n      mload(0x40)\n      0x00\n      mload(0x40)\n      dup1\n      dup4\n      sub\n      dup2\n      dup6\n      dup9\n      dup9\n      call\n      swap4\n      pop\n      pop\n      pop\n      pop\n      iszero\n      dup1\n      iszero\n      tag_113\n      jumpi\n      returndatasize\n      0x00\n      dup1\n      returndatacopy\n      revert(0x00, returndatasize)\n    tag_113:\n      pop\n        /* \"RPS.sol\":1902:2310  if ((p0Choice + 1) % 3 == p1Choice) {... */\n      jump(tag_114)\n    tag_111:\n        /* \"RPS.sol\":2064:2072  p0Choice */\n      dup4\n        /* \"RPS.sol\":2059:2060  3 */\n      0x03\n        /* \"RPS.sol\":2054:2055  1 */\n      0x01\n        /* \"RPS.sol\":2043:2051  p1Choice */\n      dup6\n        /* \"RPS.sol\":2043:2055  p1Choice + 1 */\n      tag_115\n      swap2\n      swap1\n      tag_65\n      jump\t// in\n    tag_115:\n        /* \"RPS.sol\":2042:2060  (p1Choice + 1) % 3 */\n      tag_116\n      swap2\n      swap1\n      tag_110\n      jump\t// in\n    tag_116:\n        /* \"RPS.sol\":2042:2072  (p1Choice + 1) % 3 == p0Choice */\n      sub\n        /* \"RPS.sol\":2038:2310  if ((p1Choice + 1) % 3 == p0Choice) {... */\n      tag_117\n      jumpi\n        /* \"RPS.sol\":2122:2130  account0 */\n      dup2\n        /* \"RPS.sol\":2122:2139  account0.transfer */\n      0xffffffffffffffffffffffffffffffffffffffff\n      and\n        /* \"RPS.sol\":2122:2147  account0.transfer(reward) */\n      0x08fc\n        /* \"RPS.sol\":2140:2146  reward */\n      sload(0x04)\n        /* \"RPS.sol\":2122:2147  account0.transfer(reward) */\n      swap1\n      dup2\n      iszero\n      mul\n      swap1\n      mload(0x40)\n      0x00\n      mload(0x40)\n      dup1\n      dup4\n      sub\n      dup2\n      dup6\n      dup9\n      dup9\n      call\n      swap4\n      pop\n      pop\n      pop\n      pop\n      iszero\n      dup1\n      iszero\n      tag_119\n      jumpi\n      returndatasize\n      0x00\n      dup1\n      returndatacopy\n      revert(0x00, returndatasize)\n    tag_119:\n      pop\n        /* \"RPS.sol\":2038:2310  if ((p1Choice + 1) % 3 == p0Choice) {... */\n      jump(tag_120)\n    tag_117:\n        /* \"RPS.sol\":2225:2233  account0 */\n      dup2\n        /* \"RPS.sol\":2225:2242  account0.transfer */\n      0xffffffffffffffffffffffffffffffffffffffff\n      and\n        /* \"RPS.sol\":2225:2254  account0.transfer(reward / 2) */\n      0x08fc\n        /* \"RPS.sol\":2252:2253  2 */\n      0x02\n        /* \"RPS.sol\":2243:2249  reward */\n      sload(0x04)\n        /* \"RPS.sol\":2243:2253  reward / 2 */\n      tag_121\n      swap2\n      swap1\n      tag_122\n      jump\t// in\n    tag_121:\n        /* \"RPS.sol\":2225:2254  account0.transfer(reward / 2) */\n      swap1\n      dup2\n      iszero\n      mul\n      swap1\n      mload(0x40)\n      0x00\n      mload(0x40)\n      dup1\n      dup4\n      sub\n      dup2\n      dup6\n      dup9\n      dup9\n      call\n      swap4\n      pop\n      pop\n      pop\n      pop\n      iszero\n      dup1\n      iszero\n      tag_124\n      jumpi\n      returndatasize\n      0x00\n      dup1\n      returndatacopy\n      revert(0x00, returndatasize)\n    tag_124:\n      pop\n        /* \"RPS.sol\":2269:2277  account1 */\n      dup1\n        /* \"RPS.sol\":2269:2286  account1.transfer */\n      0xffffffffffffffffffffffffffffffffffffffff\n      and\n        /* \"RPS.sol\":2269:2298  account1.transfer(reward / 2) */\n      0x08fc\n        /* \"RPS.sol\":2296:2297  2 */\n      0x02\n        /* \"RPS.sol\":2287:2293  reward */\n      sload(0x04)\n        /* \"RPS.sol\":2287:2297  reward / 2 */\n      tag_125\n      swap2\n      swap1\n      tag_122\n      jump\t// in\n    tag_125:\n        /* \"RPS.sol\":2269:2298  account1.transfer(reward / 2) */\n      swap1\n      dup2\n      iszero\n      mul\n      swap1\n      mload(0x40)\n      0x00\n      mload(0x40)\n      dup1\n      dup4\n      sub\n      dup2\n      dup6\n      dup9\n      dup9\n      call\n      swap4\n      pop\n      pop\n      pop\n      pop\n      iszero\n      dup1\n      iszero\n      tag_127\n      jumpi\n      returndatasize\n      0x00\n      dup1\n      returndatacopy\n      revert(0x00, returndatasize)\n    tag_127:\n      pop\n        /* \"RPS.sol\":2038:2310  if ((p1Choice + 1) % 3 == p0Choice) {... */\n    tag_120:\n        /* \"RPS.sol\":1902:2310  if ((p0Choice + 1) % 3 == p1Choice) {... */\n    tag_114:\n        /* \"RPS.sol\":1683:2317  {... */\n      pop\n      pop\n      pop\n      pop\n        /* \"RPS.sol\":1645:2317  function _checkWinnerAndPay() private {... */\n      jump\t// out\n        /* \"CommitReveal.sol\":255:529  function commit(bytes32 dataHash) internal  {... */\n    tag_92:\n        /* \"CommitReveal.sol\":334:342  dataHash */\n      dup1\n        /* \"CommitReveal.sol\":305:312  commits */\n      0x01\n        /* \"CommitReveal.sol\":305:324  commits[msg.sender] */\n      0x00\n        /* \"CommitReveal.sol\":313:323  msg.sender */\n      caller\n        /* \"CommitReveal.sol\":305:324  commits[msg.sender] */\n      0xffffffffffffffffffffffffffffffffffffffff\n      and\n      0xffffffffffffffffffffffffffffffffffffffff\n      and\n      dup2\n      mstore\n      0x20\n      add\n      swap1\n      dup2\n      mstore\n      0x20\n      add\n      0x00\n      keccak256\n        /* \"CommitReveal.sol\":305:331  commits[msg.sender].commit */\n      0x00\n      add\n        /* \"CommitReveal.sol\":305:342  commits[msg.sender].commit = dataHash */\n      dup2\n      swap1\n      sstore\n      pop\n        /* \"CommitReveal.sol\":383:395  block.number */\n      number\n        /* \"CommitReveal.sol\":348:355  commits */\n      0x01\n        /* \"CommitReveal.sol\":348:367  commits[msg.sender] */\n      0x00\n        /* \"CommitReveal.sol\":356:366  msg.sender */\n      caller\n        /* \"CommitReveal.sol\":348:367  commits[msg.sender] */\n      0xffffffffffffffffffffffffffffffffffffffff\n      and\n      0xffffffffffffffffffffffffffffffffffffffff\n      and\n      dup2\n      mstore\n      0x20\n      add\n      swap1\n      dup2\n      mstore\n      0x20\n      add\n      0x00\n      keccak256\n        /* \"CommitReveal.sol\":348:373  commits[msg.sender].block */\n      0x01\n      add\n      0x00\n        /* \"CommitReveal.sol\":348:396  commits[msg.sender].block = uint64(block.number) */\n      0x0100\n      exp\n      dup2\n      sload\n      dup2\n      0xffffffffffffffff\n      mul\n      not\n      and\n      swap1\n      dup4\n      0xffffffffffffffff\n      and\n      mul\n      or\n      swap1\n      sstore\n      pop\n        /* \"CommitReveal.sol\":433:438  false */\n      0x00\n        /* \"CommitReveal.sol\":402:409  commits */\n      0x01\n        /* \"CommitReveal.sol\":402:421  commits[msg.sender] */\n      0x00\n        /* \"CommitReveal.sol\":410:420  msg.sender */\n      caller\n        /* \"CommitReveal.sol\":402:421  commits[msg.sender] */\n      0xffffffffffffffffffffffffffffffffffffffff\n      and\n      0xffffffffffffffffffffffffffffffffffffffff\n      and\n      dup2\n      mstore\n      0x20\n      add\n      swap1\n      dup2\n      mstore\n      0x20\n      add\n      0x00\n      keccak256\n        /* \"CommitReveal.sol\":402:430  commits[msg.sender].revealed */\n      0x01\n      add\n      0x08\n        /* \"CommitReveal.sol\":402:438  commits[msg.sender].revealed = false */\n      0x0100\n      exp\n      dup2\n      sload\n      dup2\n      0xff\n      mul\n      not\n      and\n      swap1\n      dup4\n      iszero\n      iszero\n      mul\n      or\n      swap1\n      sstore\n      pop\n        /* \"CommitReveal.sol\":449:524  CommitHash(msg.sender,commits[msg.sender].commit,commits[msg.sender].block) */\n      0x3c1a1f8f38335b17f751c6da4ba7d1865f26b3997535176f5080de9fad891603\n        /* \"CommitReveal.sol\":460:470  msg.sender */\n      caller\n        /* \"CommitReveal.sol\":471:478  commits */\n      0x01\n        /* \"CommitReveal.sol\":471:490  commits[msg.sender] */\n      0x00\n        /* \"CommitReveal.sol\":479:489  msg.sender */\n      caller\n        /* \"CommitReveal.sol\":471:490  commits[msg.sender] */\n      0xffffffffffffffffffffffffffffffffffffffff\n      and\n      0xffffffffffffffffffffffffffffffffffffffff\n      and\n      dup2\n      mstore\n      0x20\n      add\n      swap1\n      dup2\n      mstore\n      0x20\n      add\n      0x00\n      keccak256\n        /* \"CommitReveal.sol\":471:497  commits[msg.sender].commit */\n      0x00\n      add\n      sload\n        /* \"CommitReveal.sol\":498:505  commits */\n      0x01\n        /* \"CommitReveal.sol\":498:517  commits[msg.sender] */\n      0x00\n        /* \"CommitReveal.sol\":506:516  msg.sender */\n      caller\n        /* \"CommitReveal.sol\":498:517  commits[msg.sender] */\n      0xffffffffffffffffffffffffffffffffffffffff\n      and\n      0xffffffffffffffffffffffffffffffffffffffff\n      and\n      dup2\n      mstore\n      0x20\n      add\n      swap1\n      dup2\n      mstore\n      0x20\n      add\n      0x00\n      keccak256\n        /* \"CommitReveal.sol\":498:523  commits[msg.sender].block */\n      0x01\n      add\n      0x00\n      swap1\n      sload\n      swap1\n      0x0100\n      exp\n      swap1\n      div\n      0xffffffffffffffff\n      and\n        /* \"CommitReveal.sol\":449:524  CommitHash(msg.sender,commits[msg.sender].commit,commits[msg.sender].block) */\n      mload(0x40)\n      tag_129\n      swap4\n      swap3\n      swap2\n      swap1\n      tag_130\n      jump\t// in\n    tag_129:\n      mload(0x40)\n      dup1\n      swap2\n      sub\n      swap1\n      log1\n        /* \"CommitReveal.sol\":255:529  function commit(bytes32 dataHash) internal  {... */\n      pop\n      jump\t// out\n        /* \"#utility.yul\":7:84   */\n    tag_131:\n        /* \"#utility.yul\":44:51   */\n      0x00\n        /* \"#utility.yul\":73:78   */\n      dup2\n        /* \"#utility.yul\":62:78   */\n      swap1\n      pop\n        /* \"#utility.yul\":7:84   */\n      swap2\n      swap1\n      pop\n      jump\t// out\n        /* \"#utility.yul\":90:208   */\n    tag_132:\n        /* \"#utility.yul\":177:201   */\n      tag_167\n        /* \"#utility.yul\":195:200   */\n      dup2\n        /* \"#utility.yul\":177:201   */\n      tag_131\n      jump\t// in\n    tag_167:\n        /* \"#utility.yul\":172:175   */\n      dup3\n        /* \"#utility.yul\":165:202   */\n      mstore\n        /* \"#utility.yul\":90:208   */\n      pop\n      pop\n      jump\t// out\n        /* \"#utility.yul\":214:436   */\n    tag_17:\n        /* \"#utility.yul\":307:311   */\n      0x00\n        /* \"#utility.yul\":345:347   */\n      0x20\n        /* \"#utility.yul\":334:343   */\n      dup3\n        /* \"#utility.yul\":330:348   */\n      add\n        /* \"#utility.yul\":322:348   */\n      swap1\n      pop\n        /* \"#utility.yul\":358:429   */\n      tag_169\n        /* \"#utility.yul\":426:427   */\n      0x00\n        /* \"#utility.yul\":415:424   */\n      dup4\n        /* \"#utility.yul\":411:428   */\n      add\n        /* \"#utility.yul\":402:408   */\n      dup5\n        /* \"#utility.yul\":358:429   */\n      tag_132\n      jump\t// in\n    tag_169:\n        /* \"#utility.yul\":214:436   */\n      swap3\n      swap2\n      pop\n      pop\n      jump\t// out\n        /* \"#utility.yul\":523:640   */\n    tag_134:\n        /* \"#utility.yul\":632:633   */\n      0x00\n        /* \"#utility.yul\":629:630   */\n      dup1\n        /* \"#utility.yul\":622:634   */\n      revert\n        /* \"#utility.yul\":769:891   */\n    tag_136:\n        /* \"#utility.yul\":842:866   */\n      tag_174\n        /* \"#utility.yul\":860:865   */\n      dup2\n        /* \"#utility.yul\":842:866   */\n      tag_131\n      jump\t// in\n    tag_174:\n        /* \"#utility.yul\":835:840   */\n      dup2\n        /* \"#utility.yul\":832:867   */\n      eq\n        /* \"#utility.yul\":822:885   */\n      tag_175\n      jumpi\n        /* \"#utility.yul\":881:882   */\n      0x00\n        /* \"#utility.yul\":878:879   */\n      dup1\n        /* \"#utility.yul\":871:883   */\n      revert\n        /* \"#utility.yul\":822:885   */\n    tag_175:\n        /* \"#utility.yul\":769:891   */\n      pop\n      jump\t// out\n        /* \"#utility.yul\":897:1036   */\n    tag_137:\n        /* \"#utility.yul\":943:948   */\n      0x00\n        /* \"#utility.yul\":981:987   */\n      dup2\n        /* \"#utility.yul\":968:988   */\n      calldataload\n        /* \"#utility.yul\":959:988   */\n      swap1\n      pop\n        /* \"#utility.yul\":997:1030   */\n      tag_177\n        /* \"#utility.yul\":1024:1029   */\n      dup2\n        /* \"#utility.yul\":997:1030   */\n      tag_136\n      jump\t// in\n    tag_177:\n        /* \"#utility.yul\":897:1036   */\n      swap3\n      swap2\n      pop\n      pop\n      jump\t// out\n        /* \"#utility.yul\":1042:1516   */\n    tag_27:\n        /* \"#utility.yul\":1110:1116   */\n      0x00\n        /* \"#utility.yul\":1118:1124   */\n      dup1\n        /* \"#utility.yul\":1167:1169   */\n      0x40\n        /* \"#utility.yul\":1155:1164   */\n      dup4\n        /* \"#utility.yul\":1146:1153   */\n      dup6\n        /* \"#utility.yul\":1142:1165   */\n      sub\n        /* \"#utility.yul\":1138:1170   */\n      slt\n        /* \"#utility.yul\":1135:1254   */\n      iszero\n      tag_179\n      jumpi\n        /* \"#utility.yul\":1173:1252   */\n      tag_180\n      tag_134\n      jump\t// in\n    tag_180:\n        /* \"#utility.yul\":1135:1254   */\n    tag_179:\n        /* \"#utility.yul\":1293:1294   */\n      0x00\n        /* \"#utility.yul\":1318:1371   */\n      tag_181\n        /* \"#utility.yul\":1363:1370   */\n      dup6\n        /* \"#utility.yul\":1354:1360   */\n      dup3\n        /* \"#utility.yul\":1343:1352   */\n      dup7\n        /* \"#utility.yul\":1339:1361   */\n      add\n        /* \"#utility.yul\":1318:1371   */\n      tag_137\n      jump\t// in\n    tag_181:\n        /* \"#utility.yul\":1308:1371   */\n      swap3\n      pop\n        /* \"#utility.yul\":1264:1381   */\n      pop\n        /* \"#utility.yul\":1420:1422   */\n      0x20\n        /* \"#utility.yul\":1446:1499   */\n      tag_182\n        /* \"#utility.yul\":1491:1498   */\n      dup6\n        /* \"#utility.yul\":1482:1488   */\n      dup3\n        /* \"#utility.yul\":1471:1480   */\n      dup7\n        /* \"#utility.yul\":1467:1489   */\n      add\n        /* \"#utility.yul\":1446:1499   */\n      tag_137\n      jump\t// in\n    tag_182:\n        /* \"#utility.yul\":1436:1499   */\n      swap2\n      pop\n        /* \"#utility.yul\":1391:1509   */\n      pop\n        /* \"#utility.yul\":1042:1516   */\n      swap3\n      pop\n      swap3\n      swap1\n      pop\n      jump\t// out\n        /* \"#utility.yul\":1522:1599   */\n    tag_138:\n        /* \"#utility.yul\":1559:1566   */\n      0x00\n        /* \"#utility.yul\":1588:1593   */\n      dup2\n        /* \"#utility.yul\":1577:1593   */\n      swap1\n      pop\n        /* \"#utility.yul\":1522:1599   */\n      swap2\n      swap1\n      pop\n      jump\t// out\n        /* \"#utility.yul\":1605:1723   */\n    tag_139:\n        /* \"#utility.yul\":1692:1716   */\n      tag_185\n        /* \"#utility.yul\":1710:1715   */\n      dup2\n        /* \"#utility.yul\":1692:1716   */\n      tag_138\n      jump\t// in\n    tag_185:\n        /* \"#utility.yul\":1687:1690   */\n      dup3\n        /* \"#utility.yul\":1680:1717   */\n      mstore\n        /* \"#utility.yul\":1605:1723   */\n      pop\n      pop\n      jump\t// out\n        /* \"#utility.yul\":1729:1951   */\n    tag_30:\n        /* \"#utility.yul\":1822:1826   */\n      0x00\n        /* \"#utility.yul\":1860:1862   */\n      0x20\n        /* \"#utility.yul\":1849:1858   */\n      dup3\n        /* \"#utility.yul\":1845:1863   */\n      add\n        /* \"#utility.yul\":1837:1863   */\n      swap1\n      pop\n        /* \"#utility.yul\":1873:1944   */\n      tag_187\n        /* \"#utility.yul\":1941:1942   */\n      0x00\n        /* \"#utility.yul\":1930:1939   */\n      dup4\n        /* \"#utility.yul\":1926:1943   */\n      add\n        /* \"#utility.yul\":1917:1923   */\n      dup5\n        /* \"#utility.yul\":1873:1944   */\n      tag_139\n      jump\t// in\n    tag_187:\n        /* \"#utility.yul\":1729:1951   */\n      swap3\n      swap2\n      pop\n      pop\n      jump\t// out\n        /* \"#utility.yul\":1957:2083   */\n    tag_140:\n        /* \"#utility.yul\":1994:2001   */\n      0x00\n        /* \"#utility.yul\":2034:2076   */\n      0xffffffffffffffffffffffffffffffffffffffff\n        /* \"#utility.yul\":2027:2032   */\n      dup3\n        /* \"#utility.yul\":2023:2077   */\n      and\n        /* \"#utility.yul\":2012:2077   */\n      swap1\n      pop\n        /* \"#utility.yul\":1957:2083   */\n      swap2\n      swap1\n      pop\n      jump\t// out\n        /* \"#utility.yul\":2089:2185   */\n    tag_141:\n        /* \"#utility.yul\":2126:2133   */\n      0x00\n        /* \"#utility.yul\":2155:2179   */\n      tag_190\n        /* \"#utility.yul\":2173:2178   */\n      dup3\n        /* \"#utility.yul\":2155:2179   */\n      tag_140\n      jump\t// in\n    tag_190:\n        /* \"#utility.yul\":2144:2179   */\n      swap1\n      pop\n        /* \"#utility.yul\":2089:2185   */\n      swap2\n      swap1\n      pop\n      jump\t// out\n        /* \"#utility.yul\":2191:2313   */\n    tag_142:\n        /* \"#utility.yul\":2264:2288   */\n      tag_192\n        /* \"#utility.yul\":2282:2287   */\n      dup2\n        /* \"#utility.yul\":2264:2288   */\n      tag_141\n      jump\t// in\n    tag_192:\n        /* \"#utility.yul\":2257:2262   */\n      dup2\n        /* \"#utility.yul\":2254:2289   */\n      eq\n        /* \"#utility.yul\":2244:2307   */\n      tag_193\n      jumpi\n        /* \"#utility.yul\":2303:2304   */\n      0x00\n        /* \"#utility.yul\":2300:2301   */\n      dup1\n        /* \"#utility.yul\":2293:2305   */\n      revert\n        /* \"#utility.yul\":2244:2307   */\n    tag_193:\n        /* \"#utility.yul\":2191:2313   */\n      pop\n      jump\t// out\n        /* \"#utility.yul\":2319:2458   */\n    tag_143:\n        /* \"#utility.yul\":2365:2370   */\n      0x00\n        /* \"#utility.yul\":2403:2409   */\n      dup2\n        /* \"#utility.yul\":2390:2410   */\n      calldataload\n        /* \"#utility.yul\":2381:2410   */\n      swap1\n      pop\n        /* \"#utility.yul\":2419:2452   */\n      tag_195\n        /* \"#utility.yul\":2446:2451   */\n      dup2\n        /* \"#utility.yul\":2419:2452   */\n      tag_142\n      jump\t// in\n    tag_195:\n        /* \"#utility.yul\":2319:2458   */\n      swap3\n      swap2\n      pop\n      pop\n      jump\t// out\n        /* \"#utility.yul\":2464:2793   */\n    tag_34:\n        /* \"#utility.yul\":2523:2529   */\n      0x00\n        /* \"#utility.yul\":2572:2574   */\n      0x20\n        /* \"#utility.yul\":2560:2569   */\n      dup3\n        /* \"#utility.yul\":2551:2558   */\n      dup5\n        /* \"#utility.yul\":2547:2570   */\n      sub\n        /* \"#utility.yul\":2543:2575   */\n      slt\n        /* \"#utility.yul\":2540:2659   */\n      iszero\n      tag_197\n      jumpi\n        /* \"#utility.yul\":2578:2657   */\n      tag_198\n      tag_134\n      jump\t// in\n    tag_198:\n        /* \"#utility.yul\":2540:2659   */\n    tag_197:\n        /* \"#utility.yul\":2698:2699   */\n      0x00\n        /* \"#utility.yul\":2723:2776   */\n      tag_199\n        /* \"#utility.yul\":2768:2775   */\n      dup5\n        /* \"#utility.yul\":2759:2765   */\n      dup3\n        /* \"#utility.yul\":2748:2757   */\n      dup6\n        /* \"#utility.yul\":2744:2766   */\n      add\n        /* \"#utility.yul\":2723:2776   */\n      tag_143\n      jump\t// in\n    tag_199:\n        /* \"#utility.yul\":2713:2776   */\n      swap2\n      pop\n        /* \"#utility.yul\":2669:2786   */\n      pop\n        /* \"#utility.yul\":2464:2793   */\n      swap3\n      swap2\n      pop\n      pop\n      jump\t// out\n        /* \"#utility.yul\":2799:3128   */\n    tag_44:\n        /* \"#utility.yul\":2858:2864   */\n      0x00\n        /* \"#utility.yul\":2907:2909   */\n      0x20\n        /* \"#utility.yul\":2895:2904   */\n      dup3\n        /* \"#utility.yul\":2886:2893   */\n      dup5\n        /* \"#utility.yul\":2882:2905   */\n      sub\n        /* \"#utility.yul\":2878:2910   */\n      slt\n        /* \"#utility.yul\":2875:2994   */\n      iszero\n      tag_201\n      jumpi\n        /* \"#utility.yul\":2913:2992   */\n      tag_202\n      tag_134\n      jump\t// in\n    tag_202:\n        /* \"#utility.yul\":2875:2994   */\n    tag_201:\n        /* \"#utility.yul\":3033:3034   */\n      0x00\n        /* \"#utility.yul\":3058:3111   */\n      tag_203\n        /* \"#utility.yul\":3103:3110   */\n      dup5\n        /* \"#utility.yul\":3094:3100   */\n      dup3\n        /* \"#utility.yul\":3083:3092   */\n      dup6\n        /* \"#utility.yul\":3079:3101   */\n      add\n        /* \"#utility.yul\":3058:3111   */\n      tag_137\n      jump\t// in\n    tag_203:\n        /* \"#utility.yul\":3048:3111   */\n      swap2\n      pop\n        /* \"#utility.yul\":3004:3121   */\n      pop\n        /* \"#utility.yul\":2799:3128   */\n      swap3\n      swap2\n      pop\n      pop\n      jump\t// out\n        /* \"#utility.yul\":3134:3252   */\n    tag_144:\n        /* \"#utility.yul\":3221:3245   */\n      tag_205\n        /* \"#utility.yul\":3239:3244   */\n      dup2\n        /* \"#utility.yul\":3221:3245   */\n      tag_141\n      jump\t// in\n    tag_205:\n        /* \"#utility.yul\":3216:3219   */\n      dup3\n        /* \"#utility.yul\":3209:3246   */\n      mstore\n        /* \"#utility.yul\":3134:3252   */\n      pop\n      pop\n      jump\t// out\n        /* \"#utility.yul\":3258:3590   */\n    tag_47:\n        /* \"#utility.yul\":3379:3383   */\n      0x00\n        /* \"#utility.yul\":3417:3419   */\n      0x40\n        /* \"#utility.yul\":3406:3415   */\n      dup3\n        /* \"#utility.yul\":3402:3420   */\n      add\n        /* \"#utility.yul\":3394:3420   */\n      swap1\n      pop\n        /* \"#utility.yul\":3430:3501   */\n      tag_207\n        /* \"#utility.yul\":3498:3499   */\n      0x00\n        /* \"#utility.yul\":3487:3496   */\n      dup4\n        /* \"#utility.yul\":3483:3500   */\n      add\n        /* \"#utility.yul\":3474:3480   */\n      dup6\n        /* \"#utility.yul\":3430:3501   */\n      tag_132\n      jump\t// in\n    tag_207:\n        /* \"#utility.yul\":3511:3583   */\n      tag_208\n        /* \"#utility.yul\":3579:3581   */\n      0x20\n        /* \"#utility.yul\":3568:3577   */\n      dup4\n        /* \"#utility.yul\":3564:3582   */\n      add\n        /* \"#utility.yul\":3555:3561   */\n      dup5\n        /* \"#utility.yul\":3511:3583   */\n      tag_144\n      jump\t// in\n    tag_208:\n        /* \"#utility.yul\":3258:3590   */\n      swap4\n      swap3\n      pop\n      pop\n      pop\n      jump\t// out\n        /* \"#utility.yul\":3596:3718   */\n    tag_145:\n        /* \"#utility.yul\":3669:3693   */\n      tag_210\n        /* \"#utility.yul\":3687:3692   */\n      dup2\n        /* \"#utility.yul\":3669:3693   */\n      tag_138\n      jump\t// in\n    tag_210:\n        /* \"#utility.yul\":3662:3667   */\n      dup2\n        /* \"#utility.yul\":3659:3694   */\n      eq\n        /* \"#utility.yul\":3649:3712   */\n      tag_211\n      jumpi\n        /* \"#utility.yul\":3708:3709   */\n      0x00\n        /* \"#utility.yul\":3705:3706   */\n      dup1\n        /* \"#utility.yul\":3698:3710   */\n      revert\n        /* \"#utility.yul\":3649:3712   */\n    tag_211:\n        /* \"#utility.yul\":3596:3718   */\n      pop\n      jump\t// out\n        /* \"#utility.yul\":3724:3863   */\n    tag_146:\n        /* \"#utility.yul\":3770:3775   */\n      0x00\n        /* \"#utility.yul\":3808:3814   */\n      dup2\n        /* \"#utility.yul\":3795:3815   */\n      calldataload\n        /* \"#utility.yul\":3786:3815   */\n      swap1\n      pop\n        /* \"#utility.yul\":3824:3857   */\n      tag_213\n        /* \"#utility.yul\":3851:3856   */\n      dup2\n        /* \"#utility.yul\":3824:3857   */\n      tag_145\n      jump\t// in\n    tag_213:\n        /* \"#utility.yul\":3724:3863   */\n      swap3\n      swap2\n      pop\n      pop\n      jump\t// out\n        /* \"#utility.yul\":3869:4198   */\n    tag_59:\n        /* \"#utility.yul\":3928:3934   */\n      0x00\n        /* \"#utility.yul\":3977:3979   */\n      0x20\n        /* \"#utility.yul\":3965:3974   */\n      dup3\n        /* \"#utility.yul\":3956:3963   */\n      dup5\n        /* \"#utility.yul\":3952:3975   */\n      sub\n        /* \"#utility.yul\":3948:3980   */\n      slt\n        /* \"#utility.yul\":3945:4064   */\n      iszero\n      tag_215\n      jumpi\n        /* \"#utility.yul\":3983:4062   */\n      tag_216\n      tag_134\n      jump\t// in\n    tag_216:\n        /* \"#utility.yul\":3945:4064   */\n    tag_215:\n        /* \"#utility.yul\":4103:4104   */\n      0x00\n        /* \"#utility.yul\":4128:4181   */\n      tag_217\n        /* \"#utility.yul\":4173:4180   */\n      dup5\n        /* \"#utility.yul\":4164:4170   */\n      dup3\n        /* \"#utility.yul\":4153:4162   */\n      dup6\n        /* \"#utility.yul\":4149:4171   */\n      add\n        /* \"#utility.yul\":4128:4181   */\n      tag_146\n      jump\t// in\n    tag_217:\n        /* \"#utility.yul\":4118:4181   */\n      swap2\n      pop\n        /* \"#utility.yul\":4074:4191   */\n      pop\n        /* \"#utility.yul\":3869:4198   */\n      swap3\n      swap2\n      pop\n      pop\n      jump\t// out\n        /* \"#utility.yul\":4204:4384   */\n    tag_147:\n        /* \"#utility.yul\":4252:4329   */\n      0x4e487b7100000000000000000000000000000000000000000000000000000000\n        /* \"#utility.yul\":4249:4250   */\n      0x00\n        /* \"#utility.yul\":4242:4330   */\n      mstore\n        /* \"#utility.yul\":4349:4353   */\n      0x11\n        /* \"#utility.yul\":4346:4347   */\n      0x04\n        /* \"#utility.yul\":4339:4354   */\n      mstore\n        /* \"#utility.yul\":4373:4377   */\n      0x24\n        /* \"#utility.yul\":4370:4371   */\n      0x00\n        /* \"#utility.yul\":4363:4378   */\n      revert\n        /* \"#utility.yul\":4390:4581   */\n    tag_65:\n        /* \"#utility.yul\":4430:4433   */\n      0x00\n        /* \"#utility.yul\":4449:4469   */\n      tag_220\n        /* \"#utility.yul\":4467:4468   */\n      dup3\n        /* \"#utility.yul\":4449:4469   */\n      tag_131\n      jump\t// in\n    tag_220:\n        /* \"#utility.yul\":4444:4469   */\n      swap2\n      pop\n        /* \"#utility.yul\":4483:4503   */\n      tag_221\n        /* \"#utility.yul\":4501:4502   */\n      dup4\n        /* \"#utility.yul\":4483:4503   */\n      tag_131\n      jump\t// in\n    tag_221:\n        /* \"#utility.yul\":4478:4503   */\n      swap3\n      pop\n        /* \"#utility.yul\":4526:4527   */\n      dup3\n        /* \"#utility.yul\":4523:4524   */\n      dup3\n        /* \"#utility.yul\":4519:4528   */\n      add\n        /* \"#utility.yul\":4512:4528   */\n      swap1\n      pop\n        /* \"#utility.yul\":4547:4550   */\n      dup1\n        /* \"#utility.yul\":4544:4545   */\n      dup3\n        /* \"#utility.yul\":4541:4551   */\n      gt\n        /* \"#utility.yul\":4538:4574   */\n      iszero\n      tag_222\n      jumpi\n        /* \"#utility.yul\":4554:4572   */\n      tag_223\n      tag_147\n      jump\t// in\n    tag_223:\n        /* \"#utility.yul\":4538:4574   */\n    tag_222:\n        /* \"#utility.yul\":4390:4581   */\n      swap3\n      swap2\n      pop\n      pop\n      jump\t// out\n        /* \"#utility.yul\":4587:4820   */\n    tag_67:\n        /* \"#utility.yul\":4626:4629   */\n      0x00\n        /* \"#utility.yul\":4649:4673   */\n      tag_225\n        /* \"#utility.yul\":4667:4672   */\n      dup3\n        /* \"#utility.yul\":4649:4673   */\n      tag_131\n      jump\t// in\n    tag_225:\n        /* \"#utility.yul\":4640:4673   */\n      swap2\n      pop\n        /* \"#utility.yul\":4695:4761   */\n      0xffffffffffffffffffffffffffffffffffffffffffffffffffffffffffffffff\n        /* \"#utility.yul\":4688:4693   */\n      dup3\n        /* \"#utility.yul\":4685:4762   */\n      sub\n        /* \"#utility.yul\":4682:4785   */\n      tag_226\n      jumpi\n        /* \"#utility.yul\":4765:4783   */\n      tag_227\n      tag_147\n      jump\t// in\n    tag_227:\n        /* \"#utility.yul\":4682:4785   */\n    tag_226:\n        /* \"#utility.yul\":4812:4813   */\n      0x01\n        /* \"#utility.yul\":4805:4810   */\n      dup3\n        /* \"#utility.yul\":4801:4814   */\n      add\n        /* \"#utility.yul\":4794:4814   */\n      swap1\n      pop\n        /* \"#utility.yul\":4587:4820   */\n      swap2\n      swap1\n      pop\n      jump\t// out\n        /* \"#utility.yul\":4826:4995   */\n    tag_148:\n        /* \"#utility.yul\":4910:4921   */\n      0x00\n        /* \"#utility.yul\":4944:4950   */\n      dup3\n        /* \"#utility.yul\":4939:4942   */\n      dup3\n        /* \"#utility.yul\":4932:4951   */\n      mstore\n        /* \"#utility.yul\":4984:4988   */\n      0x20\n        /* \"#utility.yul\":4979:4982   */\n      dup3\n        /* \"#utility.yul\":4975:4989   */\n      add\n        /* \"#utility.yul\":4960:4989   */\n      swap1\n      pop\n        /* \"#utility.yul\":4826:4995   */\n      swap3\n      swap2\n      pop\n      pop\n      jump\t// out\n        /* \"#utility.yul\":5001:5165   */\n    tag_149:\n        /* \"#utility.yul\":5141:5157   */\n      0x696e76616c69642063686f696365000000000000000000000000000000000000\n        /* \"#utility.yul\":5137:5138   */\n      0x00\n        /* \"#utility.yul\":5129:5135   */\n      dup3\n        /* \"#utility.yul\":5125:5139   */\n      add\n        /* \"#utility.yul\":5118:5158   */\n      mstore\n        /* \"#utility.yul\":5001:5165   */\n      pop\n      jump\t// out\n        /* \"#utility.yul\":5171:5537   */\n    tag_150:\n        /* \"#utility.yul\":5313:5316   */\n      0x00\n        /* \"#utility.yul\":5334:5401   */\n      tag_231\n        /* \"#utility.yul\":5398:5400   */\n      0x0e\n        /* \"#utility.yul\":5393:5396   */\n      dup4\n        /* \"#utility.yul\":5334:5401   */\n      tag_148\n      jump\t// in\n    tag_231:\n        /* \"#utility.yul\":5327:5401   */\n      swap2\n      pop\n        /* \"#utility.yul\":5410:5503   */\n      tag_232\n        /* \"#utility.yul\":5499:5502   */\n      dup3\n        /* \"#utility.yul\":5410:5503   */\n      tag_149\n      jump\t// in\n    tag_232:\n        /* \"#utility.yul\":5528:5530   */\n      0x20\n        /* \"#utility.yul\":5523:5526   */\n      dup3\n        /* \"#utility.yul\":5519:5531   */\n      add\n        /* \"#utility.yul\":5512:5531   */\n      swap1\n      pop\n        /* \"#utility.yul\":5171:5537   */\n      swap2\n      swap1\n      pop\n      jump\t// out\n        /* \"#utility.yul\":5543:5962   */\n    tag_73:\n        /* \"#utility.yul\":5709:5713   */\n      0x00\n        /* \"#utility.yul\":5747:5749   */\n      0x20\n        /* \"#utility.yul\":5736:5745   */\n      dup3\n        /* \"#utility.yul\":5732:5750   */\n      add\n        /* \"#utility.yul\":5724:5750   */\n      swap1\n      pop\n        /* \"#utility.yul\":5796:5805   */\n      dup2\n        /* \"#utility.yul\":5790:5794   */\n      dup2\n        /* \"#utility.yul\":5786:5806   */\n      sub\n        /* \"#utility.yul\":5782:5783   */\n      0x00\n        /* \"#utility.yul\":5771:5780   */\n      dup4\n        /* \"#utility.yul\":5767:5784   */\n      add\n        /* \"#utility.yul\":5760:5807   */\n      mstore\n        /* \"#utility.yul\":5824:5955   */\n      tag_234\n        /* \"#utility.yul\":5950:5954   */\n      dup2\n        /* \"#utility.yul\":5824:5955   */\n      tag_150\n      jump\t// in\n    tag_234:\n        /* \"#utility.yul\":5816:5955   */\n      swap1\n      pop\n        /* \"#utility.yul\":5543:5962   */\n      swap2\n      swap1\n      pop\n      jump\t// out\n        /* \"#utility.yul\":5968:6062   */\n    tag_151:\n        /* \"#utility.yul\":6001:6009   */\n      0x00\n        /* \"#utility.yul\":6049:6054   */\n      dup2\n        /* \"#utility.yul\":6045:6047   */\n      0x60\n        /* \"#utility.yul\":6041:6055   */\n      shl\n        /* \"#utility.yul\":6020:6055   */\n      swap1\n      pop\n        /* \"#utility.yul\":5968:6062   */\n      swap2\n      swap1\n      pop\n      jump\t// out\n        /* \"#utility.yul\":6068:6162   */\n    tag_152:\n        /* \"#utility.yul\":6107:6114   */\n      0x00\n        /* \"#utility.yul\":6136:6156   */\n      tag_237\n        /* \"#utility.yul\":6150:6155   */\n      dup3\n        /* \"#utility.yul\":6136:6156   */\n      tag_151\n      jump\t// in\n    tag_237:\n        /* \"#utility.yul\":6125:6156   */\n      swap1\n      pop\n        /* \"#utility.yul\":6068:6162   */\n      swap2\n      swap1\n      pop\n      jump\t// out\n        /* \"#utility.yul\":6168:6268   */\n    tag_153:\n        /* \"#utility.yul\":6207:6214   */\n      0x00\n        /* \"#utility.yul\":6236:6262   */\n      tag_239\n        /* \"#utility.yul\":6256:6261   */\n      dup3\n        /* \"#utility.yul\":6236:6262   */\n      tag_152\n      jump\t// in\n    tag_239:\n        /* \"#utility.yul\":6225:6262   */\n      swap1\n      pop\n        /* \"#utility.yul\":6168:6268   */\n      swap2\n      swap1\n      pop\n      jump\t// out\n        /* \"#utility.yul\":6274:6431   */\n    tag_154:\n        /* \"#utility.yul\":6379:6424   */\n      tag_241\n        /* \"#utility.yul\":6399:6423   */\n      tag_242\n        /* \"#utility.yul\":6417:6422   */\n      dup3\n        /* \"#utility.yul\":6399:6423   */\n      tag_141\n      jump\t// in\n    tag_242:\n        /* \"#utility.yul\":6379:6424   */\n      tag_153\n      jump\t// in\n    tag_241:\n        /* \"#utility.yul\":6374:6377   */\n      dup3\n        /* \"#utility.yul\":6367:6425   */\n      mstore\n        /* \"#utility.yul\":6274:6431   */\n      pop\n      pop\n      jump\t// out\n        /* \"#utility.yul\":6437:6516   */\n    tag_155:\n        /* \"#utility.yul\":6476:6483   */\n      0x00\n        /* \"#utility.yul\":6505:6510   */\n      dup2\n        /* \"#utility.yul\":6494:6510   */\n      swap1\n      pop\n        /* \"#utility.yul\":6437:6516   */\n      swap2\n      swap1\n      pop\n      jump\t// out\n        /* \"#utility.yul\":6522:6679   */\n    tag_156:\n        /* \"#utility.yul\":6627:6672   */\n      tag_245\n        /* \"#utility.yul\":6647:6671   */\n      tag_246\n        /* \"#utility.yul\":6665:6670   */\n      dup3\n        /* \"#utility.yul\":6647:6671   */\n      tag_138\n      jump\t// in\n    tag_246:\n        /* \"#utility.yul\":6627:6672   */\n      tag_155\n      jump\t// in\n    tag_245:\n        /* \"#utility.yul\":6622:6625   */\n      dup3\n        /* \"#utility.yul\":6615:6673   */\n      mstore\n        /* \"#utility.yul\":6522:6679   */\n      pop\n      pop\n      jump\t// out\n        /* \"#utility.yul\":6685:7223   */\n    tag_96:\n        /* \"#utility.yul\":6853:6856   */\n      0x00\n        /* \"#utility.yul\":6868:6943   */\n      tag_248\n        /* \"#utility.yul\":6939:6942   */\n      dup3\n        /* \"#utility.yul\":6930:6936   */\n      dup7\n        /* \"#utility.yul\":6868:6943   */\n      tag_154\n      jump\t// in\n    tag_248:\n        /* \"#utility.yul\":6968:6970   */\n      0x14\n        /* \"#utility.yul\":6963:6966   */\n      dup3\n        /* \"#utility.yul\":6959:6971   */\n      add\n        /* \"#utility.yul\":6952:6971   */\n      swap2\n      pop\n        /* \"#utility.yul\":6981:7056   */\n      tag_249\n        /* \"#utility.yul\":7052:7055   */\n      dup3\n        /* \"#utility.yul\":7043:7049   */\n      dup6\n        /* \"#utility.yul\":6981:7056   */\n      tag_156\n      jump\t// in\n    tag_249:\n        /* \"#utility.yul\":7081:7083   */\n      0x20\n        /* \"#utility.yul\":7076:7079   */\n      dup3\n        /* \"#utility.yul\":7072:7084   */\n      add\n        /* \"#utility.yul\":7065:7084   */\n      swap2\n      pop\n        /* \"#utility.yul\":7094:7169   */\n      tag_250\n        /* \"#utility.yul\":7165:7168   */\n      dup3\n        /* \"#utility.yul\":7156:7162   */\n      dup5\n        /* \"#utility.yul\":7094:7169   */\n      tag_156\n      jump\t// in\n    tag_250:\n        /* \"#utility.yul\":7194:7196   */\n      0x20\n        /* \"#utility.yul\":7189:7192   */\n      dup3\n        /* \"#utility.yul\":7185:7197   */\n      add\n        /* \"#utility.yul\":7178:7197   */\n      swap2\n      pop\n        /* \"#utility.yul\":7214:7217   */\n      dup2\n        /* \"#utility.yul\":7207:7217   */\n      swap1\n      pop\n        /* \"#utility.yul\":6685:7223   */\n      swap5\n      swap4\n      pop\n      pop\n      pop\n      pop\n      jump\t// out\n        /* \"#utility.yul\":7229:7460   */\n    tag_157:\n        /* \"#utility.yul\":7369:7403   */\n      0x436f6d6d697452657665616c3a3a72657665616c416e737765723a20416c7265\n        /* \"#utility.yul\":7365:7366   */\n      0x00\n        /* \"#utility.yul\":7357:7363   */\n      dup3\n        /* \"#utility.yul\":7353:7367   */\n      add\n        /* \"#utility.yul\":7346:7404   */\n      mstore\n        /* \"#utility.yul\":7438:7452   */\n      0x6164792072657665616c65640000000000000000000000000000000000000000\n        /* \"#utility.yul\":7433:7435   */\n      0x20\n        /* \"#utility.yul\":7425:7431   */\n      dup3\n        /* \"#utility.yul\":7421:7436   */\n      add\n        /* \"#utility.yul\":7414:7453   */\n      mstore\n        /* \"#utility.yul\":7229:7460   */\n      pop\n      jump\t// out\n        /* \"#utility.yul\":7466:7832   */\n    tag_158:\n        /* \"#utility.yul\":7608:7611   */\n      0x00\n        /* \"#utility.yul\":7629:7696   */\n      tag_253\n        /* \"#utility.yul\":7693:7695   */\n      0x2c\n        /* \"#utility.yul\":7688:7691   */\n      dup4\n        /* \"#utility.yul\":7629:7696   */\n      tag_148\n      jump\t// in\n    tag_253:\n        /* \"#utility.yul\":7622:7696   */\n      swap2\n      pop\n        /* \"#utility.yul\":7705:7798   */\n      tag_254\n        /* \"#utility.yul\":7794:7797   */\n      dup3\n        /* \"#utility.yul\":7705:7798   */\n      tag_157\n      jump\t// in\n    tag_254:\n        /* \"#utility.yul\":7823:7825   */\n      0x40\n        /* \"#utility.yul\":7818:7821   */\n      dup3\n        /* \"#utility.yul\":7814:7826   */\n      add\n        /* \"#utility.yul\":7807:7826   */\n      swap1\n      pop\n        /* \"#utility.yul\":7466:7832   */\n      swap2\n      swap1\n      pop\n      jump\t// out\n        /* \"#utility.yul\":7838:8257   */\n    tag_100:\n        /* \"#utility.yul\":8004:8008   */\n      0x00\n        /* \"#utility.yul\":8042:8044   */\n      0x20\n        /* \"#utility.yul\":8031:8040   */\n      dup3\n        /* \"#utility.yul\":8027:8045   */\n      add\n        /* \"#utility.yul\":8019:8045   */\n      swap1\n      pop\n        /* \"#utility.yul\":8091:8100   */\n      dup2\n        /* \"#utility.yul\":8085:8089   */\n      dup2\n        /* \"#utility.yul\":8081:8101   */\n      sub\n        /* \"#utility.yul\":8077:8078   */\n      0x00\n        /* \"#utility.yul\":8066:8075   */\n      dup4\n        /* \"#utility.yul\":8062:8079   */\n      add\n        /* \"#utility.yul\":8055:8102   */\n      mstore\n        /* \"#utility.yul\":8119:8250   */\n      tag_256\n        /* \"#utility.yul\":8245:8249   */\n      dup2\n        /* \"#utility.yul\":8119:8250   */\n      tag_158\n      jump\t// in\n    tag_256:\n        /* \"#utility.yul\":8111:8250   */\n      swap1\n      pop\n        /* \"#utility.yul\":7838:8257   */\n      swap2\n      swap1\n      pop\n      jump\t// out\n        /* \"#utility.yul\":8263:8513   */\n    tag_159:\n        /* \"#utility.yul\":8403:8437   */\n      0x436f6d6d697452657665616c3a3a72657665616c416e737765723a2052657665\n        /* \"#utility.yul\":8399:8400   */\n      0x00\n        /* \"#utility.yul\":8391:8397   */\n      dup3\n        /* \"#utility.yul\":8387:8401   */\n      add\n        /* \"#utility.yul\":8380:8438   */\n      mstore\n        /* \"#utility.yul\":8472:8505   */\n      0x616c6564206861736820646f6573206e6f74206d6174636820636f6d6d697400\n        /* \"#utility.yul\":8467:8469   */\n      0x20\n        /* \"#utility.yul\":8459:8465   */\n      dup3\n        /* \"#utility.yul\":8455:8470   */\n      add\n        /* \"#utility.yul\":8448:8506   */\n      mstore\n        /* \"#utility.yul\":8263:8513   */\n      pop\n      jump\t// out\n        /* \"#utility.yul\":8519:8885   */\n    tag_160:\n        /* \"#utility.yul\":8661:8664   */\n      0x00\n        /* \"#utility.yul\":8682:8749   */\n      tag_259\n        /* \"#utility.yul\":8746:8748   */\n      0x3f\n        /* \"#utility.yul\":8741:8744   */\n      dup4\n        /* \"#utility.yul\":8682:8749   */\n      tag_148\n      jump\t// in\n    tag_259:\n        /* \"#utility.yul\":8675:8749   */\n      swap2\n      pop\n        /* \"#utility.yul\":8758:8851   */\n      tag_260\n        /* \"#utility.yul\":8847:8850   */\n      dup3\n        /* \"#utility.yul\":8758:8851   */\n      tag_159\n      jump\t// in\n    tag_260:\n        /* \"#utility.yul\":8876:8878   */\n      0x40\n        /* \"#utility.yul\":8871:8874   */\n      dup3\n        /* \"#utility.yul\":8867:8879   */\n      add\n        /* \"#utility.yul\":8860:8879   */\n      swap1\n      pop\n        /* \"#utility.yul\":8519:8885   */\n      swap2\n      swap1\n      pop\n      jump\t// out\n        /* \"#utility.yul\":8891:9310   */\n    tag_104:\n        /* \"#utility.yul\":9057:9061   */\n      0x00\n        /* \"#utility.yul\":9095:9097   */\n      0x20\n        /* \"#utility.yul\":9084:9093   */\n      dup3\n        /* \"#utility.yul\":9080:9098   */\n      add\n        /* \"#utility.yul\":9072:9098   */\n      swap1\n      pop\n        /* \"#utility.yul\":9144:9153   */\n      dup2\n        /* \"#utility.yul\":9138:9142   */\n      dup2\n        /* \"#utility.yul\":9134:9154   */\n      sub\n        /* \"#utility.yul\":9130:9131   */\n      0x00\n        /* \"#utility.yul\":9119:9128   */\n      dup4\n        /* \"#utility.yul\":9115:9132   */\n      add\n        /* \"#utility.yul\":9108:9155   */\n      mstore\n        /* \"#utility.yul\":9172:9303   */\n      tag_262\n        /* \"#utility.yul\":9298:9302   */\n      dup2\n        /* \"#utility.yul\":9172:9303   */\n      tag_160\n      jump\t// in\n    tag_262:\n        /* \"#utility.yul\":9164:9303   */\n      swap1\n      pop\n        /* \"#utility.yul\":8891:9310   */\n      swap2\n      swap1\n      pop\n      jump\t// out\n        /* \"#utility.yul\":9316:9758   */\n    tag_106:\n        /* \"#utility.yul\":9465:9469   */\n      0x00\n        /* \"#utility.yul\":9503:9505   */\n      0x60\n        /* \"#utility.yul\":9492:9501   */\n      dup3\n        /* \"#utility.yul\":9488:9506   */\n      add\n        /* \"#utility.yul\":9480:9506   */\n      swap1\n      pop\n        /* \"#utility.yul\":9516:9587   */\n      tag_264\n        /* \"#utility.yul\":9584:9585   */\n      0x00\n        /* \"#utility.yul\":9573:9582   */\n      dup4\n        /* \"#utility.yul\":9569:9586   */\n      add\n        /* \"#utility.yul\":9560:9566   */\n      dup7\n        /* \"#utility.yul\":9516:9587   */\n      tag_144\n      jump\t// in\n    tag_264:\n        /* \"#utility.yul\":9597:9669   */\n      tag_265\n        /* \"#utility.yul\":9665:9667   */\n      0x20\n        /* \"#utility.yul\":9654:9663   */\n      dup4\n        /* \"#utility.yul\":9650:9668   */\n      add\n        /* \"#utility.yul\":9641:9647   */\n      dup6\n        /* \"#utility.yul\":9597:9669   */\n      tag_139\n      jump\t// in\n    tag_265:\n        /* \"#utility.yul\":9679:9751   */\n      tag_266\n        /* \"#utility.yul\":9747:9749   */\n      0x40\n        /* \"#utility.yul\":9736:9745   */\n      dup4\n        /* \"#utility.yul\":9732:9750   */\n      add\n        /* \"#utility.yul\":9723:9729   */\n      dup5\n        /* \"#utility.yul\":9679:9751   */\n      tag_139\n      jump\t// in\n    tag_266:\n        /* \"#utility.yul\":9316:9758   */\n      swap5\n      swap4\n      pop\n      pop\n      pop\n      pop\n      jump\t// out\n        /* \"#utility.yul\":9764:9944   */\n    tag_161:\n        /* \"#utility.yul\":9812:9889   */\n      0x4e487b7100000000000000000000000000000000000000000000000000000000\n        /* \"#utility.yul\":9809:9810   */\n      0x00\n        /* \"#utility.yul\":9802:9890   */\n      mstore\n        /* \"#utility.yul\":9909:9913   */\n      0x12\n        /* \"#utility.yul\":9906:9907   */\n      0x04\n        /* \"#utility.yul\":9899:9914   */\n      mstore\n        /* \"#utility.yul\":9933:9937   */\n      0x24\n        /* \"#utility.yul\":9930:9931   */\n      0x00\n        /* \"#utility.yul\":9923:9938   */\n      revert\n        /* \"#utility.yul\":9950:10126   */\n    tag_110:\n        /* \"#utility.yul\":9982:9983   */\n      0x00\n        /* \"#utility.yul\":9999:10019   */\n      tag_269\n        /* \"#utility.yul\":10017:10018   */\n      dup3\n        /* \"#utility.yul\":9999:10019   */\n      tag_131\n      jump\t// in\n    tag_269:\n        /* \"#utility.yul\":9994:10019   */\n      swap2\n      pop\n        /* \"#utility.yul\":10033:10053   */\n      tag_270\n        /* \"#utility.yul\":10051:10052   */\n      dup4\n        /* \"#utility.yul\":10033:10053   */\n      tag_131\n      jump\t// in\n    tag_270:\n        /* \"#utility.yul\":10028:10053   */\n      swap3\n      pop\n        /* \"#utility.yul\":10072:10073   */\n      dup3\n        /* \"#utility.yul\":10062:10097   */\n      tag_271\n      jumpi\n        /* \"#utility.yul\":10077:10095   */\n      tag_272\n      tag_161\n      jump\t// in\n    tag_272:\n        /* \"#utility.yul\":10062:10097   */\n    tag_271:\n        /* \"#utility.yul\":10118:10119   */\n      dup3\n        /* \"#utility.yul\":10115:10116   */\n      dup3\n        /* \"#utility.yul\":10111:10120   */\n      mod\n        /* \"#utility.yul\":10106:10120   */\n      swap1\n      pop\n        /* \"#utility.yul\":9950:10126   */\n      swap3\n      swap2\n      pop\n      pop\n      jump\t// out\n        /* \"#utility.yul\":10132:10317   */\n    tag_122:\n        /* \"#utility.yul\":10172:10173   */\n      0x00\n        /* \"#utility.yul\":10189:10209   */\n      tag_274\n        /* \"#utility.yul\":10207:10208   */\n      dup3\n        /* \"#utility.yul\":10189:10209   */\n      tag_131\n      jump\t// in\n    tag_274:\n        /* \"#utility.yul\":10184:10209   */\n      swap2\n      pop\n        /* \"#utility.yul\":10223:10243   */\n      tag_275\n        /* \"#utility.yul\":10241:10242   */\n      dup4\n        /* \"#utility.yul\":10223:10243   */\n      tag_131\n      jump\t// in\n    tag_275:\n        /* \"#utility.yul\":10218:10243   */\n      swap3\n      pop\n        /* \"#utility.yul\":10262:10263   */\n      dup3\n        /* \"#utility.yul\":10252:10287   */\n      tag_276\n      jumpi\n        /* \"#utility.yul\":10267:10285   */\n      tag_277\n      tag_161\n      jump\t// in\n    tag_277:\n        /* \"#utility.yul\":10252:10287   */\n    tag_276:\n        /* \"#utility.yul\":10309:10310   */\n      dup3\n        /* \"#utility.yul\":10306:10307   */\n      dup3\n        /* \"#utility.yul\":10302:10311   */\n      div\n        /* \"#utility.yul\":10297:10311   */\n      swap1\n      pop\n        /* \"#utility.yul\":10132:10317   */\n      swap3\n      swap2\n      pop\n      pop\n      jump\t// out\n        /* \"#utility.yul\":10323:10424   */\n    tag_162:\n        /* \"#utility.yul\":10359:10366   */\n      0x00\n        /* \"#utility.yul\":10399:10417   */\n      0xffffffffffffffff\n        /* \"#utility.yul\":10392:10397   */\n      dup3\n        /* \"#utility.yul\":10388:10418   */\n      and\n        /* \"#utility.yul\":10377:10418   */\n      swap1\n      pop\n        /* \"#utility.yul\":10323:10424   */\n      swap2\n      swap1\n      pop\n      jump\t// out\n        /* \"#utility.yul\":10430:10545   */\n    tag_163:\n        /* \"#utility.yul\":10515:10538   */\n      tag_280\n        /* \"#utility.yul\":10532:10537   */\n      dup2\n        /* \"#utility.yul\":10515:10538   */\n      tag_162\n      jump\t// in\n    tag_280:\n        /* \"#utility.yul\":10510:10513   */\n      dup3\n        /* \"#utility.yul\":10503:10539   */\n      mstore\n        /* \"#utility.yul\":10430:10545   */\n      pop\n      pop\n      jump\t// out\n        /* \"#utility.yul\":10551:10989   */\n    tag_130:\n        /* \"#utility.yul\":10698:10702   */\n      0x00\n        /* \"#utility.yul\":10736:10738   */\n      0x60\n        /* \"#utility.yul\":10725:10734   */\n      dup3\n        /* \"#utility.yul\":10721:10739   */\n      add\n        /* \"#utility.yul\":10713:10739   */\n      swap1\n      pop\n        /* \"#utility.yul\":10749:10820   */\n      tag_282\n        /* \"#utility.yul\":10817:10818   */\n      0x00\n        /* \"#utility.yul\":10806:10815   */\n      dup4\n        /* \"#utility.yul\":10802:10819   */\n      add\n        /* \"#utility.yul\":10793:10799   */\n      dup7\n        /* \"#utility.yul\":10749:10820   */\n      tag_144\n      jump\t// in\n    tag_282:\n        /* \"#utility.yul\":10830:10902   */\n      tag_283\n        /* \"#utility.yul\":10898:10900   */\n      0x20\n        /* \"#utility.yul\":10887:10896   */\n      dup4\n        /* \"#utility.yul\":10883:10901   */\n      add\n        /* \"#utility.yul\":10874:10880   */\n      dup6\n        /* \"#utility.yul\":10830:10902   */\n      tag_139\n      jump\t// in\n    tag_283:\n        /* \"#utility.yul\":10912:10982   */\n      tag_284\n        /* \"#utility.yul\":10978:10980   */\n      0x40\n        /* \"#utility.yul\":10967:10976   */\n      dup4\n        /* \"#utility.yul\":10963:10981   */\n      add\n        /* \"#utility.yul\":10954:10960   */\n      dup5\n        /* \"#utility.yul\":10912:10982   */\n      tag_163\n      jump\t// in\n    tag_284:\n        /* \"#utility.yul\":10551:10989   */\n      swap5\n      swap4\n      pop\n      pop\n      pop\n      pop\n      jump\t// out\n\n    auxdata: 0xa2646970667358221220170e5a1b114bece5c09755126e6a5a8937a3d26a0808d717b32d8df30d6fb53a64736f6c63430008180033\n}\n",
				"bytecode": {
					"linkReferences": {},
					"object": "608060405260645f806101000a81548160ff021916908360ff1602179055505f6002555f6003555f6004555f600755348015610039575f80fd5b50611204806100475f395ff3fe608060405260043610610090575f3560e01c806390d5d0c31161005857806390d5d0c31461016a5780639e0551c614610194578063b577e0bb146101d1578063c876e615146101f9578063d891f9691461022357610090565b8063086f781514610094578063228cb733146100be57806327b5db8a146100e85780637563973a146100f2578063885c7d361461012e575b5f80fd5b34801561009f575f80fd5b506100a861024b565b6040516100b59190610be8565b60405180910390f35b3480156100c9575f80fd5b506100d2610251565b6040516100df9190610be8565b60405180910390f35b6100f0610257565b005b3480156100fd575f80fd5b5061011860048036038101906101139190610c2f565b61035b565b6040516101259190610c85565b60405180910390f35b348015610139575f80fd5b50610154600480360381019061014f9190610cf8565b6103ca565b6040516101619190610be8565b60405180910390f35b348015610175575f80fd5b5061017e6103df565b60405161018b9190610be8565b60405180910390f35b34801561019f575f80fd5b506101ba60048036038101906101b59190610d23565b6103e5565b6040516101c8929190610d5d565b60405180910390f35b3480156101dc575f80fd5b506101f760048036038101906101f29190610c2f565b610424565b005b348015610204575f80fd5b5061020d61051b565b60405161021a9190610be8565b60405180910390f35b34801561022e575f80fd5b5061024960048036038101906102449190610dae565b610521565b005b60075481565b60045481565b6002805410610264575f80fd5b670de0b6b3a76400003414610277575f80fd5b3460045f8282546102889190610e06565b925050819055503360055f60025481526020019081526020015f206001015f6101000a81548173ffffffffffffffffffffffffffffffffffffffff021916908373ffffffffffffffffffffffffffffffffffffffff16021790555060025460065f3373ffffffffffffffffffffffffffffffffffffffff1673ffffffffffffffffffffffffffffffffffffffff1681526020019081526020015f2081905550600360055f60025481526020019081526020015f205f018190555060025f81548092919061035490610e39565b9190505550565b5f8083148061036a5750600183145b806103755750600283145b6103b4576040517f08c379a00000000000000000000000000000000000000000000000000000000081526004016103ab90610eda565b60405180910390fd5b6103c2835f1b835f1b6105f8565b905092915050565b6006602052805f5260405f205f915090505481565b60025481565b6005602052805f5260405f205f91509050805f015490806001015f9054906101000a900473ffffffffffffffffffffffffffffffffffffffff16905082565b600260075414610432575f80fd5b5f8214806104405750600182145b8061044b5750600282145b61048a576040517f08c379a000000000000000000000000000000000000000000000000000000000815260040161048190610eda565b60405180910390fd5b610498825f1b825f1b61062c565b8160055f60065f3373ffffffffffffffffffffffffffffffffffffffff1673ffffffffffffffffffffffffffffffffffffffff1681526020019081526020015f205481526020019081526020015f205f018190555060035f8154809291906104ff90610e39565b9190505550600260035403610517576105166107e0565b5b5050565b60035481565b600280541461052e575f80fd5b60055f60065f3373ffffffffffffffffffffffffffffffffffffffff1673ffffffffffffffffffffffffffffffffffffffff1681526020019081526020015f205481526020019081526020015f206001015f9054906101000a900473ffffffffffffffffffffffffffffffffffffffff1673ffffffffffffffffffffffffffffffffffffffff163373ffffffffffffffffffffffffffffffffffffffff16146105d5575f80fd5b6105de816109fe565b60075f8154809291906105f090610e39565b919050555050565b5f30838360405160200161060e93929190610f5d565b60405160208183030381529060405280519060200120905092915050565b5f151560015f3373ffffffffffffffffffffffffffffffffffffffff1673ffffffffffffffffffffffffffffffffffffffff1681526020019081526020015f2060010160089054906101000a900460ff161515146106bf576040517f08c379a00000000000000000000000000000000000000000000000000000000081526004016106b690611009565b60405180910390fd5b6001805f3373ffffffffffffffffffffffffffffffffffffffff1673ffffffffffffffffffffffffffffffffffffffff1681526020019081526020015f2060010160086101000a81548160ff02191690831515021790555060015f3373ffffffffffffffffffffffffffffffffffffffff1673ffffffffffffffffffffffffffffffffffffffff1681526020019081526020015f205f015461076183836105f8565b146107a1576040517f08c379a000000000000000000000000000000000000000000000000000000000815260040161079890611097565b60405180910390fd5b7f8bed02c4d61e56ed1d90657e7a0ba48f15cca20fcc2899d7235221b2cb0423a63383836040516107d4939291906110b5565b60405180910390a15050565b5f60055f8081526020019081526020015f205f015490505f60055f600181526020019081526020015f205f015490505f60055f8081526020019081526020015f206001015f9054906101000a900473ffffffffffffffffffffffffffffffffffffffff1690505f60055f600181526020019081526020015f206001015f9054906101000a900473ffffffffffffffffffffffffffffffffffffffff16905082600360018661088e9190610e06565b6108989190611117565b036108e8578073ffffffffffffffffffffffffffffffffffffffff166108fc60045490811502906040515f60405180830381858888f193505050501580156108e2573d5f803e3d5ffd5b506109f8565b8360036001856108f89190610e06565b6109029190611117565b03610952578173ffffffffffffffffffffffffffffffffffffffff166108fc60045490811502906040515f60405180830381858888f1935050505015801561094c573d5f803e3d5ffd5b506109f7565b8173ffffffffffffffffffffffffffffffffffffffff166108fc600260045461097b9190611147565b90811502906040515f60405180830381858888f193505050501580156109a3573d5f803e3d5ffd5b508073ffffffffffffffffffffffffffffffffffffffff166108fc60026004546109cd9190611147565b90811502906040515f60405180830381858888f193505050501580156109f5573d5f803e3d5ffd5b505b5b50505050565b8060015f3373ffffffffffffffffffffffffffffffffffffffff1673ffffffffffffffffffffffffffffffffffffffff1681526020019081526020015f205f01819055504360015f3373ffffffffffffffffffffffffffffffffffffffff1673ffffffffffffffffffffffffffffffffffffffff1681526020019081526020015f206001015f6101000a81548167ffffffffffffffff021916908367ffffffffffffffff1602179055505f60015f3373ffffffffffffffffffffffffffffffffffffffff1673ffffffffffffffffffffffffffffffffffffffff1681526020019081526020015f2060010160086101000a81548160ff0219169083151502179055507f3c1a1f8f38335b17f751c6da4ba7d1865f26b3997535176f5080de9fad8916033360015f3373ffffffffffffffffffffffffffffffffffffffff1673ffffffffffffffffffffffffffffffffffffffff1681526020019081526020015f205f015460015f3373ffffffffffffffffffffffffffffffffffffffff1673ffffffffffffffffffffffffffffffffffffffff1681526020019081526020015f206001015f9054906101000a900467ffffffffffffffff16604051610bc593929190611199565b60405180910390a150565b5f819050919050565b610be281610bd0565b82525050565b5f602082019050610bfb5f830184610bd9565b92915050565b5f80fd5b610c0e81610bd0565b8114610c18575f80fd5b50565b5f81359050610c2981610c05565b92915050565b5f8060408385031215610c4557610c44610c01565b5b5f610c5285828601610c1b565b9250506020610c6385828601610c1b565b9150509250929050565b5f819050919050565b610c7f81610c6d565b82525050565b5f602082019050610c985f830184610c76565b92915050565b5f73ffffffffffffffffffffffffffffffffffffffff82169050919050565b5f610cc782610c9e565b9050919050565b610cd781610cbd565b8114610ce1575f80fd5b50565b5f81359050610cf281610cce565b92915050565b5f60208284031215610d0d57610d0c610c01565b5b5f610d1a84828501610ce4565b91505092915050565b5f60208284031215610d3857610d37610c01565b5b5f610d4584828501610c1b565b91505092915050565b610d5781610cbd565b82525050565b5f604082019050610d705f830185610bd9565b610d7d6020830184610d4e565b9392505050565b610d8d81610c6d565b8114610d97575f80fd5b50565b5f81359050610da881610d84565b92915050565b5f60208284031215610dc357610dc2610c01565b5b5f610dd084828501610d9a565b91505092915050565b7f4e487b71000000000000000000000000000000000000000000000000000000005f52601160045260245ffd5b5f610e1082610bd0565b9150610e1b83610bd0565b9250828201905080821115610e3357610e32610dd9565b5b92915050565b5f610e4382610bd0565b91507fffffffffffffffffffffffffffffffffffffffffffffffffffffffffffffffff8203610e7557610e74610dd9565b5b600182019050919050565b5f82825260208201905092915050565b7f696e76616c69642063686f6963650000000000000000000000000000000000005f82015250565b5f610ec4600e83610e80565b9150610ecf82610e90565b602082019050919050565b5f6020820190508181035f830152610ef181610eb8565b9050919050565b5f8160601b9050919050565b5f610f0e82610ef8565b9050919050565b5f610f1f82610f04565b9050919050565b610f37610f3282610cbd565b610f15565b82525050565b5f819050919050565b610f57610f5282610c6d565b610f3d565b82525050565b5f610f688286610f26565b601482019150610f788285610f46565b602082019150610f888284610f46565b602082019150819050949350505050565b7f436f6d6d697452657665616c3a3a72657665616c416e737765723a20416c72655f8201527f6164792072657665616c65640000000000000000000000000000000000000000602082015250565b5f610ff3602c83610e80565b9150610ffe82610f99565b604082019050919050565b5f6020820190508181035f83015261102081610fe7565b9050919050565b7f436f6d6d697452657665616c3a3a72657665616c416e737765723a20526576655f8201527f616c6564206861736820646f6573206e6f74206d6174636820636f6d6d697400602082015250565b5f611081603f83610e80565b915061108c82611027565b604082019050919050565b5f6020820190508181035f8301526110ae81611075565b9050919050565b5f6060820190506110c85f830186610d4e565b6110d56020830185610c76565b6110e26040830184610c76565b949350505050565b7f4e487b71000000000000000000000000000000000000000000000000000000005f52601260045260245ffd5b5f61112182610bd0565b915061112c83610bd0565b92508261113c5761113b6110ea565b5b828206905092915050565b5f61115182610bd0565b915061115c83610bd0565b92508261116c5761116b6110ea565b5b828204905092915050565b5f67ffffffffffffffff82169050919050565b61119381611177565b82525050565b5f6060820190506111ac5f830186610d4e565b6111b96020830185610c76565b6111c6604083018461118a565b94935050505056fea2646970667358221220170e5a1b114bece5c09755126e6a5a8937a3d26a0808d717b32d8df30d6fb53a64736f6c63430008180033",
					"opcodes": "PUSH1 0x80 PUSH1 0x40 MSTORE PUSH1 0x64 PUSH0 DUP1 PUSH2 0x100 EXP DUP2 SLOAD DUP2 PUSH1 0xFF MUL NOT AND SWAP1 DUP4 PUSH1 0xFF AND MUL OR SWAP1 SSTORE POP PUSH0 PUSH1 0x2 SSTORE PUSH0 PUSH1 0x3 SSTORE PUSH0 PUSH1 0x4 SSTORE PUSH0 PUSH1 0x7 SSTORE CALLVALUE DUP1 ISZERO PUSH2 0x39 JUMPI PUSH0 DUP1 REVERT JUMPDEST POP PUSH2 0x1204 DUP1 PUSH2 0x47 PUSH0 CODECOPY PUSH0 RETURN INVALID PUSH1 0x80 PUSH1 0x40 MSTORE PUSH1 0x4 CALLDATASIZE LT PUSH2 0x90 JUMPI PUSH0 CALLDATALOAD PUSH1 0xE0 SHR DUP1 PUSH4 0x90D5D0C3 GT PUSH2 0x58 JUMPI DUP1 PUSH4 0x90D5D0C3 EQ PUSH2 0x16A JUMPI DUP1 PUSH4 0x9E0551C6 EQ PUSH2 0x194 JUMPI DUP1 PUSH4 0xB577E0BB EQ PUSH2 0x1D1 JUMPI DUP1 PUSH4 0xC876E615 EQ PUSH2 0x1F9 JUMPI DUP1 PUSH4 0xD891F969 EQ PUSH2 0x223 JUMPI PUSH2 0x90 JUMP JUMPDEST DUP1 PUSH4 0x86F7815 EQ PUSH2 0x94 JUMPI DUP1 PUSH4 0x228CB733 EQ PUSH2 0xBE JUMPI DUP1 PUSH4 0x27B5DB8A EQ PUSH2 0xE8 JUMPI DUP1 PUSH4 0x7563973A EQ PUSH2 0xF2 JUMPI DUP1 PUSH4 0x885C7D36 EQ PUSH2 0x12E JUMPI JUMPDEST PUSH0 DUP1 REVERT JUMPDEST CALLVALUE DUP1 ISZERO PUSH2 0x9F JUMPI PUSH0 DUP1 REVERT JUMPDEST POP PUSH2 0xA8 PUSH2 0x24B JUMP JUMPDEST PUSH1 0x40 MLOAD PUSH2 0xB5 SWAP2 SWAP1 PUSH2 0xBE8 JUMP JUMPDEST PUSH1 0x40 MLOAD DUP1 SWAP2 SUB SWAP1 RETURN JUMPDEST CALLVALUE DUP1 ISZERO PUSH2 0xC9 JUMPI PUSH0 DUP1 REVERT JUMPDEST POP PUSH2 0xD2 PUSH2 0x251 JUMP JUMPDEST PUSH1 0x40 MLOAD PUSH2 0xDF SWAP2 SWAP1 PUSH2 0xBE8 JUMP JUMPDEST PUSH1 0x40 MLOAD DUP1 SWAP2 SUB SWAP1 RETURN JUMPDEST PUSH2 0xF0 PUSH2 0x257 JUMP JUMPDEST STOP JUMPDEST CALLVALUE DUP1 ISZERO PUSH2 0xFD JUMPI PUSH0 DUP1 REVERT JUMPDEST POP PUSH2 0x118 PUSH1 0x4 DUP1 CALLDATASIZE SUB DUP2 ADD SWAP1 PUSH2 0x113 SWAP2 SWAP1 PUSH2 0xC2F JUMP JUMPDEST PUSH2 0x35B JUMP JUMPDEST PUSH1 0x40 MLOAD PUSH2 0x125 SWAP2 SWAP1 PUSH2 0xC85 JUMP JUMPDEST PUSH1 0x40 MLOAD DUP1 SWAP2 SUB SWAP1 RETURN JUMPDEST CALLVALUE DUP1 ISZERO PUSH2 0x139 JUMPI PUSH0 DUP1 REVERT JUMPDEST POP PUSH2 0x154 PUSH1 0x4 DUP1 CALLDATASIZE SUB DUP2 ADD SWAP1 PUSH2 0x14F SWAP2 SWAP1 PUSH2 0xCF8 JUMP JUMPDEST PUSH2 0x3CA JUMP JUMPDEST PUSH1 0x40 MLOAD PUSH2 0x161 SWAP2 SWAP1 PUSH2 0xBE8 JUMP JUMPDEST PUSH1 0x40 MLOAD DUP1 SWAP2 SUB SWAP1 RETURN JUMPDEST CALLVALUE DUP1 ISZERO PUSH2 0x175 JUMPI PUSH0 DUP1 REVERT JUMPDEST POP PUSH2 0x17E PUSH2 0x3DF JUMP JUMPDEST PUSH1 0x40 MLOAD PUSH2 0x18B SWAP2 SWAP1 PUSH2 0xBE8 JUMP JUMPDEST PUSH1 0x40 MLOAD DUP1 SWAP2 SUB SWAP1 RETURN JUMPDEST CALLVALUE DUP1 ISZERO PUSH2 0x19F JUMPI PUSH0 DUP1 REVERT JUMPDEST POP PUSH2 0x1BA PUSH1 0x4 DUP1 CALLDATASIZE SUB DUP2 ADD SWAP1 PUSH2 0x1B5 SWAP2 SWAP1 PUSH2 0xD23 JUMP JUMPDEST PUSH2 0x3E5 JUMP JUMPDEST PUSH1 0x40 MLOAD PUSH2 0x1C8 SWAP3 SWAP2 SWAP1 PUSH2 0xD5D JUMP JUMPDEST PUSH1 0x40 MLOAD DUP1 SWAP2 SUB SWAP1 RETURN JUMPDEST CALLVALUE DUP1 ISZERO PUSH2 0x1DC JUMPI PUSH0 DUP1 REVERT JUMPDEST POP PUSH2 0x1F7 PUSH1 0x4 DUP1 CALLDATASIZE SUB DUP2 ADD SWAP1 PUSH2 0x1F2 SWAP2 SWAP1 PUSH2 0xC2F JUMP JUMPDEST PUSH2 0x424 JUMP JUMPDEST STOP JUMPDEST CALLVALUE DUP1 ISZERO PUSH2 0x204 JUMPI PUSH0 DUP1 REVERT JUMPDEST POP PUSH2 0x20D PUSH2 0x51B JUMP JUMPDEST PUSH1 0x40 MLOAD PUSH2 0x21A SWAP2 SWAP1 PUSH2 0xBE8 JUMP JUMPDEST PUSH1 0x40 MLOAD DUP1 SWAP2 SUB SWAP1 RETURN JUMPDEST CALLVALUE DUP1 ISZERO PUSH2 0x22E JUMPI PUSH0 DUP1 REVERT JUMPDEST POP PUSH2 0x249 PUSH1 0x4 DUP1 CALLDATASIZE SUB DUP2 ADD SWAP1 PUSH2 0x244 SWAP2 SWAP1 PUSH2 0xDAE JUMP JUMPDEST PUSH2 0x521 JUMP JUMPDEST STOP JUMPDEST PUSH1 0x7 SLOAD DUP2 JUMP JUMPDEST PUSH1 0x4 SLOAD DUP2 JUMP JUMPDEST PUSH1 0x2 DUP1 SLOAD LT PUSH2 0x264 JUMPI PUSH0 DUP1 REVERT JUMPDEST PUSH8 0xDE0B6B3A7640000 CALLVALUE EQ PUSH2 0x277 JUMPI PUSH0 DUP1 REVERT JUMPDEST CALLVALUE PUSH1 0x4 PUSH0 DUP3 DUP3 SLOAD PUSH2 0x288 SWAP2 SWAP1 PUSH2 0xE06 JUMP JUMPDEST SWAP3 POP POP DUP2 SWAP1 SSTORE POP CALLER PUSH1 0x5 PUSH0 PUSH1 0x2 SLOAD DUP2 MSTORE PUSH1 0x20 ADD SWAP1 DUP2 MSTORE PUSH1 0x20 ADD PUSH0 KECCAK256 PUSH1 0x1 ADD PUSH0 PUSH2 0x100 EXP DUP2 SLOAD DUP2 PUSH20 0xFFFFFFFFFFFFFFFFFFFFFFFFFFFFFFFFFFFFFFFF MUL NOT AND SWAP1 DUP4 PUSH20 0xFFFFFFFFFFFFFFFFFFFFFFFFFFFFFFFFFFFFFFFF AND MUL OR SWAP1 SSTORE POP PUSH1 0x2 SLOAD PUSH1 0x6 PUSH0 CALLER PUSH20 0xFFFFFFFFFFFFFFFFFFFFFFFFFFFFFFFFFFFFFFFF AND PUSH20 0xFFFFFFFFFFFFFFFFFFFFFFFFFFFFFFFFFFFFFFFF AND DUP2 MSTORE PUSH1 0x20 ADD SWAP1 DUP2 MSTORE PUSH1 0x20 ADD PUSH0 KECCAK256 DUP2 SWAP1 SSTORE POP PUSH1 0x3 PUSH1 0x5 PUSH0 PUSH1 0x2 SLOAD DUP2 MSTORE PUSH1 0x20 ADD SWAP1 DUP2 MSTORE PUSH1 0x20 ADD PUSH0 KECCAK256 PUSH0 ADD DUP2 SWAP1 SSTORE POP PUSH1 0x2 PUSH0 DUP2 SLOAD DUP1 SWAP3 SWAP2 SWAP1 PUSH2 0x354 SWAP1 PUSH2 0xE39 JUMP JUMPDEST SWAP2 SWAP1 POP SSTORE POP JUMP JUMPDEST PUSH0 DUP1 DUP4 EQ DUP1 PUSH2 0x36A JUMPI POP PUSH1 0x1 DUP4 EQ JUMPDEST DUP1 PUSH2 0x375 JUMPI POP PUSH1 0x2 DUP4 EQ JUMPDEST PUSH2 0x3B4 JUMPI PUSH1 0x40 MLOAD PUSH32 0x8C379A000000000000000000000000000000000000000000000000000000000 DUP2 MSTORE PUSH1 0x4 ADD PUSH2 0x3AB SWAP1 PUSH2 0xEDA JUMP JUMPDEST PUSH1 0x40 MLOAD DUP1 SWAP2 SUB SWAP1 REVERT JUMPDEST PUSH2 0x3C2 DUP4 PUSH0 SHL DUP4 PUSH0 SHL PUSH2 0x5F8 JUMP JUMPDEST SWAP1 POP SWAP3 SWAP2 POP POP JUMP JUMPDEST PUSH1 0x6 PUSH1 0x20 MSTORE DUP1 PUSH0 MSTORE PUSH1 0x40 PUSH0 KECCAK256 PUSH0 SWAP2 POP SWAP1 POP SLOAD DUP2 JUMP JUMPDEST PUSH1 0x2 SLOAD DUP2 JUMP JUMPDEST PUSH1 0x5 PUSH1 0x20 MSTORE DUP1 PUSH0 MSTORE PUSH1 0x40 PUSH0 KECCAK256 PUSH0 SWAP2 POP SWAP1 POP DUP1 PUSH0 ADD SLOAD SWAP1 DUP1 PUSH1 0x1 ADD PUSH0 SWAP1 SLOAD SWAP1 PUSH2 0x100 EXP SWAP1 DIV PUSH20 0xFFFFFFFFFFFFFFFFFFFFFFFFFFFFFFFFFFFFFFFF AND SWAP1 POP DUP3 JUMP JUMPDEST PUSH1 0x2 PUSH1 0x7 SLOAD EQ PUSH2 0x432 JUMPI PUSH0 DUP1 REVERT JUMPDEST PUSH0 DUP3 EQ DUP1 PUSH2 0x440 JUMPI POP PUSH1 0x1 DUP3 EQ JUMPDEST DUP1 PUSH2 0x44B JUMPI POP PUSH1 0x2 DUP3 EQ JUMPDEST PUSH2 0x48A JUMPI PUSH1 0x40 MLOAD PUSH32 0x8C379A000000000000000000000000000000000000000000000000000000000 DUP2 MSTORE PUSH1 0x4 ADD PUSH2 0x481 SWAP1 PUSH2 0xEDA JUMP JUMPDEST PUSH1 0x40 MLOAD DUP1 SWAP2 SUB SWAP1 REVERT JUMPDEST PUSH2 0x498 DUP3 PUSH0 SHL DUP3 PUSH0 SHL PUSH2 0x62C JUMP JUMPDEST DUP2 PUSH1 0x5 PUSH0 PUSH1 0x6 PUSH0 CALLER PUSH20 0xFFFFFFFFFFFFFFFFFFFFFFFFFFFFFFFFFFFFFFFF AND PUSH20 0xFFFFFFFFFFFFFFFFFFFFFFFFFFFFFFFFFFFFFFFF AND DUP2 MSTORE PUSH1 0x20 ADD SWAP1 DUP2 MSTORE PUSH1 0x20 ADD PUSH0 KECCAK256 SLOAD DUP2 MSTORE PUSH1 0x20 ADD SWAP1 DUP2 MSTORE PUSH1 0x20 ADD PUSH0 KECCAK256 PUSH0 ADD DUP2 SWAP1 SSTORE POP PUSH1 0x3 PUSH0 DUP2 SLOAD DUP1 SWAP3 SWAP2 SWAP1 PUSH2 0x4FF SWAP1 PUSH2 0xE39 JUMP JUMPDEST SWAP2 SWAP1 POP SSTORE POP PUSH1 0x2 PUSH1 0x3 SLOAD SUB PUSH2 0x517 JUMPI PUSH2 0x516 PUSH2 0x7E0 JUMP JUMPDEST JUMPDEST POP POP JUMP JUMPDEST PUSH1 0x3 SLOAD DUP2 JUMP JUMPDEST PUSH1 0x2 DUP1 SLOAD EQ PUSH2 0x52E JUMPI PUSH0 DUP1 REVERT JUMPDEST PUSH1 0x5 PUSH0 PUSH1 0x6 PUSH0 CALLER PUSH20 0xFFFFFFFFFFFFFFFFFFFFFFFFFFFFFFFFFFFFFFFF AND PUSH20 0xFFFFFFFFFFFFFFFFFFFFFFFFFFFFFFFFFFFFFFFF AND DUP2 MSTORE PUSH1 0x20 ADD SWAP1 DUP2 MSTORE PUSH1 0x20 ADD PUSH0 KECCAK256 SLOAD DUP2 MSTORE PUSH1 0x20 ADD SWAP1 DUP2 MSTORE PUSH1 0x20 ADD PUSH0 KECCAK256 PUSH1 0x1 ADD PUSH0 SWAP1 SLOAD SWAP1 PUSH2 0x100 EXP SWAP1 DIV PUSH20 0xFFFFFFFFFFFFFFFFFFFFFFFFFFFFFFFFFFFFFFFF AND PUSH20 0xFFFFFFFFFFFFFFFFFFFFFFFFFFFFFFFFFFFFFFFF AND CALLER PUSH20 0xFFFFFFFFFFFFFFFFFFFFFFFFFFFFFFFFFFFFFFFF AND EQ PUSH2 0x5D5 JUMPI PUSH0 DUP1 REVERT JUMPDEST PUSH2 0x5DE DUP2 PUSH2 0x9FE JUMP JUMPDEST PUSH1 0x7 PUSH0 DUP2 SLOAD DUP1 SWAP3 SWAP2 SWAP1 PUSH2 0x5F0 SWAP1 PUSH2 0xE39 JUMP JUMPDEST SWAP2 SWAP1 POP SSTORE POP POP JUMP JUMPDEST PUSH0 ADDRESS DUP4 DUP4 PUSH1 0x40 MLOAD PUSH1 0x20 ADD PUSH2 0x60E SWAP4 SWAP3 SWAP2 SWAP1 PUSH2 0xF5D JUMP JUMPDEST PUSH1 0x40 MLOAD PUSH1 0x20 DUP2 DUP4 SUB SUB DUP2 MSTORE SWAP1 PUSH1 0x40 MSTORE DUP1 MLOAD SWAP1 PUSH1 0x20 ADD KECCAK256 SWAP1 POP SWAP3 SWAP2 POP POP JUMP JUMPDEST PUSH0 ISZERO ISZERO PUSH1 0x1 PUSH0 CALLER PUSH20 0xFFFFFFFFFFFFFFFFFFFFFFFFFFFFFFFFFFFFFFFF AND PUSH20 0xFFFFFFFFFFFFFFFFFFFFFFFFFFFFFFFFFFFFFFFF AND DUP2 MSTORE PUSH1 0x20 ADD SWAP1 DUP2 MSTORE PUSH1 0x20 ADD PUSH0 KECCAK256 PUSH1 0x1 ADD PUSH1 0x8 SWAP1 SLOAD SWAP1 PUSH2 0x100 EXP SWAP1 DIV PUSH1 0xFF AND ISZERO ISZERO EQ PUSH2 0x6BF JUMPI PUSH1 0x40 MLOAD PUSH32 0x8C379A000000000000000000000000000000000000000000000000000000000 DUP2 MSTORE PUSH1 0x4 ADD PUSH2 0x6B6 SWAP1 PUSH2 0x1009 JUMP JUMPDEST PUSH1 0x40 MLOAD DUP1 SWAP2 SUB SWAP1 REVERT JUMPDEST PUSH1 0x1 DUP1 PUSH0 CALLER PUSH20 0xFFFFFFFFFFFFFFFFFFFFFFFFFFFFFFFFFFFFFFFF AND PUSH20 0xFFFFFFFFFFFFFFFFFFFFFFFFFFFFFFFFFFFFFFFF AND DUP2 MSTORE PUSH1 0x20 ADD SWAP1 DUP2 MSTORE PUSH1 0x20 ADD PUSH0 KECCAK256 PUSH1 0x1 ADD PUSH1 0x8 PUSH2 0x100 EXP DUP2 SLOAD DUP2 PUSH1 0xFF MUL NOT AND SWAP1 DUP4 ISZERO ISZERO MUL OR SWAP1 SSTORE POP PUSH1 0x1 PUSH0 CALLER PUSH20 0xFFFFFFFFFFFFFFFFFFFFFFFFFFFFFFFFFFFFFFFF AND PUSH20 0xFFFFFFFFFFFFFFFFFFFFFFFFFFFFFFFFFFFFFFFF AND DUP2 MSTORE PUSH1 0x20 ADD SWAP1 DUP2 MSTORE PUSH1 0x20 ADD PUSH0 KECCAK256 PUSH0 ADD SLOAD PUSH2 0x761 DUP4 DUP4 PUSH2 0x5F8 JUMP JUMPDEST EQ PUSH2 0x7A1 JUMPI PUSH1 0x40 MLOAD PUSH32 0x8C379A000000000000000000000000000000000000000000000000000000000 DUP2 MSTORE PUSH1 0x4 ADD PUSH2 0x798 SWAP1 PUSH2 0x1097 JUMP JUMPDEST PUSH1 0x40 MLOAD DUP1 SWAP2 SUB SWAP1 REVERT JUMPDEST PUSH32 0x8BED02C4D61E56ED1D90657E7A0BA48F15CCA20FCC2899D7235221B2CB0423A6 CALLER DUP4 DUP4 PUSH1 0x40 MLOAD PUSH2 0x7D4 SWAP4 SWAP3 SWAP2 SWAP1 PUSH2 0x10B5 JUMP JUMPDEST PUSH1 0x40 MLOAD DUP1 SWAP2 SUB SWAP1 LOG1 POP POP JUMP JUMPDEST PUSH0 PUSH1 0x5 PUSH0 DUP1 DUP2 MSTORE PUSH1 0x20 ADD SWAP1 DUP2 MSTORE PUSH1 0x20 ADD PUSH0 KECCAK256 PUSH0 ADD SLOAD SWAP1 POP PUSH0 PUSH1 0x5 PUSH0 PUSH1 0x1 DUP2 MSTORE PUSH1 0x20 ADD SWAP1 DUP2 MSTORE PUSH1 0x20 ADD PUSH0 KECCAK256 PUSH0 ADD SLOAD SWAP1 POP PUSH0 PUSH1 0x5 PUSH0 DUP1 DUP2 MSTORE PUSH1 0x20 ADD SWAP1 DUP2 MSTORE PUSH1 0x20 ADD PUSH0 KECCAK256 PUSH1 0x1 ADD PUSH0 SWAP1 SLOAD SWAP1 PUSH2 0x100 EXP SWAP1 DIV PUSH20 0xFFFFFFFFFFFFFFFFFFFFFFFFFFFFFFFFFFFFFFFF AND SWAP1 POP PUSH0 PUSH1 0x5 PUSH0 PUSH1 0x1 DUP2 MSTORE PUSH1 0x20 ADD SWAP1 DUP2 MSTORE PUSH1 0x20 ADD PUSH0 KECCAK256 PUSH1 0x1 ADD PUSH0 SWAP1 SLOAD SWAP1 PUSH2 0x100 EXP SWAP1 DIV PUSH20 0xFFFFFFFFFFFFFFFFFFFFFFFFFFFFFFFFFFFFFFFF AND SWAP1 POP DUP3 PUSH1 0x3 PUSH1 0x1 DUP7 PUSH2 0x88E SWAP2 SWAP1 PUSH2 0xE06 JUMP JUMPDEST PUSH2 0x898 SWAP2 SWAP1 PUSH2 0x1117 JUMP JUMPDEST SUB PUSH2 0x8E8 JUMPI DUP1 PUSH20 0xFFFFFFFFFFFFFFFFFFFFFFFFFFFFFFFFFFFFFFFF AND PUSH2 0x8FC PUSH1 0x4 SLOAD SWAP1 DUP2 ISZERO MUL SWAP1 PUSH1 0x40 MLOAD PUSH0 PUSH1 0x40 MLOAD DUP1 DUP4 SUB DUP2 DUP6 DUP9 DUP9 CALL SWAP4 POP POP POP POP ISZERO DUP1 ISZERO PUSH2 0x8E2 JUMPI RETURNDATASIZE PUSH0 DUP1 RETURNDATACOPY RETURNDATASIZE PUSH0 REVERT JUMPDEST POP PUSH2 0x9F8 JUMP JUMPDEST DUP4 PUSH1 0x3 PUSH1 0x1 DUP6 PUSH2 0x8F8 SWAP2 SWAP1 PUSH2 0xE06 JUMP JUMPDEST PUSH2 0x902 SWAP2 SWAP1 PUSH2 0x1117 JUMP JUMPDEST SUB PUSH2 0x952 JUMPI DUP2 PUSH20 0xFFFFFFFFFFFFFFFFFFFFFFFFFFFFFFFFFFFFFFFF AND PUSH2 0x8FC PUSH1 0x4 SLOAD SWAP1 DUP2 ISZERO MUL SWAP1 PUSH1 0x40 MLOAD PUSH0 PUSH1 0x40 MLOAD DUP1 DUP4 SUB DUP2 DUP6 DUP9 DUP9 CALL SWAP4 POP POP POP POP ISZERO DUP1 ISZERO PUSH2 0x94C JUMPI RETURNDATASIZE PUSH0 DUP1 RETURNDATACOPY RETURNDATASIZE PUSH0 REVERT JUMPDEST POP PUSH2 0x9F7 JUMP JUMPDEST DUP2 PUSH20 0xFFFFFFFFFFFFFFFFFFFFFFFFFFFFFFFFFFFFFFFF AND PUSH2 0x8FC PUSH1 0x2 PUSH1 0x4 SLOAD PUSH2 0x97B SWAP2 SWAP1 PUSH2 0x1147 JUMP JUMPDEST SWAP1 DUP2 ISZERO MUL SWAP1 PUSH1 0x40 MLOAD PUSH0 PUSH1 0x40 MLOAD DUP1 DUP4 SUB DUP2 DUP6 DUP9 DUP9 CALL SWAP4 POP POP POP POP ISZERO DUP1 ISZERO PUSH2 0x9A3 JUMPI RETURNDATASIZE PUSH0 DUP1 RETURNDATACOPY RETURNDATASIZE PUSH0 REVERT JUMPDEST POP DUP1 PUSH20 0xFFFFFFFFFFFFFFFFFFFFFFFFFFFFFFFFFFFFFFFF AND PUSH2 0x8FC PUSH1 0x2 PUSH1 0x4 SLOAD PUSH2 0x9CD SWAP2 SWAP1 PUSH2 0x1147 JUMP JUMPDEST SWAP1 DUP2 ISZERO MUL SWAP1 PUSH1 0x40 MLOAD PUSH0 PUSH1 0x40 MLOAD DUP1 DUP4 SUB DUP2 DUP6 DUP9 DUP9 CALL SWAP4 POP POP POP POP ISZERO DUP1 ISZERO PUSH2 0x9F5 JUMPI RETURNDATASIZE PUSH0 DUP1 RETURNDATACOPY RETURNDATASIZE PUSH0 REVERT JUMPDEST POP JUMPDEST JUMPDEST POP POP POP POP JUMP JUMPDEST DUP1 PUSH1 0x1 PUSH0 CALLER PUSH20 0xFFFFFFFFFFFFFFFFFFFFFFFFFFFFFFFFFFFFFFFF AND PUSH20 0xFFFFFFFFFFFFFFFFFFFFFFFFFFFFFFFFFFFFFFFF AND DUP2 MSTORE PUSH1 0x20 ADD SWAP1 DUP2 MSTORE PUSH1 0x20 ADD PUSH0 KECCAK256 PUSH0 ADD DUP2 SWAP1 SSTORE POP NUMBER PUSH1 0x1 PUSH0 CALLER PUSH20 0xFFFFFFFFFFFFFFFFFFFFFFFFFFFFFFFFFFFFFFFF AND PUSH20 0xFFFFFFFFFFFFFFFFFFFFFFFFFFFFFFFFFFFFFFFF AND DUP2 MSTORE PUSH1 0x20 ADD SWAP1 DUP2 MSTORE PUSH1 0x20 ADD PUSH0 KECCAK256 PUSH1 0x1 ADD PUSH0 PUSH2 0x100 EXP DUP2 SLOAD DUP2 PUSH8 0xFFFFFFFFFFFFFFFF MUL NOT AND SWAP1 DUP4 PUSH8 0xFFFFFFFFFFFFFFFF AND MUL OR SWAP1 SSTORE POP PUSH0 PUSH1 0x1 PUSH0 CALLER PUSH20 0xFFFFFFFFFFFFFFFFFFFFFFFFFFFFFFFFFFFFFFFF AND PUSH20 0xFFFFFFFFFFFFFFFFFFFFFFFFFFFFFFFFFFFFFFFF AND DUP2 MSTORE PUSH1 0x20 ADD SWAP1 DUP2 MSTORE PUSH1 0x20 ADD PUSH0 KECCAK256 PUSH1 0x1 ADD PUSH1 0x8 PUSH2 0x100 EXP DUP2 SLOAD DUP2 PUSH1 0xFF MUL NOT AND SWAP1 DUP4 ISZERO ISZERO MUL OR SWAP1 SSTORE POP PUSH32 0x3C1A1F8F38335B17F751C6DA4BA7D1865F26B3997535176F5080DE9FAD891603 CALLER PUSH1 0x1 PUSH0 CALLER PUSH20 0xFFFFFFFFFFFFFFFFFFFFFFFFFFFFFFFFFFFFFFFF AND PUSH20 0xFFFFFFFFFFFFFFFFFFFFFFFFFFFFFFFFFFFFFFFF AND DUP2 MSTORE PUSH1 0x20 ADD SWAP1 DUP2 MSTORE PUSH1 0x20 ADD PUSH0 KECCAK256 PUSH0 ADD SLOAD PUSH1 0x1 PUSH0 CALLER PUSH20 0xFFFFFFFFFFFFFFFFFFFFFFFFFFFFFFFFFFFFFFFF AND PUSH20 0xFFFFFFFFFFFFFFFFFFFFFFFFFFFFFFFFFFFFFFFF AND DUP2 MSTORE PUSH1 0x20 ADD SWAP1 DUP2 MSTORE PUSH1 0x20 ADD PUSH0 KECCAK256 PUSH1 0x1 ADD PUSH0 SWAP1 SLOAD SWAP1 PUSH2 0x100 EXP SWAP1 DIV PUSH8 0xFFFFFFFFFFFFFFFF AND PUSH1 0x40 MLOAD PUSH2 0xBC5 SWAP4 SWAP3 SWAP2 SWAP1 PUSH2 0x1199 JUMP JUMPDEST PUSH1 0x40 MLOAD DUP1 SWAP2 SUB SWAP1 LOG1 POP JUMP JUMPDEST PUSH0 DUP2 SWAP1 POP SWAP2 SWAP1 POP JUMP JUMPDEST PUSH2 0xBE2 DUP2 PUSH2 0xBD0 JUMP JUMPDEST DUP3 MSTORE POP POP JUMP JUMPDEST PUSH0 PUSH1 0x20 DUP3 ADD SWAP1 POP PUSH2 0xBFB PUSH0 DUP4 ADD DUP5 PUSH2 0xBD9 JUMP JUMPDEST SWAP3 SWAP2 POP POP JUMP JUMPDEST PUSH0 DUP1 REVERT JUMPDEST PUSH2 0xC0E DUP2 PUSH2 0xBD0 JUMP JUMPDEST DUP2 EQ PUSH2 0xC18 JUMPI PUSH0 DUP1 REVERT JUMPDEST POP JUMP JUMPDEST PUSH0 DUP2 CALLDATALOAD SWAP1 POP PUSH2 0xC29 DUP2 PUSH2 0xC05 JUMP JUMPDEST SWAP3 SWAP2 POP POP JUMP JUMPDEST PUSH0 DUP1 PUSH1 0x40 DUP4 DUP6 SUB SLT ISZERO PUSH2 0xC45 JUMPI PUSH2 0xC44 PUSH2 0xC01 JUMP JUMPDEST JUMPDEST PUSH0 PUSH2 0xC52 DUP6 DUP3 DUP7 ADD PUSH2 0xC1B JUMP JUMPDEST SWAP3 POP POP PUSH1 0x20 PUSH2 0xC63 DUP6 DUP3 DUP7 ADD PUSH2 0xC1B JUMP JUMPDEST SWAP2 POP POP SWAP3 POP SWAP3 SWAP1 POP JUMP JUMPDEST PUSH0 DUP2 SWAP1 POP SWAP2 SWAP1 POP JUMP JUMPDEST PUSH2 0xC7F DUP2 PUSH2 0xC6D JUMP JUMPDEST DUP3 MSTORE POP POP JUMP JUMPDEST PUSH0 PUSH1 0x20 DUP3 ADD SWAP1 POP PUSH2 0xC98 PUSH0 DUP4 ADD DUP5 PUSH2 0xC76 JUMP JUMPDEST SWAP3 SWAP2 POP POP JUMP JUMPDEST PUSH0 PUSH20 0xFFFFFFFFFFFFFFFFFFFFFFFFFFFFFFFFFFFFFFFF DUP3 AND SWAP1 POP SWAP2 SWAP1 POP JUMP JUMPDEST PUSH0 PUSH2 0xCC7 DUP3 PUSH2 0xC9E JUMP JUMPDEST SWAP1 POP SWAP2 SWAP1 POP JUMP JUMPDEST PUSH2 0xCD7 DUP2 PUSH2 0xCBD JUMP JUMPDEST DUP2 EQ PUSH2 0xCE1 JUMPI PUSH0 DUP1 REVERT JUMPDEST POP JUMP JUMPDEST PUSH0 DUP2 CALLDATALOAD SWAP1 POP PUSH2 0xCF2 DUP2 PUSH2 0xCCE JUMP JUMPDEST SWAP3 SWAP2 POP POP JUMP JUMPDEST PUSH0 PUSH1 0x20 DUP3 DUP5 SUB SLT ISZERO PUSH2 0xD0D JUMPI PUSH2 0xD0C PUSH2 0xC01 JUMP JUMPDEST JUMPDEST PUSH0 PUSH2 0xD1A DUP5 DUP3 DUP6 ADD PUSH2 0xCE4 JUMP JUMPDEST SWAP2 POP POP SWAP3 SWAP2 POP POP JUMP JUMPDEST PUSH0 PUSH1 0x20 DUP3 DUP5 SUB SLT ISZERO PUSH2 0xD38 JUMPI PUSH2 0xD37 PUSH2 0xC01 JUMP JUMPDEST JUMPDEST PUSH0 PUSH2 0xD45 DUP5 DUP3 DUP6 ADD PUSH2 0xC1B JUMP JUMPDEST SWAP2 POP POP SWAP3 SWAP2 POP POP JUMP JUMPDEST PUSH2 0xD57 DUP2 PUSH2 0xCBD JUMP JUMPDEST DUP3 MSTORE POP POP JUMP JUMPDEST PUSH0 PUSH1 0x40 DUP3 ADD SWAP1 POP PUSH2 0xD70 PUSH0 DUP4 ADD DUP6 PUSH2 0xBD9 JUMP JUMPDEST PUSH2 0xD7D PUSH1 0x20 DUP4 ADD DUP5 PUSH2 0xD4E JUMP JUMPDEST SWAP4 SWAP3 POP POP POP JUMP JUMPDEST PUSH2 0xD8D DUP2 PUSH2 0xC6D JUMP JUMPDEST DUP2 EQ PUSH2 0xD97 JUMPI PUSH0 DUP1 REVERT JUMPDEST POP JUMP JUMPDEST PUSH0 DUP2 CALLDATALOAD SWAP1 POP PUSH2 0xDA8 DUP2 PUSH2 0xD84 JUMP JUMPDEST SWAP3 SWAP2 POP POP JUMP JUMPDEST PUSH0 PUSH1 0x20 DUP3 DUP5 SUB SLT ISZERO PUSH2 0xDC3 JUMPI PUSH2 0xDC2 PUSH2 0xC01 JUMP JUMPDEST JUMPDEST PUSH0 PUSH2 0xDD0 DUP5 DUP3 DUP6 ADD PUSH2 0xD9A JUMP JUMPDEST SWAP2 POP POP SWAP3 SWAP2 POP POP JUMP JUMPDEST PUSH32 0x4E487B7100000000000000000000000000000000000000000000000000000000 PUSH0 MSTORE PUSH1 0x11 PUSH1 0x4 MSTORE PUSH1 0x24 PUSH0 REVERT JUMPDEST PUSH0 PUSH2 0xE10 DUP3 PUSH2 0xBD0 JUMP JUMPDEST SWAP2 POP PUSH2 0xE1B DUP4 PUSH2 0xBD0 JUMP JUMPDEST SWAP3 POP DUP3 DUP3 ADD SWAP1 POP DUP1 DUP3 GT ISZERO PUSH2 0xE33 JUMPI PUSH2 0xE32 PUSH2 0xDD9 JUMP JUMPDEST JUMPDEST SWAP3 SWAP2 POP POP JUMP JUMPDEST PUSH0 PUSH2 0xE43 DUP3 PUSH2 0xBD0 JUMP JUMPDEST SWAP2 POP PUSH32 0xFFFFFFFFFFFFFFFFFFFFFFFFFFFFFFFFFFFFFFFFFFFFFFFFFFFFFFFFFFFFFFFF DUP3 SUB PUSH2 0xE75 JUMPI PUSH2 0xE74 PUSH2 0xDD9 JUMP JUMPDEST JUMPDEST PUSH1 0x1 DUP3 ADD SWAP1 POP SWAP2 SWAP1 POP JUMP JUMPDEST PUSH0 DUP3 DUP3 MSTORE PUSH1 0x20 DUP3 ADD SWAP1 POP SWAP3 SWAP2 POP POP JUMP JUMPDEST PUSH32 0x696E76616C69642063686F696365000000000000000000000000000000000000 PUSH0 DUP3 ADD MSTORE POP JUMP JUMPDEST PUSH0 PUSH2 0xEC4 PUSH1 0xE DUP4 PUSH2 0xE80 JUMP JUMPDEST SWAP2 POP PUSH2 0xECF DUP3 PUSH2 0xE90 JUMP JUMPDEST PUSH1 0x20 DUP3 ADD SWAP1 POP SWAP2 SWAP1 POP JUMP JUMPDEST PUSH0 PUSH1 0x20 DUP3 ADD SWAP1 POP DUP2 DUP2 SUB PUSH0 DUP4 ADD MSTORE PUSH2 0xEF1 DUP2 PUSH2 0xEB8 JUMP JUMPDEST SWAP1 POP SWAP2 SWAP1 POP JUMP JUMPDEST PUSH0 DUP2 PUSH1 0x60 SHL SWAP1 POP SWAP2 SWAP1 POP JUMP JUMPDEST PUSH0 PUSH2 0xF0E DUP3 PUSH2 0xEF8 JUMP JUMPDEST SWAP1 POP SWAP2 SWAP1 POP JUMP JUMPDEST PUSH0 PUSH2 0xF1F DUP3 PUSH2 0xF04 JUMP JUMPDEST SWAP1 POP SWAP2 SWAP1 POP JUMP JUMPDEST PUSH2 0xF37 PUSH2 0xF32 DUP3 PUSH2 0xCBD JUMP JUMPDEST PUSH2 0xF15 JUMP JUMPDEST DUP3 MSTORE POP POP JUMP JUMPDEST PUSH0 DUP2 SWAP1 POP SWAP2 SWAP1 POP JUMP JUMPDEST PUSH2 0xF57 PUSH2 0xF52 DUP3 PUSH2 0xC6D JUMP JUMPDEST PUSH2 0xF3D JUMP JUMPDEST DUP3 MSTORE POP POP JUMP JUMPDEST PUSH0 PUSH2 0xF68 DUP3 DUP7 PUSH2 0xF26 JUMP JUMPDEST PUSH1 0x14 DUP3 ADD SWAP2 POP PUSH2 0xF78 DUP3 DUP6 PUSH2 0xF46 JUMP JUMPDEST PUSH1 0x20 DUP3 ADD SWAP2 POP PUSH2 0xF88 DUP3 DUP5 PUSH2 0xF46 JUMP JUMPDEST PUSH1 0x20 DUP3 ADD SWAP2 POP DUP2 SWAP1 POP SWAP5 SWAP4 POP POP POP POP JUMP JUMPDEST PUSH32 0x436F6D6D697452657665616C3A3A72657665616C416E737765723A20416C7265 PUSH0 DUP3 ADD MSTORE PUSH32 0x6164792072657665616C65640000000000000000000000000000000000000000 PUSH1 0x20 DUP3 ADD MSTORE POP JUMP JUMPDEST PUSH0 PUSH2 0xFF3 PUSH1 0x2C DUP4 PUSH2 0xE80 JUMP JUMPDEST SWAP2 POP PUSH2 0xFFE DUP3 PUSH2 0xF99 JUMP JUMPDEST PUSH1 0x40 DUP3 ADD SWAP1 POP SWAP2 SWAP1 POP JUMP JUMPDEST PUSH0 PUSH1 0x20 DUP3 ADD SWAP1 POP DUP2 DUP2 SUB PUSH0 DUP4 ADD MSTORE PUSH2 0x1020 DUP2 PUSH2 0xFE7 JUMP JUMPDEST SWAP1 POP SWAP2 SWAP1 POP JUMP JUMPDEST PUSH32 0x436F6D6D697452657665616C3A3A72657665616C416E737765723A2052657665 PUSH0 DUP3 ADD MSTORE PUSH32 0x616C6564206861736820646F6573206E6F74206D6174636820636F6D6D697400 PUSH1 0x20 DUP3 ADD MSTORE POP JUMP JUMPDEST PUSH0 PUSH2 0x1081 PUSH1 0x3F DUP4 PUSH2 0xE80 JUMP JUMPDEST SWAP2 POP PUSH2 0x108C DUP3 PUSH2 0x1027 JUMP JUMPDEST PUSH1 0x40 DUP3 ADD SWAP1 POP SWAP2 SWAP1 POP JUMP JUMPDEST PUSH0 PUSH1 0x20 DUP3 ADD SWAP1 POP DUP2 DUP2 SUB PUSH0 DUP4 ADD MSTORE PUSH2 0x10AE DUP2 PUSH2 0x1075 JUMP JUMPDEST SWAP1 POP SWAP2 SWAP1 POP JUMP JUMPDEST PUSH0 PUSH1 0x60 DUP3 ADD SWAP1 POP PUSH2 0x10C8 PUSH0 DUP4 ADD DUP7 PUSH2 0xD4E JUMP JUMPDEST PUSH2 0x10D5 PUSH1 0x20 DUP4 ADD DUP6 PUSH2 0xC76 JUMP JUMPDEST PUSH2 0x10E2 PUSH1 0x40 DUP4 ADD DUP5 PUSH2 0xC76 JUMP JUMPDEST SWAP5 SWAP4 POP POP POP POP JUMP JUMPDEST PUSH32 0x4E487B7100000000000000000000000000000000000000000000000000000000 PUSH0 MSTORE PUSH1 0x12 PUSH1 0x4 MSTORE PUSH1 0x24 PUSH0 REVERT JUMPDEST PUSH0 PUSH2 0x1121 DUP3 PUSH2 0xBD0 JUMP JUMPDEST SWAP2 POP PUSH2 0x112C DUP4 PUSH2 0xBD0 JUMP JUMPDEST SWAP3 POP DUP3 PUSH2 0x113C JUMPI PUSH2 0x113B PUSH2 0x10EA JUMP JUMPDEST JUMPDEST DUP3 DUP3 MOD SWAP1 POP SWAP3 SWAP2 POP POP JUMP JUMPDEST PUSH0 PUSH2 0x1151 DUP3 PUSH2 0xBD0 JUMP JUMPDEST SWAP2 POP PUSH2 0x115C DUP4 PUSH2 0xBD0 JUMP JUMPDEST SWAP3 POP DUP3 PUSH2 0x116C JUMPI PUSH2 0x116B PUSH2 0x10EA JUMP JUMPDEST JUMPDEST DUP3 DUP3 DIV SWAP1 POP SWAP3 SWAP2 POP POP JUMP JUMPDEST PUSH0 PUSH8 0xFFFFFFFFFFFFFFFF DUP3 AND SWAP1 POP SWAP2 SWAP1 POP JUMP JUMPDEST PUSH2 0x1193 DUP2 PUSH2 0x1177 JUMP JUMPDEST DUP3 MSTORE POP POP JUMP JUMPDEST PUSH0 PUSH1 0x60 DUP3 ADD SWAP1 POP PUSH2 0x11AC PUSH0 DUP4 ADD DUP7 PUSH2 0xD4E JUMP JUMPDEST PUSH2 0x11B9 PUSH1 0x20 DUP4 ADD DUP6 PUSH2 0xC76 JUMP JUMPDEST PUSH2 0x11C6 PUSH1 0x40 DUP4 ADD DUP5 PUSH2 0x118A JUMP JUMPDEST SWAP5 SWAP4 POP POP POP POP JUMP INVALID LOG2 PUSH5 0x6970667358 0x22 SLT KECCAK256 OR 0xE GAS SHL GT 0x4B 0xEC 0xE5 0xC0 SWAP8 SSTORE SLT PUSH15 0x6A5A8937A3D26A0808D717B32D8DF3 0xD PUSH16 0xB53A64736F6C63430008180033000000 "
				},
				"gasEstimates": {
					"creation": {
						"codeDepositCost": "922400",
						"executionCost": "45246",
						"totalCost": "967646"
					},
					"external": {
						"addPlayer()": "infinite",
						"choiceHash(uint256,uint256)": "infinite",
						"input(bytes32)": "infinite",
						"numInput()": "2426",
						"numPlayer()": "2425",
						"numReveal()": "2491",
						"player(uint256)": "infinite",
						"playerIndex(address)": "2891",
						"revealsChoice(uint256,uint256)": "infinite",
						"reward()": "2448"
					},
					"internal": {
						"_checkWinnerAndPay()": "infinite"
					}
				},
				"methodIdentifiers": {
					"addPlayer()": "27b5db8a",
					"choiceHash(uint256,uint256)": "7563973a",
					"input(bytes32)": "d891f969",
					"numInput()": "086f7815",
					"numPlayer()": "90d5d0c3",
					"numReveal()": "c876e615",
					"player(uint256)": "9e0551c6",
					"playerIndex(address)": "885c7d36",
					"revealsChoice(uint256,uint256)": "b577e0bb",
					"reward()": "228cb733"
				}
			},
			"storageLayout": {
				"storage": [
					{
						"astId": 4,
						"contract": "RPS.sol:RPS",
						"label": "max",
						"offset": 0,
						"slot": "0",
						"type": "t_uint8"
					},
					{
						"astId": 16,
						"contract": "RPS.sol:RPS",
						"label": "commits",
						"offset": 0,
						"slot": "1",
						"type": "t_mapping(t_address,t_struct(Commit)11_storage)"
					},
					{
						"astId": 294,
						"contract": "RPS.sol:RPS",
						"label": "numPlayer",
						"offset": 0,
						"slot": "2",
						"type": "t_uint256"
					},
					{
						"astId": 297,
						"contract": "RPS.sol:RPS",
						"label": "numReveal",
						"offset": 0,
						"slot": "3",
						"type": "t_uint256"
					},
					{
						"astId": 300,
						"contract": "RPS.sol:RPS",
						"label": "reward",
						"offset": 0,
						"slot": "4",
						"type": "t_uint256"
					},
					{
						"astId": 305,
						"contract": "RPS.sol:RPS",
						"label": "player",
						"offset": 0,
						"slot": "5",
						"type": "t_mapping(t_uint256,t_struct(Player)291_storage)"
					},
					{
						"astId": 309,
						"contract": "RPS.sol:RPS",
						"label": "playerIndex",
						"offset": 0,
						"slot": "6",
						"type": "t_mapping(t_address,t_uint256)"
					},
					{
						"astId": 312,
						"contract": "RPS.sol:RPS",
						"label": "numInput",
						"offset": 0,
						"slot": "7",
						"type": "t_uint256"
					}
				],
				"types": {
					"t_address": {
						"encoding": "inplace",
						"label": "address",
						"numberOfBytes": "20"
					},
					"t_bool": {
						"encoding": "inplace",
						"label": "bool",
						"numberOfBytes": "1"
					},
					"t_bytes32": {
						"encoding": "inplace",
						"label": "bytes32",
						"numberOfBytes": "32"
					},
					"t_mapping(t_address,t_struct(Commit)11_storage)": {
						"encoding": "mapping",
						"key": "t_address",
						"label": "mapping(address => struct CommitReveal.Commit)",
						"numberOfBytes": "32",
						"value": "t_struct(Commit)11_storage"
					},
					"t_mapping(t_address,t_uint256)": {
						"encoding": "mapping",
						"key": "t_address",
						"label": "mapping(address => uint256)",
						"numberOfBytes": "32",
						"value": "t_uint256"
					},
					"t_mapping(t_uint256,t_struct(Player)291_storage)": {
						"encoding": "mapping",
						"key": "t_uint256",
						"label": "mapping(uint256 => struct RPS.Player)",
						"numberOfBytes": "32",
						"value": "t_struct(Player)291_storage"
					},
					"t_struct(Commit)11_storage": {
						"encoding": "inplace",
						"label": "struct CommitReveal.Commit",
						"members": [
							{
								"astId": 6,
								"contract": "RPS.sol:RPS",
								"label": "commit",
								"offset": 0,
								"slot": "0",
								"type": "t_bytes32"
							},
							{
								"astId": 8,
								"contract": "RPS.sol:RPS",
								"label": "block",
								"offset": 0,
								"slot": "1",
								"type": "t_uint64"
							},
							{
								"astId": 10,
								"contract": "RPS.sol:RPS",
								"label": "revealed",
								"offset": 8,
								"slot": "1",
								"type": "t_bool"
							}
						],
						"numberOfBytes": "64"
					},
					"t_struct(Player)291_storage": {
						"encoding": "inplace",
						"label": "struct RPS.Player",
						"members": [
							{
								"astId": 288,
								"contract": "RPS.sol:RPS",
								"label": "choice",
								"offset": 0,
								"slot": "0",
								"type": "t_uint256"
							},
							{
								"astId": 290,
								"contract": "RPS.sol:RPS",
								"label": "addr",
								"offset": 0,
								"slot": "1",
								"type": "t_address"
							}
						],
						"numberOfBytes": "64"
					},
					"t_uint256": {
						"encoding": "inplace",
						"label": "uint256",
						"numberOfBytes": "32"
					},
					"t_uint64": {
						"encoding": "inplace",
						"label": "uint64",
						"numberOfBytes": "8"
					},
					"t_uint8": {
						"encoding": "inplace",
						"label": "uint8",
						"numberOfBytes": "1"
					}
				}
			},
			"userdoc": {
				"kind": "user",
				"methods": {},
				"version": 1
			}
		}
	}
}