{
	"data": {
		"bytecode": {
			"linkReferences": {},
			"object": "608060405260645f806101000a81548160ff021916908360ff1602179055505f6002555f6003555f6004555f600755348015610039575f80fd5b50611204806100475f395ff3fe608060405260043610610090575f3560e01c806390d5d0c31161005857806390d5d0c31461016a5780639e0551c614610194578063b577e0bb146101d1578063c876e615146101f9578063d891f9691461022357610090565b8063086f781514610094578063228cb733146100be57806327b5db8a146100e85780637563973a146100f2578063885c7d361461012e575b5f80fd5b34801561009f575f80fd5b506100a861024b565b6040516100b59190610be8565b60405180910390f35b3480156100c9575f80fd5b506100d2610251565b6040516100df9190610be8565b60405180910390f35b6100f0610257565b005b3480156100fd575f80fd5b5061011860048036038101906101139190610c2f565b61035b565b6040516101259190610c85565b60405180910390f35b348015610139575f80fd5b50610154600480360381019061014f9190610cf8565b6103ca565b6040516101619190610be8565b60405180910390f35b348015610175575f80fd5b5061017e6103df565b60405161018b9190610be8565b60405180910390f35b34801561019f575f80fd5b506101ba60048036038101906101b59190610d23565b6103e5565b6040516101c8929190610d5d565b60405180910390f35b3480156101dc575f80fd5b506101f760048036038101906101f29190610c2f565b610424565b005b348015610204575f80fd5b5061020d61051b565b60405161021a9190610be8565b60405180910390f35b34801561022e575f80fd5b5061024960048036038101906102449190610dae565b610521565b005b60075481565b60045481565b6002805410610264575f80fd5b670de0b6b3a76400003414610277575f80fd5b3460045f8282546102889190610e06565b925050819055503360055f60025481526020019081526020015f206001015f6101000a81548173ffffffffffffffffffffffffffffffffffffffff021916908373ffffffffffffffffffffffffffffffffffffffff16021790555060025460065f3373ffffffffffffffffffffffffffffffffffffffff1673ffffffffffffffffffffffffffffffffffffffff1681526020019081526020015f2081905550600360055f60025481526020019081526020015f205f018190555060025f81548092919061035490610e39565b9190505550565b5f8083148061036a5750600183145b806103755750600283145b6103b4576040517f08c379a00000000000000000000000000000000000000000000000000000000081526004016103ab90610eda565b60405180910390fd5b6103c2835f1b835f1b6105f8565b905092915050565b6006602052805f5260405f205f915090505481565b60025481565b6005602052805f5260405f205f91509050805f015490806001015f9054906101000a900473ffffffffffffffffffffffffffffffffffffffff16905082565b600260075414610432575f80fd5b5f8214806104405750600182145b8061044b5750600282145b61048a576040517f08c379a000000000000000000000000000000000000000000000000000000000815260040161048190610eda565b60405180910390fd5b610498825f1b825f1b61062c565b8160055f60065f3373ffffffffffffffffffffffffffffffffffffffff1673ffffffffffffffffffffffffffffffffffffffff1681526020019081526020015f205481526020019081526020015f205f018190555060035f8154809291906104ff90610e39565b9190505550600260035403610517576105166107e0565b5b5050565b60035481565b600280541461052e575f80fd5b60055f60065f3373ffffffffffffffffffffffffffffffffffffffff1673ffffffffffffffffffffffffffffffffffffffff1681526020019081526020015f205481526020019081526020015f206001015f9054906101000a900473ffffffffffffffffffffffffffffffffffffffff1673ffffffffffffffffffffffffffffffffffffffff163373ffffffffffffffffffffffffffffffffffffffff16146105d5575f80fd5b6105de816109fe565b60075f8154809291906105f090610e39565b919050555050565b5f30838360405160200161060e93929190610f5d565b60405160208183030381529060405280519060200120905092915050565b5f151560015f3373ffffffffffffffffffffffffffffffffffffffff1673ffffffffffffffffffffffffffffffffffffffff1681526020019081526020015f2060010160089054906101000a900460ff161515146106bf576040517f08c379a00000000000000000000000000000000000000000000000000000000081526004016106b690611009565b60405180910390fd5b6001805f3373ffffffffffffffffffffffffffffffffffffffff1673ffffffffffffffffffffffffffffffffffffffff1681526020019081526020015f2060010160086101000a81548160ff02191690831515021790555060015f3373ffffffffffffffffffffffffffffffffffffffff1673ffffffffffffffffffffffffffffffffffffffff1681526020019081526020015f205f015461076183836105f8565b146107a1576040517f08c379a000000000000000000000000000000000000000000000000000000000815260040161079890611097565b60405180910390fd5b7f8bed02c4d61e56ed1d90657e7a0ba48f15cca20fcc2899d7235221b2cb0423a63383836040516107d4939291906110b5565b60405180910390a15050565b5f60055f8081526020019081526020015f205f015490505f60055f600181526020019081526020015f205f015490505f60055f8081526020019081526020015f206001015f9054906101000a900473ffffffffffffffffffffffffffffffffffffffff1690505f60055f600181526020019081526020015f206001015f9054906101000a900473ffffffffffffffffffffffffffffffffffffffff16905082600360018661088e9190610e06565b6108989190611117565b036108e8578073ffffffffffffffffffffffffffffffffffffffff166108fc60045490811502906040515f60405180830381858888f193505050501580156108e2573d5f803e3d5ffd5b506109f8565b8360036001856108f89190610e06565b6109029190611117565b03610952578173ffffffffffffffffffffffffffffffffffffffff166108fc60045490811502906040515f60405180830381858888f1935050505015801561094c573d5f803e3d5ffd5b506109f7565b8173ffffffffffffffffffffffffffffffffffffffff166108fc600260045461097b9190611147565b90811502906040515f60405180830381858888f193505050501580156109a3573d5f803e3d5ffd5b508073ffffffffffffffffffffffffffffffffffffffff166108fc60026004546109cd9190611147565b90811502906040515f60405180830381858888f193505050501580156109f5573d5f803e3d5ffd5b505b5b50505050565b8060015f3373ffffffffffffffffffffffffffffffffffffffff1673ffffffffffffffffffffffffffffffffffffffff1681526020019081526020015f205f01819055504360015f3373ffffffffffffffffffffffffffffffffffffffff1673ffffffffffffffffffffffffffffffffffffffff1681526020019081526020015f206001015f6101000a81548167ffffffffffffffff021916908367ffffffffffffffff1602179055505f60015f3373ffffffffffffffffffffffffffffffffffffffff1673ffffffffffffffffffffffffffffffffffffffff1681526020019081526020015f2060010160086101000a81548160ff0219169083151502179055507f3c1a1f8f38335b17f751c6da4ba7d1865f26b3997535176f5080de9fad8916033360015f3373ffffffffffffffffffffffffffffffffffffffff1673ffffffffffffffffffffffffffffffffffffffff1681526020019081526020015f205f015460015f3373ffffffffffffffffffffffffffffffffffffffff1673ffffffffffffffffffffffffffffffffffffffff1681526020019081526020015f206001015f9054906101000a900467ffffffffffffffff16604051610bc593929190611199565b60405180910390a150565b5f819050919050565b610be281610bd0565b82525050565b5f602082019050610bfb5f830184610bd9565b92915050565b5f80fd5b610c0e81610bd0565b8114610c18575f80fd5b50565b5f81359050610c2981610c05565b92915050565b5f8060408385031215610c4557610c44610c01565b5b5f610c5285828601610c1b565b9250506020610c6385828601610c1b565b9150509250929050565b5f819050919050565b610c7f81610c6d565b82525050565b5f602082019050610c985f830184610c76565b92915050565b5f73ffffffffffffffffffffffffffffffffffffffff82169050919050565b5f610cc782610c9e565b9050919050565b610cd781610cbd565b8114610ce1575f80fd5b50565b5f81359050610cf281610cce565b92915050565b5f60208284031215610d0d57610d0c610c01565b5b5f610d1a84828501610ce4565b91505092915050565b5f60208284031215610d3857610d37610c01565b5b5f610d4584828501610c1b565b91505092915050565b610d5781610cbd565b82525050565b5f604082019050610d705f830185610bd9565b610d7d6020830184610d4e565b9392505050565b610d8d81610c6d565b8114610d97575f80fd5b50565b5f81359050610da881610d84565b92915050565b5f60208284031215610dc357610dc2610c01565b5b5f610dd084828501610d9a565b91505092915050565b7f4e487b71000000000000000000000000000000000000000000000000000000005f52601160045260245ffd5b5f610e1082610bd0565b9150610e1b83610bd0565b9250828201905080821115610e3357610e32610dd9565b5b92915050565b5f610e4382610bd0565b91507fffffffffffffffffffffffffffffffffffffffffffffffffffffffffffffffff8203610e7557610e74610dd9565b5b600182019050919050565b5f82825260208201905092915050565b7f696e76616c69642063686f6963650000000000000000000000000000000000005f82015250565b5f610ec4600e83610e80565b9150610ecf82610e90565b602082019050919050565b5f6020820190508181035f830152610ef181610eb8565b9050919050565b5f8160601b9050919050565b5f610f0e82610ef8565b9050919050565b5f610f1f82610f04565b9050919050565b610f37610f3282610cbd565b610f15565b82525050565b5f819050919050565b610f57610f5282610c6d565b610f3d565b82525050565b5f610f688286610f26565b601482019150610f788285610f46565b602082019150610f888284610f46565b602082019150819050949350505050565b7f436f6d6d697452657665616c3a3a72657665616c416e737765723a20416c72655f8201527f6164792072657665616c65640000000000000000000000000000000000000000602082015250565b5f610ff3602c83610e80565b9150610ffe82610f99565b604082019050919050565b5f6020820190508181035f83015261102081610fe7565b9050919050565b7f436f6d6d697452657665616c3a3a72657665616c416e737765723a20526576655f8201527f616c6564206861736820646f6573206e6f74206d6174636820636f6d6d697400602082015250565b5f611081603f83610e80565b915061108c82611027565b604082019050919050565b5f6020820190508181035f8301526110ae81611075565b9050919050565b5f6060820190506110c85f830186610d4e565b6110d56020830185610c76565b6110e26040830184610c76565b949350505050565b7f4e487b71000000000000000000000000000000000000000000000000000000005f52601260045260245ffd5b5f61112182610bd0565b915061112c83610bd0565b92508261113c5761113b6110ea565b5b828206905092915050565b5f61115182610bd0565b915061115c83610bd0565b92508261116c5761116b6110ea565b5b828204905092915050565b5f67ffffffffffffffff82169050919050565b61119381611177565b82525050565b5f6060820190506111ac5f830186610d4e565b6111b96020830185610c76565b6111c6604083018461118a565b94935050505056fea2646970667358221220170e5a1b114bece5c09755126e6a5a8937a3d26a0808d717b32d8df30d6fb53a64736f6c63430008180033",
			"opcodes": "PUSH1 0x80 PUSH1 0x40 MSTORE PUSH1 0x64 PUSH0 DUP1 PUSH2 0x100 EXP DUP2 SLOAD DUP2 PUSH1 0xFF MUL NOT AND SWAP1 DUP4 PUSH1 0xFF AND MUL OR SWAP1 SSTORE POP PUSH0 PUSH1 0x2 SSTORE PUSH0 PUSH1 0x3 SSTORE PUSH0 PUSH1 0x4 SSTORE PUSH0 PUSH1 0x7 SSTORE CALLVALUE DUP1 ISZERO PUSH2 0x39 JUMPI PUSH0 DUP1 REVERT JUMPDEST POP PUSH2 0x1204 DUP1 PUSH2 0x47 PUSH0 CODECOPY PUSH0 RETURN INVALID PUSH1 0x80 PUSH1 0x40 MSTORE PUSH1 0x4 CALLDATASIZE LT PUSH2 0x90 JUMPI PUSH0 CALLDATALOAD PUSH1 0xE0 SHR DUP1 PUSH4 0x90D5D0C3 GT PUSH2 0x58 JUMPI DUP1 PUSH4 0x90D5D0C3 EQ PUSH2 0x16A JUMPI DUP1 PUSH4 0x9E0551C6 EQ PUSH2 0x194 JUMPI DUP1 PUSH4 0xB577E0BB EQ PUSH2 0x1D1 JUMPI DUP1 PUSH4 0xC876E615 EQ PUSH2 0x1F9 JUMPI DUP1 PUSH4 0xD891F969 EQ PUSH2 0x223 JUMPI PUSH2 0x90 JUMP JUMPDEST DUP1 PUSH4 0x86F7815 EQ PUSH2 0x94 JUMPI DUP1 PUSH4 0x228CB733 EQ PUSH2 0xBE JUMPI DUP1 PUSH4 0x27B5DB8A EQ PUSH2 0xE8 JUMPI DUP1 PUSH4 0x7563973A EQ PUSH2 0xF2 JUMPI DUP1 PUSH4 0x885C7D36 EQ PUSH2 0x12E JUMPI JUMPDEST PUSH0 DUP1 REVERT JUMPDEST CALLVALUE DUP1 ISZERO PUSH2 0x9F JUMPI PUSH0 DUP1 REVERT JUMPDEST POP PUSH2 0xA8 PUSH2 0x24B JUMP JUMPDEST PUSH1 0x40 MLOAD PUSH2 0xB5 SWAP2 SWAP1 PUSH2 0xBE8 JUMP JUMPDEST PUSH1 0x40 MLOAD DUP1 SWAP2 SUB SWAP1 RETURN JUMPDEST CALLVALUE DUP1 ISZERO PUSH2 0xC9 JUMPI PUSH0 DUP1 REVERT JUMPDEST POP PUSH2 0xD2 PUSH2 0x251 JUMP JUMPDEST PUSH1 0x40 MLOAD PUSH2 0xDF SWAP2 SWAP1 PUSH2 0xBE8 JUMP JUMPDEST PUSH1 0x40 MLOAD DUP1 SWAP2 SUB SWAP1 RETURN JUMPDEST PUSH2 0xF0 PUSH2 0x257 JUMP JUMPDEST STOP JUMPDEST CALLVALUE DUP1 ISZERO PUSH2 0xFD JUMPI PUSH0 DUP1 REVERT JUMPDEST POP PUSH2 0x118 PUSH1 0x4 DUP1 CALLDATASIZE SUB DUP2 ADD SWAP1 PUSH2 0x113 SWAP2 SWAP1 PUSH2 0xC2F JUMP JUMPDEST PUSH2 0x35B JUMP JUMPDEST PUSH1 0x40 MLOAD PUSH2 0x125 SWAP2 SWAP1 PUSH2 0xC85 JUMP JUMPDEST PUSH1 0x40 MLOAD DUP1 SWAP2 SUB SWAP1 RETURN JUMPDEST CALLVALUE DUP1 ISZERO PUSH2 0x139 JUMPI PUSH0 DUP1 REVERT JUMPDEST POP PUSH2 0x154 PUSH1 0x4 DUP1 CALLDATASIZE SUB DUP2 ADD SWAP1 PUSH2 0x14F SWAP2 SWAP1 PUSH2 0xCF8 JUMP JUMPDEST PUSH2 0x3CA JUMP JUMPDEST PUSH1 0x40 MLOAD PUSH2 0x161 SWAP2 SWAP1 PUSH2 0xBE8 JUMP JUMPDEST PUSH1 0x40 MLOAD DUP1 SWAP2 SUB SWAP1 RETURN JUMPDEST CALLVALUE DUP1 ISZERO PUSH2 0x175 JUMPI PUSH0 DUP1 REVERT JUMPDEST POP PUSH2 0x17E PUSH2 0x3DF JUMP JUMPDEST PUSH1 0x40 MLOAD PUSH2 0x18B SWAP2 SWAP1 PUSH2 0xBE8 JUMP JUMPDEST PUSH1 0x40 MLOAD DUP1 SWAP2 SUB SWAP1 RETURN JUMPDEST CALLVALUE DUP1 ISZERO PUSH2 0x19F JUMPI PUSH0 DUP1 REVERT JUMPDEST POP PUSH2 0x1BA PUSH1 0x4 DUP1 CALLDATASIZE SUB DUP2 ADD SWAP1 PUSH2 0x1B5 SWAP2 SWAP1 PUSH2 0xD23 JUMP JUMPDEST PUSH2 0x3E5 JUMP JUMPDEST PUSH1 0x40 MLOAD PUSH2 0x1C8 SWAP3 SWAP2 SWAP1 PUSH2 0xD5D JUMP JUMPDEST PUSH1 0x40 MLOAD DUP1 SWAP2 SUB SWAP1 RETURN JUMPDEST CALLVALUE DUP1 ISZERO PUSH2 0x1DC JUMPI PUSH0 DUP1 REVERT JUMPDEST POP PUSH2 0x1F7 PUSH1 0x4 DUP1 CALLDATASIZE SUB DUP2 ADD SWAP1 PUSH2 0x1F2 SWAP2 SWAP1 PUSH2 0xC2F JUMP JUMPDEST PUSH2 0x424 JUMP JUMPDEST STOP JUMPDEST CALLVALUE DUP1 ISZERO PUSH2 0x204 JUMPI PUSH0 DUP1 REVERT JUMPDEST POP PUSH2 0x20D PUSH2 0x51B JUMP JUMPDEST PUSH1 0x40 MLOAD PUSH2 0x21A SWAP2 SWAP1 PUSH2 0xBE8 JUMP JUMPDEST PUSH1 0x40 MLOAD DUP1 SWAP2 SUB SWAP1 RETURN JUMPDEST CALLVALUE DUP1 ISZERO PUSH2 0x22E JUMPI PUSH0 DUP1 REVERT JUMPDEST POP PUSH2 0x249 PUSH1 0x4 DUP1 CALLDATASIZE SUB DUP2 ADD SWAP1 PUSH2 0x244 SWAP2 SWAP1 PUSH2 0xDAE JUMP JUMPDEST PUSH2 0x521 JUMP JUMPDEST STOP JUMPDEST PUSH1 0x7 SLOAD DUP2 JUMP JUMPDEST PUSH1 0x4 SLOAD DUP2 JUMP JUMPDEST PUSH1 0x2 DUP1 SLOAD LT PUSH2 0x264 JUMPI PUSH0 DUP1 REVERT JUMPDEST PUSH8 0xDE0B6B3A7640000 CALLVALUE EQ PUSH2 0x277 JUMPI PUSH0 DUP1 REVERT JUMPDEST CALLVALUE PUSH1 0x4 PUSH0 DUP3 DUP3 SLOAD PUSH2 0x288 SWAP2 SWAP1 PUSH2 0xE06 JUMP JUMPDEST SWAP3 POP POP DUP2 SWAP1 SSTORE POP CALLER PUSH1 0x5 PUSH0 PUSH1 0x2 SLOAD DUP2 MSTORE PUSH1 0x20 ADD SWAP1 DUP2 MSTORE PUSH1 0x20 ADD PUSH0 KECCAK256 PUSH1 0x1 ADD PUSH0 PUSH2 0x100 EXP DUP2 SLOAD DUP2 PUSH20 0xFFFFFFFFFFFFFFFFFFFFFFFFFFFFFFFFFFFFFFFF MUL NOT AND SWAP1 DUP4 PUSH20 0xFFFFFFFFFFFFFFFFFFFFFFFFFFFFFFFFFFFFFFFF AND MUL OR SWAP1 SSTORE POP PUSH1 0x2 SLOAD PUSH1 0x6 PUSH0 CALLER PUSH20 0xFFFFFFFFFFFFFFFFFFFFFFFFFFFFFFFFFFFFFFFF AND PUSH20 0xFFFFFFFFFFFFFFFFFFFFFFFFFFFFFFFFFFFFFFFF AND DUP2 MSTORE PUSH1 0x20 ADD SWAP1 DUP2 MSTORE PUSH1 0x20 ADD PUSH0 KECCAK256 DUP2 SWAP1 SSTORE POP PUSH1 0x3 PUSH1 0x5 PUSH0 PUSH1 0x2 SLOAD DUP2 MSTORE PUSH1 0x20 ADD SWAP1 DUP2 MSTORE PUSH1 0x20 ADD PUSH0 KECCAK256 PUSH0 ADD DUP2 SWAP1 SSTORE POP PUSH1 0x2 PUSH0 DUP2 SLOAD DUP1 SWAP3 SWAP2 SWAP1 PUSH2 0x354 SWAP1 PUSH2 0xE39 JUMP JUMPDEST SWAP2 SWAP1 POP SSTORE POP JUMP JUMPDEST PUSH0 DUP1 DUP4 EQ DUP1 PUSH2 0x36A JUMPI POP PUSH1 0x1 DUP4 EQ JUMPDEST DUP1 PUSH2 0x375 JUMPI POP PUSH1 0x2 DUP4 EQ JUMPDEST PUSH2 0x3B4 JUMPI PUSH1 0x40 MLOAD PUSH32 0x8C379A000000000000000000000000000000000000000000000000000000000 DUP2 MSTORE PUSH1 0x4 ADD PUSH2 0x3AB SWAP1 PUSH2 0xEDA JUMP JUMPDEST PUSH1 0x40 MLOAD DUP1 SWAP2 SUB SWAP1 REVERT JUMPDEST PUSH2 0x3C2 DUP4 PUSH0 SHL DUP4 PUSH0 SHL PUSH2 0x5F8 JUMP JUMPDEST SWAP1 POP SWAP3 SWAP2 POP POP JUMP JUMPDEST PUSH1 0x6 PUSH1 0x20 MSTORE DUP1 PUSH0 MSTORE PUSH1 0x40 PUSH0 KECCAK256 PUSH0 SWAP2 POP SWAP1 POP SLOAD DUP2 JUMP JUMPDEST PUSH1 0x2 SLOAD DUP2 JUMP JUMPDEST PUSH1 0x5 PUSH1 0x20 MSTORE DUP1 PUSH0 MSTORE PUSH1 0x40 PUSH0 KECCAK256 PUSH0 SWAP2 POP SWAP1 POP DUP1 PUSH0 ADD SLOAD SWAP1 DUP1 PUSH1 0x1 ADD PUSH0 SWAP1 SLOAD SWAP1 PUSH2 0x100 EXP SWAP1 DIV PUSH20 0xFFFFFFFFFFFFFFFFFFFFFFFFFFFFFFFFFFFFFFFF AND SWAP1 POP DUP3 JUMP JUMPDEST PUSH1 0x2 PUSH1 0x7 SLOAD EQ PUSH2 0x432 JUMPI PUSH0 DUP1 REVERT JUMPDEST PUSH0 DUP3 EQ DUP1 PUSH2 0x440 JUMPI POP PUSH1 0x1 DUP3 EQ JUMPDEST DUP1 PUSH2 0x44B JUMPI POP PUSH1 0x2 DUP3 EQ JUMPDEST PUSH2 0x48A JUMPI PUSH1 0x40 MLOAD PUSH32 0x8C379A000000000000000000000000000000000000000000000000000000000 DUP2 MSTORE PUSH1 0x4 ADD PUSH2 0x481 SWAP1 PUSH2 0xEDA JUMP JUMPDEST PUSH1 0x40 MLOAD DUP1 SWAP2 SUB SWAP1 REVERT JUMPDEST PUSH2 0x498 DUP3 PUSH0 SHL DUP3 PUSH0 SHL PUSH2 0x62C JUMP JUMPDEST DUP2 PUSH1 0x5 PUSH0 PUSH1 0x6 PUSH0 CALLER PUSH20 0xFFFFFFFFFFFFFFFFFFFFFFFFFFFFFFFFFFFFFFFF AND PUSH20 0xFFFFFFFFFFFFFFFFFFFFFFFFFFFFFFFFFFFFFFFF AND DUP2 MSTORE PUSH1 0x20 ADD SWAP1 DUP2 MSTORE PUSH1 0x20 ADD PUSH0 KECCAK256 SLOAD DUP2 MSTORE PUSH1 0x20 ADD SWAP1 DUP2 MSTORE PUSH1 0x20 ADD PUSH0 KECCAK256 PUSH0 ADD DUP2 SWAP1 SSTORE POP PUSH1 0x3 PUSH0 DUP2 SLOAD DUP1 SWAP3 SWAP2 SWAP1 PUSH2 0x4FF SWAP1 PUSH2 0xE39 JUMP JUMPDEST SWAP2 SWAP1 POP SSTORE POP PUSH1 0x2 PUSH1 0x3 SLOAD SUB PUSH2 0x517 JUMPI PUSH2 0x516 PUSH2 0x7E0 JUMP JUMPDEST JUMPDEST POP POP JUMP JUMPDEST PUSH1 0x3 SLOAD DUP2 JUMP JUMPDEST PUSH1 0x2 DUP1 SLOAD EQ PUSH2 0x52E JUMPI PUSH0 DUP1 REVERT JUMPDEST PUSH1 0x5 PUSH0 PUSH1 0x6 PUSH0 CALLER PUSH20 0xFFFFFFFFFFFFFFFFFFFFFFFFFFFFFFFFFFFFFFFF AND PUSH20 0xFFFFFFFFFFFFFFFFFFFFFFFFFFFFFFFFFFFFFFFF AND DUP2 MSTORE PUSH1 0x20 ADD SWAP1 DUP2 MSTORE PUSH1 0x20 ADD PUSH0 KECCAK256 SLOAD DUP2 MSTORE PUSH1 0x20 ADD SWAP1 DUP2 MSTORE PUSH1 0x20 ADD PUSH0 KECCAK256 PUSH1 0x1 ADD PUSH0 SWAP1 SLOAD SWAP1 PUSH2 0x100 EXP SWAP1 DIV PUSH20 0xFFFFFFFFFFFFFFFFFFFFFFFFFFFFFFFFFFFFFFFF AND PUSH20 0xFFFFFFFFFFFFFFFFFFFFFFFFFFFFFFFFFFFFFFFF AND CALLER PUSH20 0xFFFFFFFFFFFFFFFFFFFFFFFFFFFFFFFFFFFFFFFF AND EQ PUSH2 0x5D5 JUMPI PUSH0 DUP1 REVERT JUMPDEST PUSH2 0x5DE DUP2 PUSH2 0x9FE JUMP JUMPDEST PUSH1 0x7 PUSH0 DUP2 SLOAD DUP1 SWAP3 SWAP2 SWAP1 PUSH2 0x5F0 SWAP1 PUSH2 0xE39 JUMP JUMPDEST SWAP2 SWAP1 POP SSTORE POP POP JUMP JUMPDEST PUSH0 ADDRESS DUP4 DUP4 PUSH1 0x40 MLOAD PUSH1 0x20 ADD PUSH2 0x60E SWAP4 SWAP3 SWAP2 SWAP1 PUSH2 0xF5D JUMP JUMPDEST PUSH1 0x40 MLOAD PUSH1 0x20 DUP2 DUP4 SUB SUB DUP2 MSTORE SWAP1 PUSH1 0x40 MSTORE DUP1 MLOAD SWAP1 PUSH1 0x20 ADD KECCAK256 SWAP1 POP SWAP3 SWAP2 POP POP JUMP JUMPDEST PUSH0 ISZERO ISZERO PUSH1 0x1 PUSH0 CALLER PUSH20 0xFFFFFFFFFFFFFFFFFFFFFFFFFFFFFFFFFFFFFFFF AND PUSH20 0xFFFFFFFFFFFFFFFFFFFFFFFFFFFFFFFFFFFFFFFF AND DUP2 MSTORE PUSH1 0x20 ADD SWAP1 DUP2 MSTORE PUSH1 0x20 ADD PUSH0 KECCAK256 PUSH1 0x1 ADD PUSH1 0x8 SWAP1 SLOAD SWAP1 PUSH2 0x100 EXP SWAP1 DIV PUSH1 0xFF AND ISZERO ISZERO EQ PUSH2 0x6BF JUMPI PUSH1 0x40 MLOAD PUSH32 0x8C379A000000000000000000000000000000000000000000000000000000000 DUP2 MSTORE PUSH1 0x4 ADD PUSH2 0x6B6 SWAP1 PUSH2 0x1009 JUMP JUMPDEST PUSH1 0x40 MLOAD DUP1 SWAP2 SUB SWAP1 REVERT JUMPDEST PUSH1 0x1 DUP1 PUSH0 CALLER PUSH20 0xFFFFFFFFFFFFFFFFFFFFFFFFFFFFFFFFFFFFFFFF AND PUSH20 0xFFFFFFFFFFFFFFFFFFFFFFFFFFFFFFFFFFFFFFFF AND DUP2 MSTORE PUSH1 0x20 ADD SWAP1 DUP2 MSTORE PUSH1 0x20 ADD PUSH0 KECCAK256 PUSH1 0x1 ADD PUSH1 0x8 PUSH2 0x100 EXP DUP2 SLOAD DUP2 PUSH1 0xFF MUL NOT AND SWAP1 DUP4 ISZERO ISZERO MUL OR SWAP1 SSTORE POP PUSH1 0x1 PUSH0 CALLER PUSH20 0xFFFFFFFFFFFFFFFFFFFFFFFFFFFFFFFFFFFFFFFF AND PUSH20 0xFFFFFFFFFFFFFFFFFFFFFFFFFFFFFFFFFFFFFFFF AND DUP2 MSTORE PUSH1 0x20 ADD SWAP1 DUP2 MSTORE PUSH1 0x20 ADD PUSH0 KECCAK256 PUSH0 ADD SLOAD PUSH2 0x761 DUP4 DUP4 PUSH2 0x5F8 JUMP JUMPDEST EQ PUSH2 0x7A1 JUMPI PUSH1 0x40 MLOAD PUSH32 0x8C379A000000000000000000000000000000000000000000000000000000000 DUP2 MSTORE PUSH1 0x4 ADD PUSH2 0x798 SWAP1 PUSH2 0x1097 JUMP JUMPDEST PUSH1 0x40 MLOAD DUP1 SWAP2 SUB SWAP1 REVERT JUMPDEST PUSH32 0x8BED02C4D61E56ED1D90657E7A0BA48F15CCA20FCC2899D7235221B2CB0423A6 CALLER DUP4 DUP4 PUSH1 0x40 MLOAD PUSH2 0x7D4 SWAP4 SWAP3 SWAP2 SWAP1 PUSH2 0x10B5 JUMP JUMPDEST PUSH1 0x40 MLOAD DUP1 SWAP2 SUB SWAP1 LOG1 POP POP JUMP JUMPDEST PUSH0 PUSH1 0x5 PUSH0 DUP1 DUP2 MSTORE PUSH1 0x20 ADD SWAP1 DUP2 MSTORE PUSH1 0x20 ADD PUSH0 KECCAK256 PUSH0 ADD SLOAD SWAP1 POP PUSH0 PUSH1 0x5 PUSH0 PUSH1 0x1 DUP2 MSTORE PUSH1 0x20 ADD SWAP1 DUP2 MSTORE PUSH1 0x20 ADD PUSH0 KECCAK256 PUSH0 ADD SLOAD SWAP1 POP PUSH0 PUSH1 0x5 PUSH0 DUP1 DUP2 MSTORE PUSH1 0x20 ADD SWAP1 DUP2 MSTORE PUSH1 0x20 ADD PUSH0 KECCAK256 PUSH1 0x1 ADD PUSH0 SWAP1 SLOAD SWAP1 PUSH2 0x100 EXP SWAP1 DIV PUSH20 0xFFFFFFFFFFFFFFFFFFFFFFFFFFFFFFFFFFFFFFFF AND SWAP1 POP PUSH0 PUSH1 0x5 PUSH0 PUSH1 0x1 DUP2 MSTORE PUSH1 0x20 ADD SWAP1 DUP2 MSTORE PUSH1 0x20 ADD PUSH0 KECCAK256 PUSH1 0x1 ADD PUSH0 SWAP1 SLOAD SWAP1 PUSH2 0x100 EXP SWAP1 DIV PUSH20 0xFFFFFFFFFFFFFFFFFFFFFFFFFFFFFFFFFFFFFFFF AND SWAP1 POP DUP3 PUSH1 0x3 PUSH1 0x1 DUP7 PUSH2 0x88E SWAP2 SWAP1 PUSH2 0xE06 JUMP JUMPDEST PUSH2 0x898 SWAP2 SWAP1 PUSH2 0x1117 JUMP JUMPDEST SUB PUSH2 0x8E8 JUMPI DUP1 PUSH20 0xFFFFFFFFFFFFFFFFFFFFFFFFFFFFFFFFFFFFFFFF AND PUSH2 0x8FC PUSH1 0x4 SLOAD SWAP1 DUP2 ISZERO MUL SWAP1 PUSH1 0x40 MLOAD PUSH0 PUSH1 0x40 MLOAD DUP1 DUP4 SUB DUP2 DUP6 DUP9 DUP9 CALL SWAP4 POP POP POP POP ISZERO DUP1 ISZERO PUSH2 0x8E2 JUMPI RETURNDATASIZE PUSH0 DUP1 RETURNDATACOPY RETURNDATASIZE PUSH0 REVERT JUMPDEST POP PUSH2 0x9F8 JUMP JUMPDEST DUP4 PUSH1 0x3 PUSH1 0x1 DUP6 PUSH2 0x8F8 SWAP2 SWAP1 PUSH2 0xE06 JUMP JUMPDEST PUSH2 0x902 SWAP2 SWAP1 PUSH2 0x1117 JUMP JUMPDEST SUB PUSH2 0x952 JUMPI DUP2 PUSH20 0xFFFFFFFFFFFFFFFFFFFFFFFFFFFFFFFFFFFFFFFF AND PUSH2 0x8FC PUSH1 0x4 SLOAD SWAP1 DUP2 ISZERO MUL SWAP1 PUSH1 0x40 MLOAD PUSH0 PUSH1 0x40 MLOAD DUP1 DUP4 SUB DUP2 DUP6 DUP9 DUP9 CALL SWAP4 POP POP POP POP ISZERO DUP1 ISZERO PUSH2 0x94C JUMPI RETURNDATASIZE PUSH0 DUP1 RETURNDATACOPY RETURNDATASIZE PUSH0 REVERT JUMPDEST POP PUSH2 0x9F7 JUMP JUMPDEST DUP2 PUSH20 0xFFFFFFFFFFFFFFFFFFFFFFFFFFFFFFFFFFFFFFFF AND PUSH2 0x8FC PUSH1 0x2 PUSH1 0x4 SLOAD PUSH2 0x97B SWAP2 SWAP1 PUSH2 0x1147 JUMP JUMPDEST SWAP1 DUP2 ISZERO MUL SWAP1 PUSH1 0x40 MLOAD PUSH0 PUSH1 0x40 MLOAD DUP1 DUP4 SUB DUP2 DUP6 DUP9 DUP9 CALL SWAP4 POP POP POP POP ISZERO DUP1 ISZERO PUSH2 0x9A3 JUMPI RETURNDATASIZE PUSH0 DUP1 RETURNDATACOPY RETURNDATASIZE PUSH0 REVERT JUMPDEST POP DUP1 PUSH20 0xFFFFFFFFFFFFFFFFFFFFFFFFFFFFFFFFFFFFFFFF AND PUSH2 0x8FC PUSH1 0x2 PUSH1 0x4 SLOAD PUSH2 0x9CD SWAP2 SWAP1 PUSH2 0x1147 JUMP JUMPDEST SWAP1 DUP2 ISZERO MUL SWAP1 PUSH1 0x40 MLOAD PUSH0 PUSH1 0x40 MLOAD DUP1 DUP4 SUB DUP2 DUP6 DUP9 DUP9 CALL SWAP4 POP POP POP POP ISZERO DUP1 ISZERO PUSH2 0x9F5 JUMPI RETURNDATASIZE PUSH0 DUP1 RETURNDATACOPY RETURNDATASIZE PUSH0 REVERT JUMPDEST POP JUMPDEST JUMPDEST POP POP POP POP JUMP JUMPDEST DUP1 PUSH1 0x1 PUSH0 CALLER PUSH20 0xFFFFFFFFFFFFFFFFFFFFFFFFFFFFFFFFFFFFFFFF AND PUSH20 0xFFFFFFFFFFFFFFFFFFFFFFFFFFFFFFFFFFFFFFFF AND DUP2 MSTORE PUSH1 0x20 ADD SWAP1 DUP2 MSTORE PUSH1 0x20 ADD PUSH0 KECCAK256 PUSH0 ADD DUP2 SWAP1 SSTORE POP NUMBER PUSH1 0x1 PUSH0 CALLER PUSH20 0xFFFFFFFFFFFFFFFFFFFFFFFFFFFFFFFFFFFFFFFF AND PUSH20 0xFFFFFFFFFFFFFFFFFFFFFFFFFFFFFFFFFFFFFFFF AND DUP2 MSTORE PUSH1 0x20 ADD SWAP1 DUP2 MSTORE PUSH1 0x20 ADD PUSH0 KECCAK256 PUSH1 0x1 ADD PUSH0 PUSH2 0x100 EXP DUP2 SLOAD DUP2 PUSH8 0xFFFFFFFFFFFFFFFF MUL NOT AND SWAP1 DUP4 PUSH8 0xFFFFFFFFFFFFFFFF AND MUL OR SWAP1 SSTORE POP PUSH0 PUSH1 0x1 PUSH0 CALLER PUSH20 0xFFFFFFFFFFFFFFFFFFFFFFFFFFFFFFFFFFFFFFFF AND PUSH20 0xFFFFFFFFFFFFFFFFFFFFFFFFFFFFFFFFFFFFFFFF AND DUP2 MSTORE PUSH1 0x20 ADD SWAP1 DUP2 MSTORE PUSH1 0x20 ADD PUSH0 KECCAK256 PUSH1 0x1 ADD PUSH1 0x8 PUSH2 0x100 EXP DUP2 SLOAD DUP2 PUSH1 0xFF MUL NOT AND SWAP1 DUP4 ISZERO ISZERO MUL OR SWAP1 SSTORE POP PUSH32 0x3C1A1F8F38335B17F751C6DA4BA7D1865F26B3997535176F5080DE9FAD891603 CALLER PUSH1 0x1 PUSH0 CALLER PUSH20 0xFFFFFFFFFFFFFFFFFFFFFFFFFFFFFFFFFFFFFFFF AND PUSH20 0xFFFFFFFFFFFFFFFFFFFFFFFFFFFFFFFFFFFFFFFF AND DUP2 MSTORE PUSH1 0x20 ADD SWAP1 DUP2 MSTORE PUSH1 0x20 ADD PUSH0 KECCAK256 PUSH0 ADD SLOAD PUSH1 0x1 PUSH0 CALLER PUSH20 0xFFFFFFFFFFFFFFFFFFFFFFFFFFFFFFFFFFFFFFFF AND PUSH20 0xFFFFFFFFFFFFFFFFFFFFFFFFFFFFFFFFFFFFFFFF AND DUP2 MSTORE PUSH1 0x20 ADD SWAP1 DUP2 MSTORE PUSH1 0x20 ADD PUSH0 KECCAK256 PUSH1 0x1 ADD PUSH0 SWAP1 SLOAD SWAP1 PUSH2 0x100 EXP SWAP1 DIV PUSH8 0xFFFFFFFFFFFFFFFF AND PUSH1 0x40 MLOAD PUSH2 0xBC5 SWAP4 SWAP3 SWAP2 SWAP1 PUSH2 0x1199 JUMP JUMPDEST PUSH1 0x40 MLOAD DUP1 SWAP2 SUB SWAP1 LOG1 POP JUMP JUMPDEST PUSH0 DUP2 SWAP1 POP SWAP2 SWAP1 POP JUMP JUMPDEST PUSH2 0xBE2 DUP2 PUSH2 0xBD0 JUMP JUMPDEST DUP3 MSTORE POP POP JUMP JUMPDEST PUSH0 PUSH1 0x20 DUP3 ADD SWAP1 POP PUSH2 0xBFB PUSH0 DUP4 ADD DUP5 PUSH2 0xBD9 JUMP JUMPDEST SWAP3 SWAP2 POP POP JUMP JUMPDEST PUSH0 DUP1 REVERT JUMPDEST PUSH2 0xC0E DUP2 PUSH2 0xBD0 JUMP JUMPDEST DUP2 EQ PUSH2 0xC18 JUMPI PUSH0 DUP1 REVERT JUMPDEST POP JUMP JUMPDEST PUSH0 DUP2 CALLDATALOAD SWAP1 POP PUSH2 0xC29 DUP2 PUSH2 0xC05 JUMP JUMPDEST SWAP3 SWAP2 POP POP JUMP JUMPDEST PUSH0 DUP1 PUSH1 0x40 DUP4 DUP6 SUB SLT ISZERO PUSH2 0xC45 JUMPI PUSH2 0xC44 PUSH2 0xC01 JUMP JUMPDEST JUMPDEST PUSH0 PUSH2 0xC52 DUP6 DUP3 DUP7 ADD PUSH2 0xC1B JUMP JUMPDEST SWAP3 POP POP PUSH1 0x20 PUSH2 0xC63 DUP6 DUP3 DUP7 ADD PUSH2 0xC1B JUMP JUMPDEST SWAP2 POP POP SWAP3 POP SWAP3 SWAP1 POP JUMP JUMPDEST PUSH0 DUP2 SWAP1 POP SWAP2 SWAP1 POP JUMP JUMPDEST PUSH2 0xC7F DUP2 PUSH2 0xC6D JUMP JUMPDEST DUP3 MSTORE POP POP JUMP JUMPDEST PUSH0 PUSH1 0x20 DUP3 ADD SWAP1 POP PUSH2 0xC98 PUSH0 DUP4 ADD DUP5 PUSH2 0xC76 JUMP JUMPDEST SWAP3 SWAP2 POP POP JUMP JUMPDEST PUSH0 PUSH20 0xFFFFFFFFFFFFFFFFFFFFFFFFFFFFFFFFFFFFFFFF DUP3 AND SWAP1 POP SWAP2 SWAP1 POP JUMP JUMPDEST PUSH0 PUSH2 0xCC7 DUP3 PUSH2 0xC9E JUMP JUMPDEST SWAP1 POP SWAP2 SWAP1 POP JUMP JUMPDEST PUSH2 0xCD7 DUP2 PUSH2 0xCBD JUMP JUMPDEST DUP2 EQ PUSH2 0xCE1 JUMPI PUSH0 DUP1 REVERT JUMPDEST POP JUMP JUMPDEST PUSH0 DUP2 CALLDATALOAD SWAP1 POP PUSH2 0xCF2 DUP2 PUSH2 0xCCE JUMP JUMPDEST SWAP3 SWAP2 POP POP JUMP JUMPDEST PUSH0 PUSH1 0x20 DUP3 DUP5 SUB SLT ISZERO PUSH2 0xD0D JUMPI PUSH2 0xD0C PUSH2 0xC01 JUMP JUMPDEST JUMPDEST PUSH0 PUSH2 0xD1A DUP5 DUP3 DUP6 ADD PUSH2 0xCE4 JUMP JUMPDEST SWAP2 POP POP SWAP3 SWAP2 POP POP JUMP JUMPDEST PUSH0 PUSH1 0x20 DUP3 DUP5 SUB SLT ISZERO PUSH2 0xD38 JUMPI PUSH2 0xD37 PUSH2 0xC01 JUMP JUMPDEST JUMPDEST PUSH0 PUSH2 0xD45 DUP5 DUP3 DUP6 ADD PUSH2 0xC1B JUMP JUMPDEST SWAP2 POP POP SWAP3 SWAP2 POP POP JUMP JUMPDEST PUSH2 0xD57 DUP2 PUSH2 0xCBD JUMP JUMPDEST DUP3 MSTORE POP POP JUMP JUMPDEST PUSH0 PUSH1 0x40 DUP3 ADD SWAP1 POP PUSH2 0xD70 PUSH0 DUP4 ADD DUP6 PUSH2 0xBD9 JUMP JUMPDEST PUSH2 0xD7D PUSH1 0x20 DUP4 ADD DUP5 PUSH2 0xD4E JUMP JUMPDEST SWAP4 SWAP3 POP POP POP JUMP JUMPDEST PUSH2 0xD8D DUP2 PUSH2 0xC6D JUMP JUMPDEST DUP2 EQ PUSH2 0xD97 JUMPI PUSH0 DUP1 REVERT JUMPDEST POP JUMP JUMPDEST PUSH0 DUP2 CALLDATALOAD SWAP1 POP PUSH2 0xDA8 DUP2 PUSH2 0xD84 JUMP JUMPDEST SWAP3 SWAP2 POP POP JUMP JUMPDEST PUSH0 PUSH1 0x20 DUP3 DUP5 SUB SLT ISZERO PUSH2 0xDC3 JUMPI PUSH2 0xDC2 PUSH2 0xC01 JUMP JUMPDEST JUMPDEST PUSH0 PUSH2 0xDD0 DUP5 DUP3 DUP6 ADD PUSH2 0xD9A JUMP JUMPDEST SWAP2 POP POP SWAP3 SWAP2 POP POP JUMP JUMPDEST PUSH32 0x4E487B7100000000000000000000000000000000000000000000000000000000 PUSH0 MSTORE PUSH1 0x11 PUSH1 0x4 MSTORE PUSH1 0x24 PUSH0 REVERT JUMPDEST PUSH0 PUSH2 0xE10 DUP3 PUSH2 0xBD0 JUMP JUMPDEST SWAP2 POP PUSH2 0xE1B DUP4 PUSH2 0xBD0 JUMP JUMPDEST SWAP3 POP DUP3 DUP3 ADD SWAP1 POP DUP1 DUP3 GT ISZERO PUSH2 0xE33 JUMPI PUSH2 0xE32 PUSH2 0xDD9 JUMP JUMPDEST JUMPDEST SWAP3 SWAP2 POP POP JUMP JUMPDEST PUSH0 PUSH2 0xE43 DUP3 PUSH2 0xBD0 JUMP JUMPDEST SWAP2 POP PUSH32 0xFFFFFFFFFFFFFFFFFFFFFFFFFFFFFFFFFFFFFFFFFFFFFFFFFFFFFFFFFFFFFFFF DUP3 SUB PUSH2 0xE75 JUMPI PUSH2 0xE74 PUSH2 0xDD9 JUMP JUMPDEST JUMPDEST PUSH1 0x1 DUP3 ADD SWAP1 POP SWAP2 SWAP1 POP JUMP JUMPDEST PUSH0 DUP3 DUP3 MSTORE PUSH1 0x20 DUP3 ADD SWAP1 POP SWAP3 SWAP2 POP POP JUMP JUMPDEST PUSH32 0x696E76616C69642063686F696365000000000000000000000000000000000000 PUSH0 DUP3 ADD MSTORE POP JUMP JUMPDEST PUSH0 PUSH2 0xEC4 PUSH1 0xE DUP4 PUSH2 0xE80 JUMP JUMPDEST SWAP2 POP PUSH2 0xECF DUP3 PUSH2 0xE90 JUMP JUMPDEST PUSH1 0x20 DUP3 ADD SWAP1 POP SWAP2 SWAP1 POP JUMP JUMPDEST PUSH0 PUSH1 0x20 DUP3 ADD SWAP1 POP DUP2 DUP2 SUB PUSH0 DUP4 ADD MSTORE PUSH2 0xEF1 DUP2 PUSH2 0xEB8 JUMP JUMPDEST SWAP1 POP SWAP2 SWAP1 POP JUMP JUMPDEST PUSH0 DUP2 PUSH1 0x60 SHL SWAP1 POP SWAP2 SWAP1 POP JUMP JUMPDEST PUSH0 PUSH2 0xF0E DUP3 PUSH2 0xEF8 JUMP JUMPDEST SWAP1 POP SWAP2 SWAP1 POP JUMP JUMPDEST PUSH0 PUSH2 0xF1F DUP3 PUSH2 0xF04 JUMP JUMPDEST SWAP1 POP SWAP2 SWAP1 POP JUMP JUMPDEST PUSH2 0xF37 PUSH2 0xF32 DUP3 PUSH2 0xCBD JUMP JUMPDEST PUSH2 0xF15 JUMP JUMPDEST DUP3 MSTORE POP POP JUMP JUMPDEST PUSH0 DUP2 SWAP1 POP SWAP2 SWAP1 POP JUMP JUMPDEST PUSH2 0xF57 PUSH2 0xF52 DUP3 PUSH2 0xC6D JUMP JUMPDEST PUSH2 0xF3D JUMP JUMPDEST DUP3 MSTORE POP POP JUMP JUMPDEST PUSH0 PUSH2 0xF68 DUP3 DUP7 PUSH2 0xF26 JUMP JUMPDEST PUSH1 0x14 DUP3 ADD SWAP2 POP PUSH2 0xF78 DUP3 DUP6 PUSH2 0xF46 JUMP JUMPDEST PUSH1 0x20 DUP3 ADD SWAP2 POP PUSH2 0xF88 DUP3 DUP5 PUSH2 0xF46 JUMP JUMPDEST PUSH1 0x20 DUP3 ADD SWAP2 POP DUP2 SWAP1 POP SWAP5 SWAP4 POP POP POP POP JUMP JUMPDEST PUSH32 0x436F6D6D697452657665616C3A3A72657665616C416E737765723A20416C7265 PUSH0 DUP3 ADD MSTORE PUSH32 0x6164792072657665616C65640000000000000000000000000000000000000000 PUSH1 0x20 DUP3 ADD MSTORE POP JUMP JUMPDEST PUSH0 PUSH2 0xFF3 PUSH1 0x2C DUP4 PUSH2 0xE80 JUMP JUMPDEST SWAP2 POP PUSH2 0xFFE DUP3 PUSH2 0xF99 JUMP JUMPDEST PUSH1 0x40 DUP3 ADD SWAP1 POP SWAP2 SWAP1 POP JUMP JUMPDEST PUSH0 PUSH1 0x20 DUP3 ADD SWAP1 POP DUP2 DUP2 SUB PUSH0 DUP4 ADD MSTORE PUSH2 0x1020 DUP2 PUSH2 0xFE7 JUMP JUMPDEST SWAP1 POP SWAP2 SWAP1 POP JUMP JUMPDEST PUSH32 0x436F6D6D697452657665616C3A3A72657665616C416E737765723A2052657665 PUSH0 DUP3 ADD MSTORE PUSH32 0x616C6564206861736820646F6573206E6F74206D6174636820636F6D6D697400 PUSH1 0x20 DUP3 ADD MSTORE POP JUMP JUMPDEST PUSH0 PUSH2 0x1081 PUSH1 0x3F DUP4 PUSH2 0xE80 JUMP JUMPDEST SWAP2 POP PUSH2 0x108C DUP3 PUSH2 0x1027 JUMP JUMPDEST PUSH1 0x40 DUP3 ADD SWAP1 POP SWAP2 SWAP1 POP JUMP JUMPDEST PUSH0 PUSH1 0x20 DUP3 ADD SWAP1 POP DUP2 DUP2 SUB PUSH0 DUP4 ADD MSTORE PUSH2 0x10AE DUP2 PUSH2 0x1075 JUMP JUMPDEST SWAP1 POP SWAP2 SWAP1 POP JUMP JUMPDEST PUSH0 PUSH1 0x60 DUP3 ADD SWAP1 POP PUSH2 0x10C8 PUSH0 DUP4 ADD DUP7 PUSH2 0xD4E JUMP JUMPDEST PUSH2 0x10D5 PUSH1 0x20 DUP4 ADD DUP6 PUSH2 0xC76 JUMP JUMPDEST PUSH2 0x10E2 PUSH1 0x40 DUP4 ADD DUP5 PUSH2 0xC76 JUMP JUMPDEST SWAP5 SWAP4 POP POP POP POP JUMP JUMPDEST PUSH32 0x4E487B7100000000000000000000000000000000000000000000000000000000 PUSH0 MSTORE PUSH1 0x12 PUSH1 0x4 MSTORE PUSH1 0x24 PUSH0 REVERT JUMPDEST PUSH0 PUSH2 0x1121 DUP3 PUSH2 0xBD0 JUMP JUMPDEST SWAP2 POP PUSH2 0x112C DUP4 PUSH2 0xBD0 JUMP JUMPDEST SWAP3 POP DUP3 PUSH2 0x113C JUMPI PUSH2 0x113B PUSH2 0x10EA JUMP JUMPDEST JUMPDEST DUP3 DUP3 MOD SWAP1 POP SWAP3 SWAP2 POP POP JUMP JUMPDEST PUSH0 PUSH2 0x1151 DUP3 PUSH2 0xBD0 JUMP JUMPDEST SWAP2 POP PUSH2 0x115C DUP4 PUSH2 0xBD0 JUMP JUMPDEST SWAP3 POP DUP3 PUSH2 0x116C JUMPI PUSH2 0x116B PUSH2 0x10EA JUMP JUMPDEST JUMPDEST DUP3 DUP3 DIV SWAP1 POP SWAP3 SWAP2 POP POP JUMP JUMPDEST PUSH0 PUSH8 0xFFFFFFFFFFFFFFFF DUP3 AND SWAP1 POP SWAP2 SWAP1 POP JUMP JUMPDEST PUSH2 0x1193 DUP2 PUSH2 0x1177 JUMP JUMPDEST DUP3 MSTORE POP POP JUMP JUMPDEST PUSH0 PUSH1 0x60 DUP3 ADD SWAP1 POP PUSH2 0x11AC PUSH0 DUP4 ADD DUP7 PUSH2 0xD4E JUMP JUMPDEST PUSH2 0x11B9 PUSH1 0x20 DUP4 ADD DUP6 PUSH2 0xC76 JUMP JUMPDEST PUSH2 0x11C6 PUSH1 0x40 DUP4 ADD DUP5 PUSH2 0x118A JUMP JUMPDEST SWAP5 SWAP4 POP POP POP POP JUMP INVALID LOG2 PUSH5 0x6970667358 0x22 SLT KECCAK256 OR 0xE GAS SHL GT 0x4B 0xEC 0xE5 0xC0 SWAP8 SSTORE SLT PUSH15 0x6A5A8937A3D26A0808D717B32D8DF3 0xD PUSH16 0xB53A64736F6C63430008180033000000 "
		},
		"gasEstimates": {
			"creation": {
				"codeDepositCost": "922400",
				"executionCost": "45246",
				"totalCost": "967646"
			},
			"external": {
				"addPlayer()": "infinite",
				"choiceHash(uint256,uint256)": "infinite",
				"input(bytes32)": "infinite",
				"numInput()": "2426",
				"numPlayer()": "2425",
				"numReveal()": "2491",
				"player(uint256)": "infinite",
				"playerIndex(address)": "2891",
				"revealsChoice(uint256,uint256)": "infinite",
				"reward()": "2448"
			},
			"internal": {
				"_checkWinnerAndPay()": "infinite"
			}
		},
		"methodIdentifiers": {
			"addPlayer()": "27b5db8a",
			"choiceHash(uint256,uint256)": "7563973a",
			"input(bytes32)": "d891f969",
			"numInput()": "086f7815",
			"numPlayer()": "90d5d0c3",
			"numReveal()": "c876e615",
			"player(uint256)": "9e0551c6",
			"playerIndex(address)": "885c7d36",
			"revealsChoice(uint256,uint256)": "b577e0bb",
			"reward()": "228cb733"
		}
	},
	"abi": [
		{
			"anonymous": false,
			"inputs": [
				{
					"indexed": false,
					"internalType": "address",
					"name": "sender",
					"type": "address"
				},
				{
					"indexed": false,
					"internalType": "bytes32",
					"name": "dataHash",
					"type": "bytes32"
				},
				{
					"indexed": false,
					"internalType": "uint64",
					"name": "block",
					"type": "uint64"
				}
			],
			"name": "CommitHash",
			"type": "event"
		},
		{
			"anonymous": false,
			"inputs": [
				{
					"indexed": false,
					"internalType": "address",
					"name": "sender",
					"type": "address"
				},
				{
					"indexed": false,
					"internalType": "bytes32",
					"name": "answer",
					"type": "bytes32"
				},
				{
					"indexed": false,
					"internalType": "bytes32",
					"name": "salt",
					"type": "bytes32"
				}
			],
			"name": "RevealAnswer",
			"type": "event"
		},
		{
			"anonymous": false,
			"inputs": [
				{
					"indexed": false,
					"internalType": "address",
					"name": "sender",
					"type": "address"
				},
				{
					"indexed": false,
					"internalType": "bytes32",
					"name": "revealHash",
					"type": "bytes32"
				},
				{
					"indexed": false,
					"internalType": "uint256",
					"name": "random",
					"type": "uint256"
				}
			],
			"name": "RevealHash",
			"type": "event"
		},
		{
			"inputs": [],
			"name": "addPlayer",
			"outputs": [],
			"stateMutability": "payable",
			"type": "function"
		},
		{
			"inputs": [
				{
					"internalType": "uint256",
					"name": "choice",
					"type": "uint256"
				},
				{
					"internalType": "uint256",
					"name": "password",
					"type": "uint256"
				}
			],
			"name": "choiceHash",
			"outputs": [
				{
					"internalType": "bytes32",
					"name": "",
					"type": "bytes32"
				}
			],
			"stateMutability": "view",
			"type": "function"
		},
		{
			"inputs": [
				{
					"internalType": "bytes32",
					"name": "hashedChoice",
					"type": "bytes32"
				}
			],
			"name": "input",
			"outputs": [],
			"stateMutability": "nonpayable",
			"type": "function"
		},
		{
			"inputs": [],
			"name": "numInput",
			"outputs": [
				{
					"internalType": "uint256",
					"name": "",
					"type": "uint256"
				}
			],
			"stateMutability": "view",
			"type": "function"
		},
		{
			"inputs": [],
			"name": "numPlayer",
			"outputs": [
				{
					"internalType": "uint256",
					"name": "",
					"type": "uint256"
				}
			],
			"stateMutability": "view",
			"type": "function"
		},
		{
			"inputs": [],
			"name": "numReveal",
			"outputs": [
				{
					"internalType": "uint256",
					"name": "",
					"type": "uint256"
				}
			],
			"stateMutability": "view",
			"type": "function"
		},
		{
			"inputs": [
				{
					"internalType": "uint256",
					"name": "",
					"type": "uint256"
				}
			],
			"name": "player",
			"outputs": [
				{
					"internalType": "uint256",
					"name": "choice",
					"type": "uint256"
				},
				{
					"internalType": "address",
					"name": "addr",
					"type": "address"
				}
			],
			"stateMutability": "view",
			"type": "function"
		},
		{
			"inputs": [
				{
					"internalType": "address",
					"name": "",
					"type": "address"
				}
			],
			"name": "playerIndex",
			"outputs": [
				{
					"internalType": "uint256",
					"name": "",
					"type": "uint256"
				}
			],
			"stateMutability": "view",
			"type": "function"
		},
		{
			"inputs": [
				{
					"internalType": "uint256",
					"name": "choice",
					"type": "uint256"
				},
				{
					"internalType": "uint256",
					"name": "password",
					"type": "uint256"
				}
			],
			"name": "revealsChoice",
			"outputs": [],
			"stateMutability": "nonpayable",
			"type": "function"
		},
		{
			"inputs": [],
			"name": "reward",
			"outputs": [
				{
					"internalType": "uint256",
					"name": "",
					"type": "uint256"
				}
			],
			"stateMutability": "view",
			"type": "function"
		}
	]
}